{
	"contracts/DimSumVault.sol": {
		"DimSumVault": {
			"abi": [
				{
					"inputs": [
						{
							"internalType": "contract IERC20",
							"name": "_asset",
							"type": "address"
						}
					],
					"stateMutability": "nonpayable",
					"type": "constructor"
				},
				{
					"inputs": [
						{
							"internalType": "address",
							"name": "target",
							"type": "address"
						}
					],
					"name": "AddressEmptyCode",
					"type": "error"
				},
				{
					"inputs": [
						{
							"internalType": "address",
							"name": "account",
							"type": "address"
						}
					],
					"name": "AddressInsufficientBalance",
					"type": "error"
				},
				{
					"inputs": [
						{
							"internalType": "address",
							"name": "spender",
							"type": "address"
						},
						{
							"internalType": "uint256",
							"name": "allowance",
							"type": "uint256"
						},
						{
							"internalType": "uint256",
							"name": "needed",
							"type": "uint256"
						}
					],
					"name": "ERC20InsufficientAllowance",
					"type": "error"
				},
				{
					"inputs": [
						{
							"internalType": "address",
							"name": "sender",
							"type": "address"
						},
						{
							"internalType": "uint256",
							"name": "balance",
							"type": "uint256"
						},
						{
							"internalType": "uint256",
							"name": "needed",
							"type": "uint256"
						}
					],
					"name": "ERC20InsufficientBalance",
					"type": "error"
				},
				{
					"inputs": [
						{
							"internalType": "address",
							"name": "approver",
							"type": "address"
						}
					],
					"name": "ERC20InvalidApprover",
					"type": "error"
				},
				{
					"inputs": [
						{
							"internalType": "address",
							"name": "receiver",
							"type": "address"
						}
					],
					"name": "ERC20InvalidReceiver",
					"type": "error"
				},
				{
					"inputs": [
						{
							"internalType": "address",
							"name": "sender",
							"type": "address"
						}
					],
					"name": "ERC20InvalidSender",
					"type": "error"
				},
				{
					"inputs": [
						{
							"internalType": "address",
							"name": "spender",
							"type": "address"
						}
					],
					"name": "ERC20InvalidSpender",
					"type": "error"
				},
				{
					"inputs": [
						{
							"internalType": "address",
							"name": "receiver",
							"type": "address"
						},
						{
							"internalType": "uint256",
							"name": "assets",
							"type": "uint256"
						},
						{
							"internalType": "uint256",
							"name": "max",
							"type": "uint256"
						}
					],
					"name": "ERC4626ExceededMaxDeposit",
					"type": "error"
				},
				{
					"inputs": [
						{
							"internalType": "address",
							"name": "receiver",
							"type": "address"
						},
						{
							"internalType": "uint256",
							"name": "shares",
							"type": "uint256"
						},
						{
							"internalType": "uint256",
							"name": "max",
							"type": "uint256"
						}
					],
					"name": "ERC4626ExceededMaxMint",
					"type": "error"
				},
				{
					"inputs": [
						{
							"internalType": "address",
							"name": "owner",
							"type": "address"
						},
						{
							"internalType": "uint256",
							"name": "shares",
							"type": "uint256"
						},
						{
							"internalType": "uint256",
							"name": "max",
							"type": "uint256"
						}
					],
					"name": "ERC4626ExceededMaxRedeem",
					"type": "error"
				},
				{
					"inputs": [
						{
							"internalType": "address",
							"name": "owner",
							"type": "address"
						},
						{
							"internalType": "uint256",
							"name": "assets",
							"type": "uint256"
						},
						{
							"internalType": "uint256",
							"name": "max",
							"type": "uint256"
						}
					],
					"name": "ERC4626ExceededMaxWithdraw",
					"type": "error"
				},
				{
					"inputs": [],
					"name": "FailedInnerCall",
					"type": "error"
				},
				{
					"inputs": [],
					"name": "MathOverflowedMulDiv",
					"type": "error"
				},
				{
					"inputs": [
						{
							"internalType": "address",
							"name": "token",
							"type": "address"
						}
					],
					"name": "SafeERC20FailedOperation",
					"type": "error"
				},
				{
					"anonymous": false,
					"inputs": [
						{
							"indexed": true,
							"internalType": "address",
							"name": "owner",
							"type": "address"
						},
						{
							"indexed": true,
							"internalType": "address",
							"name": "spender",
							"type": "address"
						},
						{
							"indexed": false,
							"internalType": "uint256",
							"name": "value",
							"type": "uint256"
						}
					],
					"name": "Approval",
					"type": "event"
				},
				{
					"anonymous": false,
					"inputs": [
						{
							"indexed": true,
							"internalType": "address",
							"name": "sender",
							"type": "address"
						},
						{
							"indexed": true,
							"internalType": "address",
							"name": "owner",
							"type": "address"
						},
						{
							"indexed": false,
							"internalType": "uint256",
							"name": "assets",
							"type": "uint256"
						},
						{
							"indexed": false,
							"internalType": "uint256",
							"name": "shares",
							"type": "uint256"
						}
					],
					"name": "Deposit",
					"type": "event"
				},
				{
					"anonymous": false,
					"inputs": [
						{
							"indexed": true,
							"internalType": "address",
							"name": "from",
							"type": "address"
						},
						{
							"indexed": true,
							"internalType": "address",
							"name": "to",
							"type": "address"
						},
						{
							"indexed": false,
							"internalType": "uint256",
							"name": "value",
							"type": "uint256"
						}
					],
					"name": "Transfer",
					"type": "event"
				},
				{
					"anonymous": false,
					"inputs": [
						{
							"indexed": true,
							"internalType": "address",
							"name": "sender",
							"type": "address"
						},
						{
							"indexed": true,
							"internalType": "address",
							"name": "receiver",
							"type": "address"
						},
						{
							"indexed": true,
							"internalType": "address",
							"name": "owner",
							"type": "address"
						},
						{
							"indexed": false,
							"internalType": "uint256",
							"name": "assets",
							"type": "uint256"
						},
						{
							"indexed": false,
							"internalType": "uint256",
							"name": "shares",
							"type": "uint256"
						}
					],
					"name": "Withdraw",
					"type": "event"
				},
				{
					"inputs": [
						{
							"internalType": "address",
							"name": "owner",
							"type": "address"
						},
						{
							"internalType": "address",
							"name": "spender",
							"type": "address"
						}
					],
					"name": "allowance",
					"outputs": [
						{
							"internalType": "uint256",
							"name": "",
							"type": "uint256"
						}
					],
					"stateMutability": "view",
					"type": "function"
				},
				{
					"inputs": [
						{
							"internalType": "address",
							"name": "spender",
							"type": "address"
						},
						{
							"internalType": "uint256",
							"name": "value",
							"type": "uint256"
						}
					],
					"name": "approve",
					"outputs": [
						{
							"internalType": "bool",
							"name": "",
							"type": "bool"
						}
					],
					"stateMutability": "nonpayable",
					"type": "function"
				},
				{
					"inputs": [],
					"name": "asset",
					"outputs": [
						{
							"internalType": "address",
							"name": "",
							"type": "address"
						}
					],
					"stateMutability": "view",
					"type": "function"
				},
				{
					"inputs": [
						{
							"internalType": "address",
							"name": "account",
							"type": "address"
						}
					],
					"name": "balanceOf",
					"outputs": [
						{
							"internalType": "uint256",
							"name": "",
							"type": "uint256"
						}
					],
					"stateMutability": "view",
					"type": "function"
				},
				{
					"inputs": [
						{
							"internalType": "uint256",
							"name": "shares",
							"type": "uint256"
						}
					],
					"name": "convertToAssets",
					"outputs": [
						{
							"internalType": "uint256",
							"name": "",
							"type": "uint256"
						}
					],
					"stateMutability": "view",
					"type": "function"
				},
				{
					"inputs": [
						{
							"internalType": "uint256",
							"name": "assets",
							"type": "uint256"
						}
					],
					"name": "convertToShares",
					"outputs": [
						{
							"internalType": "uint256",
							"name": "",
							"type": "uint256"
						}
					],
					"stateMutability": "view",
					"type": "function"
				},
				{
					"inputs": [],
					"name": "decimals",
					"outputs": [
						{
							"internalType": "uint8",
							"name": "",
							"type": "uint8"
						}
					],
					"stateMutability": "view",
					"type": "function"
				},
				{
					"inputs": [
						{
							"internalType": "uint256",
							"name": "assets",
							"type": "uint256"
						},
						{
							"internalType": "address",
							"name": "receiver",
							"type": "address"
						}
					],
					"name": "deposit",
					"outputs": [
						{
							"internalType": "uint256",
							"name": "",
							"type": "uint256"
						}
					],
					"stateMutability": "nonpayable",
					"type": "function"
				},
				{
					"inputs": [
						{
							"internalType": "address",
							"name": "",
							"type": "address"
						}
					],
					"name": "maxDeposit",
					"outputs": [
						{
							"internalType": "uint256",
							"name": "",
							"type": "uint256"
						}
					],
					"stateMutability": "view",
					"type": "function"
				},
				{
					"inputs": [
						{
							"internalType": "address",
							"name": "",
							"type": "address"
						}
					],
					"name": "maxMint",
					"outputs": [
						{
							"internalType": "uint256",
							"name": "",
							"type": "uint256"
						}
					],
					"stateMutability": "view",
					"type": "function"
				},
				{
					"inputs": [
						{
							"internalType": "address",
							"name": "owner",
							"type": "address"
						}
					],
					"name": "maxRedeem",
					"outputs": [
						{
							"internalType": "uint256",
							"name": "",
							"type": "uint256"
						}
					],
					"stateMutability": "view",
					"type": "function"
				},
				{
					"inputs": [
						{
							"internalType": "address",
							"name": "owner",
							"type": "address"
						}
					],
					"name": "maxWithdraw",
					"outputs": [
						{
							"internalType": "uint256",
							"name": "",
							"type": "uint256"
						}
					],
					"stateMutability": "view",
					"type": "function"
				},
				{
					"inputs": [
						{
							"internalType": "uint256",
							"name": "shares",
							"type": "uint256"
						},
						{
							"internalType": "address",
							"name": "receiver",
							"type": "address"
						}
					],
					"name": "mint",
					"outputs": [
						{
							"internalType": "uint256",
							"name": "",
							"type": "uint256"
						}
					],
					"stateMutability": "nonpayable",
					"type": "function"
				},
				{
					"inputs": [],
					"name": "name",
					"outputs": [
						{
							"internalType": "string",
							"name": "",
							"type": "string"
						}
					],
					"stateMutability": "view",
					"type": "function"
				},
				{
					"inputs": [
						{
							"internalType": "uint256",
							"name": "assets",
							"type": "uint256"
						}
					],
					"name": "previewDeposit",
					"outputs": [
						{
							"internalType": "uint256",
							"name": "",
							"type": "uint256"
						}
					],
					"stateMutability": "view",
					"type": "function"
				},
				{
					"inputs": [
						{
							"internalType": "uint256",
							"name": "shares",
							"type": "uint256"
						}
					],
					"name": "previewMint",
					"outputs": [
						{
							"internalType": "uint256",
							"name": "",
							"type": "uint256"
						}
					],
					"stateMutability": "view",
					"type": "function"
				},
				{
					"inputs": [
						{
							"internalType": "uint256",
							"name": "shares",
							"type": "uint256"
						}
					],
					"name": "previewRedeem",
					"outputs": [
						{
							"internalType": "uint256",
							"name": "",
							"type": "uint256"
						}
					],
					"stateMutability": "view",
					"type": "function"
				},
				{
					"inputs": [
						{
							"internalType": "uint256",
							"name": "assets",
							"type": "uint256"
						}
					],
					"name": "previewWithdraw",
					"outputs": [
						{
							"internalType": "uint256",
							"name": "",
							"type": "uint256"
						}
					],
					"stateMutability": "view",
					"type": "function"
				},
				{
					"inputs": [
						{
							"internalType": "uint256",
							"name": "shares",
							"type": "uint256"
						},
						{
							"internalType": "address",
							"name": "receiver",
							"type": "address"
						},
						{
							"internalType": "address",
							"name": "owner",
							"type": "address"
						}
					],
					"name": "redeem",
					"outputs": [
						{
							"internalType": "uint256",
							"name": "",
							"type": "uint256"
						}
					],
					"stateMutability": "nonpayable",
					"type": "function"
				},
				{
					"inputs": [],
					"name": "symbol",
					"outputs": [
						{
							"internalType": "string",
							"name": "",
							"type": "string"
						}
					],
					"stateMutability": "view",
					"type": "function"
				},
				{
					"inputs": [],
					"name": "totalAssets",
					"outputs": [
						{
							"internalType": "uint256",
							"name": "",
							"type": "uint256"
						}
					],
					"stateMutability": "view",
					"type": "function"
				},
				{
					"inputs": [],
					"name": "totalSupply",
					"outputs": [
						{
							"internalType": "uint256",
							"name": "",
							"type": "uint256"
						}
					],
					"stateMutability": "view",
					"type": "function"
				},
				{
					"inputs": [
						{
							"internalType": "address",
							"name": "to",
							"type": "address"
						},
						{
							"internalType": "uint256",
							"name": "value",
							"type": "uint256"
						}
					],
					"name": "transfer",
					"outputs": [
						{
							"internalType": "bool",
							"name": "",
							"type": "bool"
						}
					],
					"stateMutability": "nonpayable",
					"type": "function"
				},
				{
					"inputs": [
						{
							"internalType": "address",
							"name": "from",
							"type": "address"
						},
						{
							"internalType": "address",
							"name": "to",
							"type": "address"
						},
						{
							"internalType": "uint256",
							"name": "value",
							"type": "uint256"
						}
					],
					"name": "transferFrom",
					"outputs": [
						{
							"internalType": "bool",
							"name": "",
							"type": "bool"
						}
					],
					"stateMutability": "nonpayable",
					"type": "function"
				},
				{
					"inputs": [
						{
							"internalType": "uint256",
							"name": "vaultAssets",
							"type": "uint256"
						},
						{
							"internalType": "address",
							"name": "vaultReceiver",
							"type": "address"
						}
					],
					"name": "vaultDeposit",
					"outputs": [
						{
							"internalType": "uint256",
							"name": "shares",
							"type": "uint256"
						}
					],
					"stateMutability": "nonpayable",
					"type": "function"
				},
				{
					"inputs": [
						{
							"internalType": "uint256",
							"name": "vaultShares",
							"type": "uint256"
						},
						{
							"internalType": "address",
							"name": "vaultReceiver",
							"type": "address"
						},
						{
							"internalType": "address",
							"name": "vaultOwner",
							"type": "address"
						}
					],
					"name": "vaultRedeem",
					"outputs": [
						{
							"internalType": "uint256",
							"name": "assets",
							"type": "uint256"
						}
					],
					"stateMutability": "nonpayable",
					"type": "function"
				},
				{
					"inputs": [
						{
							"internalType": "uint256",
							"name": "vaultAssets",
							"type": "uint256"
						},
						{
							"internalType": "address",
							"name": "vaultReceiver",
							"type": "address"
						},
						{
							"internalType": "address",
							"name": "vaultOwner",
							"type": "address"
						}
					],
					"name": "vaultWithdraw",
					"outputs": [
						{
							"internalType": "uint256",
							"name": "shares",
							"type": "uint256"
						}
					],
					"stateMutability": "nonpayable",
					"type": "function"
				},
				{
					"inputs": [
						{
							"internalType": "uint256",
							"name": "assets",
							"type": "uint256"
						},
						{
							"internalType": "address",
							"name": "receiver",
							"type": "address"
						},
						{
							"internalType": "address",
							"name": "owner",
							"type": "address"
						}
					],
					"name": "withdraw",
					"outputs": [
						{
							"internalType": "uint256",
							"name": "",
							"type": "uint256"
						}
					],
					"stateMutability": "nonpayable",
					"type": "function"
				}
			],
			"devdoc": {
				"errors": {
					"AddressEmptyCode(address)": [
						{
							"details": "There's no code at `target` (it is not a contract)."
						}
					],
					"AddressInsufficientBalance(address)": [
						{
							"details": "The ETH balance of the account is not enough to perform the operation."
						}
					],
					"ERC20InsufficientAllowance(address,uint256,uint256)": [
						{
							"details": "Indicates a failure with the `spender`’s `allowance`. Used in transfers.",
							"params": {
								"allowance": "Amount of tokens a `spender` is allowed to operate with.",
								"needed": "Minimum amount required to perform a transfer.",
								"spender": "Address that may be allowed to operate on tokens without being their owner."
							}
						}
					],
					"ERC20InsufficientBalance(address,uint256,uint256)": [
						{
							"details": "Indicates an error related to the current `balance` of a `sender`. Used in transfers.",
							"params": {
								"balance": "Current balance for the interacting account.",
								"needed": "Minimum amount required to perform a transfer.",
								"sender": "Address whose tokens are being transferred."
							}
						}
					],
					"ERC20InvalidApprover(address)": [
						{
							"details": "Indicates a failure with the `approver` of a token to be approved. Used in approvals.",
							"params": {
								"approver": "Address initiating an approval operation."
							}
						}
					],
					"ERC20InvalidReceiver(address)": [
						{
							"details": "Indicates a failure with the token `receiver`. Used in transfers.",
							"params": {
								"receiver": "Address to which tokens are being transferred."
							}
						}
					],
					"ERC20InvalidSender(address)": [
						{
							"details": "Indicates a failure with the token `sender`. Used in transfers.",
							"params": {
								"sender": "Address whose tokens are being transferred."
							}
						}
					],
					"ERC20InvalidSpender(address)": [
						{
							"details": "Indicates a failure with the `spender` to be approved. Used in approvals.",
							"params": {
								"spender": "Address that may be allowed to operate on tokens without being their owner."
							}
						}
					],
					"ERC4626ExceededMaxDeposit(address,uint256,uint256)": [
						{
							"details": "Attempted to deposit more assets than the max amount for `receiver`."
						}
					],
					"ERC4626ExceededMaxMint(address,uint256,uint256)": [
						{
							"details": "Attempted to mint more shares than the max amount for `receiver`."
						}
					],
					"ERC4626ExceededMaxRedeem(address,uint256,uint256)": [
						{
							"details": "Attempted to redeem more shares than the max amount for `receiver`."
						}
					],
					"ERC4626ExceededMaxWithdraw(address,uint256,uint256)": [
						{
							"details": "Attempted to withdraw more assets than the max amount for `receiver`."
						}
					],
					"FailedInnerCall()": [
						{
							"details": "A call to an address target failed. The target may have reverted."
						}
					],
					"MathOverflowedMulDiv()": [
						{
							"details": "Muldiv operation overflow."
						}
					],
					"SafeERC20FailedOperation(address)": [
						{
							"details": "An operation with an ERC20 token failed."
						}
					]
				},
				"events": {
					"Approval(address,address,uint256)": {
						"details": "Emitted when the allowance of a `spender` for an `owner` is set by a call to {approve}. `value` is the new allowance."
					},
					"Transfer(address,address,uint256)": {
						"details": "Emitted when `value` tokens are moved from one account (`from`) to another (`to`). Note that `value` may be zero."
					}
				},
				"kind": "dev",
				"methods": {
					"allowance(address,address)": {
						"details": "See {IERC20-allowance}."
					},
					"approve(address,uint256)": {
						"details": "See {IERC20-approve}. NOTE: If `value` is the maximum `uint256`, the allowance is not updated on `transferFrom`. This is semantically equivalent to an infinite approval. Requirements: - `spender` cannot be the zero address."
					},
					"asset()": {
						"details": "See {IERC4626-asset}. "
					},
					"balanceOf(address)": {
						"details": "See {IERC20-balanceOf}."
					},
					"convertToAssets(uint256)": {
						"details": "See {IERC4626-convertToAssets}. "
					},
					"convertToShares(uint256)": {
						"details": "See {IERC4626-convertToShares}. "
					},
					"decimals()": {
						"details": "Decimals are computed by adding the decimal offset on top of the underlying asset's decimals. This \"original\" value is cached during construction of the vault contract. If this read operation fails (e.g., the asset has not been created yet), a default of 18 is used to represent the underlying asset's decimals. See {IERC20Metadata-decimals}."
					},
					"deposit(uint256,address)": {
						"details": "See {IERC4626-deposit}. "
					},
					"maxDeposit(address)": {
						"details": "See {IERC4626-maxDeposit}. "
					},
					"maxMint(address)": {
						"details": "See {IERC4626-maxMint}. "
					},
					"maxRedeem(address)": {
						"details": "See {IERC4626-maxRedeem}. "
					},
					"maxWithdraw(address)": {
						"details": "See {IERC4626-maxWithdraw}. "
					},
					"mint(uint256,address)": {
						"details": "See {IERC4626-mint}. As opposed to {deposit}, minting is allowed even if the vault is in a state where the price of a share is zero. In this case, the shares will be minted without requiring any assets to be deposited."
					},
					"name()": {
						"details": "Returns the name of the token."
					},
					"previewDeposit(uint256)": {
						"details": "See {IERC4626-previewDeposit}. "
					},
					"previewMint(uint256)": {
						"details": "See {IERC4626-previewMint}. "
					},
					"previewRedeem(uint256)": {
						"details": "See {IERC4626-previewRedeem}. "
					},
					"previewWithdraw(uint256)": {
						"details": "See {IERC4626-previewWithdraw}. "
					},
					"redeem(uint256,address,address)": {
						"details": "See {IERC4626-redeem}. "
					},
					"symbol()": {
						"details": "Returns the symbol of the token, usually a shorter version of the name."
					},
					"totalAssets()": {
						"details": "See {IERC4626-totalAssets}. "
					},
					"totalSupply()": {
						"details": "See {IERC20-totalSupply}."
					},
					"transfer(address,uint256)": {
						"details": "See {IERC20-transfer}. Requirements: - `to` cannot be the zero address. - the caller must have a balance of at least `value`."
					},
					"transferFrom(address,address,uint256)": {
						"details": "See {IERC20-transferFrom}. Emits an {Approval} event indicating the updated allowance. This is not required by the EIP. See the note at the beginning of {ERC20}. NOTE: Does not update the allowance if the current allowance is the maximum `uint256`. Requirements: - `from` and `to` cannot be the zero address. - `from` must have a balance of at least `value`. - the caller must have allowance for ``from``'s tokens of at least `value`."
					},
					"withdraw(uint256,address,address)": {
						"details": "See {IERC4626-withdraw}. "
					}
				},
				"version": 1
			},
			"evm": {
				"assembly": "    /* \"contracts/DimSumVault.sol\":196:1073  contract DimSumVault is ERC4626 {... */\n  mstore(0x40, 0xc0)\n    /* \"contracts/DimSumVault.sol\":237:328  constructor(IERC20 _asset) ... */\n  callvalue\n  dup1\n  iszero\n  tag_1\n  jumpi\n  revert(0x00, 0x00)\ntag_1:\n  pop\n  mload(0x40)\n  sub(codesize, bytecodeSize)\n  dup1\n  bytecodeSize\n  dup4\n  codecopy\n  dup2\n  dup2\n  add\n  0x40\n  mstore\n  dup2\n  add\n  swap1\n  tag_2\n  swap2\n  swap1\n  tag_3\n  jump\t// in\ntag_2:\n    /* \"contracts/DimSumVault.sol\":313:319  _asset */\n  dup1\n    /* \"@openzeppelin/contracts/token/ERC20/ERC20.sol\":1896:2009  constructor(string memory name_, string memory symbol_) {... */\n  mload(0x40)\n  dup1\n  0x40\n  add\n  0x40\n  mstore\n  dup1\n  0x05\n  dup2\n  mstore\n  0x20\n  add\n  0x576f546970000000000000000000000000000000000000000000000000000000\n  dup2\n  mstore\n  pop\n  mload(0x40)\n  dup1\n  0x40\n  add\n  0x40\n  mstore\n  dup1\n  0x03\n  dup2\n  mstore\n  0x20\n  add\n  0x5754500000000000000000000000000000000000000000000000000000000000\n  dup2\n  mstore\n  pop\n    /* \"@openzeppelin/contracts/token/ERC20/ERC20.sol\":1970:1975  name_ */\n  dup2\n    /* \"@openzeppelin/contracts/token/ERC20/ERC20.sol\":1962:1967  _name */\n  0x03\n    /* \"@openzeppelin/contracts/token/ERC20/ERC20.sol\":1962:1975  _name = name_ */\n  swap1\n  dup2\n  tag_8\n  swap2\n  swap1\n  tag_9\n  jump\t// in\ntag_8:\n  pop\n    /* \"@openzeppelin/contracts/token/ERC20/ERC20.sol\":1995:2002  symbol_ */\n  dup1\n    /* \"@openzeppelin/contracts/token/ERC20/ERC20.sol\":1985:1992  _symbol */\n  0x04\n    /* \"@openzeppelin/contracts/token/ERC20/ERC20.sol\":1985:2002  _symbol = symbol_ */\n  swap1\n  dup2\n  tag_10\n  swap2\n  swap1\n  tag_9\n  jump\t// in\ntag_10:\n  pop\n    /* \"@openzeppelin/contracts/token/ERC20/ERC20.sol\":1896:2009  constructor(string memory name_, string memory symbol_) {... */\n  pop\n  pop\n    /* \"@openzeppelin/contracts/token/ERC20/extensions/ERC4626.sol\":4203:4215  bool success */\n  0x00\n    /* \"@openzeppelin/contracts/token/ERC20/extensions/ERC4626.sol\":4217:4236  uint8 assetDecimals */\n  0x00\n    /* \"@openzeppelin/contracts/token/ERC20/extensions/ERC4626.sol\":4240:4268  _tryGetAssetDecimals(asset_) */\n  tag_12\n    /* \"@openzeppelin/contracts/token/ERC20/extensions/ERC4626.sol\":4261:4267  asset_ */\n  dup4\n    /* \"@openzeppelin/contracts/token/ERC20/extensions/ERC4626.sol\":4240:4260  _tryGetAssetDecimals */\n  shl(0x20, tag_13)\n    /* \"@openzeppelin/contracts/token/ERC20/extensions/ERC4626.sol\":4240:4268  _tryGetAssetDecimals(asset_) */\n  0x20\n  shr\n  jump\t// in\ntag_12:\n    /* \"@openzeppelin/contracts/token/ERC20/extensions/ERC4626.sol\":4202:4268  (bool success, uint8 assetDecimals) = _tryGetAssetDecimals(asset_) */\n  swap2\n  pop\n  swap2\n  pop\n    /* \"@openzeppelin/contracts/token/ERC20/extensions/ERC4626.sol\":4300:4307  success */\n  dup2\n    /* \"@openzeppelin/contracts/token/ERC20/extensions/ERC4626.sol\":4300:4328  success ? assetDecimals : 18 */\n  tag_14\n  jumpi\n    /* \"@openzeppelin/contracts/token/ERC20/extensions/ERC4626.sol\":4326:4328  18 */\n  0x12\n    /* \"@openzeppelin/contracts/token/ERC20/extensions/ERC4626.sol\":4300:4328  success ? assetDecimals : 18 */\n  jump(tag_15)\ntag_14:\n    /* \"@openzeppelin/contracts/token/ERC20/extensions/ERC4626.sol\":4310:4323  assetDecimals */\n  dup1\n    /* \"@openzeppelin/contracts/token/ERC20/extensions/ERC4626.sol\":4300:4328  success ? assetDecimals : 18 */\ntag_15:\n    /* \"@openzeppelin/contracts/token/ERC20/extensions/ERC4626.sol\":4278:4328  _underlyingDecimals = success ? assetDecimals : 18 */\n  0xff\n  and\n  0xa0\n  dup2\n  0xff\n  and\n  dup2\n  mstore\n  pop\n  pop\n    /* \"@openzeppelin/contracts/token/ERC20/extensions/ERC4626.sol\":4347:4353  asset_ */\n  dup3\n    /* \"@openzeppelin/contracts/token/ERC20/extensions/ERC4626.sol\":4338:4353  _asset = asset_ */\n  0xffffffffffffffffffffffffffffffffffffffff\n  and\n  0x80\n  dup2\n  0xffffffffffffffffffffffffffffffffffffffff\n  and\n  dup2\n  mstore\n  pop\n  pop\n    /* \"@openzeppelin/contracts/token/ERC20/extensions/ERC4626.sol\":4192:4360  {... */\n  pop\n  pop\n    /* \"@openzeppelin/contracts/token/ERC20/extensions/ERC4626.sol\":4165:4360  constructor(IERC20 asset_) {... */\n  pop\n    /* \"contracts/DimSumVault.sol\":237:328  constructor(IERC20 _asset) ... */\n  pop\n    /* \"contracts/DimSumVault.sol\":196:1073  contract DimSumVault is ERC4626 {... */\n  jump(tag_17)\n    /* \"@openzeppelin/contracts/token/ERC20/extensions/ERC4626.sol\":4503:5036  function _tryGetAssetDecimals(IERC20 asset_) private view returns (bool, uint8) {... */\ntag_13:\n    /* \"@openzeppelin/contracts/token/ERC20/extensions/ERC4626.sol\":4570:4574  bool */\n  0x00\n    /* \"@openzeppelin/contracts/token/ERC20/extensions/ERC4626.sol\":4576:4581  uint8 */\n  0x00\n    /* \"@openzeppelin/contracts/token/ERC20/extensions/ERC4626.sol\":4594:4606  bool success */\n  0x00\n    /* \"@openzeppelin/contracts/token/ERC20/extensions/ERC4626.sol\":4608:4636  bytes memory encodedDecimals */\n  0x00\n    /* \"@openzeppelin/contracts/token/ERC20/extensions/ERC4626.sol\":4648:4654  asset_ */\n  dup5\n    /* \"@openzeppelin/contracts/token/ERC20/extensions/ERC4626.sol\":4640:4666  address(asset_).staticcall */\n  0xffffffffffffffffffffffffffffffffffffffff\n  and\n    /* \"@openzeppelin/contracts/token/ERC20/extensions/ERC4626.sol\":4680:4723  abi.encodeCall(IERC20Metadata.decimals, ()) */\n  add(0x24, mload(0x40))\n  mload(0x40)\n  0x20\n  dup2\n  dup4\n  sub\n  sub\n  dup2\n  mstore\n  swap1\n  0x40\n  mstore\n  shl(0xe0, 0x313ce567)\n  0x20\n  dup3\n  add\n  dup1\n  mload\n  0xffffffffffffffffffffffffffffffffffffffffffffffffffffffff\n  dup4\n  dup2\n  dup4\n  and\n  or\n  dup4\n  mstore\n  pop\n  pop\n  pop\n  pop\n    /* \"@openzeppelin/contracts/token/ERC20/extensions/ERC4626.sol\":4640:4733  address(asset_).staticcall(... */\n  mload(0x40)\n  tag_19\n  swap2\n  swap1\n  tag_20\n  jump\t// in\ntag_19:\n  0x00\n  mload(0x40)\n  dup1\n  dup4\n  sub\n  dup2\n  dup6\n  gas\n  staticcall\n  swap2\n  pop\n  pop\n  returndatasize\n  dup1\n  0x00\n  dup2\n  eq\n  tag_23\n  jumpi\n  mload(0x40)\n  swap2\n  pop\n  and(add(returndatasize, 0x3f), not(0x1f))\n  dup3\n  add\n  0x40\n  mstore\n  returndatasize\n  dup3\n  mstore\n  returndatasize\n  0x00\n  0x20\n  dup5\n  add\n  returndatacopy\n  jump(tag_22)\ntag_23:\n  0x60\n  swap2\n  pop\ntag_22:\n  pop\n    /* \"@openzeppelin/contracts/token/ERC20/extensions/ERC4626.sol\":4593:4733  (bool success, bytes memory encodedDecimals) = address(asset_).staticcall(... */\n  swap2\n  pop\n  swap2\n  pop\n    /* \"@openzeppelin/contracts/token/ERC20/extensions/ERC4626.sol\":4747:4754  success */\n  dup2\n    /* \"@openzeppelin/contracts/token/ERC20/extensions/ERC4626.sol\":4747:4786  success && encodedDecimals.length >= 32 */\n  dup1\n  iszero\n  tag_24\n  jumpi\n  pop\n    /* \"@openzeppelin/contracts/token/ERC20/extensions/ERC4626.sol\":4784:4786  32 */\n  0x20\n    /* \"@openzeppelin/contracts/token/ERC20/extensions/ERC4626.sol\":4758:4773  encodedDecimals */\n  dup2\n    /* \"@openzeppelin/contracts/token/ERC20/extensions/ERC4626.sol\":4758:4780  encodedDecimals.length */\n  mload\n    /* \"@openzeppelin/contracts/token/ERC20/extensions/ERC4626.sol\":4758:4786  encodedDecimals.length >= 32 */\n  lt\n  iszero\n    /* \"@openzeppelin/contracts/token/ERC20/extensions/ERC4626.sol\":4747:4786  success && encodedDecimals.length >= 32 */\ntag_24:\n    /* \"@openzeppelin/contracts/token/ERC20/extensions/ERC4626.sol\":4743:5003  if (success && encodedDecimals.length >= 32) {... */\n  iszero\n  tag_25\n  jumpi\n    /* \"@openzeppelin/contracts/token/ERC20/extensions/ERC4626.sol\":4802:4826  uint256 returnedDecimals */\n  0x00\n    /* \"@openzeppelin/contracts/token/ERC20/extensions/ERC4626.sol\":4840:4855  encodedDecimals */\n  dup2\n    /* \"@openzeppelin/contracts/token/ERC20/extensions/ERC4626.sol\":4829:4867  abi.decode(encodedDecimals, (uint256)) */\n  dup1\n  0x20\n  add\n  swap1\n  mload\n  dup2\n  add\n  swap1\n  tag_26\n  swap2\n  swap1\n  tag_27\n  jump\t// in\ntag_26:\n    /* \"@openzeppelin/contracts/token/ERC20/extensions/ERC4626.sol\":4802:4867  uint256 returnedDecimals = abi.decode(encodedDecimals, (uint256)) */\n  swap1\n  pop\n    /* \"@openzeppelin/contracts/token/ERC20/extensions/ERC4626.sol\":4905:4920  type(uint8).max */\n  0xff\n    /* \"@openzeppelin/contracts/token/ERC20/extensions/ERC4626.sol\":4885:4920  returnedDecimals <= type(uint8).max */\n  dup1\n  and\n    /* \"@openzeppelin/contracts/token/ERC20/extensions/ERC4626.sol\":4885:4901  returnedDecimals */\n  dup2\n    /* \"@openzeppelin/contracts/token/ERC20/extensions/ERC4626.sol\":4885:4920  returnedDecimals <= type(uint8).max */\n  gt\n    /* \"@openzeppelin/contracts/token/ERC20/extensions/ERC4626.sol\":4881:4993  if (returnedDecimals <= type(uint8).max) {... */\n  tag_28\n  jumpi\n    /* \"@openzeppelin/contracts/token/ERC20/extensions/ERC4626.sol\":4948:4952  true */\n  0x01\n    /* \"@openzeppelin/contracts/token/ERC20/extensions/ERC4626.sol\":4960:4976  returnedDecimals */\n  dup2\n    /* \"@openzeppelin/contracts/token/ERC20/extensions/ERC4626.sol\":4940:4978  return (true, uint8(returnedDecimals)) */\n  swap5\n  pop\n  swap5\n  pop\n  pop\n  pop\n  pop\n  jump(tag_18)\n    /* \"@openzeppelin/contracts/token/ERC20/extensions/ERC4626.sol\":4881:4993  if (returnedDecimals <= type(uint8).max) {... */\ntag_28:\n    /* \"@openzeppelin/contracts/token/ERC20/extensions/ERC4626.sol\":4788:5003  {... */\n  pop\n    /* \"@openzeppelin/contracts/token/ERC20/extensions/ERC4626.sol\":4743:5003  if (success && encodedDecimals.length >= 32) {... */\ntag_25:\n    /* \"@openzeppelin/contracts/token/ERC20/extensions/ERC4626.sol\":5020:5025  false */\n  0x00\n    /* \"@openzeppelin/contracts/token/ERC20/extensions/ERC4626.sol\":5027:5028  0 */\n  0x00\n    /* \"@openzeppelin/contracts/token/ERC20/extensions/ERC4626.sol\":5012:5029  return (false, 0) */\n  swap4\n  pop\n  swap4\n  pop\n  pop\n  pop\n    /* \"@openzeppelin/contracts/token/ERC20/extensions/ERC4626.sol\":4503:5036  function _tryGetAssetDecimals(IERC20 asset_) private view returns (bool, uint8) {... */\ntag_18:\n  swap2\n  pop\n  swap2\n  jump\t// out\n    /* \"#utility.yul\":88:205   */\ntag_30:\n    /* \"#utility.yul\":197:198   */\n  0x00\n    /* \"#utility.yul\":194:195   */\n  0x00\n    /* \"#utility.yul\":187:199   */\n  revert\n    /* \"#utility.yul\":334:460   */\ntag_32:\n    /* \"#utility.yul\":371:378   */\n  0x00\n    /* \"#utility.yul\":411:453   */\n  0xffffffffffffffffffffffffffffffffffffffff\n    /* \"#utility.yul\":404:409   */\n  dup3\n    /* \"#utility.yul\":400:454   */\n  and\n    /* \"#utility.yul\":389:454   */\n  swap1\n  pop\n    /* \"#utility.yul\":334:460   */\n  swap2\n  swap1\n  pop\n  jump\t// out\n    /* \"#utility.yul\":466:562   */\ntag_33:\n    /* \"#utility.yul\":503:510   */\n  0x00\n    /* \"#utility.yul\":532:556   */\n  tag_69\n    /* \"#utility.yul\":550:555   */\n  dup3\n    /* \"#utility.yul\":532:556   */\n  tag_32\n  jump\t// in\ntag_69:\n    /* \"#utility.yul\":521:556   */\n  swap1\n  pop\n    /* \"#utility.yul\":466:562   */\n  swap2\n  swap1\n  pop\n  jump\t// out\n    /* \"#utility.yul\":568:678   */\ntag_34:\n    /* \"#utility.yul\":619:626   */\n  0x00\n    /* \"#utility.yul\":648:672   */\n  tag_71\n    /* \"#utility.yul\":666:671   */\n  dup3\n    /* \"#utility.yul\":648:672   */\n  tag_33\n  jump\t// in\ntag_71:\n    /* \"#utility.yul\":637:672   */\n  swap1\n  pop\n    /* \"#utility.yul\":568:678   */\n  swap2\n  swap1\n  pop\n  jump\t// out\n    /* \"#utility.yul\":684:834   */\ntag_35:\n    /* \"#utility.yul\":771:809   */\n  tag_73\n    /* \"#utility.yul\":803:808   */\n  dup2\n    /* \"#utility.yul\":771:809   */\n  tag_34\n  jump\t// in\ntag_73:\n    /* \"#utility.yul\":764:769   */\n  dup2\n    /* \"#utility.yul\":761:810   */\n  eq\n    /* \"#utility.yul\":751:828   */\n  tag_74\n  jumpi\n    /* \"#utility.yul\":824:825   */\n  0x00\n    /* \"#utility.yul\":821:822   */\n  0x00\n    /* \"#utility.yul\":814:826   */\n  revert\n    /* \"#utility.yul\":751:828   */\ntag_74:\n    /* \"#utility.yul\":684:834   */\n  pop\n  jump\t// out\n    /* \"#utility.yul\":840:1011   */\ntag_36:\n    /* \"#utility.yul\":911:916   */\n  0x00\n    /* \"#utility.yul\":942:948   */\n  dup2\n    /* \"#utility.yul\":936:949   */\n  mload\n    /* \"#utility.yul\":927:949   */\n  swap1\n  pop\n    /* \"#utility.yul\":958:1005   */\n  tag_76\n    /* \"#utility.yul\":999:1004   */\n  dup2\n    /* \"#utility.yul\":958:1005   */\n  tag_35\n  jump\t// in\ntag_76:\n    /* \"#utility.yul\":840:1011   */\n  swap3\n  swap2\n  pop\n  pop\n  jump\t// out\n    /* \"#utility.yul\":1017:1396   */\ntag_3:\n    /* \"#utility.yul\":1101:1107   */\n  0x00\n    /* \"#utility.yul\":1150:1152   */\n  0x20\n    /* \"#utility.yul\":1138:1147   */\n  dup3\n    /* \"#utility.yul\":1129:1136   */\n  dup5\n    /* \"#utility.yul\":1125:1148   */\n  sub\n    /* \"#utility.yul\":1121:1153   */\n  slt\n    /* \"#utility.yul\":1118:1237   */\n  iszero\n  tag_78\n  jumpi\n    /* \"#utility.yul\":1156:1235   */\n  tag_79\n  tag_30\n  jump\t// in\ntag_79:\n    /* \"#utility.yul\":1118:1237   */\ntag_78:\n    /* \"#utility.yul\":1276:1277   */\n  0x00\n    /* \"#utility.yul\":1301:1379   */\n  tag_80\n    /* \"#utility.yul\":1371:1378   */\n  dup5\n    /* \"#utility.yul\":1362:1368   */\n  dup3\n    /* \"#utility.yul\":1351:1360   */\n  dup6\n    /* \"#utility.yul\":1347:1369   */\n  add\n    /* \"#utility.yul\":1301:1379   */\n  tag_36\n  jump\t// in\ntag_80:\n    /* \"#utility.yul\":1291:1379   */\n  swap2\n  pop\n    /* \"#utility.yul\":1247:1389   */\n  pop\n    /* \"#utility.yul\":1017:1396   */\n  swap3\n  swap2\n  pop\n  pop\n  jump\t// out\n    /* \"#utility.yul\":1402:1501   */\ntag_37:\n    /* \"#utility.yul\":1454:1460   */\n  0x00\n    /* \"#utility.yul\":1488:1493   */\n  dup2\n    /* \"#utility.yul\":1482:1494   */\n  mload\n    /* \"#utility.yul\":1472:1494   */\n  swap1\n  pop\n    /* \"#utility.yul\":1402:1501   */\n  swap2\n  swap1\n  pop\n  jump\t// out\n    /* \"#utility.yul\":1507:1687   */\ntag_38:\n    /* \"#utility.yul\":1555:1632   */\n  0x4e487b7100000000000000000000000000000000000000000000000000000000\n    /* \"#utility.yul\":1552:1553   */\n  0x00\n    /* \"#utility.yul\":1545:1633   */\n  mstore\n    /* \"#utility.yul\":1652:1656   */\n  0x41\n    /* \"#utility.yul\":1649:1650   */\n  0x04\n    /* \"#utility.yul\":1642:1657   */\n  mstore\n    /* \"#utility.yul\":1676:1680   */\n  0x24\n    /* \"#utility.yul\":1673:1674   */\n  0x00\n    /* \"#utility.yul\":1666:1681   */\n  revert\n    /* \"#utility.yul\":1693:1873   */\ntag_39:\n    /* \"#utility.yul\":1741:1818   */\n  0x4e487b7100000000000000000000000000000000000000000000000000000000\n    /* \"#utility.yul\":1738:1739   */\n  0x00\n    /* \"#utility.yul\":1731:1819   */\n  mstore\n    /* \"#utility.yul\":1838:1842   */\n  0x22\n    /* \"#utility.yul\":1835:1836   */\n  0x04\n    /* \"#utility.yul\":1828:1843   */\n  mstore\n    /* \"#utility.yul\":1862:1866   */\n  0x24\n    /* \"#utility.yul\":1859:1860   */\n  0x00\n    /* \"#utility.yul\":1852:1867   */\n  revert\n    /* \"#utility.yul\":1879:2199   */\ntag_40:\n    /* \"#utility.yul\":1923:1929   */\n  0x00\n    /* \"#utility.yul\":1960:1961   */\n  0x02\n    /* \"#utility.yul\":1954:1958   */\n  dup3\n    /* \"#utility.yul\":1950:1962   */\n  div\n    /* \"#utility.yul\":1940:1962   */\n  swap1\n  pop\n    /* \"#utility.yul\":2007:2008   */\n  0x01\n    /* \"#utility.yul\":2001:2005   */\n  dup3\n    /* \"#utility.yul\":1997:2009   */\n  and\n    /* \"#utility.yul\":2028:2046   */\n  dup1\n    /* \"#utility.yul\":2018:2099   */\n  tag_85\n  jumpi\n    /* \"#utility.yul\":2084:2088   */\n  0x7f\n    /* \"#utility.yul\":2076:2082   */\n  dup3\n    /* \"#utility.yul\":2072:2089   */\n  and\n    /* \"#utility.yul\":2062:2089   */\n  swap2\n  pop\n    /* \"#utility.yul\":2018:2099   */\ntag_85:\n    /* \"#utility.yul\":2146:2148   */\n  0x20\n    /* \"#utility.yul\":2138:2144   */\n  dup3\n    /* \"#utility.yul\":2135:2149   */\n  lt\n    /* \"#utility.yul\":2115:2133   */\n  dup2\n    /* \"#utility.yul\":2112:2150   */\n  sub\n    /* \"#utility.yul\":2109:2193   */\n  tag_86\n  jumpi\n    /* \"#utility.yul\":2165:2183   */\n  tag_87\n  tag_39\n  jump\t// in\ntag_87:\n    /* \"#utility.yul\":2109:2193   */\ntag_86:\n    /* \"#utility.yul\":1930:2199   */\n  pop\n    /* \"#utility.yul\":1879:2199   */\n  swap2\n  swap1\n  pop\n  jump\t// out\n    /* \"#utility.yul\":2205:2346   */\ntag_41:\n    /* \"#utility.yul\":2254:2258   */\n  0x00\n    /* \"#utility.yul\":2277:2280   */\n  dup2\n    /* \"#utility.yul\":2269:2280   */\n  swap1\n  pop\n    /* \"#utility.yul\":2300:2303   */\n  dup2\n    /* \"#utility.yul\":2297:2298   */\n  0x00\n    /* \"#utility.yul\":2290:2304   */\n  mstore\n    /* \"#utility.yul\":2334:2338   */\n  0x20\n    /* \"#utility.yul\":2331:2332   */\n  0x00\n    /* \"#utility.yul\":2321:2339   */\n  keccak256\n    /* \"#utility.yul\":2313:2339   */\n  swap1\n  pop\n    /* \"#utility.yul\":2205:2346   */\n  swap2\n  swap1\n  pop\n  jump\t// out\n    /* \"#utility.yul\":2352:2445   */\ntag_42:\n    /* \"#utility.yul\":2389:2395   */\n  0x00\n    /* \"#utility.yul\":2436:2438   */\n  0x20\n    /* \"#utility.yul\":2431:2433   */\n  0x1f\n    /* \"#utility.yul\":2424:2429   */\n  dup4\n    /* \"#utility.yul\":2420:2434   */\n  add\n    /* \"#utility.yul\":2416:2439   */\n  div\n    /* \"#utility.yul\":2406:2439   */\n  swap1\n  pop\n    /* \"#utility.yul\":2352:2445   */\n  swap2\n  swap1\n  pop\n  jump\t// out\n    /* \"#utility.yul\":2451:2558   */\ntag_43:\n    /* \"#utility.yul\":2495:2503   */\n  0x00\n    /* \"#utility.yul\":2545:2550   */\n  dup3\n    /* \"#utility.yul\":2539:2543   */\n  dup3\n    /* \"#utility.yul\":2535:2551   */\n  shl\n    /* \"#utility.yul\":2514:2551   */\n  swap1\n  pop\n    /* \"#utility.yul\":2451:2558   */\n  swap3\n  swap2\n  pop\n  pop\n  jump\t// out\n    /* \"#utility.yul\":2564:2957   */\ntag_44:\n    /* \"#utility.yul\":2633:2639   */\n  0x00\n    /* \"#utility.yul\":2683:2684   */\n  0x08\n    /* \"#utility.yul\":2671:2681   */\n  dup4\n    /* \"#utility.yul\":2667:2685   */\n  mul\n    /* \"#utility.yul\":2706:2803   */\n  tag_92\n    /* \"#utility.yul\":2736:2802   */\n  0xffffffffffffffffffffffffffffffffffffffffffffffffffffffffffffffff\n    /* \"#utility.yul\":2725:2734   */\n  dup3\n    /* \"#utility.yul\":2706:2803   */\n  tag_43\n  jump\t// in\ntag_92:\n    /* \"#utility.yul\":2824:2863   */\n  tag_93\n    /* \"#utility.yul\":2854:2862   */\n  dup7\n    /* \"#utility.yul\":2843:2852   */\n  dup4\n    /* \"#utility.yul\":2824:2863   */\n  tag_43\n  jump\t// in\ntag_93:\n    /* \"#utility.yul\":2812:2863   */\n  swap6\n  pop\n    /* \"#utility.yul\":2896:2900   */\n  dup1\n    /* \"#utility.yul\":2892:2901   */\n  not\n    /* \"#utility.yul\":2885:2890   */\n  dup5\n    /* \"#utility.yul\":2881:2902   */\n  and\n    /* \"#utility.yul\":2872:2902   */\n  swap4\n  pop\n    /* \"#utility.yul\":2945:2949   */\n  dup1\n    /* \"#utility.yul\":2935:2943   */\n  dup7\n    /* \"#utility.yul\":2931:2950   */\n  and\n    /* \"#utility.yul\":2924:2929   */\n  dup5\n    /* \"#utility.yul\":2921:2951   */\n  or\n    /* \"#utility.yul\":2911:2951   */\n  swap3\n  pop\n    /* \"#utility.yul\":2640:2957   */\n  pop\n  pop\n    /* \"#utility.yul\":2564:2957   */\n  swap4\n  swap3\n  pop\n  pop\n  pop\n  jump\t// out\n    /* \"#utility.yul\":2963:3040   */\ntag_45:\n    /* \"#utility.yul\":3000:3007   */\n  0x00\n    /* \"#utility.yul\":3029:3034   */\n  dup2\n    /* \"#utility.yul\":3018:3034   */\n  swap1\n  pop\n    /* \"#utility.yul\":2963:3040   */\n  swap2\n  swap1\n  pop\n  jump\t// out\n    /* \"#utility.yul\":3046:3106   */\ntag_46:\n    /* \"#utility.yul\":3074:3077   */\n  0x00\n    /* \"#utility.yul\":3095:3100   */\n  dup2\n    /* \"#utility.yul\":3088:3100   */\n  swap1\n  pop\n    /* \"#utility.yul\":3046:3106   */\n  swap2\n  swap1\n  pop\n  jump\t// out\n    /* \"#utility.yul\":3112:3254   */\ntag_47:\n    /* \"#utility.yul\":3162:3171   */\n  0x00\n    /* \"#utility.yul\":3195:3248   */\n  tag_97\n    /* \"#utility.yul\":3213:3247   */\n  tag_98\n    /* \"#utility.yul\":3222:3246   */\n  tag_99\n    /* \"#utility.yul\":3240:3245   */\n  dup5\n    /* \"#utility.yul\":3222:3246   */\n  tag_45\n  jump\t// in\ntag_99:\n    /* \"#utility.yul\":3213:3247   */\n  tag_46\n  jump\t// in\ntag_98:\n    /* \"#utility.yul\":3195:3248   */\n  tag_45\n  jump\t// in\ntag_97:\n    /* \"#utility.yul\":3182:3248   */\n  swap1\n  pop\n    /* \"#utility.yul\":3112:3254   */\n  swap2\n  swap1\n  pop\n  jump\t// out\n    /* \"#utility.yul\":3260:3335   */\ntag_48:\n    /* \"#utility.yul\":3303:3306   */\n  0x00\n    /* \"#utility.yul\":3324:3329   */\n  dup2\n    /* \"#utility.yul\":3317:3329   */\n  swap1\n  pop\n    /* \"#utility.yul\":3260:3335   */\n  swap2\n  swap1\n  pop\n  jump\t// out\n    /* \"#utility.yul\":3341:3610   */\ntag_49:\n    /* \"#utility.yul\":3451:3490   */\n  tag_102\n    /* \"#utility.yul\":3482:3489   */\n  dup4\n    /* \"#utility.yul\":3451:3490   */\n  tag_47\n  jump\t// in\ntag_102:\n    /* \"#utility.yul\":3512:3603   */\n  tag_103\n    /* \"#utility.yul\":3561:3602   */\n  tag_104\n    /* \"#utility.yul\":3585:3601   */\n  dup3\n    /* \"#utility.yul\":3561:3602   */\n  tag_48\n  jump\t// in\ntag_104:\n    /* \"#utility.yul\":3553:3559   */\n  dup5\n    /* \"#utility.yul\":3546:3550   */\n  dup5\n    /* \"#utility.yul\":3540:3551   */\n  sload\n    /* \"#utility.yul\":3512:3603   */\n  tag_44\n  jump\t// in\ntag_103:\n    /* \"#utility.yul\":3506:3510   */\n  dup3\n    /* \"#utility.yul\":3499:3604   */\n  sstore\n    /* \"#utility.yul\":3417:3610   */\n  pop\n    /* \"#utility.yul\":3341:3610   */\n  pop\n  pop\n  pop\n  jump\t// out\n    /* \"#utility.yul\":3616:3689   */\ntag_50:\n    /* \"#utility.yul\":3661:3664   */\n  0x00\n    /* \"#utility.yul\":3682:3683   */\n  0x00\n    /* \"#utility.yul\":3675:3683   */\n  swap1\n  pop\n    /* \"#utility.yul\":3616:3689   */\n  swap1\n  jump\t// out\n    /* \"#utility.yul\":3695:3884   */\ntag_51:\n    /* \"#utility.yul\":3772:3804   */\n  tag_107\n  tag_50\n  jump\t// in\ntag_107:\n    /* \"#utility.yul\":3813:3878   */\n  tag_108\n    /* \"#utility.yul\":3871:3877   */\n  dup2\n    /* \"#utility.yul\":3863:3869   */\n  dup5\n    /* \"#utility.yul\":3857:3861   */\n  dup5\n    /* \"#utility.yul\":3813:3878   */\n  tag_49\n  jump\t// in\ntag_108:\n    /* \"#utility.yul\":3748:3884   */\n  pop\n    /* \"#utility.yul\":3695:3884   */\n  pop\n  pop\n  jump\t// out\n    /* \"#utility.yul\":3890:4076   */\ntag_52:\n    /* \"#utility.yul\":3950:4070   */\ntag_110:\n    /* \"#utility.yul\":3967:3970   */\n  dup2\n    /* \"#utility.yul\":3960:3965   */\n  dup2\n    /* \"#utility.yul\":3957:3971   */\n  lt\n    /* \"#utility.yul\":3950:4070   */\n  iszero\n  tag_112\n  jumpi\n    /* \"#utility.yul\":4021:4060   */\n  tag_113\n    /* \"#utility.yul\":4058:4059   */\n  0x00\n    /* \"#utility.yul\":4051:4056   */\n  dup3\n    /* \"#utility.yul\":4021:4060   */\n  tag_51\n  jump\t// in\ntag_113:\n    /* \"#utility.yul\":3994:3995   */\n  0x01\n    /* \"#utility.yul\":3987:3992   */\n  dup2\n    /* \"#utility.yul\":3983:3996   */\n  add\n    /* \"#utility.yul\":3974:3996   */\n  swap1\n  pop\n    /* \"#utility.yul\":3950:4070   */\n  jump(tag_110)\ntag_112:\n    /* \"#utility.yul\":3890:4076   */\n  pop\n  pop\n  jump\t// out\n    /* \"#utility.yul\":4082:4625   */\ntag_53:\n    /* \"#utility.yul\":4183:4185   */\n  0x1f\n    /* \"#utility.yul\":4178:4181   */\n  dup3\n    /* \"#utility.yul\":4175:4186   */\n  gt\n    /* \"#utility.yul\":4172:4618   */\n  iszero\n  tag_115\n  jumpi\n    /* \"#utility.yul\":4217:4255   */\n  tag_116\n    /* \"#utility.yul\":4249:4254   */\n  dup2\n    /* \"#utility.yul\":4217:4255   */\n  tag_41\n  jump\t// in\ntag_116:\n    /* \"#utility.yul\":4301:4330   */\n  tag_117\n    /* \"#utility.yul\":4319:4329   */\n  dup5\n    /* \"#utility.yul\":4301:4330   */\n  tag_42\n  jump\t// in\ntag_117:\n    /* \"#utility.yul\":4291:4299   */\n  dup2\n    /* \"#utility.yul\":4287:4331   */\n  add\n    /* \"#utility.yul\":4484:4486   */\n  0x20\n    /* \"#utility.yul\":4472:4482   */\n  dup6\n    /* \"#utility.yul\":4469:4487   */\n  lt\n    /* \"#utility.yul\":4466:4515   */\n  iszero\n  tag_118\n  jumpi\n    /* \"#utility.yul\":4505:4513   */\n  dup2\n    /* \"#utility.yul\":4490:4513   */\n  swap1\n  pop\n    /* \"#utility.yul\":4466:4515   */\ntag_118:\n    /* \"#utility.yul\":4528:4608   */\n  tag_119\n    /* \"#utility.yul\":4584:4606   */\n  tag_120\n    /* \"#utility.yul\":4602:4605   */\n  dup6\n    /* \"#utility.yul\":4584:4606   */\n  tag_42\n  jump\t// in\ntag_120:\n    /* \"#utility.yul\":4574:4582   */\n  dup4\n    /* \"#utility.yul\":4570:4607   */\n  add\n    /* \"#utility.yul\":4557:4568   */\n  dup3\n    /* \"#utility.yul\":4528:4608   */\n  tag_52\n  jump\t// in\ntag_119:\n    /* \"#utility.yul\":4187:4618   */\n  pop\n  pop\n    /* \"#utility.yul\":4172:4618   */\ntag_115:\n    /* \"#utility.yul\":4082:4625   */\n  pop\n  pop\n  pop\n  jump\t// out\n    /* \"#utility.yul\":4631:4748   */\ntag_54:\n    /* \"#utility.yul\":4685:4693   */\n  0x00\n    /* \"#utility.yul\":4735:4740   */\n  dup3\n    /* \"#utility.yul\":4729:4733   */\n  dup3\n    /* \"#utility.yul\":4725:4741   */\n  shr\n    /* \"#utility.yul\":4704:4741   */\n  swap1\n  pop\n    /* \"#utility.yul\":4631:4748   */\n  swap3\n  swap2\n  pop\n  pop\n  jump\t// out\n    /* \"#utility.yul\":4754:4923   */\ntag_55:\n    /* \"#utility.yul\":4798:4804   */\n  0x00\n    /* \"#utility.yul\":4831:4882   */\n  tag_123\n    /* \"#utility.yul\":4879:4880   */\n  0x00\n    /* \"#utility.yul\":4875:4881   */\n  not\n    /* \"#utility.yul\":4867:4872   */\n  dup5\n    /* \"#utility.yul\":4864:4865   */\n  0x08\n    /* \"#utility.yul\":4860:4873   */\n  mul\n    /* \"#utility.yul\":4831:4882   */\n  tag_54\n  jump\t// in\ntag_123:\n    /* \"#utility.yul\":4827:4883   */\n  not\n    /* \"#utility.yul\":4912:4916   */\n  dup1\n    /* \"#utility.yul\":4906:4910   */\n  dup4\n    /* \"#utility.yul\":4902:4917   */\n  and\n    /* \"#utility.yul\":4892:4917   */\n  swap2\n  pop\n    /* \"#utility.yul\":4805:4923   */\n  pop\n    /* \"#utility.yul\":4754:4923   */\n  swap3\n  swap2\n  pop\n  pop\n  jump\t// out\n    /* \"#utility.yul\":4928:5223   */\ntag_56:\n    /* \"#utility.yul\":5004:5008   */\n  0x00\n    /* \"#utility.yul\":5150:5179   */\n  tag_125\n    /* \"#utility.yul\":5175:5178   */\n  dup4\n    /* \"#utility.yul\":5169:5173   */\n  dup4\n    /* \"#utility.yul\":5150:5179   */\n  tag_55\n  jump\t// in\ntag_125:\n    /* \"#utility.yul\":5142:5179   */\n  swap2\n  pop\n    /* \"#utility.yul\":5212:5215   */\n  dup3\n    /* \"#utility.yul\":5209:5210   */\n  0x02\n    /* \"#utility.yul\":5205:5216   */\n  mul\n    /* \"#utility.yul\":5199:5203   */\n  dup3\n    /* \"#utility.yul\":5196:5217   */\n  or\n    /* \"#utility.yul\":5188:5217   */\n  swap1\n  pop\n    /* \"#utility.yul\":4928:5223   */\n  swap3\n  swap2\n  pop\n  pop\n  jump\t// out\n    /* \"#utility.yul\":5228:6623   */\ntag_9:\n    /* \"#utility.yul\":5345:5382   */\n  tag_127\n    /* \"#utility.yul\":5378:5381   */\n  dup3\n    /* \"#utility.yul\":5345:5382   */\n  tag_37\n  jump\t// in\ntag_127:\n    /* \"#utility.yul\":5447:5465   */\n  0xffffffffffffffff\n    /* \"#utility.yul\":5439:5445   */\n  dup2\n    /* \"#utility.yul\":5436:5466   */\n  gt\n    /* \"#utility.yul\":5433:5489   */\n  iszero\n  tag_128\n  jumpi\n    /* \"#utility.yul\":5469:5487   */\n  tag_129\n  tag_38\n  jump\t// in\ntag_129:\n    /* \"#utility.yul\":5433:5489   */\ntag_128:\n    /* \"#utility.yul\":5513:5551   */\n  tag_130\n    /* \"#utility.yul\":5545:5549   */\n  dup3\n    /* \"#utility.yul\":5539:5550   */\n  sload\n    /* \"#utility.yul\":5513:5551   */\n  tag_40\n  jump\t// in\ntag_130:\n    /* \"#utility.yul\":5598:5665   */\n  tag_131\n    /* \"#utility.yul\":5658:5664   */\n  dup3\n    /* \"#utility.yul\":5650:5656   */\n  dup3\n    /* \"#utility.yul\":5644:5648   */\n  dup6\n    /* \"#utility.yul\":5598:5665   */\n  tag_53\n  jump\t// in\ntag_131:\n    /* \"#utility.yul\":5692:5693   */\n  0x00\n    /* \"#utility.yul\":5716:5720   */\n  0x20\n    /* \"#utility.yul\":5703:5720   */\n  swap1\n  pop\n    /* \"#utility.yul\":5748:5750   */\n  0x1f\n    /* \"#utility.yul\":5740:5746   */\n  dup4\n    /* \"#utility.yul\":5737:5751   */\n  gt\n    /* \"#utility.yul\":5765:5766   */\n  0x01\n    /* \"#utility.yul\":5760:6378   */\n  dup2\n  eq\n  tag_133\n  jumpi\n    /* \"#utility.yul\":6422:6423   */\n  0x00\n    /* \"#utility.yul\":6439:6445   */\n  dup5\n    /* \"#utility.yul\":6436:6513   */\n  iszero\n  tag_134\n  jumpi\n    /* \"#utility.yul\":6488:6497   */\n  dup3\n    /* \"#utility.yul\":6483:6486   */\n  dup8\n    /* \"#utility.yul\":6479:6498   */\n  add\n    /* \"#utility.yul\":6473:6499   */\n  mload\n    /* \"#utility.yul\":6464:6499   */\n  swap1\n  pop\n    /* \"#utility.yul\":6436:6513   */\ntag_134:\n    /* \"#utility.yul\":6539:6606   */\n  tag_135\n    /* \"#utility.yul\":6599:6605   */\n  dup6\n    /* \"#utility.yul\":6592:6597   */\n  dup3\n    /* \"#utility.yul\":6539:6606   */\n  tag_56\n  jump\t// in\ntag_135:\n    /* \"#utility.yul\":6533:6537   */\n  dup7\n    /* \"#utility.yul\":6526:6607   */\n  sstore\n    /* \"#utility.yul\":6395:6617   */\n  pop\n    /* \"#utility.yul\":5730:6617   */\n  jump(tag_132)\n    /* \"#utility.yul\":5760:6378   */\ntag_133:\n    /* \"#utility.yul\":5812:5816   */\n  0x1f\n    /* \"#utility.yul\":5808:5817   */\n  not\n    /* \"#utility.yul\":5800:5806   */\n  dup5\n    /* \"#utility.yul\":5796:5818   */\n  and\n    /* \"#utility.yul\":5846:5883   */\n  tag_136\n    /* \"#utility.yul\":5878:5882   */\n  dup7\n    /* \"#utility.yul\":5846:5883   */\n  tag_41\n  jump\t// in\ntag_136:\n    /* \"#utility.yul\":5905:5906   */\n  0x00\n    /* \"#utility.yul\":5919:6127   */\ntag_137:\n    /* \"#utility.yul\":5933:5940   */\n  dup3\n    /* \"#utility.yul\":5930:5931   */\n  dup2\n    /* \"#utility.yul\":5927:5941   */\n  lt\n    /* \"#utility.yul\":5919:6127   */\n  iszero\n  tag_139\n  jumpi\n    /* \"#utility.yul\":6012:6021   */\n  dup5\n    /* \"#utility.yul\":6007:6010   */\n  dup10\n    /* \"#utility.yul\":6003:6022   */\n  add\n    /* \"#utility.yul\":5997:6023   */\n  mload\n    /* \"#utility.yul\":5989:5995   */\n  dup3\n    /* \"#utility.yul\":5982:6024   */\n  sstore\n    /* \"#utility.yul\":6063:6064   */\n  0x01\n    /* \"#utility.yul\":6055:6061   */\n  dup3\n    /* \"#utility.yul\":6051:6065   */\n  add\n    /* \"#utility.yul\":6041:6065   */\n  swap2\n  pop\n    /* \"#utility.yul\":6110:6112   */\n  0x20\n    /* \"#utility.yul\":6099:6108   */\n  dup6\n    /* \"#utility.yul\":6095:6113   */\n  add\n    /* \"#utility.yul\":6082:6113   */\n  swap5\n  pop\n    /* \"#utility.yul\":5956:5960   */\n  0x20\n    /* \"#utility.yul\":5953:5954   */\n  dup2\n    /* \"#utility.yul\":5949:5961   */\n  add\n    /* \"#utility.yul\":5944:5961   */\n  swap1\n  pop\n    /* \"#utility.yul\":5919:6127   */\n  jump(tag_137)\ntag_139:\n    /* \"#utility.yul\":6155:6161   */\n  dup7\n    /* \"#utility.yul\":6146:6153   */\n  dup4\n    /* \"#utility.yul\":6143:6162   */\n  lt\n    /* \"#utility.yul\":6140:6319   */\n  iszero\n  tag_140\n  jumpi\n    /* \"#utility.yul\":6213:6222   */\n  dup5\n    /* \"#utility.yul\":6208:6211   */\n  dup10\n    /* \"#utility.yul\":6204:6223   */\n  add\n    /* \"#utility.yul\":6198:6224   */\n  mload\n    /* \"#utility.yul\":6256:6304   */\n  tag_141\n    /* \"#utility.yul\":6298:6302   */\n  0x1f\n    /* \"#utility.yul\":6290:6296   */\n  dup10\n    /* \"#utility.yul\":6286:6303   */\n  and\n    /* \"#utility.yul\":6275:6284   */\n  dup3\n    /* \"#utility.yul\":6256:6304   */\n  tag_55\n  jump\t// in\ntag_141:\n    /* \"#utility.yul\":6248:6254   */\n  dup4\n    /* \"#utility.yul\":6241:6305   */\n  sstore\n    /* \"#utility.yul\":6163:6319   */\n  pop\n    /* \"#utility.yul\":6140:6319   */\ntag_140:\n    /* \"#utility.yul\":6365:6366   */\n  0x01\n    /* \"#utility.yul\":6361:6362   */\n  0x02\n    /* \"#utility.yul\":6353:6359   */\n  dup9\n    /* \"#utility.yul\":6349:6363   */\n  mul\n    /* \"#utility.yul\":6345:6367   */\n  add\n    /* \"#utility.yul\":6339:6343   */\n  dup9\n    /* \"#utility.yul\":6332:6368   */\n  sstore\n    /* \"#utility.yul\":5767:6378   */\n  pop\n  pop\n  pop\n    /* \"#utility.yul\":5730:6617   */\ntag_132:\n  pop\n    /* \"#utility.yul\":5320:6623   */\n  pop\n  pop\n  pop\n    /* \"#utility.yul\":5228:6623   */\n  pop\n  pop\n  jump\t// out\n    /* \"#utility.yul\":6629:6727   */\ntag_57:\n    /* \"#utility.yul\":6680:6686   */\n  0x00\n    /* \"#utility.yul\":6714:6719   */\n  dup2\n    /* \"#utility.yul\":6708:6720   */\n  mload\n    /* \"#utility.yul\":6698:6720   */\n  swap1\n  pop\n    /* \"#utility.yul\":6629:6727   */\n  swap2\n  swap1\n  pop\n  jump\t// out\n    /* \"#utility.yul\":6733:6880   */\ntag_58:\n    /* \"#utility.yul\":6834:6845   */\n  0x00\n    /* \"#utility.yul\":6871:6874   */\n  dup2\n    /* \"#utility.yul\":6856:6874   */\n  swap1\n  pop\n    /* \"#utility.yul\":6733:6880   */\n  swap3\n  swap2\n  pop\n  pop\n  jump\t// out\n    /* \"#utility.yul\":6886:7025   */\ntag_59:\n    /* \"#utility.yul\":6975:6981   */\n  dup3\n    /* \"#utility.yul\":6970:6973   */\n  dup2\n    /* \"#utility.yul\":6965:6968   */\n  dup4\n    /* \"#utility.yul\":6959:6982   */\n  mcopy\n    /* \"#utility.yul\":7016:7017   */\n  0x00\n    /* \"#utility.yul\":7007:7013   */\n  dup4\n    /* \"#utility.yul\":7002:7005   */\n  dup4\n    /* \"#utility.yul\":6998:7014   */\n  add\n    /* \"#utility.yul\":6991:7018   */\n  mstore\n    /* \"#utility.yul\":6886:7025   */\n  pop\n  pop\n  pop\n  jump\t// out\n    /* \"#utility.yul\":7031:7417   */\ntag_60:\n    /* \"#utility.yul\":7135:7138   */\n  0x00\n    /* \"#utility.yul\":7163:7201   */\n  tag_146\n    /* \"#utility.yul\":7195:7200   */\n  dup3\n    /* \"#utility.yul\":7163:7201   */\n  tag_57\n  jump\t// in\ntag_146:\n    /* \"#utility.yul\":7217:7305   */\n  tag_147\n    /* \"#utility.yul\":7298:7304   */\n  dup2\n    /* \"#utility.yul\":7293:7296   */\n  dup6\n    /* \"#utility.yul\":7217:7305   */\n  tag_58\n  jump\t// in\ntag_147:\n    /* \"#utility.yul\":7210:7305   */\n  swap4\n  pop\n    /* \"#utility.yul\":7314:7379   */\n  tag_148\n    /* \"#utility.yul\":7372:7378   */\n  dup2\n    /* \"#utility.yul\":7367:7370   */\n  dup6\n    /* \"#utility.yul\":7360:7364   */\n  0x20\n    /* \"#utility.yul\":7353:7358   */\n  dup7\n    /* \"#utility.yul\":7349:7365   */\n  add\n    /* \"#utility.yul\":7314:7379   */\n  tag_59\n  jump\t// in\ntag_148:\n    /* \"#utility.yul\":7404:7410   */\n  dup1\n    /* \"#utility.yul\":7399:7402   */\n  dup5\n    /* \"#utility.yul\":7395:7411   */\n  add\n    /* \"#utility.yul\":7388:7411   */\n  swap2\n  pop\n    /* \"#utility.yul\":7139:7417   */\n  pop\n    /* \"#utility.yul\":7031:7417   */\n  swap3\n  swap2\n  pop\n  pop\n  jump\t// out\n    /* \"#utility.yul\":7423:7694   */\ntag_20:\n    /* \"#utility.yul\":7553:7556   */\n  0x00\n    /* \"#utility.yul\":7575:7668   */\n  tag_150\n    /* \"#utility.yul\":7664:7667   */\n  dup3\n    /* \"#utility.yul\":7655:7661   */\n  dup5\n    /* \"#utility.yul\":7575:7668   */\n  tag_60\n  jump\t// in\ntag_150:\n    /* \"#utility.yul\":7568:7668   */\n  swap2\n  pop\n    /* \"#utility.yul\":7685:7688   */\n  dup2\n    /* \"#utility.yul\":7678:7688   */\n  swap1\n  pop\n    /* \"#utility.yul\":7423:7694   */\n  swap3\n  swap2\n  pop\n  pop\n  jump\t// out\n    /* \"#utility.yul\":7700:7822   */\ntag_61:\n    /* \"#utility.yul\":7773:7797   */\n  tag_152\n    /* \"#utility.yul\":7791:7796   */\n  dup2\n    /* \"#utility.yul\":7773:7797   */\n  tag_45\n  jump\t// in\ntag_152:\n    /* \"#utility.yul\":7766:7771   */\n  dup2\n    /* \"#utility.yul\":7763:7798   */\n  eq\n    /* \"#utility.yul\":7753:7816   */\n  tag_153\n  jumpi\n    /* \"#utility.yul\":7812:7813   */\n  0x00\n    /* \"#utility.yul\":7809:7810   */\n  0x00\n    /* \"#utility.yul\":7802:7814   */\n  revert\n    /* \"#utility.yul\":7753:7816   */\ntag_153:\n    /* \"#utility.yul\":7700:7822   */\n  pop\n  jump\t// out\n    /* \"#utility.yul\":7828:7971   */\ntag_62:\n    /* \"#utility.yul\":7885:7890   */\n  0x00\n    /* \"#utility.yul\":7916:7922   */\n  dup2\n    /* \"#utility.yul\":7910:7923   */\n  mload\n    /* \"#utility.yul\":7901:7923   */\n  swap1\n  pop\n    /* \"#utility.yul\":7932:7965   */\n  tag_155\n    /* \"#utility.yul\":7959:7964   */\n  dup2\n    /* \"#utility.yul\":7932:7965   */\n  tag_61\n  jump\t// in\ntag_155:\n    /* \"#utility.yul\":7828:7971   */\n  swap3\n  swap2\n  pop\n  pop\n  jump\t// out\n    /* \"#utility.yul\":7977:8328   */\ntag_27:\n    /* \"#utility.yul\":8047:8053   */\n  0x00\n    /* \"#utility.yul\":8096:8098   */\n  0x20\n    /* \"#utility.yul\":8084:8093   */\n  dup3\n    /* \"#utility.yul\":8075:8082   */\n  dup5\n    /* \"#utility.yul\":8071:8094   */\n  sub\n    /* \"#utility.yul\":8067:8099   */\n  slt\n    /* \"#utility.yul\":8064:8183   */\n  iszero\n  tag_157\n  jumpi\n    /* \"#utility.yul\":8102:8181   */\n  tag_158\n  tag_30\n  jump\t// in\ntag_158:\n    /* \"#utility.yul\":8064:8183   */\ntag_157:\n    /* \"#utility.yul\":8222:8223   */\n  0x00\n    /* \"#utility.yul\":8247:8311   */\n  tag_159\n    /* \"#utility.yul\":8303:8310   */\n  dup5\n    /* \"#utility.yul\":8294:8300   */\n  dup3\n    /* \"#utility.yul\":8283:8292   */\n  dup6\n    /* \"#utility.yul\":8279:8301   */\n  add\n    /* \"#utility.yul\":8247:8311   */\n  tag_62\n  jump\t// in\ntag_159:\n    /* \"#utility.yul\":8237:8311   */\n  swap2\n  pop\n    /* \"#utility.yul\":8193:8321   */\n  pop\n    /* \"#utility.yul\":7977:8328   */\n  swap3\n  swap2\n  pop\n  pop\n  jump\t// out\n    /* \"contracts/DimSumVault.sol\":196:1073  contract DimSumVault is ERC4626 {... */\ntag_17:\n  mload(0x80)\n  mload(0xa0)\n  codecopy(0x00, dataOffset(sub_0), dataSize(sub_0))\n  0x00\n  assignImmutable(\"0x795dcf830090319074c4e36a23e7ad6013124a9e4afc765f3f324f667dfac3a5\")\n  0x00\n  assignImmutable(\"0xe3fb6c7a68b97a1574f1623712f47cd0a60a3212aae0a2101a56c312e7330127\")\n  return(0x00, dataSize(sub_0))\nstop\n\nsub_0: assembly {\n        /* \"contracts/DimSumVault.sol\":196:1073  contract DimSumVault is ERC4626 {... */\n      mstore(0x40, 0x80)\n      callvalue\n      dup1\n      iszero\n      tag_1\n      jumpi\n      revert(0x00, 0x00)\n    tag_1:\n      pop\n      jumpi(tag_2, lt(calldatasize, 0x04))\n      shr(0xe0, calldataload(0x00))\n      dup1\n      0x70a08231\n      gt\n      tag_31\n      jumpi\n      dup1\n      0xba087652\n      gt\n      tag_32\n      jumpi\n      dup1\n      0xce96cb77\n      gt\n      tag_33\n      jumpi\n      dup1\n      0xce96cb77\n      eq\n      tag_27\n      jumpi\n      dup1\n      0xd905777e\n      eq\n      tag_28\n      jumpi\n      dup1\n      0xdd62ed3e\n      eq\n      tag_29\n      jumpi\n      dup1\n      0xef8b30f7\n      eq\n      tag_30\n      jumpi\n      jump(tag_2)\n    tag_33:\n      dup1\n      0xba087652\n      eq\n      tag_24\n      jumpi\n      dup1\n      0xc63d75b6\n      eq\n      tag_25\n      jumpi\n      dup1\n      0xc6e6f592\n      eq\n      tag_26\n      jumpi\n      jump(tag_2)\n    tag_32:\n      dup1\n      0x95d89b41\n      gt\n      tag_34\n      jumpi\n      dup1\n      0x95d89b41\n      eq\n      tag_20\n      jumpi\n      dup1\n      0xa9059cbb\n      eq\n      tag_21\n      jumpi\n      dup1\n      0xb3d7f6b9\n      eq\n      tag_22\n      jumpi\n      dup1\n      0xb460af94\n      eq\n      tag_23\n      jumpi\n      jump(tag_2)\n    tag_34:\n      dup1\n      0x70a08231\n      eq\n      tag_17\n      jumpi\n      dup1\n      0x934160a1\n      eq\n      tag_18\n      jumpi\n      dup1\n      0x94bf804d\n      eq\n      tag_19\n      jumpi\n      jump(tag_2)\n    tag_31:\n      dup1\n      0x307a5ef4\n      gt\n      tag_35\n      jumpi\n      dup1\n      0x402d267d\n      gt\n      tag_36\n      jumpi\n      dup1\n      0x402d267d\n      eq\n      tag_13\n      jumpi\n      dup1\n      0x48835594\n      eq\n      tag_14\n      jumpi\n      dup1\n      0x4cdad506\n      eq\n      tag_15\n      jumpi\n      dup1\n      0x6e553f65\n      eq\n      tag_16\n      jumpi\n      jump(tag_2)\n    tag_36:\n      dup1\n      0x307a5ef4\n      eq\n      tag_10\n      jumpi\n      dup1\n      0x313ce567\n      eq\n      tag_11\n      jumpi\n      dup1\n      0x38d52e0f\n      eq\n      tag_12\n      jumpi\n      jump(tag_2)\n    tag_35:\n      dup1\n      0x095ea7b3\n      gt\n      tag_37\n      jumpi\n      dup1\n      0x095ea7b3\n      eq\n      tag_6\n      jumpi\n      dup1\n      0x0a28a477\n      eq\n      tag_7\n      jumpi\n      dup1\n      0x18160ddd\n      eq\n      tag_8\n      jumpi\n      dup1\n      0x23b872dd\n      eq\n      tag_9\n      jumpi\n      jump(tag_2)\n    tag_37:\n      dup1\n      0x01e1d114\n      eq\n      tag_3\n      jumpi\n      dup1\n      0x06fdde03\n      eq\n      tag_4\n      jumpi\n      dup1\n      0x07a2d13a\n      eq\n      tag_5\n      jumpi\n    tag_2:\n      revert(0x00, 0x00)\n        /* \"@openzeppelin/contracts/token/ERC20/extensions/ERC4626.sol\":5780:5896  function totalAssets() public view virtual returns (uint256) {... */\n    tag_3:\n      tag_38\n      tag_39\n      jump\t// in\n    tag_38:\n      mload(0x40)\n      tag_40\n      swap2\n      swap1\n      tag_41\n      jump\t// in\n    tag_40:\n      mload(0x40)\n      dup1\n      swap2\n      sub\n      swap1\n      return\n        /* \"@openzeppelin/contracts/token/ERC20/ERC20.sol\":2074:2163  function name() public view virtual returns (string memory) {... */\n    tag_4:\n      tag_42\n      tag_43\n      jump\t// in\n    tag_42:\n      mload(0x40)\n      tag_44\n      swap2\n      swap1\n      tag_45\n      jump\t// in\n    tag_44:\n      mload(0x40)\n      dup1\n      swap2\n      sub\n      swap1\n      return\n        /* \"@openzeppelin/contracts/token/ERC20/extensions/ERC4626.sol\":6152:6300  function convertToAssets(uint256 shares) public view virtual returns (uint256) {... */\n    tag_5:\n      tag_46\n      0x04\n      dup1\n      calldatasize\n      sub\n      dup2\n      add\n      swap1\n      tag_47\n      swap2\n      swap1\n      tag_48\n      jump\t// in\n    tag_47:\n      tag_49\n      jump\t// in\n    tag_46:\n      mload(0x40)\n      tag_50\n      swap2\n      swap1\n      tag_41\n      jump\t// in\n    tag_50:\n      mload(0x40)\n      dup1\n      swap2\n      sub\n      swap1\n      return\n        /* \"@openzeppelin/contracts/token/ERC20/ERC20.sol\":4293:4479  function approve(address spender, uint256 value) public virtual returns (bool) {... */\n    tag_6:\n      tag_51\n      0x04\n      dup1\n      calldatasize\n      sub\n      dup2\n      add\n      swap1\n      tag_52\n      swap2\n      swap1\n      tag_53\n      jump\t// in\n    tag_52:\n      tag_54\n      jump\t// in\n    tag_51:\n      mload(0x40)\n      tag_55\n      swap2\n      swap1\n      tag_56\n      jump\t// in\n    tag_55:\n      mload(0x40)\n      dup1\n      swap2\n      sub\n      swap1\n      return\n        /* \"@openzeppelin/contracts/token/ERC20/extensions/ERC4626.sol\":7418:7565  function previewWithdraw(uint256 assets) public view virtual returns (uint256) {... */\n    tag_7:\n      tag_57\n      0x04\n      dup1\n      calldatasize\n      sub\n      dup2\n      add\n      swap1\n      tag_58\n      swap2\n      swap1\n      tag_48\n      jump\t// in\n    tag_58:\n      tag_59\n      jump\t// in\n    tag_57:\n      mload(0x40)\n      tag_60\n      swap2\n      swap1\n      tag_41\n      jump\t// in\n    tag_60:\n      mload(0x40)\n      dup1\n      swap2\n      sub\n      swap1\n      return\n        /* \"@openzeppelin/contracts/token/ERC20/ERC20.sol\":3144:3241  function totalSupply() public view virtual returns (uint256) {... */\n    tag_8:\n      tag_61\n      tag_62\n      jump\t// in\n    tag_61:\n      mload(0x40)\n      tag_63\n      swap2\n      swap1\n      tag_41\n      jump\t// in\n    tag_63:\n      mload(0x40)\n      dup1\n      swap2\n      sub\n      swap1\n      return\n        /* \"@openzeppelin/contracts/token/ERC20/ERC20.sol\":5039:5283  function transferFrom(address from, address to, uint256 value) public virtual returns (bool) {... */\n    tag_9:\n      tag_64\n      0x04\n      dup1\n      calldatasize\n      sub\n      dup2\n      add\n      swap1\n      tag_65\n      swap2\n      swap1\n      tag_66\n      jump\t// in\n    tag_65:\n      tag_67\n      jump\t// in\n    tag_64:\n      mload(0x40)\n      tag_68\n      swap2\n      swap1\n      tag_56\n      jump\t// in\n    tag_68:\n      mload(0x40)\n      dup1\n      swap2\n      sub\n      swap1\n      return\n        /* \"contracts/DimSumVault.sol\":823:1068  function vaultRedeem(uint256 vaultShares, address vaultReceiver, address vaultOwner) public returns (uint256 assets){... */\n    tag_10:\n      tag_69\n      0x04\n      dup1\n      calldatasize\n      sub\n      dup2\n      add\n      swap1\n      tag_70\n      swap2\n      swap1\n      tag_71\n      jump\t// in\n    tag_70:\n      tag_72\n      jump\t// in\n    tag_69:\n      mload(0x40)\n      tag_73\n      swap2\n      swap1\n      tag_41\n      jump\t// in\n    tag_73:\n      mload(0x40)\n      dup1\n      swap2\n      sub\n      swap1\n      return\n        /* \"@openzeppelin/contracts/token/ERC20/extensions/ERC4626.sol\":5441:5592  function decimals() public view virtual override(IERC20Metadata, ERC20) returns (uint8) {... */\n    tag_11:\n      tag_74\n      tag_75\n      jump\t// in\n    tag_74:\n      mload(0x40)\n      tag_76\n      swap2\n      swap1\n      tag_77\n      jump\t// in\n    tag_76:\n      mload(0x40)\n      dup1\n      swap2\n      sub\n      swap1\n      return\n        /* \"@openzeppelin/contracts/token/ERC20/extensions/ERC4626.sol\":5636:5730  function asset() public view virtual returns (address) {... */\n    tag_12:\n      tag_78\n      tag_79\n      jump\t// in\n    tag_78:\n      mload(0x40)\n      tag_80\n      swap2\n      swap1\n      tag_81\n      jump\t// in\n    tag_80:\n      mload(0x40)\n      dup1\n      swap2\n      sub\n      swap1\n      return\n        /* \"@openzeppelin/contracts/token/ERC20/extensions/ERC4626.sol\":6349:6457  function maxDeposit(address) public view virtual returns (uint256) {... */\n    tag_13:\n      tag_82\n      0x04\n      dup1\n      calldatasize\n      sub\n      dup2\n      add\n      swap1\n      tag_83\n      swap2\n      swap1\n      tag_84\n      jump\t// in\n    tag_83:\n      tag_85\n      jump\t// in\n    tag_82:\n      mload(0x40)\n      tag_86\n      swap2\n      swap1\n      tag_41\n      jump\t// in\n    tag_86:\n      mload(0x40)\n      dup1\n      swap2\n      sub\n      swap1\n      return\n        /* \"contracts/DimSumVault.sol\":347:562  function vaultDeposit(uint256 vaultAssets, address vaultReceiver) public returns (uint256 shares) {... */\n    tag_14:\n      tag_87\n      0x04\n      dup1\n      calldatasize\n      sub\n      dup2\n      add\n      swap1\n      tag_88\n      swap2\n      swap1\n      tag_89\n      jump\t// in\n    tag_88:\n      tag_90\n      jump\t// in\n    tag_87:\n      mload(0x40)\n      tag_91\n      swap2\n      swap1\n      tag_41\n      jump\t// in\n    tag_91:\n      mload(0x40)\n      dup1\n      swap2\n      sub\n      swap1\n      return\n        /* \"@openzeppelin/contracts/token/ERC20/extensions/ERC4626.sol\":7617:7763  function previewRedeem(uint256 shares) public view virtual returns (uint256) {... */\n    tag_15:\n      tag_92\n      0x04\n      dup1\n      calldatasize\n      sub\n      dup2\n      add\n      swap1\n      tag_93\n      swap2\n      swap1\n      tag_48\n      jump\t// in\n    tag_93:\n      tag_94\n      jump\t// in\n    tag_92:\n      mload(0x40)\n      tag_95\n      swap2\n      swap1\n      tag_41\n      jump\t// in\n    tag_95:\n      mload(0x40)\n      dup1\n      swap2\n      sub\n      swap1\n      return\n        /* \"@openzeppelin/contracts/token/ERC20/extensions/ERC4626.sol\":7809:8201  function deposit(uint256 assets, address receiver) public virtual returns (uint256) {... */\n    tag_16:\n      tag_96\n      0x04\n      dup1\n      calldatasize\n      sub\n      dup2\n      add\n      swap1\n      tag_97\n      swap2\n      swap1\n      tag_89\n      jump\t// in\n    tag_97:\n      tag_98\n      jump\t// in\n    tag_96:\n      mload(0x40)\n      tag_99\n      swap2\n      swap1\n      tag_41\n      jump\t// in\n    tag_99:\n      mload(0x40)\n      dup1\n      swap2\n      sub\n      swap1\n      return\n        /* \"@openzeppelin/contracts/token/ERC20/ERC20.sol\":3299:3415  function balanceOf(address account) public view virtual returns (uint256) {... */\n    tag_17:\n      tag_100\n      0x04\n      dup1\n      calldatasize\n      sub\n      dup2\n      add\n      swap1\n      tag_101\n      swap2\n      swap1\n      tag_84\n      jump\t// in\n    tag_101:\n      tag_102\n      jump\t// in\n    tag_100:\n      mload(0x40)\n      tag_103\n      swap2\n      swap1\n      tag_41\n      jump\t// in\n    tag_103:\n      mload(0x40)\n      dup1\n      swap2\n      sub\n      swap1\n      return\n        /* \"contracts/DimSumVault.sol\":568:817  function vaultWithdraw(uint256 vaultAssets, address vaultReceiver, address vaultOwner) public returns (uint256 shares) {... */\n    tag_18:\n      tag_104\n      0x04\n      dup1\n      calldatasize\n      sub\n      dup2\n      add\n      swap1\n      tag_105\n      swap2\n      swap1\n      tag_71\n      jump\t// in\n    tag_105:\n      tag_106\n      jump\t// in\n    tag_104:\n      mload(0x40)\n      tag_107\n      swap2\n      swap1\n      tag_41\n      jump\t// in\n    tag_107:\n      mload(0x40)\n      dup1\n      swap2\n      sub\n      swap1\n      return\n        /* \"@openzeppelin/contracts/token/ERC20/extensions/ERC4626.sol\":8468:8848  function mint(uint256 shares, address receiver) public virtual returns (uint256) {... */\n    tag_19:\n      tag_108\n      0x04\n      dup1\n      calldatasize\n      sub\n      dup2\n      add\n      swap1\n      tag_109\n      swap2\n      swap1\n      tag_89\n      jump\t// in\n    tag_109:\n      tag_110\n      jump\t// in\n    tag_108:\n      mload(0x40)\n      tag_111\n      swap2\n      swap1\n      tag_41\n      jump\t// in\n    tag_111:\n      mload(0x40)\n      dup1\n      swap2\n      sub\n      swap1\n      return\n        /* \"@openzeppelin/contracts/token/ERC20/ERC20.sol\":2276:2369  function symbol() public view virtual returns (string memory) {... */\n    tag_20:\n      tag_112\n      tag_113\n      jump\t// in\n    tag_112:\n      mload(0x40)\n      tag_114\n      swap2\n      swap1\n      tag_45\n      jump\t// in\n    tag_114:\n      mload(0x40)\n      dup1\n      swap2\n      sub\n      swap1\n      return\n        /* \"@openzeppelin/contracts/token/ERC20/ERC20.sol\":3610:3788  function transfer(address to, uint256 value) public virtual returns (bool) {... */\n    tag_21:\n      tag_115\n      0x04\n      dup1\n      calldatasize\n      sub\n      dup2\n      add\n      swap1\n      tag_116\n      swap2\n      swap1\n      tag_53\n      jump\t// in\n    tag_116:\n      tag_117\n      jump\t// in\n    tag_115:\n      mload(0x40)\n      tag_118\n      swap2\n      swap1\n      tag_56\n      jump\t// in\n    tag_118:\n      mload(0x40)\n      dup1\n      swap2\n      sub\n      swap1\n      return\n        /* \"@openzeppelin/contracts/token/ERC20/extensions/ERC4626.sol\":7221:7364  function previewMint(uint256 shares) public view virtual returns (uint256) {... */\n    tag_22:\n      tag_119\n      0x04\n      dup1\n      calldatasize\n      sub\n      dup2\n      add\n      swap1\n      tag_120\n      swap2\n      swap1\n      tag_48\n      jump\t// in\n    tag_120:\n      tag_121\n      jump\t// in\n    tag_119:\n      mload(0x40)\n      tag_122\n      swap2\n      swap1\n      tag_41\n      jump\t// in\n    tag_122:\n      mload(0x40)\n      dup1\n      swap2\n      sub\n      swap1\n      return\n        /* \"@openzeppelin/contracts/token/ERC20/extensions/ERC4626.sol\":8895:9308  function withdraw(uint256 assets, address receiver, address owner) public virtual returns (uint256) {... */\n    tag_23:\n      tag_123\n      0x04\n      dup1\n      calldatasize\n      sub\n      dup2\n      add\n      swap1\n      tag_124\n      swap2\n      swap1\n      tag_71\n      jump\t// in\n    tag_124:\n      tag_125\n      jump\t// in\n    tag_123:\n      mload(0x40)\n      tag_126\n      swap2\n      swap1\n      tag_41\n      jump\t// in\n    tag_126:\n      mload(0x40)\n      dup1\n      swap2\n      sub\n      swap1\n      return\n        /* \"@openzeppelin/contracts/token/ERC20/extensions/ERC4626.sol\":9353:9758  function redeem(uint256 shares, address receiver, address owner) public virtual returns (uint256) {... */\n    tag_24:\n      tag_127\n      0x04\n      dup1\n      calldatasize\n      sub\n      dup2\n      add\n      swap1\n      tag_128\n      swap2\n      swap1\n      tag_71\n      jump\t// in\n    tag_128:\n      tag_129\n      jump\t// in\n    tag_127:\n      mload(0x40)\n      tag_130\n      swap2\n      swap1\n      tag_41\n      jump\t// in\n    tag_130:\n      mload(0x40)\n      dup1\n      swap2\n      sub\n      swap1\n      return\n        /* \"@openzeppelin/contracts/token/ERC20/extensions/ERC4626.sol\":6503:6608  function maxMint(address) public view virtual returns (uint256) {... */\n    tag_25:\n      tag_131\n      0x04\n      dup1\n      calldatasize\n      sub\n      dup2\n      add\n      swap1\n      tag_132\n      swap2\n      swap1\n      tag_84\n      jump\t// in\n    tag_132:\n      tag_133\n      jump\t// in\n    tag_131:\n      mload(0x40)\n      tag_134\n      swap2\n      swap1\n      tag_41\n      jump\t// in\n    tag_134:\n      mload(0x40)\n      dup1\n      swap2\n      sub\n      swap1\n      return\n        /* \"@openzeppelin/contracts/token/ERC20/extensions/ERC4626.sol\":5950:6098  function convertToShares(uint256 assets) public view virtual returns (uint256) {... */\n    tag_26:\n      tag_135\n      0x04\n      dup1\n      calldatasize\n      sub\n      dup2\n      add\n      swap1\n      tag_136\n      swap2\n      swap1\n      tag_48\n      jump\t// in\n    tag_136:\n      tag_137\n      jump\t// in\n    tag_135:\n      mload(0x40)\n      tag_138\n      swap2\n      swap1\n      tag_41\n      jump\t// in\n    tag_138:\n      mload(0x40)\n      dup1\n      swap2\n      sub\n      swap1\n      return\n        /* \"@openzeppelin/contracts/token/ERC20/extensions/ERC4626.sol\":6658:6811  function maxWithdraw(address owner) public view virtual returns (uint256) {... */\n    tag_27:\n      tag_139\n      0x04\n      dup1\n      calldatasize\n      sub\n      dup2\n      add\n      swap1\n      tag_140\n      swap2\n      swap1\n      tag_84\n      jump\t// in\n    tag_140:\n      tag_141\n      jump\t// in\n    tag_139:\n      mload(0x40)\n      tag_142\n      swap2\n      swap1\n      tag_41\n      jump\t// in\n    tag_142:\n      mload(0x40)\n      dup1\n      swap2\n      sub\n      swap1\n      return\n        /* \"@openzeppelin/contracts/token/ERC20/extensions/ERC4626.sol\":6859:6971  function maxRedeem(address owner) public view virtual returns (uint256) {... */\n    tag_28:\n      tag_143\n      0x04\n      dup1\n      calldatasize\n      sub\n      dup2\n      add\n      swap1\n      tag_144\n      swap2\n      swap1\n      tag_84\n      jump\t// in\n    tag_144:\n      tag_145\n      jump\t// in\n    tag_143:\n      mload(0x40)\n      tag_146\n      swap2\n      swap1\n      tag_41\n      jump\t// in\n    tag_146:\n      mload(0x40)\n      dup1\n      swap2\n      sub\n      swap1\n      return\n        /* \"@openzeppelin/contracts/token/ERC20/ERC20.sol\":3846:3986  function allowance(address owner, address spender) public view virtual returns (uint256) {... */\n    tag_29:\n      tag_147\n      0x04\n      dup1\n      calldatasize\n      sub\n      dup2\n      add\n      swap1\n      tag_148\n      swap2\n      swap1\n      tag_149\n      jump\t// in\n    tag_148:\n      tag_150\n      jump\t// in\n    tag_147:\n      mload(0x40)\n      tag_151\n      swap2\n      swap1\n      tag_41\n      jump\t// in\n    tag_151:\n      mload(0x40)\n      dup1\n      swap2\n      sub\n      swap1\n      return\n        /* \"@openzeppelin/contracts/token/ERC20/extensions/ERC4626.sol\":7024:7171  function previewDeposit(uint256 assets) public view virtual returns (uint256) {... */\n    tag_30:\n      tag_152\n      0x04\n      dup1\n      calldatasize\n      sub\n      dup2\n      add\n      swap1\n      tag_153\n      swap2\n      swap1\n      tag_48\n      jump\t// in\n    tag_153:\n      tag_154\n      jump\t// in\n    tag_152:\n      mload(0x40)\n      tag_155\n      swap2\n      swap1\n      tag_41\n      jump\t// in\n    tag_155:\n      mload(0x40)\n      dup1\n      swap2\n      sub\n      swap1\n      return\n        /* \"@openzeppelin/contracts/token/ERC20/extensions/ERC4626.sol\":5780:5896  function totalAssets() public view virtual returns (uint256) {... */\n    tag_39:\n        /* \"@openzeppelin/contracts/token/ERC20/extensions/ERC4626.sol\":5832:5839  uint256 */\n      0x00\n        /* \"@openzeppelin/contracts/token/ERC20/extensions/ERC4626.sol\":5858:5864  _asset */\n      immutable(\"0xe3fb6c7a68b97a1574f1623712f47cd0a60a3212aae0a2101a56c312e7330127\")\n        /* \"@openzeppelin/contracts/token/ERC20/extensions/ERC4626.sol\":5858:5874  _asset.balanceOf */\n      0xffffffffffffffffffffffffffffffffffffffff\n      and\n      0x70a08231\n        /* \"@openzeppelin/contracts/token/ERC20/extensions/ERC4626.sol\":5883:5887  this */\n      address\n        /* \"@openzeppelin/contracts/token/ERC20/extensions/ERC4626.sol\":5858:5889  _asset.balanceOf(address(this)) */\n      mload(0x40)\n      dup3\n      0xffffffff\n      and\n      0xe0\n      shl\n      dup2\n      mstore\n      0x04\n      add\n      tag_157\n      swap2\n      swap1\n      tag_81\n      jump\t// in\n    tag_157:\n      0x20\n      mload(0x40)\n      dup1\n      dup4\n      sub\n      dup2\n      dup7\n      gas\n      staticcall\n      iszero\n      dup1\n      iszero\n      tag_159\n      jumpi\n      returndatacopy(0x00, 0x00, returndatasize)\n      revert(0x00, returndatasize)\n    tag_159:\n      pop\n      pop\n      pop\n      pop\n      mload(0x40)\n      returndatasize\n      not(0x1f)\n      0x1f\n      dup3\n      add\n      and\n      dup3\n      add\n      dup1\n      0x40\n      mstore\n      pop\n      dup2\n      add\n      swap1\n      tag_160\n      swap2\n      swap1\n      tag_161\n      jump\t// in\n    tag_160:\n        /* \"@openzeppelin/contracts/token/ERC20/extensions/ERC4626.sol\":5851:5889  return _asset.balanceOf(address(this)) */\n      swap1\n      pop\n        /* \"@openzeppelin/contracts/token/ERC20/extensions/ERC4626.sol\":5780:5896  function totalAssets() public view virtual returns (uint256) {... */\n      swap1\n      jump\t// out\n        /* \"@openzeppelin/contracts/token/ERC20/ERC20.sol\":2074:2163  function name() public view virtual returns (string memory) {... */\n    tag_43:\n        /* \"@openzeppelin/contracts/token/ERC20/ERC20.sol\":2119:2132  string memory */\n      0x60\n        /* \"@openzeppelin/contracts/token/ERC20/ERC20.sol\":2151:2156  _name */\n      0x03\n        /* \"@openzeppelin/contracts/token/ERC20/ERC20.sol\":2144:2156  return _name */\n      dup1\n      sload\n      tag_163\n      swap1\n      tag_164\n      jump\t// in\n    tag_163:\n      dup1\n      0x1f\n      add\n      0x20\n      dup1\n      swap2\n      div\n      mul\n      0x20\n      add\n      mload(0x40)\n      swap1\n      dup2\n      add\n      0x40\n      mstore\n      dup1\n      swap3\n      swap2\n      swap1\n      dup2\n      dup2\n      mstore\n      0x20\n      add\n      dup3\n      dup1\n      sload\n      tag_165\n      swap1\n      tag_164\n      jump\t// in\n    tag_165:\n      dup1\n      iszero\n      tag_166\n      jumpi\n      dup1\n      0x1f\n      lt\n      tag_167\n      jumpi\n      0x0100\n      dup1\n      dup4\n      sload\n      div\n      mul\n      dup4\n      mstore\n      swap2\n      0x20\n      add\n      swap2\n      jump(tag_166)\n    tag_167:\n      dup3\n      add\n      swap2\n      swap1\n      0x00\n      mstore\n      keccak256(0x00, 0x20)\n      swap1\n    tag_168:\n      dup2\n      sload\n      dup2\n      mstore\n      swap1\n      0x01\n      add\n      swap1\n      0x20\n      add\n      dup1\n      dup4\n      gt\n      tag_168\n      jumpi\n      dup3\n      swap1\n      sub\n      0x1f\n      and\n      dup3\n      add\n      swap2\n    tag_166:\n      pop\n      pop\n      pop\n      pop\n      pop\n      swap1\n      pop\n        /* \"@openzeppelin/contracts/token/ERC20/ERC20.sol\":2074:2163  function name() public view virtual returns (string memory) {... */\n      swap1\n      jump\t// out\n        /* \"@openzeppelin/contracts/token/ERC20/extensions/ERC4626.sol\":6152:6300  function convertToAssets(uint256 shares) public view virtual returns (uint256) {... */\n    tag_49:\n        /* \"@openzeppelin/contracts/token/ERC20/extensions/ERC4626.sol\":6222:6229  uint256 */\n      0x00\n        /* \"@openzeppelin/contracts/token/ERC20/extensions/ERC4626.sol\":6248:6293  _convertToAssets(shares, Math.Rounding.Floor) */\n      tag_170\n        /* \"@openzeppelin/contracts/token/ERC20/extensions/ERC4626.sol\":6265:6271  shares */\n      dup3\n        /* \"@openzeppelin/contracts/token/ERC20/extensions/ERC4626.sol\":6273:6292  Math.Rounding.Floor */\n      0x00\n        /* \"@openzeppelin/contracts/token/ERC20/extensions/ERC4626.sol\":6248:6264  _convertToAssets */\n      tag_171\n        /* \"@openzeppelin/contracts/token/ERC20/extensions/ERC4626.sol\":6248:6293  _convertToAssets(shares, Math.Rounding.Floor) */\n      jump\t// in\n    tag_170:\n        /* \"@openzeppelin/contracts/token/ERC20/extensions/ERC4626.sol\":6241:6293  return _convertToAssets(shares, Math.Rounding.Floor) */\n      swap1\n      pop\n        /* \"@openzeppelin/contracts/token/ERC20/extensions/ERC4626.sol\":6152:6300  function convertToAssets(uint256 shares) public view virtual returns (uint256) {... */\n      swap2\n      swap1\n      pop\n      jump\t// out\n        /* \"@openzeppelin/contracts/token/ERC20/ERC20.sol\":4293:4479  function approve(address spender, uint256 value) public virtual returns (bool) {... */\n    tag_54:\n        /* \"@openzeppelin/contracts/token/ERC20/ERC20.sol\":4366:4370  bool */\n      0x00\n        /* \"@openzeppelin/contracts/token/ERC20/ERC20.sol\":4382:4395  address owner */\n      0x00\n        /* \"@openzeppelin/contracts/token/ERC20/ERC20.sol\":4398:4410  _msgSender() */\n      tag_173\n        /* \"@openzeppelin/contracts/token/ERC20/ERC20.sol\":4398:4408  _msgSender */\n      tag_174\n        /* \"@openzeppelin/contracts/token/ERC20/ERC20.sol\":4398:4410  _msgSender() */\n      jump\t// in\n    tag_173:\n        /* \"@openzeppelin/contracts/token/ERC20/ERC20.sol\":4382:4410  address owner = _msgSender() */\n      swap1\n      pop\n        /* \"@openzeppelin/contracts/token/ERC20/ERC20.sol\":4420:4451  _approve(owner, spender, value) */\n      tag_175\n        /* \"@openzeppelin/contracts/token/ERC20/ERC20.sol\":4429:4434  owner */\n      dup2\n        /* \"@openzeppelin/contracts/token/ERC20/ERC20.sol\":4436:4443  spender */\n      dup6\n        /* \"@openzeppelin/contracts/token/ERC20/ERC20.sol\":4445:4450  value */\n      dup6\n        /* \"@openzeppelin/contracts/token/ERC20/ERC20.sol\":4420:4428  _approve */\n      tag_176\n        /* \"@openzeppelin/contracts/token/ERC20/ERC20.sol\":4420:4451  _approve(owner, spender, value) */\n      jump\t// in\n    tag_175:\n        /* \"@openzeppelin/contracts/token/ERC20/ERC20.sol\":4468:4472  true */\n      0x01\n        /* \"@openzeppelin/contracts/token/ERC20/ERC20.sol\":4461:4472  return true */\n      swap2\n      pop\n      pop\n        /* \"@openzeppelin/contracts/token/ERC20/ERC20.sol\":4293:4479  function approve(address spender, uint256 value) public virtual returns (bool) {... */\n      swap3\n      swap2\n      pop\n      pop\n      jump\t// out\n        /* \"@openzeppelin/contracts/token/ERC20/extensions/ERC4626.sol\":7418:7565  function previewWithdraw(uint256 assets) public view virtual returns (uint256) {... */\n    tag_59:\n        /* \"@openzeppelin/contracts/token/ERC20/extensions/ERC4626.sol\":7488:7495  uint256 */\n      0x00\n        /* \"@openzeppelin/contracts/token/ERC20/extensions/ERC4626.sol\":7514:7558  _convertToShares(assets, Math.Rounding.Ceil) */\n      tag_178\n        /* \"@openzeppelin/contracts/token/ERC20/extensions/ERC4626.sol\":7531:7537  assets */\n      dup3\n        /* \"@openzeppelin/contracts/token/ERC20/extensions/ERC4626.sol\":7539:7557  Math.Rounding.Ceil */\n      0x01\n        /* \"@openzeppelin/contracts/token/ERC20/extensions/ERC4626.sol\":7514:7530  _convertToShares */\n      tag_179\n        /* \"@openzeppelin/contracts/token/ERC20/extensions/ERC4626.sol\":7514:7558  _convertToShares(assets, Math.Rounding.Ceil) */\n      jump\t// in\n    tag_178:\n        /* \"@openzeppelin/contracts/token/ERC20/extensions/ERC4626.sol\":7507:7558  return _convertToShares(assets, Math.Rounding.Ceil) */\n      swap1\n      pop\n        /* \"@openzeppelin/contracts/token/ERC20/extensions/ERC4626.sol\":7418:7565  function previewWithdraw(uint256 assets) public view virtual returns (uint256) {... */\n      swap2\n      swap1\n      pop\n      jump\t// out\n        /* \"@openzeppelin/contracts/token/ERC20/ERC20.sol\":3144:3241  function totalSupply() public view virtual returns (uint256) {... */\n    tag_62:\n        /* \"@openzeppelin/contracts/token/ERC20/ERC20.sol\":3196:3203  uint256 */\n      0x00\n        /* \"@openzeppelin/contracts/token/ERC20/ERC20.sol\":3222:3234  _totalSupply */\n      sload(0x02)\n        /* \"@openzeppelin/contracts/token/ERC20/ERC20.sol\":3215:3234  return _totalSupply */\n      swap1\n      pop\n        /* \"@openzeppelin/contracts/token/ERC20/ERC20.sol\":3144:3241  function totalSupply() public view virtual returns (uint256) {... */\n      swap1\n      jump\t// out\n        /* \"@openzeppelin/contracts/token/ERC20/ERC20.sol\":5039:5283  function transferFrom(address from, address to, uint256 value) public virtual returns (bool) {... */\n    tag_67:\n        /* \"@openzeppelin/contracts/token/ERC20/ERC20.sol\":5126:5130  bool */\n      0x00\n        /* \"@openzeppelin/contracts/token/ERC20/ERC20.sol\":5142:5157  address spender */\n      0x00\n        /* \"@openzeppelin/contracts/token/ERC20/ERC20.sol\":5160:5172  _msgSender() */\n      tag_182\n        /* \"@openzeppelin/contracts/token/ERC20/ERC20.sol\":5160:5170  _msgSender */\n      tag_174\n        /* \"@openzeppelin/contracts/token/ERC20/ERC20.sol\":5160:5172  _msgSender() */\n      jump\t// in\n    tag_182:\n        /* \"@openzeppelin/contracts/token/ERC20/ERC20.sol\":5142:5172  address spender = _msgSender() */\n      swap1\n      pop\n        /* \"@openzeppelin/contracts/token/ERC20/ERC20.sol\":5182:5219  _spendAllowance(from, spender, value) */\n      tag_183\n        /* \"@openzeppelin/contracts/token/ERC20/ERC20.sol\":5198:5202  from */\n      dup6\n        /* \"@openzeppelin/contracts/token/ERC20/ERC20.sol\":5204:5211  spender */\n      dup3\n        /* \"@openzeppelin/contracts/token/ERC20/ERC20.sol\":5213:5218  value */\n      dup6\n        /* \"@openzeppelin/contracts/token/ERC20/ERC20.sol\":5182:5197  _spendAllowance */\n      tag_184\n        /* \"@openzeppelin/contracts/token/ERC20/ERC20.sol\":5182:5219  _spendAllowance(from, spender, value) */\n      jump\t// in\n    tag_183:\n        /* \"@openzeppelin/contracts/token/ERC20/ERC20.sol\":5229:5255  _transfer(from, to, value) */\n      tag_185\n        /* \"@openzeppelin/contracts/token/ERC20/ERC20.sol\":5239:5243  from */\n      dup6\n        /* \"@openzeppelin/contracts/token/ERC20/ERC20.sol\":5245:5247  to */\n      dup6\n        /* \"@openzeppelin/contracts/token/ERC20/ERC20.sol\":5249:5254  value */\n      dup6\n        /* \"@openzeppelin/contracts/token/ERC20/ERC20.sol\":5229:5238  _transfer */\n      tag_186\n        /* \"@openzeppelin/contracts/token/ERC20/ERC20.sol\":5229:5255  _transfer(from, to, value) */\n      jump\t// in\n    tag_185:\n        /* \"@openzeppelin/contracts/token/ERC20/ERC20.sol\":5272:5276  true */\n      0x01\n        /* \"@openzeppelin/contracts/token/ERC20/ERC20.sol\":5265:5276  return true */\n      swap2\n      pop\n      pop\n        /* \"@openzeppelin/contracts/token/ERC20/ERC20.sol\":5039:5283  function transferFrom(address from, address to, uint256 value) public virtual returns (bool) {... */\n      swap4\n      swap3\n      pop\n      pop\n      pop\n      jump\t// out\n        /* \"contracts/DimSumVault.sol\":823:1068  function vaultRedeem(uint256 vaultShares, address vaultReceiver, address vaultOwner) public returns (uint256 assets){... */\n    tag_72:\n        /* \"contracts/DimSumVault.sol\":924:938  uint256 assets */\n      0x00\n        /* \"contracts/DimSumVault.sol\":950:1002  super.redeem(vaultShares, vaultReceiver, vaultOwner) */\n      tag_188\n        /* \"contracts/DimSumVault.sol\":963:974  vaultShares */\n      dup5\n        /* \"contracts/DimSumVault.sol\":976:989  vaultReceiver */\n      dup5\n        /* \"contracts/DimSumVault.sol\":991:1001  vaultOwner */\n      dup5\n        /* \"contracts/DimSumVault.sol\":950:962  super.redeem */\n      tag_129\n        /* \"contracts/DimSumVault.sol\":950:1002  super.redeem(vaultShares, vaultReceiver, vaultOwner) */\n      jump\t// in\n    tag_188:\n      pop\n        /* \"contracts/DimSumVault.sol\":1059:1060  0 */\n      0x00\n        /* \"contracts/DimSumVault.sol\":1052:1060  return 0 */\n      swap1\n      pop\n        /* \"contracts/DimSumVault.sol\":823:1068  function vaultRedeem(uint256 vaultShares, address vaultReceiver, address vaultOwner) public returns (uint256 assets){... */\n      swap4\n      swap3\n      pop\n      pop\n      pop\n      jump\t// out\n        /* \"@openzeppelin/contracts/token/ERC20/extensions/ERC4626.sol\":5441:5592  function decimals() public view virtual override(IERC20Metadata, ERC20) returns (uint8) {... */\n    tag_75:\n        /* \"@openzeppelin/contracts/token/ERC20/extensions/ERC4626.sol\":5522:5527  uint8 */\n      0x00\n        /* \"@openzeppelin/contracts/token/ERC20/extensions/ERC4626.sol\":5568:5585  _decimalsOffset() */\n      tag_190\n        /* \"@openzeppelin/contracts/token/ERC20/extensions/ERC4626.sol\":5568:5583  _decimalsOffset */\n      tag_191\n        /* \"@openzeppelin/contracts/token/ERC20/extensions/ERC4626.sol\":5568:5585  _decimalsOffset() */\n      jump\t// in\n    tag_190:\n        /* \"@openzeppelin/contracts/token/ERC20/extensions/ERC4626.sol\":5546:5565  _underlyingDecimals */\n      immutable(\"0x795dcf830090319074c4e36a23e7ad6013124a9e4afc765f3f324f667dfac3a5\")\n        /* \"@openzeppelin/contracts/token/ERC20/extensions/ERC4626.sol\":5546:5585  _underlyingDecimals + _decimalsOffset() */\n      tag_192\n      swap2\n      swap1\n      tag_193\n      jump\t// in\n    tag_192:\n        /* \"@openzeppelin/contracts/token/ERC20/extensions/ERC4626.sol\":5539:5585  return _underlyingDecimals + _decimalsOffset() */\n      swap1\n      pop\n        /* \"@openzeppelin/contracts/token/ERC20/extensions/ERC4626.sol\":5441:5592  function decimals() public view virtual override(IERC20Metadata, ERC20) returns (uint8) {... */\n      swap1\n      jump\t// out\n        /* \"@openzeppelin/contracts/token/ERC20/extensions/ERC4626.sol\":5636:5730  function asset() public view virtual returns (address) {... */\n    tag_79:\n        /* \"@openzeppelin/contracts/token/ERC20/extensions/ERC4626.sol\":5682:5689  address */\n      0x00\n        /* \"@openzeppelin/contracts/token/ERC20/extensions/ERC4626.sol\":5716:5722  _asset */\n      immutable(\"0xe3fb6c7a68b97a1574f1623712f47cd0a60a3212aae0a2101a56c312e7330127\")\n        /* \"@openzeppelin/contracts/token/ERC20/extensions/ERC4626.sol\":5701:5723  return address(_asset) */\n      swap1\n      pop\n        /* \"@openzeppelin/contracts/token/ERC20/extensions/ERC4626.sol\":5636:5730  function asset() public view virtual returns (address) {... */\n      swap1\n      jump\t// out\n        /* \"@openzeppelin/contracts/token/ERC20/extensions/ERC4626.sol\":6349:6457  function maxDeposit(address) public view virtual returns (uint256) {... */\n    tag_85:\n        /* \"@openzeppelin/contracts/token/ERC20/extensions/ERC4626.sol\":6407:6414  uint256 */\n      0x00\n        /* \"@openzeppelin/contracts/token/ERC20/extensions/ERC4626.sol\":6433:6450  type(uint256).max */\n      0xffffffffffffffffffffffffffffffffffffffffffffffffffffffffffffffff\n        /* \"@openzeppelin/contracts/token/ERC20/extensions/ERC4626.sol\":6426:6450  return type(uint256).max */\n      swap1\n      pop\n        /* \"@openzeppelin/contracts/token/ERC20/extensions/ERC4626.sol\":6349:6457  function maxDeposit(address) public view virtual returns (uint256) {... */\n      swap2\n      swap1\n      pop\n      jump\t// out\n        /* \"contracts/DimSumVault.sol\":347:562  function vaultDeposit(uint256 vaultAssets, address vaultReceiver) public returns (uint256 shares) {... */\n    tag_90:\n        /* \"contracts/DimSumVault.sol\":429:443  uint256 shares */\n      0x00\n        /* \"contracts/DimSumVault.sol\":456:497  super.deposit(vaultAssets, vaultReceiver) */\n      tag_197\n        /* \"contracts/DimSumVault.sol\":470:481  vaultAssets */\n      dup4\n        /* \"contracts/DimSumVault.sol\":483:496  vaultReceiver */\n      dup4\n        /* \"contracts/DimSumVault.sol\":456:469  super.deposit */\n      tag_98\n        /* \"contracts/DimSumVault.sol\":456:497  super.deposit(vaultAssets, vaultReceiver) */\n      jump\t// in\n    tag_197:\n      pop\n        /* \"contracts/DimSumVault.sol\":553:554  0 */\n      0x00\n        /* \"contracts/DimSumVault.sol\":546:554  return 0 */\n      swap1\n      pop\n        /* \"contracts/DimSumVault.sol\":347:562  function vaultDeposit(uint256 vaultAssets, address vaultReceiver) public returns (uint256 shares) {... */\n      swap3\n      swap2\n      pop\n      pop\n      jump\t// out\n        /* \"@openzeppelin/contracts/token/ERC20/extensions/ERC4626.sol\":7617:7763  function previewRedeem(uint256 shares) public view virtual returns (uint256) {... */\n    tag_94:\n        /* \"@openzeppelin/contracts/token/ERC20/extensions/ERC4626.sol\":7685:7692  uint256 */\n      0x00\n        /* \"@openzeppelin/contracts/token/ERC20/extensions/ERC4626.sol\":7711:7756  _convertToAssets(shares, Math.Rounding.Floor) */\n      tag_199\n        /* \"@openzeppelin/contracts/token/ERC20/extensions/ERC4626.sol\":7728:7734  shares */\n      dup3\n        /* \"@openzeppelin/contracts/token/ERC20/extensions/ERC4626.sol\":7736:7755  Math.Rounding.Floor */\n      0x00\n        /* \"@openzeppelin/contracts/token/ERC20/extensions/ERC4626.sol\":7711:7727  _convertToAssets */\n      tag_171\n        /* \"@openzeppelin/contracts/token/ERC20/extensions/ERC4626.sol\":7711:7756  _convertToAssets(shares, Math.Rounding.Floor) */\n      jump\t// in\n    tag_199:\n        /* \"@openzeppelin/contracts/token/ERC20/extensions/ERC4626.sol\":7704:7756  return _convertToAssets(shares, Math.Rounding.Floor) */\n      swap1\n      pop\n        /* \"@openzeppelin/contracts/token/ERC20/extensions/ERC4626.sol\":7617:7763  function previewRedeem(uint256 shares) public view virtual returns (uint256) {... */\n      swap2\n      swap1\n      pop\n      jump\t// out\n        /* \"@openzeppelin/contracts/token/ERC20/extensions/ERC4626.sol\":7809:8201  function deposit(uint256 assets, address receiver) public virtual returns (uint256) {... */\n    tag_98:\n        /* \"@openzeppelin/contracts/token/ERC20/extensions/ERC4626.sol\":7884:7891  uint256 */\n      0x00\n        /* \"@openzeppelin/contracts/token/ERC20/extensions/ERC4626.sol\":7903:7920  uint256 maxAssets */\n      0x00\n        /* \"@openzeppelin/contracts/token/ERC20/extensions/ERC4626.sol\":7923:7943  maxDeposit(receiver) */\n      tag_201\n        /* \"@openzeppelin/contracts/token/ERC20/extensions/ERC4626.sol\":7934:7942  receiver */\n      dup4\n        /* \"@openzeppelin/contracts/token/ERC20/extensions/ERC4626.sol\":7923:7933  maxDeposit */\n      tag_85\n        /* \"@openzeppelin/contracts/token/ERC20/extensions/ERC4626.sol\":7923:7943  maxDeposit(receiver) */\n      jump\t// in\n    tag_201:\n        /* \"@openzeppelin/contracts/token/ERC20/extensions/ERC4626.sol\":7903:7943  uint256 maxAssets = maxDeposit(receiver) */\n      swap1\n      pop\n        /* \"@openzeppelin/contracts/token/ERC20/extensions/ERC4626.sol\":7966:7975  maxAssets */\n      dup1\n        /* \"@openzeppelin/contracts/token/ERC20/extensions/ERC4626.sol\":7957:7963  assets */\n      dup5\n        /* \"@openzeppelin/contracts/token/ERC20/extensions/ERC4626.sol\":7957:7975  assets > maxAssets */\n      gt\n        /* \"@openzeppelin/contracts/token/ERC20/extensions/ERC4626.sol\":7953:8063  if (assets > maxAssets) {... */\n      iszero\n      tag_202\n      jumpi\n        /* \"@openzeppelin/contracts/token/ERC20/extensions/ERC4626.sol\":8024:8032  receiver */\n      dup3\n        /* \"@openzeppelin/contracts/token/ERC20/extensions/ERC4626.sol\":8034:8040  assets */\n      dup5\n        /* \"@openzeppelin/contracts/token/ERC20/extensions/ERC4626.sol\":8042:8051  maxAssets */\n      dup3\n        /* \"@openzeppelin/contracts/token/ERC20/extensions/ERC4626.sol\":7998:8052  ERC4626ExceededMaxDeposit(receiver, assets, maxAssets) */\n      mload(0x40)\n      0x79012fb200000000000000000000000000000000000000000000000000000000\n      dup2\n      mstore\n      0x04\n      add\n      tag_203\n      swap4\n      swap3\n      swap2\n      swap1\n      tag_204\n      jump\t// in\n    tag_203:\n      mload(0x40)\n      dup1\n      swap2\n      sub\n      swap1\n      revert\n        /* \"@openzeppelin/contracts/token/ERC20/extensions/ERC4626.sol\":7953:8063  if (assets > maxAssets) {... */\n    tag_202:\n        /* \"@openzeppelin/contracts/token/ERC20/extensions/ERC4626.sol\":8073:8087  uint256 shares */\n      0x00\n        /* \"@openzeppelin/contracts/token/ERC20/extensions/ERC4626.sol\":8090:8112  previewDeposit(assets) */\n      tag_205\n        /* \"@openzeppelin/contracts/token/ERC20/extensions/ERC4626.sol\":8105:8111  assets */\n      dup6\n        /* \"@openzeppelin/contracts/token/ERC20/extensions/ERC4626.sol\":8090:8104  previewDeposit */\n      tag_154\n        /* \"@openzeppelin/contracts/token/ERC20/extensions/ERC4626.sol\":8090:8112  previewDeposit(assets) */\n      jump\t// in\n    tag_205:\n        /* \"@openzeppelin/contracts/token/ERC20/extensions/ERC4626.sol\":8073:8112  uint256 shares = previewDeposit(assets) */\n      swap1\n      pop\n        /* \"@openzeppelin/contracts/token/ERC20/extensions/ERC4626.sol\":8122:8170  _deposit(_msgSender(), receiver, assets, shares) */\n      tag_206\n        /* \"@openzeppelin/contracts/token/ERC20/extensions/ERC4626.sol\":8131:8143  _msgSender() */\n      tag_207\n        /* \"@openzeppelin/contracts/token/ERC20/extensions/ERC4626.sol\":8131:8141  _msgSender */\n      tag_174\n        /* \"@openzeppelin/contracts/token/ERC20/extensions/ERC4626.sol\":8131:8143  _msgSender() */\n      jump\t// in\n    tag_207:\n        /* \"@openzeppelin/contracts/token/ERC20/extensions/ERC4626.sol\":8145:8153  receiver */\n      dup6\n        /* \"@openzeppelin/contracts/token/ERC20/extensions/ERC4626.sol\":8155:8161  assets */\n      dup8\n        /* \"@openzeppelin/contracts/token/ERC20/extensions/ERC4626.sol\":8163:8169  shares */\n      dup5\n        /* \"@openzeppelin/contracts/token/ERC20/extensions/ERC4626.sol\":8122:8130  _deposit */\n      tag_208\n        /* \"@openzeppelin/contracts/token/ERC20/extensions/ERC4626.sol\":8122:8170  _deposit(_msgSender(), receiver, assets, shares) */\n      jump\t// in\n    tag_206:\n        /* \"@openzeppelin/contracts/token/ERC20/extensions/ERC4626.sol\":8188:8194  shares */\n      dup1\n        /* \"@openzeppelin/contracts/token/ERC20/extensions/ERC4626.sol\":8181:8194  return shares */\n      swap3\n      pop\n      pop\n      pop\n        /* \"@openzeppelin/contracts/token/ERC20/extensions/ERC4626.sol\":7809:8201  function deposit(uint256 assets, address receiver) public virtual returns (uint256) {... */\n      swap3\n      swap2\n      pop\n      pop\n      jump\t// out\n        /* \"@openzeppelin/contracts/token/ERC20/ERC20.sol\":3299:3415  function balanceOf(address account) public view virtual returns (uint256) {... */\n    tag_102:\n        /* \"@openzeppelin/contracts/token/ERC20/ERC20.sol\":3364:3371  uint256 */\n      0x00\n        /* \"@openzeppelin/contracts/token/ERC20/ERC20.sol\":3390:3399  _balances */\n      0x00\n        /* \"@openzeppelin/contracts/token/ERC20/ERC20.sol\":3390:3408  _balances[account] */\n      0x00\n        /* \"@openzeppelin/contracts/token/ERC20/ERC20.sol\":3400:3407  account */\n      dup4\n        /* \"@openzeppelin/contracts/token/ERC20/ERC20.sol\":3390:3408  _balances[account] */\n      0xffffffffffffffffffffffffffffffffffffffff\n      and\n      0xffffffffffffffffffffffffffffffffffffffff\n      and\n      dup2\n      mstore\n      0x20\n      add\n      swap1\n      dup2\n      mstore\n      0x20\n      add\n      0x00\n      keccak256\n      sload\n        /* \"@openzeppelin/contracts/token/ERC20/ERC20.sol\":3383:3408  return _balances[account] */\n      swap1\n      pop\n        /* \"@openzeppelin/contracts/token/ERC20/ERC20.sol\":3299:3415  function balanceOf(address account) public view virtual returns (uint256) {... */\n      swap2\n      swap1\n      pop\n      jump\t// out\n        /* \"contracts/DimSumVault.sol\":568:817  function vaultWithdraw(uint256 vaultAssets, address vaultReceiver, address vaultOwner) public returns (uint256 shares) {... */\n    tag_106:\n        /* \"contracts/DimSumVault.sol\":671:685  uint256 shares */\n      0x00\n        /* \"contracts/DimSumVault.sol\":698:752  super.withdraw(vaultAssets, vaultReceiver, vaultOwner) */\n      tag_211\n        /* \"contracts/DimSumVault.sol\":713:724  vaultAssets */\n      dup5\n        /* \"contracts/DimSumVault.sol\":726:739  vaultReceiver */\n      dup5\n        /* \"contracts/DimSumVault.sol\":741:751  vaultOwner */\n      dup5\n        /* \"contracts/DimSumVault.sol\":698:712  super.withdraw */\n      tag_125\n        /* \"contracts/DimSumVault.sol\":698:752  super.withdraw(vaultAssets, vaultReceiver, vaultOwner) */\n      jump\t// in\n    tag_211:\n      pop\n        /* \"contracts/DimSumVault.sol\":808:809  0 */\n      0x00\n        /* \"contracts/DimSumVault.sol\":801:809  return 0 */\n      swap1\n      pop\n        /* \"contracts/DimSumVault.sol\":568:817  function vaultWithdraw(uint256 vaultAssets, address vaultReceiver, address vaultOwner) public returns (uint256 shares) {... */\n      swap4\n      swap3\n      pop\n      pop\n      pop\n      jump\t// out\n        /* \"@openzeppelin/contracts/token/ERC20/extensions/ERC4626.sol\":8468:8848  function mint(uint256 shares, address receiver) public virtual returns (uint256) {... */\n    tag_110:\n        /* \"@openzeppelin/contracts/token/ERC20/extensions/ERC4626.sol\":8540:8547  uint256 */\n      0x00\n        /* \"@openzeppelin/contracts/token/ERC20/extensions/ERC4626.sol\":8559:8576  uint256 maxShares */\n      0x00\n        /* \"@openzeppelin/contracts/token/ERC20/extensions/ERC4626.sol\":8579:8596  maxMint(receiver) */\n      tag_213\n        /* \"@openzeppelin/contracts/token/ERC20/extensions/ERC4626.sol\":8587:8595  receiver */\n      dup4\n        /* \"@openzeppelin/contracts/token/ERC20/extensions/ERC4626.sol\":8579:8586  maxMint */\n      tag_133\n        /* \"@openzeppelin/contracts/token/ERC20/extensions/ERC4626.sol\":8579:8596  maxMint(receiver) */\n      jump\t// in\n    tag_213:\n        /* \"@openzeppelin/contracts/token/ERC20/extensions/ERC4626.sol\":8559:8596  uint256 maxShares = maxMint(receiver) */\n      swap1\n      pop\n        /* \"@openzeppelin/contracts/token/ERC20/extensions/ERC4626.sol\":8619:8628  maxShares */\n      dup1\n        /* \"@openzeppelin/contracts/token/ERC20/extensions/ERC4626.sol\":8610:8616  shares */\n      dup5\n        /* \"@openzeppelin/contracts/token/ERC20/extensions/ERC4626.sol\":8610:8628  shares > maxShares */\n      gt\n        /* \"@openzeppelin/contracts/token/ERC20/extensions/ERC4626.sol\":8606:8713  if (shares > maxShares) {... */\n      iszero\n      tag_214\n      jumpi\n        /* \"@openzeppelin/contracts/token/ERC20/extensions/ERC4626.sol\":8674:8682  receiver */\n      dup3\n        /* \"@openzeppelin/contracts/token/ERC20/extensions/ERC4626.sol\":8684:8690  shares */\n      dup5\n        /* \"@openzeppelin/contracts/token/ERC20/extensions/ERC4626.sol\":8692:8701  maxShares */\n      dup3\n        /* \"@openzeppelin/contracts/token/ERC20/extensions/ERC4626.sol\":8651:8702  ERC4626ExceededMaxMint(receiver, shares, maxShares) */\n      mload(0x40)\n      0x284ff66700000000000000000000000000000000000000000000000000000000\n      dup2\n      mstore\n      0x04\n      add\n      tag_215\n      swap4\n      swap3\n      swap2\n      swap1\n      tag_204\n      jump\t// in\n    tag_215:\n      mload(0x40)\n      dup1\n      swap2\n      sub\n      swap1\n      revert\n        /* \"@openzeppelin/contracts/token/ERC20/extensions/ERC4626.sol\":8606:8713  if (shares > maxShares) {... */\n    tag_214:\n        /* \"@openzeppelin/contracts/token/ERC20/extensions/ERC4626.sol\":8723:8737  uint256 assets */\n      0x00\n        /* \"@openzeppelin/contracts/token/ERC20/extensions/ERC4626.sol\":8740:8759  previewMint(shares) */\n      tag_216\n        /* \"@openzeppelin/contracts/token/ERC20/extensions/ERC4626.sol\":8752:8758  shares */\n      dup6\n        /* \"@openzeppelin/contracts/token/ERC20/extensions/ERC4626.sol\":8740:8751  previewMint */\n      tag_121\n        /* \"@openzeppelin/contracts/token/ERC20/extensions/ERC4626.sol\":8740:8759  previewMint(shares) */\n      jump\t// in\n    tag_216:\n        /* \"@openzeppelin/contracts/token/ERC20/extensions/ERC4626.sol\":8723:8759  uint256 assets = previewMint(shares) */\n      swap1\n      pop\n        /* \"@openzeppelin/contracts/token/ERC20/extensions/ERC4626.sol\":8769:8817  _deposit(_msgSender(), receiver, assets, shares) */\n      tag_217\n        /* \"@openzeppelin/contracts/token/ERC20/extensions/ERC4626.sol\":8778:8790  _msgSender() */\n      tag_218\n        /* \"@openzeppelin/contracts/token/ERC20/extensions/ERC4626.sol\":8778:8788  _msgSender */\n      tag_174\n        /* \"@openzeppelin/contracts/token/ERC20/extensions/ERC4626.sol\":8778:8790  _msgSender() */\n      jump\t// in\n    tag_218:\n        /* \"@openzeppelin/contracts/token/ERC20/extensions/ERC4626.sol\":8792:8800  receiver */\n      dup6\n        /* \"@openzeppelin/contracts/token/ERC20/extensions/ERC4626.sol\":8802:8808  assets */\n      dup4\n        /* \"@openzeppelin/contracts/token/ERC20/extensions/ERC4626.sol\":8810:8816  shares */\n      dup9\n        /* \"@openzeppelin/contracts/token/ERC20/extensions/ERC4626.sol\":8769:8777  _deposit */\n      tag_208\n        /* \"@openzeppelin/contracts/token/ERC20/extensions/ERC4626.sol\":8769:8817  _deposit(_msgSender(), receiver, assets, shares) */\n      jump\t// in\n    tag_217:\n        /* \"@openzeppelin/contracts/token/ERC20/extensions/ERC4626.sol\":8835:8841  assets */\n      dup1\n        /* \"@openzeppelin/contracts/token/ERC20/extensions/ERC4626.sol\":8828:8841  return assets */\n      swap3\n      pop\n      pop\n      pop\n        /* \"@openzeppelin/contracts/token/ERC20/extensions/ERC4626.sol\":8468:8848  function mint(uint256 shares, address receiver) public virtual returns (uint256) {... */\n      swap3\n      swap2\n      pop\n      pop\n      jump\t// out\n        /* \"@openzeppelin/contracts/token/ERC20/ERC20.sol\":2276:2369  function symbol() public view virtual returns (string memory) {... */\n    tag_113:\n        /* \"@openzeppelin/contracts/token/ERC20/ERC20.sol\":2323:2336  string memory */\n      0x60\n        /* \"@openzeppelin/contracts/token/ERC20/ERC20.sol\":2355:2362  _symbol */\n      0x04\n        /* \"@openzeppelin/contracts/token/ERC20/ERC20.sol\":2348:2362  return _symbol */\n      dup1\n      sload\n      tag_220\n      swap1\n      tag_164\n      jump\t// in\n    tag_220:\n      dup1\n      0x1f\n      add\n      0x20\n      dup1\n      swap2\n      div\n      mul\n      0x20\n      add\n      mload(0x40)\n      swap1\n      dup2\n      add\n      0x40\n      mstore\n      dup1\n      swap3\n      swap2\n      swap1\n      dup2\n      dup2\n      mstore\n      0x20\n      add\n      dup3\n      dup1\n      sload\n      tag_221\n      swap1\n      tag_164\n      jump\t// in\n    tag_221:\n      dup1\n      iszero\n      tag_222\n      jumpi\n      dup1\n      0x1f\n      lt\n      tag_223\n      jumpi\n      0x0100\n      dup1\n      dup4\n      sload\n      div\n      mul\n      dup4\n      mstore\n      swap2\n      0x20\n      add\n      swap2\n      jump(tag_222)\n    tag_223:\n      dup3\n      add\n      swap2\n      swap1\n      0x00\n      mstore\n      keccak256(0x00, 0x20)\n      swap1\n    tag_224:\n      dup2\n      sload\n      dup2\n      mstore\n      swap1\n      0x01\n      add\n      swap1\n      0x20\n      add\n      dup1\n      dup4\n      gt\n      tag_224\n      jumpi\n      dup3\n      swap1\n      sub\n      0x1f\n      and\n      dup3\n      add\n      swap2\n    tag_222:\n      pop\n      pop\n      pop\n      pop\n      pop\n      swap1\n      pop\n        /* \"@openzeppelin/contracts/token/ERC20/ERC20.sol\":2276:2369  function symbol() public view virtual returns (string memory) {... */\n      swap1\n      jump\t// out\n        /* \"@openzeppelin/contracts/token/ERC20/ERC20.sol\":3610:3788  function transfer(address to, uint256 value) public virtual returns (bool) {... */\n    tag_117:\n        /* \"@openzeppelin/contracts/token/ERC20/ERC20.sol\":3679:3683  bool */\n      0x00\n        /* \"@openzeppelin/contracts/token/ERC20/ERC20.sol\":3695:3708  address owner */\n      0x00\n        /* \"@openzeppelin/contracts/token/ERC20/ERC20.sol\":3711:3723  _msgSender() */\n      tag_226\n        /* \"@openzeppelin/contracts/token/ERC20/ERC20.sol\":3711:3721  _msgSender */\n      tag_174\n        /* \"@openzeppelin/contracts/token/ERC20/ERC20.sol\":3711:3723  _msgSender() */\n      jump\t// in\n    tag_226:\n        /* \"@openzeppelin/contracts/token/ERC20/ERC20.sol\":3695:3723  address owner = _msgSender() */\n      swap1\n      pop\n        /* \"@openzeppelin/contracts/token/ERC20/ERC20.sol\":3733:3760  _transfer(owner, to, value) */\n      tag_227\n        /* \"@openzeppelin/contracts/token/ERC20/ERC20.sol\":3743:3748  owner */\n      dup2\n        /* \"@openzeppelin/contracts/token/ERC20/ERC20.sol\":3750:3752  to */\n      dup6\n        /* \"@openzeppelin/contracts/token/ERC20/ERC20.sol\":3754:3759  value */\n      dup6\n        /* \"@openzeppelin/contracts/token/ERC20/ERC20.sol\":3733:3742  _transfer */\n      tag_186\n        /* \"@openzeppelin/contracts/token/ERC20/ERC20.sol\":3733:3760  _transfer(owner, to, value) */\n      jump\t// in\n    tag_227:\n        /* \"@openzeppelin/contracts/token/ERC20/ERC20.sol\":3777:3781  true */\n      0x01\n        /* \"@openzeppelin/contracts/token/ERC20/ERC20.sol\":3770:3781  return true */\n      swap2\n      pop\n      pop\n        /* \"@openzeppelin/contracts/token/ERC20/ERC20.sol\":3610:3788  function transfer(address to, uint256 value) public virtual returns (bool) {... */\n      swap3\n      swap2\n      pop\n      pop\n      jump\t// out\n        /* \"@openzeppelin/contracts/token/ERC20/extensions/ERC4626.sol\":7221:7364  function previewMint(uint256 shares) public view virtual returns (uint256) {... */\n    tag_121:\n        /* \"@openzeppelin/contracts/token/ERC20/extensions/ERC4626.sol\":7287:7294  uint256 */\n      0x00\n        /* \"@openzeppelin/contracts/token/ERC20/extensions/ERC4626.sol\":7313:7357  _convertToAssets(shares, Math.Rounding.Ceil) */\n      tag_229\n        /* \"@openzeppelin/contracts/token/ERC20/extensions/ERC4626.sol\":7330:7336  shares */\n      dup3\n        /* \"@openzeppelin/contracts/token/ERC20/extensions/ERC4626.sol\":7338:7356  Math.Rounding.Ceil */\n      0x01\n        /* \"@openzeppelin/contracts/token/ERC20/extensions/ERC4626.sol\":7313:7329  _convertToAssets */\n      tag_171\n        /* \"@openzeppelin/contracts/token/ERC20/extensions/ERC4626.sol\":7313:7357  _convertToAssets(shares, Math.Rounding.Ceil) */\n      jump\t// in\n    tag_229:\n        /* \"@openzeppelin/contracts/token/ERC20/extensions/ERC4626.sol\":7306:7357  return _convertToAssets(shares, Math.Rounding.Ceil) */\n      swap1\n      pop\n        /* \"@openzeppelin/contracts/token/ERC20/extensions/ERC4626.sol\":7221:7364  function previewMint(uint256 shares) public view virtual returns (uint256) {... */\n      swap2\n      swap1\n      pop\n      jump\t// out\n        /* \"@openzeppelin/contracts/token/ERC20/extensions/ERC4626.sol\":8895:9308  function withdraw(uint256 assets, address receiver, address owner) public virtual returns (uint256) {... */\n    tag_125:\n        /* \"@openzeppelin/contracts/token/ERC20/extensions/ERC4626.sol\":8986:8993  uint256 */\n      0x00\n        /* \"@openzeppelin/contracts/token/ERC20/extensions/ERC4626.sol\":9005:9022  uint256 maxAssets */\n      0x00\n        /* \"@openzeppelin/contracts/token/ERC20/extensions/ERC4626.sol\":9025:9043  maxWithdraw(owner) */\n      tag_231\n        /* \"@openzeppelin/contracts/token/ERC20/extensions/ERC4626.sol\":9037:9042  owner */\n      dup4\n        /* \"@openzeppelin/contracts/token/ERC20/extensions/ERC4626.sol\":9025:9036  maxWithdraw */\n      tag_141\n        /* \"@openzeppelin/contracts/token/ERC20/extensions/ERC4626.sol\":9025:9043  maxWithdraw(owner) */\n      jump\t// in\n    tag_231:\n        /* \"@openzeppelin/contracts/token/ERC20/extensions/ERC4626.sol\":9005:9043  uint256 maxAssets = maxWithdraw(owner) */\n      swap1\n      pop\n        /* \"@openzeppelin/contracts/token/ERC20/extensions/ERC4626.sol\":9066:9075  maxAssets */\n      dup1\n        /* \"@openzeppelin/contracts/token/ERC20/extensions/ERC4626.sol\":9057:9063  assets */\n      dup6\n        /* \"@openzeppelin/contracts/token/ERC20/extensions/ERC4626.sol\":9057:9075  assets > maxAssets */\n      gt\n        /* \"@openzeppelin/contracts/token/ERC20/extensions/ERC4626.sol\":9053:9161  if (assets > maxAssets) {... */\n      iszero\n      tag_232\n      jumpi\n        /* \"@openzeppelin/contracts/token/ERC20/extensions/ERC4626.sol\":9125:9130  owner */\n      dup3\n        /* \"@openzeppelin/contracts/token/ERC20/extensions/ERC4626.sol\":9132:9138  assets */\n      dup6\n        /* \"@openzeppelin/contracts/token/ERC20/extensions/ERC4626.sol\":9140:9149  maxAssets */\n      dup3\n        /* \"@openzeppelin/contracts/token/ERC20/extensions/ERC4626.sol\":9098:9150  ERC4626ExceededMaxWithdraw(owner, assets, maxAssets) */\n      mload(0x40)\n      0xfe9cceec00000000000000000000000000000000000000000000000000000000\n      dup2\n      mstore\n      0x04\n      add\n      tag_233\n      swap4\n      swap3\n      swap2\n      swap1\n      tag_204\n      jump\t// in\n    tag_233:\n      mload(0x40)\n      dup1\n      swap2\n      sub\n      swap1\n      revert\n        /* \"@openzeppelin/contracts/token/ERC20/extensions/ERC4626.sol\":9053:9161  if (assets > maxAssets) {... */\n    tag_232:\n        /* \"@openzeppelin/contracts/token/ERC20/extensions/ERC4626.sol\":9171:9185  uint256 shares */\n      0x00\n        /* \"@openzeppelin/contracts/token/ERC20/extensions/ERC4626.sol\":9188:9211  previewWithdraw(assets) */\n      tag_234\n        /* \"@openzeppelin/contracts/token/ERC20/extensions/ERC4626.sol\":9204:9210  assets */\n      dup7\n        /* \"@openzeppelin/contracts/token/ERC20/extensions/ERC4626.sol\":9188:9203  previewWithdraw */\n      tag_59\n        /* \"@openzeppelin/contracts/token/ERC20/extensions/ERC4626.sol\":9188:9211  previewWithdraw(assets) */\n      jump\t// in\n    tag_234:\n        /* \"@openzeppelin/contracts/token/ERC20/extensions/ERC4626.sol\":9171:9211  uint256 shares = previewWithdraw(assets) */\n      swap1\n      pop\n        /* \"@openzeppelin/contracts/token/ERC20/extensions/ERC4626.sol\":9221:9277  _withdraw(_msgSender(), receiver, owner, assets, shares) */\n      tag_235\n        /* \"@openzeppelin/contracts/token/ERC20/extensions/ERC4626.sol\":9231:9243  _msgSender() */\n      tag_236\n        /* \"@openzeppelin/contracts/token/ERC20/extensions/ERC4626.sol\":9231:9241  _msgSender */\n      tag_174\n        /* \"@openzeppelin/contracts/token/ERC20/extensions/ERC4626.sol\":9231:9243  _msgSender() */\n      jump\t// in\n    tag_236:\n        /* \"@openzeppelin/contracts/token/ERC20/extensions/ERC4626.sol\":9245:9253  receiver */\n      dup7\n        /* \"@openzeppelin/contracts/token/ERC20/extensions/ERC4626.sol\":9255:9260  owner */\n      dup7\n        /* \"@openzeppelin/contracts/token/ERC20/extensions/ERC4626.sol\":9262:9268  assets */\n      dup10\n        /* \"@openzeppelin/contracts/token/ERC20/extensions/ERC4626.sol\":9270:9276  shares */\n      dup6\n        /* \"@openzeppelin/contracts/token/ERC20/extensions/ERC4626.sol\":9221:9230  _withdraw */\n      tag_237\n        /* \"@openzeppelin/contracts/token/ERC20/extensions/ERC4626.sol\":9221:9277  _withdraw(_msgSender(), receiver, owner, assets, shares) */\n      jump\t// in\n    tag_235:\n        /* \"@openzeppelin/contracts/token/ERC20/extensions/ERC4626.sol\":9295:9301  shares */\n      dup1\n        /* \"@openzeppelin/contracts/token/ERC20/extensions/ERC4626.sol\":9288:9301  return shares */\n      swap3\n      pop\n      pop\n      pop\n        /* \"@openzeppelin/contracts/token/ERC20/extensions/ERC4626.sol\":8895:9308  function withdraw(uint256 assets, address receiver, address owner) public virtual returns (uint256) {... */\n      swap4\n      swap3\n      pop\n      pop\n      pop\n      jump\t// out\n        /* \"@openzeppelin/contracts/token/ERC20/extensions/ERC4626.sol\":9353:9758  function redeem(uint256 shares, address receiver, address owner) public virtual returns (uint256) {... */\n    tag_129:\n        /* \"@openzeppelin/contracts/token/ERC20/extensions/ERC4626.sol\":9442:9449  uint256 */\n      0x00\n        /* \"@openzeppelin/contracts/token/ERC20/extensions/ERC4626.sol\":9461:9478  uint256 maxShares */\n      0x00\n        /* \"@openzeppelin/contracts/token/ERC20/extensions/ERC4626.sol\":9481:9497  maxRedeem(owner) */\n      tag_239\n        /* \"@openzeppelin/contracts/token/ERC20/extensions/ERC4626.sol\":9491:9496  owner */\n      dup4\n        /* \"@openzeppelin/contracts/token/ERC20/extensions/ERC4626.sol\":9481:9490  maxRedeem */\n      tag_145\n        /* \"@openzeppelin/contracts/token/ERC20/extensions/ERC4626.sol\":9481:9497  maxRedeem(owner) */\n      jump\t// in\n    tag_239:\n        /* \"@openzeppelin/contracts/token/ERC20/extensions/ERC4626.sol\":9461:9497  uint256 maxShares = maxRedeem(owner) */\n      swap1\n      pop\n        /* \"@openzeppelin/contracts/token/ERC20/extensions/ERC4626.sol\":9520:9529  maxShares */\n      dup1\n        /* \"@openzeppelin/contracts/token/ERC20/extensions/ERC4626.sol\":9511:9517  shares */\n      dup6\n        /* \"@openzeppelin/contracts/token/ERC20/extensions/ERC4626.sol\":9511:9529  shares > maxShares */\n      gt\n        /* \"@openzeppelin/contracts/token/ERC20/extensions/ERC4626.sol\":9507:9613  if (shares > maxShares) {... */\n      iszero\n      tag_240\n      jumpi\n        /* \"@openzeppelin/contracts/token/ERC20/extensions/ERC4626.sol\":9577:9582  owner */\n      dup3\n        /* \"@openzeppelin/contracts/token/ERC20/extensions/ERC4626.sol\":9584:9590  shares */\n      dup6\n        /* \"@openzeppelin/contracts/token/ERC20/extensions/ERC4626.sol\":9592:9601  maxShares */\n      dup3\n        /* \"@openzeppelin/contracts/token/ERC20/extensions/ERC4626.sol\":9552:9602  ERC4626ExceededMaxRedeem(owner, shares, maxShares) */\n      mload(0x40)\n      0xb94abeec00000000000000000000000000000000000000000000000000000000\n      dup2\n      mstore\n      0x04\n      add\n      tag_241\n      swap4\n      swap3\n      swap2\n      swap1\n      tag_204\n      jump\t// in\n    tag_241:\n      mload(0x40)\n      dup1\n      swap2\n      sub\n      swap1\n      revert\n        /* \"@openzeppelin/contracts/token/ERC20/extensions/ERC4626.sol\":9507:9613  if (shares > maxShares) {... */\n    tag_240:\n        /* \"@openzeppelin/contracts/token/ERC20/extensions/ERC4626.sol\":9623:9637  uint256 assets */\n      0x00\n        /* \"@openzeppelin/contracts/token/ERC20/extensions/ERC4626.sol\":9640:9661  previewRedeem(shares) */\n      tag_242\n        /* \"@openzeppelin/contracts/token/ERC20/extensions/ERC4626.sol\":9654:9660  shares */\n      dup7\n        /* \"@openzeppelin/contracts/token/ERC20/extensions/ERC4626.sol\":9640:9653  previewRedeem */\n      tag_94\n        /* \"@openzeppelin/contracts/token/ERC20/extensions/ERC4626.sol\":9640:9661  previewRedeem(shares) */\n      jump\t// in\n    tag_242:\n        /* \"@openzeppelin/contracts/token/ERC20/extensions/ERC4626.sol\":9623:9661  uint256 assets = previewRedeem(shares) */\n      swap1\n      pop\n        /* \"@openzeppelin/contracts/token/ERC20/extensions/ERC4626.sol\":9671:9727  _withdraw(_msgSender(), receiver, owner, assets, shares) */\n      tag_243\n        /* \"@openzeppelin/contracts/token/ERC20/extensions/ERC4626.sol\":9681:9693  _msgSender() */\n      tag_244\n        /* \"@openzeppelin/contracts/token/ERC20/extensions/ERC4626.sol\":9681:9691  _msgSender */\n      tag_174\n        /* \"@openzeppelin/contracts/token/ERC20/extensions/ERC4626.sol\":9681:9693  _msgSender() */\n      jump\t// in\n    tag_244:\n        /* \"@openzeppelin/contracts/token/ERC20/extensions/ERC4626.sol\":9695:9703  receiver */\n      dup7\n        /* \"@openzeppelin/contracts/token/ERC20/extensions/ERC4626.sol\":9705:9710  owner */\n      dup7\n        /* \"@openzeppelin/contracts/token/ERC20/extensions/ERC4626.sol\":9712:9718  assets */\n      dup5\n        /* \"@openzeppelin/contracts/token/ERC20/extensions/ERC4626.sol\":9720:9726  shares */\n      dup11\n        /* \"@openzeppelin/contracts/token/ERC20/extensions/ERC4626.sol\":9671:9680  _withdraw */\n      tag_237\n        /* \"@openzeppelin/contracts/token/ERC20/extensions/ERC4626.sol\":9671:9727  _withdraw(_msgSender(), receiver, owner, assets, shares) */\n      jump\t// in\n    tag_243:\n        /* \"@openzeppelin/contracts/token/ERC20/extensions/ERC4626.sol\":9745:9751  assets */\n      dup1\n        /* \"@openzeppelin/contracts/token/ERC20/extensions/ERC4626.sol\":9738:9751  return assets */\n      swap3\n      pop\n      pop\n      pop\n        /* \"@openzeppelin/contracts/token/ERC20/extensions/ERC4626.sol\":9353:9758  function redeem(uint256 shares, address receiver, address owner) public virtual returns (uint256) {... */\n      swap4\n      swap3\n      pop\n      pop\n      pop\n      jump\t// out\n        /* \"@openzeppelin/contracts/token/ERC20/extensions/ERC4626.sol\":6503:6608  function maxMint(address) public view virtual returns (uint256) {... */\n    tag_133:\n        /* \"@openzeppelin/contracts/token/ERC20/extensions/ERC4626.sol\":6558:6565  uint256 */\n      0x00\n        /* \"@openzeppelin/contracts/token/ERC20/extensions/ERC4626.sol\":6584:6601  type(uint256).max */\n      0xffffffffffffffffffffffffffffffffffffffffffffffffffffffffffffffff\n        /* \"@openzeppelin/contracts/token/ERC20/extensions/ERC4626.sol\":6577:6601  return type(uint256).max */\n      swap1\n      pop\n        /* \"@openzeppelin/contracts/token/ERC20/extensions/ERC4626.sol\":6503:6608  function maxMint(address) public view virtual returns (uint256) {... */\n      swap2\n      swap1\n      pop\n      jump\t// out\n        /* \"@openzeppelin/contracts/token/ERC20/extensions/ERC4626.sol\":5950:6098  function convertToShares(uint256 assets) public view virtual returns (uint256) {... */\n    tag_137:\n        /* \"@openzeppelin/contracts/token/ERC20/extensions/ERC4626.sol\":6020:6027  uint256 */\n      0x00\n        /* \"@openzeppelin/contracts/token/ERC20/extensions/ERC4626.sol\":6046:6091  _convertToShares(assets, Math.Rounding.Floor) */\n      tag_247\n        /* \"@openzeppelin/contracts/token/ERC20/extensions/ERC4626.sol\":6063:6069  assets */\n      dup3\n        /* \"@openzeppelin/contracts/token/ERC20/extensions/ERC4626.sol\":6071:6090  Math.Rounding.Floor */\n      0x00\n        /* \"@openzeppelin/contracts/token/ERC20/extensions/ERC4626.sol\":6046:6062  _convertToShares */\n      tag_179\n        /* \"@openzeppelin/contracts/token/ERC20/extensions/ERC4626.sol\":6046:6091  _convertToShares(assets, Math.Rounding.Floor) */\n      jump\t// in\n    tag_247:\n        /* \"@openzeppelin/contracts/token/ERC20/extensions/ERC4626.sol\":6039:6091  return _convertToShares(assets, Math.Rounding.Floor) */\n      swap1\n      pop\n        /* \"@openzeppelin/contracts/token/ERC20/extensions/ERC4626.sol\":5950:6098  function convertToShares(uint256 assets) public view virtual returns (uint256) {... */\n      swap2\n      swap1\n      pop\n      jump\t// out\n        /* \"@openzeppelin/contracts/token/ERC20/extensions/ERC4626.sol\":6658:6811  function maxWithdraw(address owner) public view virtual returns (uint256) {... */\n    tag_141:\n        /* \"@openzeppelin/contracts/token/ERC20/extensions/ERC4626.sol\":6723:6730  uint256 */\n      0x00\n        /* \"@openzeppelin/contracts/token/ERC20/extensions/ERC4626.sol\":6749:6804  _convertToAssets(balanceOf(owner), Math.Rounding.Floor) */\n      tag_249\n        /* \"@openzeppelin/contracts/token/ERC20/extensions/ERC4626.sol\":6766:6782  balanceOf(owner) */\n      tag_250\n        /* \"@openzeppelin/contracts/token/ERC20/extensions/ERC4626.sol\":6776:6781  owner */\n      dup4\n        /* \"@openzeppelin/contracts/token/ERC20/extensions/ERC4626.sol\":6766:6775  balanceOf */\n      tag_102\n        /* \"@openzeppelin/contracts/token/ERC20/extensions/ERC4626.sol\":6766:6782  balanceOf(owner) */\n      jump\t// in\n    tag_250:\n        /* \"@openzeppelin/contracts/token/ERC20/extensions/ERC4626.sol\":6784:6803  Math.Rounding.Floor */\n      0x00\n        /* \"@openzeppelin/contracts/token/ERC20/extensions/ERC4626.sol\":6749:6765  _convertToAssets */\n      tag_171\n        /* \"@openzeppelin/contracts/token/ERC20/extensions/ERC4626.sol\":6749:6804  _convertToAssets(balanceOf(owner), Math.Rounding.Floor) */\n      jump\t// in\n    tag_249:\n        /* \"@openzeppelin/contracts/token/ERC20/extensions/ERC4626.sol\":6742:6804  return _convertToAssets(balanceOf(owner), Math.Rounding.Floor) */\n      swap1\n      pop\n        /* \"@openzeppelin/contracts/token/ERC20/extensions/ERC4626.sol\":6658:6811  function maxWithdraw(address owner) public view virtual returns (uint256) {... */\n      swap2\n      swap1\n      pop\n      jump\t// out\n        /* \"@openzeppelin/contracts/token/ERC20/extensions/ERC4626.sol\":6859:6971  function maxRedeem(address owner) public view virtual returns (uint256) {... */\n    tag_145:\n        /* \"@openzeppelin/contracts/token/ERC20/extensions/ERC4626.sol\":6922:6929  uint256 */\n      0x00\n        /* \"@openzeppelin/contracts/token/ERC20/extensions/ERC4626.sol\":6948:6964  balanceOf(owner) */\n      tag_252\n        /* \"@openzeppelin/contracts/token/ERC20/extensions/ERC4626.sol\":6958:6963  owner */\n      dup3\n        /* \"@openzeppelin/contracts/token/ERC20/extensions/ERC4626.sol\":6948:6957  balanceOf */\n      tag_102\n        /* \"@openzeppelin/contracts/token/ERC20/extensions/ERC4626.sol\":6948:6964  balanceOf(owner) */\n      jump\t// in\n    tag_252:\n        /* \"@openzeppelin/contracts/token/ERC20/extensions/ERC4626.sol\":6941:6964  return balanceOf(owner) */\n      swap1\n      pop\n        /* \"@openzeppelin/contracts/token/ERC20/extensions/ERC4626.sol\":6859:6971  function maxRedeem(address owner) public view virtual returns (uint256) {... */\n      swap2\n      swap1\n      pop\n      jump\t// out\n        /* \"@openzeppelin/contracts/token/ERC20/ERC20.sol\":3846:3986  function allowance(address owner, address spender) public view virtual returns (uint256) {... */\n    tag_150:\n        /* \"@openzeppelin/contracts/token/ERC20/ERC20.sol\":3926:3933  uint256 */\n      0x00\n        /* \"@openzeppelin/contracts/token/ERC20/ERC20.sol\":3952:3963  _allowances */\n      0x01\n        /* \"@openzeppelin/contracts/token/ERC20/ERC20.sol\":3952:3970  _allowances[owner] */\n      0x00\n        /* \"@openzeppelin/contracts/token/ERC20/ERC20.sol\":3964:3969  owner */\n      dup5\n        /* \"@openzeppelin/contracts/token/ERC20/ERC20.sol\":3952:3970  _allowances[owner] */\n      0xffffffffffffffffffffffffffffffffffffffff\n      and\n      0xffffffffffffffffffffffffffffffffffffffff\n      and\n      dup2\n      mstore\n      0x20\n      add\n      swap1\n      dup2\n      mstore\n      0x20\n      add\n      0x00\n      keccak256\n        /* \"@openzeppelin/contracts/token/ERC20/ERC20.sol\":3952:3979  _allowances[owner][spender] */\n      0x00\n        /* \"@openzeppelin/contracts/token/ERC20/ERC20.sol\":3971:3978  spender */\n      dup4\n        /* \"@openzeppelin/contracts/token/ERC20/ERC20.sol\":3952:3979  _allowances[owner][spender] */\n      0xffffffffffffffffffffffffffffffffffffffff\n      and\n      0xffffffffffffffffffffffffffffffffffffffff\n      and\n      dup2\n      mstore\n      0x20\n      add\n      swap1\n      dup2\n      mstore\n      0x20\n      add\n      0x00\n      keccak256\n      sload\n        /* \"@openzeppelin/contracts/token/ERC20/ERC20.sol\":3945:3979  return _allowances[owner][spender] */\n      swap1\n      pop\n        /* \"@openzeppelin/contracts/token/ERC20/ERC20.sol\":3846:3986  function allowance(address owner, address spender) public view virtual returns (uint256) {... */\n      swap3\n      swap2\n      pop\n      pop\n      jump\t// out\n        /* \"@openzeppelin/contracts/token/ERC20/extensions/ERC4626.sol\":7024:7171  function previewDeposit(uint256 assets) public view virtual returns (uint256) {... */\n    tag_154:\n        /* \"@openzeppelin/contracts/token/ERC20/extensions/ERC4626.sol\":7093:7100  uint256 */\n      0x00\n        /* \"@openzeppelin/contracts/token/ERC20/extensions/ERC4626.sol\":7119:7164  _convertToShares(assets, Math.Rounding.Floor) */\n      tag_255\n        /* \"@openzeppelin/contracts/token/ERC20/extensions/ERC4626.sol\":7136:7142  assets */\n      dup3\n        /* \"@openzeppelin/contracts/token/ERC20/extensions/ERC4626.sol\":7144:7163  Math.Rounding.Floor */\n      0x00\n        /* \"@openzeppelin/contracts/token/ERC20/extensions/ERC4626.sol\":7119:7135  _convertToShares */\n      tag_179\n        /* \"@openzeppelin/contracts/token/ERC20/extensions/ERC4626.sol\":7119:7164  _convertToShares(assets, Math.Rounding.Floor) */\n      jump\t// in\n    tag_255:\n        /* \"@openzeppelin/contracts/token/ERC20/extensions/ERC4626.sol\":7112:7164  return _convertToShares(assets, Math.Rounding.Floor) */\n      swap1\n      pop\n        /* \"@openzeppelin/contracts/token/ERC20/extensions/ERC4626.sol\":7024:7171  function previewDeposit(uint256 assets) public view virtual returns (uint256) {... */\n      swap2\n      swap1\n      pop\n      jump\t// out\n        /* \"@openzeppelin/contracts/token/ERC20/extensions/ERC4626.sol\":10219:10432  function _convertToAssets(uint256 shares, Math.Rounding rounding) internal view virtual returns (uint256) {... */\n    tag_171:\n        /* \"@openzeppelin/contracts/token/ERC20/extensions/ERC4626.sol\":10316:10323  uint256 */\n      0x00\n        /* \"@openzeppelin/contracts/token/ERC20/extensions/ERC4626.sol\":10342:10425  shares.mulDiv(totalAssets() + 1, totalSupply() + 10 ** _decimalsOffset(), rounding) */\n      tag_257\n        /* \"@openzeppelin/contracts/token/ERC20/extensions/ERC4626.sol\":10372:10373  1 */\n      0x01\n        /* \"@openzeppelin/contracts/token/ERC20/extensions/ERC4626.sol\":10356:10369  totalAssets() */\n      tag_258\n        /* \"@openzeppelin/contracts/token/ERC20/extensions/ERC4626.sol\":10356:10367  totalAssets */\n      tag_39\n        /* \"@openzeppelin/contracts/token/ERC20/extensions/ERC4626.sol\":10356:10369  totalAssets() */\n      jump\t// in\n    tag_258:\n        /* \"@openzeppelin/contracts/token/ERC20/extensions/ERC4626.sol\":10356:10373  totalAssets() + 1 */\n      tag_259\n      swap2\n      swap1\n      tag_260\n      jump\t// in\n    tag_259:\n        /* \"@openzeppelin/contracts/token/ERC20/extensions/ERC4626.sol\":10397:10414  _decimalsOffset() */\n      tag_261\n        /* \"@openzeppelin/contracts/token/ERC20/extensions/ERC4626.sol\":10397:10412  _decimalsOffset */\n      tag_191\n        /* \"@openzeppelin/contracts/token/ERC20/extensions/ERC4626.sol\":10397:10414  _decimalsOffset() */\n      jump\t// in\n    tag_261:\n        /* \"@openzeppelin/contracts/token/ERC20/extensions/ERC4626.sol\":10391:10393  10 */\n      0x0a\n        /* \"@openzeppelin/contracts/token/ERC20/extensions/ERC4626.sol\":10391:10414  10 ** _decimalsOffset() */\n      tag_262\n      swap2\n      swap1\n      tag_263\n      jump\t// in\n    tag_262:\n        /* \"@openzeppelin/contracts/token/ERC20/extensions/ERC4626.sol\":10375:10388  totalSupply() */\n      tag_264\n        /* \"@openzeppelin/contracts/token/ERC20/extensions/ERC4626.sol\":10375:10386  totalSupply */\n      tag_62\n        /* \"@openzeppelin/contracts/token/ERC20/extensions/ERC4626.sol\":10375:10388  totalSupply() */\n      jump\t// in\n    tag_264:\n        /* \"@openzeppelin/contracts/token/ERC20/extensions/ERC4626.sol\":10375:10414  totalSupply() + 10 ** _decimalsOffset() */\n      tag_265\n      swap2\n      swap1\n      tag_260\n      jump\t// in\n    tag_265:\n        /* \"@openzeppelin/contracts/token/ERC20/extensions/ERC4626.sol\":10416:10424  rounding */\n      dup5\n        /* \"@openzeppelin/contracts/token/ERC20/extensions/ERC4626.sol\":10342:10348  shares */\n      dup7\n        /* \"@openzeppelin/contracts/token/ERC20/extensions/ERC4626.sol\":10342:10355  shares.mulDiv */\n      tag_266\n      swap1\n        /* \"@openzeppelin/contracts/token/ERC20/extensions/ERC4626.sol\":10342:10425  shares.mulDiv(totalAssets() + 1, totalSupply() + 10 ** _decimalsOffset(), rounding) */\n      swap4\n      swap3\n      swap2\n      swap1\n      0xffffffff\n      and\n      jump\t// in\n    tag_257:\n        /* \"@openzeppelin/contracts/token/ERC20/extensions/ERC4626.sol\":10335:10425  return shares.mulDiv(totalAssets() + 1, totalSupply() + 10 ** _decimalsOffset(), rounding) */\n      swap1\n      pop\n        /* \"@openzeppelin/contracts/token/ERC20/extensions/ERC4626.sol\":10219:10432  function _convertToAssets(uint256 shares, Math.Rounding rounding) internal view virtual returns (uint256) {... */\n      swap3\n      swap2\n      pop\n      pop\n      jump\t// out\n        /* \"@openzeppelin/contracts/utils/Context.sol\":656:752  function _msgSender() internal view virtual returns (address) {... */\n    tag_174:\n        /* \"@openzeppelin/contracts/utils/Context.sol\":709:716  address */\n      0x00\n        /* \"@openzeppelin/contracts/utils/Context.sol\":735:745  msg.sender */\n      caller\n        /* \"@openzeppelin/contracts/utils/Context.sol\":728:745  return msg.sender */\n      swap1\n      pop\n        /* \"@openzeppelin/contracts/utils/Context.sol\":656:752  function _msgSender() internal view virtual returns (address) {... */\n      swap1\n      jump\t// out\n        /* \"@openzeppelin/contracts/token/ERC20/ERC20.sol\":8989:9117  function _approve(address owner, address spender, uint256 value) internal {... */\n    tag_176:\n        /* \"@openzeppelin/contracts/token/ERC20/ERC20.sol\":9073:9110  _approve(owner, spender, value, true) */\n      tag_269\n        /* \"@openzeppelin/contracts/token/ERC20/ERC20.sol\":9082:9087  owner */\n      dup4\n        /* \"@openzeppelin/contracts/token/ERC20/ERC20.sol\":9089:9096  spender */\n      dup4\n        /* \"@openzeppelin/contracts/token/ERC20/ERC20.sol\":9098:9103  value */\n      dup4\n        /* \"@openzeppelin/contracts/token/ERC20/ERC20.sol\":9105:9109  true */\n      0x01\n        /* \"@openzeppelin/contracts/token/ERC20/ERC20.sol\":9073:9081  _approve */\n      tag_270\n        /* \"@openzeppelin/contracts/token/ERC20/ERC20.sol\":9073:9110  _approve(owner, spender, value, true) */\n      jump\t// in\n    tag_269:\n        /* \"@openzeppelin/contracts/token/ERC20/ERC20.sol\":8989:9117  function _approve(address owner, address spender, uint256 value) internal {... */\n      pop\n      pop\n      pop\n      jump\t// out\n        /* \"@openzeppelin/contracts/token/ERC20/extensions/ERC4626.sol\":9882:10095  function _convertToShares(uint256 assets, Math.Rounding rounding) internal view virtual returns (uint256) {... */\n    tag_179:\n        /* \"@openzeppelin/contracts/token/ERC20/extensions/ERC4626.sol\":9979:9986  uint256 */\n      0x00\n        /* \"@openzeppelin/contracts/token/ERC20/extensions/ERC4626.sol\":10005:10088  assets.mulDiv(totalSupply() + 10 ** _decimalsOffset(), totalAssets() + 1, rounding) */\n      tag_272\n        /* \"@openzeppelin/contracts/token/ERC20/extensions/ERC4626.sol\":10041:10058  _decimalsOffset() */\n      tag_273\n        /* \"@openzeppelin/contracts/token/ERC20/extensions/ERC4626.sol\":10041:10056  _decimalsOffset */\n      tag_191\n        /* \"@openzeppelin/contracts/token/ERC20/extensions/ERC4626.sol\":10041:10058  _decimalsOffset() */\n      jump\t// in\n    tag_273:\n        /* \"@openzeppelin/contracts/token/ERC20/extensions/ERC4626.sol\":10035:10037  10 */\n      0x0a\n        /* \"@openzeppelin/contracts/token/ERC20/extensions/ERC4626.sol\":10035:10058  10 ** _decimalsOffset() */\n      tag_274\n      swap2\n      swap1\n      tag_263\n      jump\t// in\n    tag_274:\n        /* \"@openzeppelin/contracts/token/ERC20/extensions/ERC4626.sol\":10019:10032  totalSupply() */\n      tag_275\n        /* \"@openzeppelin/contracts/token/ERC20/extensions/ERC4626.sol\":10019:10030  totalSupply */\n      tag_62\n        /* \"@openzeppelin/contracts/token/ERC20/extensions/ERC4626.sol\":10019:10032  totalSupply() */\n      jump\t// in\n    tag_275:\n        /* \"@openzeppelin/contracts/token/ERC20/extensions/ERC4626.sol\":10019:10058  totalSupply() + 10 ** _decimalsOffset() */\n      tag_276\n      swap2\n      swap1\n      tag_260\n      jump\t// in\n    tag_276:\n        /* \"@openzeppelin/contracts/token/ERC20/extensions/ERC4626.sol\":10076:10077  1 */\n      0x01\n        /* \"@openzeppelin/contracts/token/ERC20/extensions/ERC4626.sol\":10060:10073  totalAssets() */\n      tag_277\n        /* \"@openzeppelin/contracts/token/ERC20/extensions/ERC4626.sol\":10060:10071  totalAssets */\n      tag_39\n        /* \"@openzeppelin/contracts/token/ERC20/extensions/ERC4626.sol\":10060:10073  totalAssets() */\n      jump\t// in\n    tag_277:\n        /* \"@openzeppelin/contracts/token/ERC20/extensions/ERC4626.sol\":10060:10077  totalAssets() + 1 */\n      tag_278\n      swap2\n      swap1\n      tag_260\n      jump\t// in\n    tag_278:\n        /* \"@openzeppelin/contracts/token/ERC20/extensions/ERC4626.sol\":10079:10087  rounding */\n      dup5\n        /* \"@openzeppelin/contracts/token/ERC20/extensions/ERC4626.sol\":10005:10011  assets */\n      dup7\n        /* \"@openzeppelin/contracts/token/ERC20/extensions/ERC4626.sol\":10005:10018  assets.mulDiv */\n      tag_266\n      swap1\n        /* \"@openzeppelin/contracts/token/ERC20/extensions/ERC4626.sol\":10005:10088  assets.mulDiv(totalSupply() + 10 ** _decimalsOffset(), totalAssets() + 1, rounding) */\n      swap4\n      swap3\n      swap2\n      swap1\n      0xffffffff\n      and\n      jump\t// in\n    tag_272:\n        /* \"@openzeppelin/contracts/token/ERC20/extensions/ERC4626.sol\":9998:10088  return assets.mulDiv(totalSupply() + 10 ** _decimalsOffset(), totalAssets() + 1, rounding) */\n      swap1\n      pop\n        /* \"@openzeppelin/contracts/token/ERC20/extensions/ERC4626.sol\":9882:10095  function _convertToShares(uint256 assets, Math.Rounding rounding) internal view virtual returns (uint256) {... */\n      swap3\n      swap2\n      pop\n      pop\n      jump\t// out\n        /* \"@openzeppelin/contracts/token/ERC20/ERC20.sol\":10663:11140  function _spendAllowance(address owner, address spender, uint256 value) internal virtual {... */\n    tag_184:\n        /* \"@openzeppelin/contracts/token/ERC20/ERC20.sol\":10762:10786  uint256 currentAllowance */\n      0x00\n        /* \"@openzeppelin/contracts/token/ERC20/ERC20.sol\":10789:10814  allowance(owner, spender) */\n      tag_280\n        /* \"@openzeppelin/contracts/token/ERC20/ERC20.sol\":10799:10804  owner */\n      dup5\n        /* \"@openzeppelin/contracts/token/ERC20/ERC20.sol\":10806:10813  spender */\n      dup5\n        /* \"@openzeppelin/contracts/token/ERC20/ERC20.sol\":10789:10798  allowance */\n      tag_150\n        /* \"@openzeppelin/contracts/token/ERC20/ERC20.sol\":10789:10814  allowance(owner, spender) */\n      jump\t// in\n    tag_280:\n        /* \"@openzeppelin/contracts/token/ERC20/ERC20.sol\":10762:10814  uint256 currentAllowance = allowance(owner, spender) */\n      swap1\n      pop\n        /* \"@openzeppelin/contracts/token/ERC20/ERC20.sol\":10848:10865  type(uint256).max */\n      0xffffffffffffffffffffffffffffffffffffffffffffffffffffffffffffffff\n        /* \"@openzeppelin/contracts/token/ERC20/ERC20.sol\":10828:10844  currentAllowance */\n      dup2\n        /* \"@openzeppelin/contracts/token/ERC20/ERC20.sol\":10828:10865  currentAllowance != type(uint256).max */\n      eq\n        /* \"@openzeppelin/contracts/token/ERC20/ERC20.sol\":10824:11134  if (currentAllowance != type(uint256).max) {... */\n      tag_281\n      jumpi\n        /* \"@openzeppelin/contracts/token/ERC20/ERC20.sol\":10904:10909  value */\n      dup2\n        /* \"@openzeppelin/contracts/token/ERC20/ERC20.sol\":10885:10901  currentAllowance */\n      dup2\n        /* \"@openzeppelin/contracts/token/ERC20/ERC20.sol\":10885:10909  currentAllowance < value */\n      lt\n        /* \"@openzeppelin/contracts/token/ERC20/ERC20.sol\":10881:11011  if (currentAllowance < value) {... */\n      iszero\n      tag_282\n      jumpi\n        /* \"@openzeppelin/contracts/token/ERC20/ERC20.sol\":10963:10970  spender */\n      dup3\n        /* \"@openzeppelin/contracts/token/ERC20/ERC20.sol\":10972:10988  currentAllowance */\n      dup2\n        /* \"@openzeppelin/contracts/token/ERC20/ERC20.sol\":10990:10995  value */\n      dup4\n        /* \"@openzeppelin/contracts/token/ERC20/ERC20.sol\":10936:10996  ERC20InsufficientAllowance(spender, currentAllowance, value) */\n      mload(0x40)\n      0xfb8f41b200000000000000000000000000000000000000000000000000000000\n      dup2\n      mstore\n      0x04\n      add\n      tag_283\n      swap4\n      swap3\n      swap2\n      swap1\n      tag_204\n      jump\t// in\n    tag_283:\n      mload(0x40)\n      dup1\n      swap2\n      sub\n      swap1\n      revert\n        /* \"@openzeppelin/contracts/token/ERC20/ERC20.sol\":10881:11011  if (currentAllowance < value) {... */\n    tag_282:\n        /* \"@openzeppelin/contracts/token/ERC20/ERC20.sol\":11052:11109  _approve(owner, spender, currentAllowance - value, false) */\n      tag_284\n        /* \"@openzeppelin/contracts/token/ERC20/ERC20.sol\":11061:11066  owner */\n      dup5\n        /* \"@openzeppelin/contracts/token/ERC20/ERC20.sol\":11068:11075  spender */\n      dup5\n        /* \"@openzeppelin/contracts/token/ERC20/ERC20.sol\":11096:11101  value */\n      dup5\n        /* \"@openzeppelin/contracts/token/ERC20/ERC20.sol\":11077:11093  currentAllowance */\n      dup5\n        /* \"@openzeppelin/contracts/token/ERC20/ERC20.sol\":11077:11101  currentAllowance - value */\n      sub\n        /* \"@openzeppelin/contracts/token/ERC20/ERC20.sol\":11103:11108  false */\n      0x00\n        /* \"@openzeppelin/contracts/token/ERC20/ERC20.sol\":11052:11060  _approve */\n      tag_270\n        /* \"@openzeppelin/contracts/token/ERC20/ERC20.sol\":11052:11109  _approve(owner, spender, currentAllowance - value, false) */\n      jump\t// in\n    tag_284:\n        /* \"@openzeppelin/contracts/token/ERC20/ERC20.sol\":10824:11134  if (currentAllowance != type(uint256).max) {... */\n    tag_281:\n        /* \"@openzeppelin/contracts/token/ERC20/ERC20.sol\":10752:11140  {... */\n      pop\n        /* \"@openzeppelin/contracts/token/ERC20/ERC20.sol\":10663:11140  function _spendAllowance(address owner, address spender, uint256 value) internal virtual {... */\n      pop\n      pop\n      pop\n      jump\t// out\n        /* \"@openzeppelin/contracts/token/ERC20/ERC20.sol\":5656:5956  function _transfer(address from, address to, uint256 value) internal {... */\n    tag_186:\n        /* \"@openzeppelin/contracts/token/ERC20/ERC20.sol\":5755:5756  0 */\n      0x00\n        /* \"@openzeppelin/contracts/token/ERC20/ERC20.sol\":5739:5757  from == address(0) */\n      0xffffffffffffffffffffffffffffffffffffffff\n      and\n        /* \"@openzeppelin/contracts/token/ERC20/ERC20.sol\":5739:5743  from */\n      dup4\n        /* \"@openzeppelin/contracts/token/ERC20/ERC20.sol\":5739:5757  from == address(0) */\n      0xffffffffffffffffffffffffffffffffffffffff\n      and\n      sub\n        /* \"@openzeppelin/contracts/token/ERC20/ERC20.sol\":5735:5821  if (from == address(0)) {... */\n      tag_286\n      jumpi\n        /* \"@openzeppelin/contracts/token/ERC20/ERC20.sol\":5807:5808  0 */\n      0x00\n        /* \"@openzeppelin/contracts/token/ERC20/ERC20.sol\":5780:5810  ERC20InvalidSender(address(0)) */\n      mload(0x40)\n      0x96c6fd1e00000000000000000000000000000000000000000000000000000000\n      dup2\n      mstore\n      0x04\n      add\n      tag_287\n      swap2\n      swap1\n      tag_81\n      jump\t// in\n    tag_287:\n      mload(0x40)\n      dup1\n      swap2\n      sub\n      swap1\n      revert\n        /* \"@openzeppelin/contracts/token/ERC20/ERC20.sol\":5735:5821  if (from == address(0)) {... */\n    tag_286:\n        /* \"@openzeppelin/contracts/token/ERC20/ERC20.sol\":5848:5849  0 */\n      0x00\n        /* \"@openzeppelin/contracts/token/ERC20/ERC20.sol\":5834:5850  to == address(0) */\n      0xffffffffffffffffffffffffffffffffffffffff\n      and\n        /* \"@openzeppelin/contracts/token/ERC20/ERC20.sol\":5834:5836  to */\n      dup3\n        /* \"@openzeppelin/contracts/token/ERC20/ERC20.sol\":5834:5850  to == address(0) */\n      0xffffffffffffffffffffffffffffffffffffffff\n      and\n      sub\n        /* \"@openzeppelin/contracts/token/ERC20/ERC20.sol\":5830:5916  if (to == address(0)) {... */\n      tag_288\n      jumpi\n        /* \"@openzeppelin/contracts/token/ERC20/ERC20.sol\":5902:5903  0 */\n      0x00\n        /* \"@openzeppelin/contracts/token/ERC20/ERC20.sol\":5873:5905  ERC20InvalidReceiver(address(0)) */\n      mload(0x40)\n      0xec442f0500000000000000000000000000000000000000000000000000000000\n      dup2\n      mstore\n      0x04\n      add\n      tag_289\n      swap2\n      swap1\n      tag_81\n      jump\t// in\n    tag_289:\n      mload(0x40)\n      dup1\n      swap2\n      sub\n      swap1\n      revert\n        /* \"@openzeppelin/contracts/token/ERC20/ERC20.sol\":5830:5916  if (to == address(0)) {... */\n    tag_288:\n        /* \"@openzeppelin/contracts/token/ERC20/ERC20.sol\":5925:5949  _update(from, to, value) */\n      tag_290\n        /* \"@openzeppelin/contracts/token/ERC20/ERC20.sol\":5933:5937  from */\n      dup4\n        /* \"@openzeppelin/contracts/token/ERC20/ERC20.sol\":5939:5941  to */\n      dup4\n        /* \"@openzeppelin/contracts/token/ERC20/ERC20.sol\":5943:5948  value */\n      dup4\n        /* \"@openzeppelin/contracts/token/ERC20/ERC20.sol\":5925:5932  _update */\n      tag_291\n        /* \"@openzeppelin/contracts/token/ERC20/ERC20.sol\":5925:5949  _update(from, to, value) */\n      jump\t// in\n    tag_290:\n        /* \"@openzeppelin/contracts/token/ERC20/ERC20.sol\":5656:5956  function _transfer(address from, address to, uint256 value) internal {... */\n      pop\n      pop\n      pop\n      jump\t// out\n        /* \"@openzeppelin/contracts/token/ERC20/extensions/ERC4626.sol\":12313:12403  function _decimalsOffset() internal view virtual returns (uint8) {... */\n    tag_191:\n        /* \"@openzeppelin/contracts/token/ERC20/extensions/ERC4626.sol\":12371:12376  uint8 */\n      0x00\n        /* \"@openzeppelin/contracts/token/ERC20/extensions/ERC4626.sol\":12395:12396  0 */\n      0x00\n        /* \"@openzeppelin/contracts/token/ERC20/extensions/ERC4626.sol\":12388:12396  return 0 */\n      swap1\n      pop\n        /* \"@openzeppelin/contracts/token/ERC20/extensions/ERC4626.sol\":12313:12403  function _decimalsOffset() internal view virtual returns (uint8) {... */\n      swap1\n      jump\t// out\n        /* \"@openzeppelin/contracts/token/ERC20/extensions/ERC4626.sol\":10496:11326  function _deposit(address caller, address receiver, uint256 assets, uint256 shares) internal virtual {... */\n    tag_208:\n        /* \"@openzeppelin/contracts/token/ERC20/extensions/ERC4626.sol\":11164:11229  SafeERC20.safeTransferFrom(_asset, caller, address(this), assets) */\n      tag_294\n        /* \"@openzeppelin/contracts/token/ERC20/extensions/ERC4626.sol\":11191:11197  _asset */\n      immutable(\"0xe3fb6c7a68b97a1574f1623712f47cd0a60a3212aae0a2101a56c312e7330127\")\n        /* \"@openzeppelin/contracts/token/ERC20/extensions/ERC4626.sol\":11199:11205  caller */\n      dup6\n        /* \"@openzeppelin/contracts/token/ERC20/extensions/ERC4626.sol\":11215:11219  this */\n      address\n        /* \"@openzeppelin/contracts/token/ERC20/extensions/ERC4626.sol\":11222:11228  assets */\n      dup6\n        /* \"@openzeppelin/contracts/token/ERC20/extensions/ERC4626.sol\":11164:11190  SafeERC20.safeTransferFrom */\n      tag_295\n        /* \"@openzeppelin/contracts/token/ERC20/extensions/ERC4626.sol\":11164:11229  SafeERC20.safeTransferFrom(_asset, caller, address(this), assets) */\n      jump\t// in\n    tag_294:\n        /* \"@openzeppelin/contracts/token/ERC20/extensions/ERC4626.sol\":11239:11262  _mint(receiver, shares) */\n      tag_296\n        /* \"@openzeppelin/contracts/token/ERC20/extensions/ERC4626.sol\":11245:11253  receiver */\n      dup4\n        /* \"@openzeppelin/contracts/token/ERC20/extensions/ERC4626.sol\":11255:11261  shares */\n      dup3\n        /* \"@openzeppelin/contracts/token/ERC20/extensions/ERC4626.sol\":11239:11244  _mint */\n      tag_297\n        /* \"@openzeppelin/contracts/token/ERC20/extensions/ERC4626.sol\":11239:11262  _mint(receiver, shares) */\n      jump\t// in\n    tag_296:\n        /* \"@openzeppelin/contracts/token/ERC20/extensions/ERC4626.sol\":11294:11302  receiver */\n      dup3\n        /* \"@openzeppelin/contracts/token/ERC20/extensions/ERC4626.sol\":11278:11319  Deposit(caller, receiver, assets, shares) */\n      0xffffffffffffffffffffffffffffffffffffffff\n      and\n        /* \"@openzeppelin/contracts/token/ERC20/extensions/ERC4626.sol\":11286:11292  caller */\n      dup5\n        /* \"@openzeppelin/contracts/token/ERC20/extensions/ERC4626.sol\":11278:11319  Deposit(caller, receiver, assets, shares) */\n      0xffffffffffffffffffffffffffffffffffffffff\n      and\n      0xdcbc1c05240f31ff3ad067ef1ee35ce4997762752e3a095284754544f4c709d7\n        /* \"@openzeppelin/contracts/token/ERC20/extensions/ERC4626.sol\":11304:11310  assets */\n      dup5\n        /* \"@openzeppelin/contracts/token/ERC20/extensions/ERC4626.sol\":11312:11318  shares */\n      dup5\n        /* \"@openzeppelin/contracts/token/ERC20/extensions/ERC4626.sol\":11278:11319  Deposit(caller, receiver, assets, shares) */\n      mload(0x40)\n      tag_298\n      swap3\n      swap2\n      swap1\n      tag_299\n      jump\t// in\n    tag_298:\n      mload(0x40)\n      dup1\n      swap2\n      sub\n      swap1\n      log3\n        /* \"@openzeppelin/contracts/token/ERC20/extensions/ERC4626.sol\":10496:11326  function _deposit(address caller, address receiver, uint256 assets, uint256 shares) internal virtual {... */\n      pop\n      pop\n      pop\n      pop\n      jump\t// out\n        /* \"@openzeppelin/contracts/token/ERC20/extensions/ERC4626.sol\":11393:12307  function _withdraw(... */\n    tag_237:\n        /* \"@openzeppelin/contracts/token/ERC20/extensions/ERC4626.sol\":11580:11585  owner */\n      dup3\n        /* \"@openzeppelin/contracts/token/ERC20/extensions/ERC4626.sol\":11570:11585  caller != owner */\n      0xffffffffffffffffffffffffffffffffffffffff\n      and\n        /* \"@openzeppelin/contracts/token/ERC20/extensions/ERC4626.sol\":11570:11576  caller */\n      dup6\n        /* \"@openzeppelin/contracts/token/ERC20/extensions/ERC4626.sol\":11570:11585  caller != owner */\n      0xffffffffffffffffffffffffffffffffffffffff\n      and\n      eq\n        /* \"@openzeppelin/contracts/token/ERC20/extensions/ERC4626.sol\":11566:11650  if (caller != owner) {... */\n      tag_301\n      jumpi\n        /* \"@openzeppelin/contracts/token/ERC20/extensions/ERC4626.sol\":11601:11639  _spendAllowance(owner, caller, shares) */\n      tag_302\n        /* \"@openzeppelin/contracts/token/ERC20/extensions/ERC4626.sol\":11617:11622  owner */\n      dup4\n        /* \"@openzeppelin/contracts/token/ERC20/extensions/ERC4626.sol\":11624:11630  caller */\n      dup7\n        /* \"@openzeppelin/contracts/token/ERC20/extensions/ERC4626.sol\":11632:11638  shares */\n      dup4\n        /* \"@openzeppelin/contracts/token/ERC20/extensions/ERC4626.sol\":11601:11616  _spendAllowance */\n      tag_184\n        /* \"@openzeppelin/contracts/token/ERC20/extensions/ERC4626.sol\":11601:11639  _spendAllowance(owner, caller, shares) */\n      jump\t// in\n    tag_302:\n        /* \"@openzeppelin/contracts/token/ERC20/extensions/ERC4626.sol\":11566:11650  if (caller != owner) {... */\n    tag_301:\n        /* \"@openzeppelin/contracts/token/ERC20/extensions/ERC4626.sol\":12157:12177  _burn(owner, shares) */\n      tag_303\n        /* \"@openzeppelin/contracts/token/ERC20/extensions/ERC4626.sol\":12163:12168  owner */\n      dup4\n        /* \"@openzeppelin/contracts/token/ERC20/extensions/ERC4626.sol\":12170:12176  shares */\n      dup3\n        /* \"@openzeppelin/contracts/token/ERC20/extensions/ERC4626.sol\":12157:12162  _burn */\n      tag_304\n        /* \"@openzeppelin/contracts/token/ERC20/extensions/ERC4626.sol\":12157:12177  _burn(owner, shares) */\n      jump\t// in\n    tag_303:\n        /* \"@openzeppelin/contracts/token/ERC20/extensions/ERC4626.sol\":12187:12235  SafeERC20.safeTransfer(_asset, receiver, assets) */\n      tag_305\n        /* \"@openzeppelin/contracts/token/ERC20/extensions/ERC4626.sol\":12210:12216  _asset */\n      immutable(\"0xe3fb6c7a68b97a1574f1623712f47cd0a60a3212aae0a2101a56c312e7330127\")\n        /* \"@openzeppelin/contracts/token/ERC20/extensions/ERC4626.sol\":12218:12226  receiver */\n      dup6\n        /* \"@openzeppelin/contracts/token/ERC20/extensions/ERC4626.sol\":12228:12234  assets */\n      dup5\n        /* \"@openzeppelin/contracts/token/ERC20/extensions/ERC4626.sol\":12187:12209  SafeERC20.safeTransfer */\n      tag_306\n        /* \"@openzeppelin/contracts/token/ERC20/extensions/ERC4626.sol\":12187:12235  SafeERC20.safeTransfer(_asset, receiver, assets) */\n      jump\t// in\n    tag_305:\n        /* \"@openzeppelin/contracts/token/ERC20/extensions/ERC4626.sol\":12278:12283  owner */\n      dup3\n        /* \"@openzeppelin/contracts/token/ERC20/extensions/ERC4626.sol\":12251:12300  Withdraw(caller, receiver, owner, assets, shares) */\n      0xffffffffffffffffffffffffffffffffffffffff\n      and\n        /* \"@openzeppelin/contracts/token/ERC20/extensions/ERC4626.sol\":12268:12276  receiver */\n      dup5\n        /* \"@openzeppelin/contracts/token/ERC20/extensions/ERC4626.sol\":12251:12300  Withdraw(caller, receiver, owner, assets, shares) */\n      0xffffffffffffffffffffffffffffffffffffffff\n      and\n        /* \"@openzeppelin/contracts/token/ERC20/extensions/ERC4626.sol\":12260:12266  caller */\n      dup7\n        /* \"@openzeppelin/contracts/token/ERC20/extensions/ERC4626.sol\":12251:12300  Withdraw(caller, receiver, owner, assets, shares) */\n      0xffffffffffffffffffffffffffffffffffffffff\n      and\n      0xfbde797d201c681b91056529119e0b02407c7bb96a4a2c75c01fc9667232c8db\n        /* \"@openzeppelin/contracts/token/ERC20/extensions/ERC4626.sol\":12285:12291  assets */\n      dup6\n        /* \"@openzeppelin/contracts/token/ERC20/extensions/ERC4626.sol\":12293:12299  shares */\n      dup6\n        /* \"@openzeppelin/contracts/token/ERC20/extensions/ERC4626.sol\":12251:12300  Withdraw(caller, receiver, owner, assets, shares) */\n      mload(0x40)\n      tag_307\n      swap3\n      swap2\n      swap1\n      tag_299\n      jump\t// in\n    tag_307:\n      mload(0x40)\n      dup1\n      swap2\n      sub\n      swap1\n      log4\n        /* \"@openzeppelin/contracts/token/ERC20/extensions/ERC4626.sol\":11393:12307  function _withdraw(... */\n      pop\n      pop\n      pop\n      pop\n      pop\n      jump\t// out\n        /* \"@openzeppelin/contracts/utils/math/Math.sol\":8051:8353  function mulDiv(uint256 x, uint256 y, uint256 denominator, Rounding rounding) internal pure returns (uint256) {... */\n    tag_266:\n        /* \"@openzeppelin/contracts/utils/math/Math.sol\":8152:8159  uint256 */\n      0x00\n        /* \"@openzeppelin/contracts/utils/math/Math.sol\":8171:8185  uint256 result */\n      0x00\n        /* \"@openzeppelin/contracts/utils/math/Math.sol\":8188:8213  mulDiv(x, y, denominator) */\n      tag_309\n        /* \"@openzeppelin/contracts/utils/math/Math.sol\":8195:8196  x */\n      dup7\n        /* \"@openzeppelin/contracts/utils/math/Math.sol\":8198:8199  y */\n      dup7\n        /* \"@openzeppelin/contracts/utils/math/Math.sol\":8201:8212  denominator */\n      dup7\n        /* \"@openzeppelin/contracts/utils/math/Math.sol\":8188:8194  mulDiv */\n      tag_310\n        /* \"@openzeppelin/contracts/utils/math/Math.sol\":8188:8213  mulDiv(x, y, denominator) */\n      jump\t// in\n    tag_309:\n        /* \"@openzeppelin/contracts/utils/math/Math.sol\":8171:8213  uint256 result = mulDiv(x, y, denominator) */\n      swap1\n      pop\n        /* \"@openzeppelin/contracts/utils/math/Math.sol\":8227:8253  unsignedRoundsUp(rounding) */\n      tag_311\n        /* \"@openzeppelin/contracts/utils/math/Math.sol\":8244:8252  rounding */\n      dup4\n        /* \"@openzeppelin/contracts/utils/math/Math.sol\":8227:8243  unsignedRoundsUp */\n      tag_312\n        /* \"@openzeppelin/contracts/utils/math/Math.sol\":8227:8253  unsignedRoundsUp(rounding) */\n      jump\t// in\n    tag_311:\n        /* \"@openzeppelin/contracts/utils/math/Math.sol\":8227:8286  unsignedRoundsUp(rounding) && mulmod(x, y, denominator) > 0 */\n      dup1\n      iszero\n      tag_313\n      jumpi\n      pop\n        /* \"@openzeppelin/contracts/utils/math/Math.sol\":8285:8286  0 */\n      0x00\n        /* \"@openzeppelin/contracts/utils/math/Math.sol\":8270:8281  denominator */\n      dup5\n        /* \"@openzeppelin/contracts/utils/math/Math.sol\":8257:8282  mulmod(x, y, denominator) */\n      dup1\n      tag_314\n      jumpi\n      tag_315\n      tag_316\n      jump\t// in\n    tag_315:\n    tag_314:\n        /* \"@openzeppelin/contracts/utils/math/Math.sol\":8267:8268  y */\n      dup7\n        /* \"@openzeppelin/contracts/utils/math/Math.sol\":8264:8265  x */\n      dup9\n        /* \"@openzeppelin/contracts/utils/math/Math.sol\":8257:8282  mulmod(x, y, denominator) */\n      mulmod\n        /* \"@openzeppelin/contracts/utils/math/Math.sol\":8257:8286  mulmod(x, y, denominator) > 0 */\n      gt\n        /* \"@openzeppelin/contracts/utils/math/Math.sol\":8227:8286  unsignedRoundsUp(rounding) && mulmod(x, y, denominator) > 0 */\n    tag_313:\n        /* \"@openzeppelin/contracts/utils/math/Math.sol\":8223:8324  if (unsignedRoundsUp(rounding) && mulmod(x, y, denominator) > 0) {... */\n      iszero\n      tag_317\n      jumpi\n        /* \"@openzeppelin/contracts/utils/math/Math.sol\":8312:8313  1 */\n      0x01\n        /* \"@openzeppelin/contracts/utils/math/Math.sol\":8302:8313  result += 1 */\n      dup2\n      tag_318\n      swap2\n      swap1\n      tag_260\n      jump\t// in\n    tag_318:\n      swap1\n      pop\n        /* \"@openzeppelin/contracts/utils/math/Math.sol\":8223:8324  if (unsignedRoundsUp(rounding) && mulmod(x, y, denominator) > 0) {... */\n    tag_317:\n        /* \"@openzeppelin/contracts/utils/math/Math.sol\":8340:8346  result */\n      dup1\n        /* \"@openzeppelin/contracts/utils/math/Math.sol\":8333:8346  return result */\n      swap2\n      pop\n      pop\n        /* \"@openzeppelin/contracts/utils/math/Math.sol\":8051:8353  function mulDiv(uint256 x, uint256 y, uint256 denominator, Rounding rounding) internal pure returns (uint256) {... */\n      swap5\n      swap4\n      pop\n      pop\n      pop\n      pop\n      jump\t// out\n        /* \"@openzeppelin/contracts/token/ERC20/ERC20.sol\":9949:10381  function _approve(address owner, address spender, uint256 value, bool emitEvent) internal virtual {... */\n    tag_270:\n        /* \"@openzeppelin/contracts/token/ERC20/ERC20.sol\":10078:10079  0 */\n      0x00\n        /* \"@openzeppelin/contracts/token/ERC20/ERC20.sol\":10061:10080  owner == address(0) */\n      0xffffffffffffffffffffffffffffffffffffffff\n      and\n        /* \"@openzeppelin/contracts/token/ERC20/ERC20.sol\":10061:10066  owner */\n      dup5\n        /* \"@openzeppelin/contracts/token/ERC20/ERC20.sol\":10061:10080  owner == address(0) */\n      0xffffffffffffffffffffffffffffffffffffffff\n      and\n      sub\n        /* \"@openzeppelin/contracts/token/ERC20/ERC20.sol\":10057:10146  if (owner == address(0)) {... */\n      tag_320\n      jumpi\n        /* \"@openzeppelin/contracts/token/ERC20/ERC20.sol\":10132:10133  0 */\n      0x00\n        /* \"@openzeppelin/contracts/token/ERC20/ERC20.sol\":10103:10135  ERC20InvalidApprover(address(0)) */\n      mload(0x40)\n      0xe602df0500000000000000000000000000000000000000000000000000000000\n      dup2\n      mstore\n      0x04\n      add\n      tag_321\n      swap2\n      swap1\n      tag_81\n      jump\t// in\n    tag_321:\n      mload(0x40)\n      dup1\n      swap2\n      sub\n      swap1\n      revert\n        /* \"@openzeppelin/contracts/token/ERC20/ERC20.sol\":10057:10146  if (owner == address(0)) {... */\n    tag_320:\n        /* \"@openzeppelin/contracts/token/ERC20/ERC20.sol\":10178:10179  0 */\n      0x00\n        /* \"@openzeppelin/contracts/token/ERC20/ERC20.sol\":10159:10180  spender == address(0) */\n      0xffffffffffffffffffffffffffffffffffffffff\n      and\n        /* \"@openzeppelin/contracts/token/ERC20/ERC20.sol\":10159:10166  spender */\n      dup4\n        /* \"@openzeppelin/contracts/token/ERC20/ERC20.sol\":10159:10180  spender == address(0) */\n      0xffffffffffffffffffffffffffffffffffffffff\n      and\n      sub\n        /* \"@openzeppelin/contracts/token/ERC20/ERC20.sol\":10155:10245  if (spender == address(0)) {... */\n      tag_322\n      jumpi\n        /* \"@openzeppelin/contracts/token/ERC20/ERC20.sol\":10231:10232  0 */\n      0x00\n        /* \"@openzeppelin/contracts/token/ERC20/ERC20.sol\":10203:10234  ERC20InvalidSpender(address(0)) */\n      mload(0x40)\n      0x94280d6200000000000000000000000000000000000000000000000000000000\n      dup2\n      mstore\n      0x04\n      add\n      tag_323\n      swap2\n      swap1\n      tag_81\n      jump\t// in\n    tag_323:\n      mload(0x40)\n      dup1\n      swap2\n      sub\n      swap1\n      revert\n        /* \"@openzeppelin/contracts/token/ERC20/ERC20.sol\":10155:10245  if (spender == address(0)) {... */\n    tag_322:\n        /* \"@openzeppelin/contracts/token/ERC20/ERC20.sol\":10284:10289  value */\n      dup2\n        /* \"@openzeppelin/contracts/token/ERC20/ERC20.sol\":10254:10265  _allowances */\n      0x01\n        /* \"@openzeppelin/contracts/token/ERC20/ERC20.sol\":10254:10272  _allowances[owner] */\n      0x00\n        /* \"@openzeppelin/contracts/token/ERC20/ERC20.sol\":10266:10271  owner */\n      dup7\n        /* \"@openzeppelin/contracts/token/ERC20/ERC20.sol\":10254:10272  _allowances[owner] */\n      0xffffffffffffffffffffffffffffffffffffffff\n      and\n      0xffffffffffffffffffffffffffffffffffffffff\n      and\n      dup2\n      mstore\n      0x20\n      add\n      swap1\n      dup2\n      mstore\n      0x20\n      add\n      0x00\n      keccak256\n        /* \"@openzeppelin/contracts/token/ERC20/ERC20.sol\":10254:10281  _allowances[owner][spender] */\n      0x00\n        /* \"@openzeppelin/contracts/token/ERC20/ERC20.sol\":10273:10280  spender */\n      dup6\n        /* \"@openzeppelin/contracts/token/ERC20/ERC20.sol\":10254:10281  _allowances[owner][spender] */\n      0xffffffffffffffffffffffffffffffffffffffff\n      and\n      0xffffffffffffffffffffffffffffffffffffffff\n      and\n      dup2\n      mstore\n      0x20\n      add\n      swap1\n      dup2\n      mstore\n      0x20\n      add\n      0x00\n      keccak256\n        /* \"@openzeppelin/contracts/token/ERC20/ERC20.sol\":10254:10289  _allowances[owner][spender] = value */\n      dup2\n      swap1\n      sstore\n      pop\n        /* \"@openzeppelin/contracts/token/ERC20/ERC20.sol\":10303:10312  emitEvent */\n      dup1\n        /* \"@openzeppelin/contracts/token/ERC20/ERC20.sol\":10299:10375  if (emitEvent) {... */\n      iszero\n      tag_324\n      jumpi\n        /* \"@openzeppelin/contracts/token/ERC20/ERC20.sol\":10349:10356  spender */\n      dup3\n        /* \"@openzeppelin/contracts/token/ERC20/ERC20.sol\":10333:10364  Approval(owner, spender, value) */\n      0xffffffffffffffffffffffffffffffffffffffff\n      and\n        /* \"@openzeppelin/contracts/token/ERC20/ERC20.sol\":10342:10347  owner */\n      dup5\n        /* \"@openzeppelin/contracts/token/ERC20/ERC20.sol\":10333:10364  Approval(owner, spender, value) */\n      0xffffffffffffffffffffffffffffffffffffffff\n      and\n      0x8c5be1e5ebec7d5bd14f71427d1e84f3dd0314c0f7b2291e5b200ac8c7c3b925\n        /* \"@openzeppelin/contracts/token/ERC20/ERC20.sol\":10358:10363  value */\n      dup5\n        /* \"@openzeppelin/contracts/token/ERC20/ERC20.sol\":10333:10364  Approval(owner, spender, value) */\n      mload(0x40)\n      tag_325\n      swap2\n      swap1\n      tag_41\n      jump\t// in\n    tag_325:\n      mload(0x40)\n      dup1\n      swap2\n      sub\n      swap1\n      log3\n        /* \"@openzeppelin/contracts/token/ERC20/ERC20.sol\":10299:10375  if (emitEvent) {... */\n    tag_324:\n        /* \"@openzeppelin/contracts/token/ERC20/ERC20.sol\":9949:10381  function _approve(address owner, address spender, uint256 value, bool emitEvent) internal virtual {... */\n      pop\n      pop\n      pop\n      pop\n      jump\t// out\n        /* \"@openzeppelin/contracts/token/ERC20/ERC20.sol\":6271:7378  function _update(address from, address to, uint256 value) internal virtual {... */\n    tag_291:\n        /* \"@openzeppelin/contracts/token/ERC20/ERC20.sol\":6376:6377  0 */\n      0x00\n        /* \"@openzeppelin/contracts/token/ERC20/ERC20.sol\":6360:6378  from == address(0) */\n      0xffffffffffffffffffffffffffffffffffffffff\n      and\n        /* \"@openzeppelin/contracts/token/ERC20/ERC20.sol\":6360:6364  from */\n      dup4\n        /* \"@openzeppelin/contracts/token/ERC20/ERC20.sol\":6360:6378  from == address(0) */\n      0xffffffffffffffffffffffffffffffffffffffff\n      and\n      sub\n        /* \"@openzeppelin/contracts/token/ERC20/ERC20.sol\":6356:6896  if (from == address(0)) {... */\n      tag_327\n      jumpi\n        /* \"@openzeppelin/contracts/token/ERC20/ERC20.sol\":6512:6517  value */\n      dup1\n        /* \"@openzeppelin/contracts/token/ERC20/ERC20.sol\":6496:6508  _totalSupply */\n      0x02\n      0x00\n        /* \"@openzeppelin/contracts/token/ERC20/ERC20.sol\":6496:6517  _totalSupply += value */\n      dup3\n      dup3\n      sload\n      tag_328\n      swap2\n      swap1\n      tag_260\n      jump\t// in\n    tag_328:\n      swap3\n      pop\n      pop\n      dup2\n      swap1\n      sstore\n      pop\n        /* \"@openzeppelin/contracts/token/ERC20/ERC20.sol\":6356:6896  if (from == address(0)) {... */\n      jump(tag_329)\n    tag_327:\n        /* \"@openzeppelin/contracts/token/ERC20/ERC20.sol\":6548:6567  uint256 fromBalance */\n      0x00\n        /* \"@openzeppelin/contracts/token/ERC20/ERC20.sol\":6570:6579  _balances */\n      0x00\n        /* \"@openzeppelin/contracts/token/ERC20/ERC20.sol\":6570:6585  _balances[from] */\n      0x00\n        /* \"@openzeppelin/contracts/token/ERC20/ERC20.sol\":6580:6584  from */\n      dup6\n        /* \"@openzeppelin/contracts/token/ERC20/ERC20.sol\":6570:6585  _balances[from] */\n      0xffffffffffffffffffffffffffffffffffffffff\n      and\n      0xffffffffffffffffffffffffffffffffffffffff\n      and\n      dup2\n      mstore\n      0x20\n      add\n      swap1\n      dup2\n      mstore\n      0x20\n      add\n      0x00\n      keccak256\n      sload\n        /* \"@openzeppelin/contracts/token/ERC20/ERC20.sol\":6548:6585  uint256 fromBalance = _balances[from] */\n      swap1\n      pop\n        /* \"@openzeppelin/contracts/token/ERC20/ERC20.sol\":6617:6622  value */\n      dup2\n        /* \"@openzeppelin/contracts/token/ERC20/ERC20.sol\":6603:6614  fromBalance */\n      dup2\n        /* \"@openzeppelin/contracts/token/ERC20/ERC20.sol\":6603:6622  fromBalance < value */\n      lt\n        /* \"@openzeppelin/contracts/token/ERC20/ERC20.sol\":6599:6714  if (fromBalance < value) {... */\n      iszero\n      tag_330\n      jumpi\n        /* \"@openzeppelin/contracts/token/ERC20/ERC20.sol\":6674:6678  from */\n      dup4\n        /* \"@openzeppelin/contracts/token/ERC20/ERC20.sol\":6680:6691  fromBalance */\n      dup2\n        /* \"@openzeppelin/contracts/token/ERC20/ERC20.sol\":6693:6698  value */\n      dup4\n        /* \"@openzeppelin/contracts/token/ERC20/ERC20.sol\":6649:6699  ERC20InsufficientBalance(from, fromBalance, value) */\n      mload(0x40)\n      0xe450d38c00000000000000000000000000000000000000000000000000000000\n      dup2\n      mstore\n      0x04\n      add\n      tag_331\n      swap4\n      swap3\n      swap2\n      swap1\n      tag_204\n      jump\t// in\n    tag_331:\n      mload(0x40)\n      dup1\n      swap2\n      sub\n      swap1\n      revert\n        /* \"@openzeppelin/contracts/token/ERC20/ERC20.sol\":6599:6714  if (fromBalance < value) {... */\n    tag_330:\n        /* \"@openzeppelin/contracts/token/ERC20/ERC20.sol\":6866:6871  value */\n      dup2\n        /* \"@openzeppelin/contracts/token/ERC20/ERC20.sol\":6852:6863  fromBalance */\n      dup2\n        /* \"@openzeppelin/contracts/token/ERC20/ERC20.sol\":6852:6871  fromBalance - value */\n      sub\n        /* \"@openzeppelin/contracts/token/ERC20/ERC20.sol\":6834:6843  _balances */\n      0x00\n        /* \"@openzeppelin/contracts/token/ERC20/ERC20.sol\":6834:6849  _balances[from] */\n      0x00\n        /* \"@openzeppelin/contracts/token/ERC20/ERC20.sol\":6844:6848  from */\n      dup7\n        /* \"@openzeppelin/contracts/token/ERC20/ERC20.sol\":6834:6849  _balances[from] */\n      0xffffffffffffffffffffffffffffffffffffffff\n      and\n      0xffffffffffffffffffffffffffffffffffffffff\n      and\n      dup2\n      mstore\n      0x20\n      add\n      swap1\n      dup2\n      mstore\n      0x20\n      add\n      0x00\n      keccak256\n        /* \"@openzeppelin/contracts/token/ERC20/ERC20.sol\":6834:6871  _balances[from] = fromBalance - value */\n      dup2\n      swap1\n      sstore\n      pop\n        /* \"@openzeppelin/contracts/token/ERC20/ERC20.sol\":6534:6896  {... */\n      pop\n        /* \"@openzeppelin/contracts/token/ERC20/ERC20.sol\":6356:6896  if (from == address(0)) {... */\n    tag_329:\n        /* \"@openzeppelin/contracts/token/ERC20/ERC20.sol\":6924:6925  0 */\n      0x00\n        /* \"@openzeppelin/contracts/token/ERC20/ERC20.sol\":6910:6926  to == address(0) */\n      0xffffffffffffffffffffffffffffffffffffffff\n      and\n        /* \"@openzeppelin/contracts/token/ERC20/ERC20.sol\":6910:6912  to */\n      dup3\n        /* \"@openzeppelin/contracts/token/ERC20/ERC20.sol\":6910:6926  to == address(0) */\n      0xffffffffffffffffffffffffffffffffffffffff\n      and\n      sub\n        /* \"@openzeppelin/contracts/token/ERC20/ERC20.sol\":6906:7331  if (to == address(0)) {... */\n      tag_332\n      jumpi\n        /* \"@openzeppelin/contracts/token/ERC20/ERC20.sol\":7089:7094  value */\n      dup1\n        /* \"@openzeppelin/contracts/token/ERC20/ERC20.sol\":7073:7085  _totalSupply */\n      0x02\n      0x00\n        /* \"@openzeppelin/contracts/token/ERC20/ERC20.sol\":7073:7094  _totalSupply -= value */\n      dup3\n      dup3\n      sload\n      sub\n      swap3\n      pop\n      pop\n      dup2\n      swap1\n      sstore\n      pop\n        /* \"@openzeppelin/contracts/token/ERC20/ERC20.sol\":6906:7331  if (to == address(0)) {... */\n      jump(tag_333)\n    tag_332:\n        /* \"@openzeppelin/contracts/token/ERC20/ERC20.sol\":7301:7306  value */\n      dup1\n        /* \"@openzeppelin/contracts/token/ERC20/ERC20.sol\":7284:7293  _balances */\n      0x00\n        /* \"@openzeppelin/contracts/token/ERC20/ERC20.sol\":7284:7297  _balances[to] */\n      0x00\n        /* \"@openzeppelin/contracts/token/ERC20/ERC20.sol\":7294:7296  to */\n      dup5\n        /* \"@openzeppelin/contracts/token/ERC20/ERC20.sol\":7284:7297  _balances[to] */\n      0xffffffffffffffffffffffffffffffffffffffff\n      and\n      0xffffffffffffffffffffffffffffffffffffffff\n      and\n      dup2\n      mstore\n      0x20\n      add\n      swap1\n      dup2\n      mstore\n      0x20\n      add\n      0x00\n      keccak256\n      0x00\n        /* \"@openzeppelin/contracts/token/ERC20/ERC20.sol\":7284:7306  _balances[to] += value */\n      dup3\n      dup3\n      sload\n      add\n      swap3\n      pop\n      pop\n      dup2\n      swap1\n      sstore\n      pop\n        /* \"@openzeppelin/contracts/token/ERC20/ERC20.sol\":6906:7331  if (to == address(0)) {... */\n    tag_333:\n        /* \"@openzeppelin/contracts/token/ERC20/ERC20.sol\":7361:7363  to */\n      dup2\n        /* \"@openzeppelin/contracts/token/ERC20/ERC20.sol\":7346:7371  Transfer(from, to, value) */\n      0xffffffffffffffffffffffffffffffffffffffff\n      and\n        /* \"@openzeppelin/contracts/token/ERC20/ERC20.sol\":7355:7359  from */\n      dup4\n        /* \"@openzeppelin/contracts/token/ERC20/ERC20.sol\":7346:7371  Transfer(from, to, value) */\n      0xffffffffffffffffffffffffffffffffffffffff\n      and\n      0xddf252ad1be2c89b69c2b068fc378daa952ba7f163c4a11628f55a4df523b3ef\n        /* \"@openzeppelin/contracts/token/ERC20/ERC20.sol\":7365:7370  value */\n      dup4\n        /* \"@openzeppelin/contracts/token/ERC20/ERC20.sol\":7346:7371  Transfer(from, to, value) */\n      mload(0x40)\n      tag_334\n      swap2\n      swap1\n      tag_41\n      jump\t// in\n    tag_334:\n      mload(0x40)\n      dup1\n      swap2\n      sub\n      swap1\n      log3\n        /* \"@openzeppelin/contracts/token/ERC20/ERC20.sol\":6271:7378  function _update(address from, address to, uint256 value) internal virtual {... */\n      pop\n      pop\n      pop\n      jump\t// out\n        /* \"@openzeppelin/contracts/token/ERC20/utils/SafeERC20.sol\":1702:1890  function safeTransferFrom(IERC20 token, address from, address to, uint256 value) internal {... */\n    tag_295:\n        /* \"@openzeppelin/contracts/token/ERC20/utils/SafeERC20.sol\":1802:1883  _callOptionalReturn(token, abi.encodeCall(token.transferFrom, (from, to, value))) */\n      tag_336\n        /* \"@openzeppelin/contracts/token/ERC20/utils/SafeERC20.sol\":1822:1827  token */\n      dup5\n        /* \"@openzeppelin/contracts/token/ERC20/utils/SafeERC20.sol\":1844:1849  token */\n      dup6\n        /* \"@openzeppelin/contracts/token/ERC20/utils/SafeERC20.sol\":1844:1862  token.transferFrom */\n      0xffffffffffffffffffffffffffffffffffffffff\n      and\n      0x23b872dd\n        /* \"@openzeppelin/contracts/token/ERC20/utils/SafeERC20.sol\":1865:1869  from */\n      dup7\n        /* \"@openzeppelin/contracts/token/ERC20/utils/SafeERC20.sol\":1871:1873  to */\n      dup7\n        /* \"@openzeppelin/contracts/token/ERC20/utils/SafeERC20.sol\":1875:1880  value */\n      dup7\n        /* \"@openzeppelin/contracts/token/ERC20/utils/SafeERC20.sol\":1829:1882  abi.encodeCall(token.transferFrom, (from, to, value)) */\n      add(0x24, mload(0x40))\n      tag_337\n      swap4\n      swap3\n      swap2\n      swap1\n      tag_338\n      jump\t// in\n    tag_337:\n      mload(0x40)\n      0x20\n      dup2\n      dup4\n      sub\n      sub\n      dup2\n      mstore\n      swap1\n      0x40\n      mstore\n      swap2\n      pop\n      0xe0\n      shl\n      0x20\n      dup3\n      add\n      dup1\n      mload\n      0xffffffffffffffffffffffffffffffffffffffffffffffffffffffff\n      dup4\n      dup2\n      dup4\n      and\n      or\n      dup4\n      mstore\n      pop\n      pop\n      pop\n      pop\n        /* \"@openzeppelin/contracts/token/ERC20/utils/SafeERC20.sol\":1802:1821  _callOptionalReturn */\n      tag_339\n        /* \"@openzeppelin/contracts/token/ERC20/utils/SafeERC20.sol\":1802:1883  _callOptionalReturn(token, abi.encodeCall(token.transferFrom, (from, to, value))) */\n      jump\t// in\n    tag_336:\n        /* \"@openzeppelin/contracts/token/ERC20/utils/SafeERC20.sol\":1702:1890  function safeTransferFrom(IERC20 token, address from, address to, uint256 value) internal {... */\n      pop\n      pop\n      pop\n      pop\n      jump\t// out\n        /* \"@openzeppelin/contracts/token/ERC20/ERC20.sol\":7721:7929  function _mint(address account, uint256 value) internal {... */\n    tag_297:\n        /* \"@openzeppelin/contracts/token/ERC20/ERC20.sol\":7810:7811  0 */\n      0x00\n        /* \"@openzeppelin/contracts/token/ERC20/ERC20.sol\":7791:7812  account == address(0) */\n      0xffffffffffffffffffffffffffffffffffffffff\n      and\n        /* \"@openzeppelin/contracts/token/ERC20/ERC20.sol\":7791:7798  account */\n      dup3\n        /* \"@openzeppelin/contracts/token/ERC20/ERC20.sol\":7791:7812  account == address(0) */\n      0xffffffffffffffffffffffffffffffffffffffff\n      and\n      sub\n        /* \"@openzeppelin/contracts/token/ERC20/ERC20.sol\":7787:7878  if (account == address(0)) {... */\n      tag_341\n      jumpi\n        /* \"@openzeppelin/contracts/token/ERC20/ERC20.sol\":7864:7865  0 */\n      0x00\n        /* \"@openzeppelin/contracts/token/ERC20/ERC20.sol\":7835:7867  ERC20InvalidReceiver(address(0)) */\n      mload(0x40)\n      0xec442f0500000000000000000000000000000000000000000000000000000000\n      dup2\n      mstore\n      0x04\n      add\n      tag_342\n      swap2\n      swap1\n      tag_81\n      jump\t// in\n    tag_342:\n      mload(0x40)\n      dup1\n      swap2\n      sub\n      swap1\n      revert\n        /* \"@openzeppelin/contracts/token/ERC20/ERC20.sol\":7787:7878  if (account == address(0)) {... */\n    tag_341:\n        /* \"@openzeppelin/contracts/token/ERC20/ERC20.sol\":7887:7922  _update(address(0), account, value) */\n      tag_343\n        /* \"@openzeppelin/contracts/token/ERC20/ERC20.sol\":7903:7904  0 */\n      0x00\n        /* \"@openzeppelin/contracts/token/ERC20/ERC20.sol\":7907:7914  account */\n      dup4\n        /* \"@openzeppelin/contracts/token/ERC20/ERC20.sol\":7916:7921  value */\n      dup4\n        /* \"@openzeppelin/contracts/token/ERC20/ERC20.sol\":7887:7894  _update */\n      tag_291\n        /* \"@openzeppelin/contracts/token/ERC20/ERC20.sol\":7887:7922  _update(address(0), account, value) */\n      jump\t// in\n    tag_343:\n        /* \"@openzeppelin/contracts/token/ERC20/ERC20.sol\":7721:7929  function _mint(address account, uint256 value) internal {... */\n      pop\n      pop\n      jump\t// out\n        /* \"@openzeppelin/contracts/token/ERC20/ERC20.sol\":8247:8453  function _burn(address account, uint256 value) internal {... */\n    tag_304:\n        /* \"@openzeppelin/contracts/token/ERC20/ERC20.sol\":8336:8337  0 */\n      0x00\n        /* \"@openzeppelin/contracts/token/ERC20/ERC20.sol\":8317:8338  account == address(0) */\n      0xffffffffffffffffffffffffffffffffffffffff\n      and\n        /* \"@openzeppelin/contracts/token/ERC20/ERC20.sol\":8317:8324  account */\n      dup3\n        /* \"@openzeppelin/contracts/token/ERC20/ERC20.sol\":8317:8338  account == address(0) */\n      0xffffffffffffffffffffffffffffffffffffffff\n      and\n      sub\n        /* \"@openzeppelin/contracts/token/ERC20/ERC20.sol\":8313:8402  if (account == address(0)) {... */\n      tag_345\n      jumpi\n        /* \"@openzeppelin/contracts/token/ERC20/ERC20.sol\":8388:8389  0 */\n      0x00\n        /* \"@openzeppelin/contracts/token/ERC20/ERC20.sol\":8361:8391  ERC20InvalidSender(address(0)) */\n      mload(0x40)\n      0x96c6fd1e00000000000000000000000000000000000000000000000000000000\n      dup2\n      mstore\n      0x04\n      add\n      tag_346\n      swap2\n      swap1\n      tag_81\n      jump\t// in\n    tag_346:\n      mload(0x40)\n      dup1\n      swap2\n      sub\n      swap1\n      revert\n        /* \"@openzeppelin/contracts/token/ERC20/ERC20.sol\":8313:8402  if (account == address(0)) {... */\n    tag_345:\n        /* \"@openzeppelin/contracts/token/ERC20/ERC20.sol\":8411:8446  _update(account, address(0), value) */\n      tag_347\n        /* \"@openzeppelin/contracts/token/ERC20/ERC20.sol\":8419:8426  account */\n      dup3\n        /* \"@openzeppelin/contracts/token/ERC20/ERC20.sol\":8436:8437  0 */\n      0x00\n        /* \"@openzeppelin/contracts/token/ERC20/ERC20.sol\":8440:8445  value */\n      dup4\n        /* \"@openzeppelin/contracts/token/ERC20/ERC20.sol\":8411:8418  _update */\n      tag_291\n        /* \"@openzeppelin/contracts/token/ERC20/ERC20.sol\":8411:8446  _update(account, address(0), value) */\n      jump\t// in\n    tag_347:\n        /* \"@openzeppelin/contracts/token/ERC20/ERC20.sol\":8247:8453  function _burn(address account, uint256 value) internal {... */\n      pop\n      pop\n      jump\t// out\n        /* \"@openzeppelin/contracts/token/ERC20/utils/SafeERC20.sol\":1303:1463  function safeTransfer(IERC20 token, address to, uint256 value) internal {... */\n    tag_306:\n        /* \"@openzeppelin/contracts/token/ERC20/utils/SafeERC20.sol\":1385:1456  _callOptionalReturn(token, abi.encodeCall(token.transfer, (to, value))) */\n      tag_349\n        /* \"@openzeppelin/contracts/token/ERC20/utils/SafeERC20.sol\":1405:1410  token */\n      dup4\n        /* \"@openzeppelin/contracts/token/ERC20/utils/SafeERC20.sol\":1427:1432  token */\n      dup5\n        /* \"@openzeppelin/contracts/token/ERC20/utils/SafeERC20.sol\":1427:1441  token.transfer */\n      0xffffffffffffffffffffffffffffffffffffffff\n      and\n      0xa9059cbb\n        /* \"@openzeppelin/contracts/token/ERC20/utils/SafeERC20.sol\":1444:1446  to */\n      dup6\n        /* \"@openzeppelin/contracts/token/ERC20/utils/SafeERC20.sol\":1448:1453  value */\n      dup6\n        /* \"@openzeppelin/contracts/token/ERC20/utils/SafeERC20.sol\":1412:1455  abi.encodeCall(token.transfer, (to, value)) */\n      add(0x24, mload(0x40))\n      tag_350\n      swap3\n      swap2\n      swap1\n      tag_351\n      jump\t// in\n    tag_350:\n      mload(0x40)\n      0x20\n      dup2\n      dup4\n      sub\n      sub\n      dup2\n      mstore\n      swap1\n      0x40\n      mstore\n      swap2\n      pop\n      0xe0\n      shl\n      0x20\n      dup3\n      add\n      dup1\n      mload\n      0xffffffffffffffffffffffffffffffffffffffffffffffffffffffff\n      dup4\n      dup2\n      dup4\n      and\n      or\n      dup4\n      mstore\n      pop\n      pop\n      pop\n      pop\n        /* \"@openzeppelin/contracts/token/ERC20/utils/SafeERC20.sol\":1385:1404  _callOptionalReturn */\n      tag_339\n        /* \"@openzeppelin/contracts/token/ERC20/utils/SafeERC20.sol\":1385:1456  _callOptionalReturn(token, abi.encodeCall(token.transfer, (to, value))) */\n      jump\t// in\n    tag_349:\n        /* \"@openzeppelin/contracts/token/ERC20/utils/SafeERC20.sol\":1303:1463  function safeTransfer(IERC20 token, address to, uint256 value) internal {... */\n      pop\n      pop\n      pop\n      jump\t// out\n        /* \"@openzeppelin/contracts/utils/math/Math.sol\":3803:7919  function mulDiv(uint256 x, uint256 y, uint256 denominator) internal pure returns (uint256 result) {... */\n    tag_310:\n        /* \"@openzeppelin/contracts/utils/math/Math.sol\":3885:3899  uint256 result */\n      0x00\n        /* \"@openzeppelin/contracts/utils/math/Math.sol\":4232:4245  uint256 prod0 */\n      0x00\n        /* \"@openzeppelin/contracts/utils/math/Math.sol\":4252:4253  y */\n      dup4\n        /* \"@openzeppelin/contracts/utils/math/Math.sol\":4248:4249  x */\n      dup6\n        /* \"@openzeppelin/contracts/utils/math/Math.sol\":4248:4253  x * y */\n      mul\n        /* \"@openzeppelin/contracts/utils/math/Math.sol\":4232:4253  uint256 prod0 = x * y */\n      swap1\n      pop\n        /* \"@openzeppelin/contracts/utils/math/Math.sol\":4312:4325  uint256 prod1 */\n      0x00\n        /* \"@openzeppelin/contracts/utils/math/Math.sol\":4437:4438  0 */\n      0x00\n        /* \"@openzeppelin/contracts/utils/math/Math.sol\":4433:4439  not(0) */\n      not\n        /* \"@openzeppelin/contracts/utils/math/Math.sol\":4430:4431  y */\n      dup6\n        /* \"@openzeppelin/contracts/utils/math/Math.sol\":4427:4428  x */\n      dup8\n        /* \"@openzeppelin/contracts/utils/math/Math.sol\":4420:4440  mulmod(x, y, not(0)) */\n      mulmod\n        /* \"@openzeppelin/contracts/utils/math/Math.sol\":4493:4498  prod0 */\n      dup3\n        /* \"@openzeppelin/contracts/utils/math/Math.sol\":4489:4491  mm */\n      dup2\n        /* \"@openzeppelin/contracts/utils/math/Math.sol\":4486:4499  lt(mm, prod0) */\n      lt\n        /* \"@openzeppelin/contracts/utils/math/Math.sol\":4478:4483  prod0 */\n      dup4\n        /* \"@openzeppelin/contracts/utils/math/Math.sol\":4474:4476  mm */\n      dup3\n        /* \"@openzeppelin/contracts/utils/math/Math.sol\":4470:4484  sub(mm, prod0) */\n      sub\n        /* \"@openzeppelin/contracts/utils/math/Math.sol\":4466:4500  sub(sub(mm, prod0), lt(mm, prod0)) */\n      sub\n        /* \"@openzeppelin/contracts/utils/math/Math.sol\":4457:4500  prod1 := sub(sub(mm, prod0), lt(mm, prod0)) */\n      swap2\n      pop\n        /* \"@openzeppelin/contracts/utils/math/Math.sol\":4392:4514  {... */\n      pop\n        /* \"@openzeppelin/contracts/utils/math/Math.sol\":4604:4605  0 */\n      0x00\n        /* \"@openzeppelin/contracts/utils/math/Math.sol\":4595:4600  prod1 */\n      dup2\n        /* \"@openzeppelin/contracts/utils/math/Math.sol\":4595:4605  prod1 == 0 */\n      sub\n        /* \"@openzeppelin/contracts/utils/math/Math.sol\":4591:4959  if (prod1 == 0) {... */\n      tag_353\n      jumpi\n        /* \"@openzeppelin/contracts/utils/math/Math.sol\":4933:4944  denominator */\n      dup4\n        /* \"@openzeppelin/contracts/utils/math/Math.sol\":4925:4930  prod0 */\n      dup3\n        /* \"@openzeppelin/contracts/utils/math/Math.sol\":4925:4944  prod0 / denominator */\n      dup2\n      tag_354\n      jumpi\n      tag_355\n      tag_316\n      jump\t// in\n    tag_355:\n    tag_354:\n      div\n        /* \"@openzeppelin/contracts/utils/math/Math.sol\":4918:4944  return prod0 / denominator */\n      swap3\n      pop\n      pop\n      pop\n      jump(tag_352)\n        /* \"@openzeppelin/contracts/utils/math/Math.sol\":4591:4959  if (prod1 == 0) {... */\n    tag_353:\n        /* \"@openzeppelin/contracts/utils/math/Math.sol\":5080:5085  prod1 */\n      dup1\n        /* \"@openzeppelin/contracts/utils/math/Math.sol\":5065:5076  denominator */\n      dup5\n        /* \"@openzeppelin/contracts/utils/math/Math.sol\":5065:5085  denominator <= prod1 */\n      gt\n        /* \"@openzeppelin/contracts/utils/math/Math.sol\":5061:5149  if (denominator <= prod1) {... */\n      tag_356\n      jumpi\n        /* \"@openzeppelin/contracts/utils/math/Math.sol\":5112:5134  MathOverflowedMulDiv() */\n      mload(0x40)\n      0x227bc15300000000000000000000000000000000000000000000000000000000\n      dup2\n      mstore\n      0x04\n      add\n      mload(0x40)\n      dup1\n      swap2\n      sub\n      swap1\n      revert\n        /* \"@openzeppelin/contracts/utils/math/Math.sol\":5061:5149  if (denominator <= prod1) {... */\n    tag_356:\n        /* \"@openzeppelin/contracts/utils/math/Math.sol\":5404:5421  uint256 remainder */\n      0x00\n        /* \"@openzeppelin/contracts/utils/math/Math.sol\":5539:5550  denominator */\n      dup5\n        /* \"@openzeppelin/contracts/utils/math/Math.sol\":5536:5537  y */\n      dup7\n        /* \"@openzeppelin/contracts/utils/math/Math.sol\":5533:5534  x */\n      dup9\n        /* \"@openzeppelin/contracts/utils/math/Math.sol\":5526:5551  mulmod(x, y, denominator) */\n      mulmod\n        /* \"@openzeppelin/contracts/utils/math/Math.sol\":5513:5551  remainder := mulmod(x, y, denominator) */\n      swap1\n      pop\n        /* \"@openzeppelin/contracts/utils/math/Math.sol\":5667:5672  prod0 */\n      dup3\n        /* \"@openzeppelin/contracts/utils/math/Math.sol\":5656:5665  remainder */\n      dup2\n        /* \"@openzeppelin/contracts/utils/math/Math.sol\":5653:5673  gt(remainder, prod0) */\n      gt\n        /* \"@openzeppelin/contracts/utils/math/Math.sol\":5646:5651  prod1 */\n      dup3\n        /* \"@openzeppelin/contracts/utils/math/Math.sol\":5642:5674  sub(prod1, gt(remainder, prod0)) */\n      sub\n        /* \"@openzeppelin/contracts/utils/math/Math.sol\":5633:5674  prod1 := sub(prod1, gt(remainder, prod0)) */\n      swap2\n      pop\n        /* \"@openzeppelin/contracts/utils/math/Math.sol\":5711:5720  remainder */\n      dup1\n        /* \"@openzeppelin/contracts/utils/math/Math.sol\":5704:5709  prod0 */\n      dup4\n        /* \"@openzeppelin/contracts/utils/math/Math.sol\":5700:5721  sub(prod0, remainder) */\n      sub\n        /* \"@openzeppelin/contracts/utils/math/Math.sol\":5691:5721  prod0 := sub(prod0, remainder) */\n      swap3\n      pop\n        /* \"@openzeppelin/contracts/utils/math/Math.sol\":5939:5951  uint256 twos */\n      0x00\n        /* \"@openzeppelin/contracts/utils/math/Math.sol\":5973:5984  denominator */\n      dup6\n        /* \"@openzeppelin/contracts/utils/math/Math.sol\":5969:5970  0 */\n      0x00\n        /* \"@openzeppelin/contracts/utils/math/Math.sol\":5969:5984  0 - denominator */\n      sub\n        /* \"@openzeppelin/contracts/utils/math/Math.sol\":5954:5965  denominator */\n      dup7\n        /* \"@openzeppelin/contracts/utils/math/Math.sol\":5954:5985  denominator & (0 - denominator) */\n      and\n        /* \"@openzeppelin/contracts/utils/math/Math.sol\":5939:5985  uint256 twos = denominator & (0 - denominator) */\n      swap1\n      pop\n        /* \"@openzeppelin/contracts/utils/math/Math.sol\":6105:6109  twos */\n      dup1\n        /* \"@openzeppelin/contracts/utils/math/Math.sol\":6092:6103  denominator */\n      dup7\n        /* \"@openzeppelin/contracts/utils/math/Math.sol\":6088:6110  div(denominator, twos) */\n      div\n        /* \"@openzeppelin/contracts/utils/math/Math.sol\":6073:6110  denominator := div(denominator, twos) */\n      swap6\n      pop\n        /* \"@openzeppelin/contracts/utils/math/Math.sol\":6197:6201  twos */\n      dup1\n        /* \"@openzeppelin/contracts/utils/math/Math.sol\":6190:6195  prod0 */\n      dup5\n        /* \"@openzeppelin/contracts/utils/math/Math.sol\":6186:6202  div(prod0, twos) */\n      div\n        /* \"@openzeppelin/contracts/utils/math/Math.sol\":6177:6202  prod0 := div(prod0, twos) */\n      swap4\n      pop\n        /* \"@openzeppelin/contracts/utils/math/Math.sol\":6354:6355  1 */\n      0x01\n        /* \"@openzeppelin/contracts/utils/math/Math.sol\":6347:6351  twos */\n      dup2\n        /* \"@openzeppelin/contracts/utils/math/Math.sol\":6340:6344  twos */\n      dup3\n        /* \"@openzeppelin/contracts/utils/math/Math.sol\":6337:6338  0 */\n      0x00\n        /* \"@openzeppelin/contracts/utils/math/Math.sol\":6333:6345  sub(0, twos) */\n      sub\n        /* \"@openzeppelin/contracts/utils/math/Math.sol\":6329:6352  div(sub(0, twos), twos) */\n      div\n        /* \"@openzeppelin/contracts/utils/math/Math.sol\":6325:6356  add(div(sub(0, twos), twos), 1) */\n      add\n        /* \"@openzeppelin/contracts/utils/math/Math.sol\":6317:6356  twos := add(div(sub(0, twos), twos), 1) */\n      swap1\n      pop\n        /* \"@openzeppelin/contracts/utils/math/Math.sol\":6453:6457  twos */\n      dup1\n        /* \"@openzeppelin/contracts/utils/math/Math.sol\":6445:6450  prod1 */\n      dup4\n        /* \"@openzeppelin/contracts/utils/math/Math.sol\":6445:6457  prod1 * twos */\n      mul\n        /* \"@openzeppelin/contracts/utils/math/Math.sol\":6436:6457  prod0 |= prod1 * twos */\n      dup5\n      or\n      swap4\n      pop\n        /* \"@openzeppelin/contracts/utils/math/Math.sol\":6775:6790  uint256 inverse */\n      0x00\n        /* \"@openzeppelin/contracts/utils/math/Math.sol\":6813:6814  2 */\n      0x02\n        /* \"@openzeppelin/contracts/utils/math/Math.sol\":6798:6809  denominator */\n      dup8\n        /* \"@openzeppelin/contracts/utils/math/Math.sol\":6794:6795  3 */\n      0x03\n        /* \"@openzeppelin/contracts/utils/math/Math.sol\":6794:6809  3 * denominator */\n      mul\n        /* \"@openzeppelin/contracts/utils/math/Math.sol\":6793:6814  (3 * denominator) ^ 2 */\n      xor\n        /* \"@openzeppelin/contracts/utils/math/Math.sol\":6775:6814  uint256 inverse = (3 * denominator) ^ 2 */\n      swap1\n      pop\n        /* \"@openzeppelin/contracts/utils/math/Math.sol\":7060:7067  inverse */\n      dup1\n        /* \"@openzeppelin/contracts/utils/math/Math.sol\":7046:7057  denominator */\n      dup8\n        /* \"@openzeppelin/contracts/utils/math/Math.sol\":7046:7067  denominator * inverse */\n      mul\n        /* \"@openzeppelin/contracts/utils/math/Math.sol\":7042:7043  2 */\n      0x02\n        /* \"@openzeppelin/contracts/utils/math/Math.sol\":7042:7067  2 - denominator * inverse */\n      sub\n        /* \"@openzeppelin/contracts/utils/math/Math.sol\":7031:7067  inverse *= 2 - denominator * inverse */\n      dup2\n      mul\n      swap1\n      pop\n        /* \"@openzeppelin/contracts/utils/math/Math.sol\":7129:7136  inverse */\n      dup1\n        /* \"@openzeppelin/contracts/utils/math/Math.sol\":7115:7126  denominator */\n      dup8\n        /* \"@openzeppelin/contracts/utils/math/Math.sol\":7115:7136  denominator * inverse */\n      mul\n        /* \"@openzeppelin/contracts/utils/math/Math.sol\":7111:7112  2 */\n      0x02\n        /* \"@openzeppelin/contracts/utils/math/Math.sol\":7111:7136  2 - denominator * inverse */\n      sub\n        /* \"@openzeppelin/contracts/utils/math/Math.sol\":7100:7136  inverse *= 2 - denominator * inverse */\n      dup2\n      mul\n      swap1\n      pop\n        /* \"@openzeppelin/contracts/utils/math/Math.sol\":7199:7206  inverse */\n      dup1\n        /* \"@openzeppelin/contracts/utils/math/Math.sol\":7185:7196  denominator */\n      dup8\n        /* \"@openzeppelin/contracts/utils/math/Math.sol\":7185:7206  denominator * inverse */\n      mul\n        /* \"@openzeppelin/contracts/utils/math/Math.sol\":7181:7182  2 */\n      0x02\n        /* \"@openzeppelin/contracts/utils/math/Math.sol\":7181:7206  2 - denominator * inverse */\n      sub\n        /* \"@openzeppelin/contracts/utils/math/Math.sol\":7170:7206  inverse *= 2 - denominator * inverse */\n      dup2\n      mul\n      swap1\n      pop\n        /* \"@openzeppelin/contracts/utils/math/Math.sol\":7269:7276  inverse */\n      dup1\n        /* \"@openzeppelin/contracts/utils/math/Math.sol\":7255:7266  denominator */\n      dup8\n        /* \"@openzeppelin/contracts/utils/math/Math.sol\":7255:7276  denominator * inverse */\n      mul\n        /* \"@openzeppelin/contracts/utils/math/Math.sol\":7251:7252  2 */\n      0x02\n        /* \"@openzeppelin/contracts/utils/math/Math.sol\":7251:7276  2 - denominator * inverse */\n      sub\n        /* \"@openzeppelin/contracts/utils/math/Math.sol\":7240:7276  inverse *= 2 - denominator * inverse */\n      dup2\n      mul\n      swap1\n      pop\n        /* \"@openzeppelin/contracts/utils/math/Math.sol\":7339:7346  inverse */\n      dup1\n        /* \"@openzeppelin/contracts/utils/math/Math.sol\":7325:7336  denominator */\n      dup8\n        /* \"@openzeppelin/contracts/utils/math/Math.sol\":7325:7346  denominator * inverse */\n      mul\n        /* \"@openzeppelin/contracts/utils/math/Math.sol\":7321:7322  2 */\n      0x02\n        /* \"@openzeppelin/contracts/utils/math/Math.sol\":7321:7346  2 - denominator * inverse */\n      sub\n        /* \"@openzeppelin/contracts/utils/math/Math.sol\":7310:7346  inverse *= 2 - denominator * inverse */\n      dup2\n      mul\n      swap1\n      pop\n        /* \"@openzeppelin/contracts/utils/math/Math.sol\":7410:7417  inverse */\n      dup1\n        /* \"@openzeppelin/contracts/utils/math/Math.sol\":7396:7407  denominator */\n      dup8\n        /* \"@openzeppelin/contracts/utils/math/Math.sol\":7396:7417  denominator * inverse */\n      mul\n        /* \"@openzeppelin/contracts/utils/math/Math.sol\":7392:7393  2 */\n      0x02\n        /* \"@openzeppelin/contracts/utils/math/Math.sol\":7392:7417  2 - denominator * inverse */\n      sub\n        /* \"@openzeppelin/contracts/utils/math/Math.sol\":7381:7417  inverse *= 2 - denominator * inverse */\n      dup2\n      mul\n      swap1\n      pop\n        /* \"@openzeppelin/contracts/utils/math/Math.sol\":7868:7875  inverse */\n      dup1\n        /* \"@openzeppelin/contracts/utils/math/Math.sol\":7860:7865  prod0 */\n      dup6\n        /* \"@openzeppelin/contracts/utils/math/Math.sol\":7860:7875  prod0 * inverse */\n      mul\n        /* \"@openzeppelin/contracts/utils/math/Math.sol\":7851:7875  result = prod0 * inverse */\n      swap6\n      pop\n        /* \"@openzeppelin/contracts/utils/math/Math.sol\":7889:7902  return result */\n      pop\n      pop\n      pop\n      pop\n      pop\n        /* \"@openzeppelin/contracts/utils/math/Math.sol\":3803:7919  function mulDiv(uint256 x, uint256 y, uint256 denominator) internal pure returns (uint256 result) {... */\n    tag_352:\n      swap4\n      swap3\n      pop\n      pop\n      pop\n      jump\t// out\n        /* \"@openzeppelin/contracts/utils/math/Math.sol\":14993:15115  function unsignedRoundsUp(Rounding rounding) internal pure returns (bool) {... */\n    tag_312:\n        /* \"@openzeppelin/contracts/utils/math/Math.sol\":15061:15065  bool */\n      0x00\n        /* \"@openzeppelin/contracts/utils/math/Math.sol\":15107:15108  1 */\n      0x01\n        /* \"@openzeppelin/contracts/utils/math/Math.sol\":15102:15103  2 */\n      0x02\n        /* \"@openzeppelin/contracts/utils/math/Math.sol\":15090:15098  rounding */\n      dup4\n        /* \"@openzeppelin/contracts/utils/math/Math.sol\":15084:15099  uint8(rounding) */\n      0x03\n      dup2\n      gt\n      iszero\n      tag_358\n      jumpi\n      tag_359\n      tag_360\n      jump\t// in\n    tag_359:\n    tag_358:\n        /* \"@openzeppelin/contracts/utils/math/Math.sol\":15084:15103  uint8(rounding) % 2 */\n      tag_361\n      swap2\n      swap1\n      tag_362\n      jump\t// in\n    tag_361:\n        /* \"@openzeppelin/contracts/utils/math/Math.sol\":15084:15108  uint8(rounding) % 2 == 1 */\n      0xff\n      and\n      eq\n        /* \"@openzeppelin/contracts/utils/math/Math.sol\":15077:15108  return uint8(rounding) % 2 == 1 */\n      swap1\n      pop\n        /* \"@openzeppelin/contracts/utils/math/Math.sol\":14993:15115  function unsignedRoundsUp(Rounding rounding) internal pure returns (bool) {... */\n      swap2\n      swap1\n      pop\n      jump\t// out\n        /* \"@openzeppelin/contracts/token/ERC20/utils/SafeERC20.sol\":4059:4688  function _callOptionalReturn(IERC20 token, bytes memory data) private {... */\n    tag_339:\n        /* \"@openzeppelin/contracts/token/ERC20/utils/SafeERC20.sol\":4478:4501  bytes memory returndata */\n      0x00\n        /* \"@openzeppelin/contracts/token/ERC20/utils/SafeERC20.sol\":4504:4537  address(token).functionCall(data) */\n      tag_364\n        /* \"@openzeppelin/contracts/token/ERC20/utils/SafeERC20.sol\":4532:4536  data */\n      dup3\n        /* \"@openzeppelin/contracts/token/ERC20/utils/SafeERC20.sol\":4512:4517  token */\n      dup5\n        /* \"@openzeppelin/contracts/token/ERC20/utils/SafeERC20.sol\":4504:4531  address(token).functionCall */\n      0xffffffffffffffffffffffffffffffffffffffff\n      and\n      tag_365\n      swap1\n        /* \"@openzeppelin/contracts/token/ERC20/utils/SafeERC20.sol\":4504:4537  address(token).functionCall(data) */\n      swap2\n      swap1\n      0xffffffff\n      and\n      jump\t// in\n    tag_364:\n        /* \"@openzeppelin/contracts/token/ERC20/utils/SafeERC20.sol\":4478:4537  bytes memory returndata = address(token).functionCall(data) */\n      swap1\n      pop\n        /* \"@openzeppelin/contracts/token/ERC20/utils/SafeERC20.sol\":4572:4573  0 */\n      0x00\n        /* \"@openzeppelin/contracts/token/ERC20/utils/SafeERC20.sol\":4551:4561  returndata */\n      dup2\n        /* \"@openzeppelin/contracts/token/ERC20/utils/SafeERC20.sol\":4551:4568  returndata.length */\n      mload\n        /* \"@openzeppelin/contracts/token/ERC20/utils/SafeERC20.sol\":4551:4573  returndata.length != 0 */\n      eq\n      iszero\n        /* \"@openzeppelin/contracts/token/ERC20/utils/SafeERC20.sol\":4551:4608  returndata.length != 0 && !abi.decode(returndata, (bool)) */\n      dup1\n      iszero\n      tag_366\n      jumpi\n      pop\n        /* \"@openzeppelin/contracts/token/ERC20/utils/SafeERC20.sol\":4589:4599  returndata */\n      dup1\n        /* \"@openzeppelin/contracts/token/ERC20/utils/SafeERC20.sol\":4578:4608  abi.decode(returndata, (bool)) */\n      dup1\n      0x20\n      add\n      swap1\n      mload\n      dup2\n      add\n      swap1\n      tag_367\n      swap2\n      swap1\n      tag_368\n      jump\t// in\n    tag_367:\n        /* \"@openzeppelin/contracts/token/ERC20/utils/SafeERC20.sol\":4577:4608  !abi.decode(returndata, (bool)) */\n      iszero\n        /* \"@openzeppelin/contracts/token/ERC20/utils/SafeERC20.sol\":4551:4608  returndata.length != 0 && !abi.decode(returndata, (bool)) */\n    tag_366:\n        /* \"@openzeppelin/contracts/token/ERC20/utils/SafeERC20.sol\":4547:4682  if (returndata.length != 0 && !abi.decode(returndata, (bool))) {... */\n      iszero\n      tag_369\n      jumpi\n        /* \"@openzeppelin/contracts/token/ERC20/utils/SafeERC20.sol\":4664:4669  token */\n      dup3\n        /* \"@openzeppelin/contracts/token/ERC20/utils/SafeERC20.sol\":4631:4671  SafeERC20FailedOperation(address(token)) */\n      mload(0x40)\n      0x5274afe700000000000000000000000000000000000000000000000000000000\n      dup2\n      mstore\n      0x04\n      add\n      tag_370\n      swap2\n      swap1\n      tag_81\n      jump\t// in\n    tag_370:\n      mload(0x40)\n      dup1\n      swap2\n      sub\n      swap1\n      revert\n        /* \"@openzeppelin/contracts/token/ERC20/utils/SafeERC20.sol\":4547:4682  if (returndata.length != 0 && !abi.decode(returndata, (bool))) {... */\n    tag_369:\n        /* \"@openzeppelin/contracts/token/ERC20/utils/SafeERC20.sol\":4129:4688  {... */\n      pop\n        /* \"@openzeppelin/contracts/token/ERC20/utils/SafeERC20.sol\":4059:4688  function _callOptionalReturn(IERC20 token, bytes memory data) private {... */\n      pop\n      pop\n      jump\t// out\n        /* \"@openzeppelin/contracts/utils/Address.sol\":2705:2856  function functionCall(address target, bytes memory data) internal returns (bytes memory) {... */\n    tag_365:\n        /* \"@openzeppelin/contracts/utils/Address.sol\":2780:2792  bytes memory */\n      0x60\n        /* \"@openzeppelin/contracts/utils/Address.sol\":2811:2849  functionCallWithValue(target, data, 0) */\n      tag_372\n        /* \"@openzeppelin/contracts/utils/Address.sol\":2833:2839  target */\n      dup4\n        /* \"@openzeppelin/contracts/utils/Address.sol\":2841:2845  data */\n      dup4\n        /* \"@openzeppelin/contracts/utils/Address.sol\":2847:2848  0 */\n      0x00\n        /* \"@openzeppelin/contracts/utils/Address.sol\":2811:2832  functionCallWithValue */\n      tag_373\n        /* \"@openzeppelin/contracts/utils/Address.sol\":2811:2849  functionCallWithValue(target, data, 0) */\n      jump\t// in\n    tag_372:\n        /* \"@openzeppelin/contracts/utils/Address.sol\":2804:2849  return functionCallWithValue(target, data, 0) */\n      swap1\n      pop\n        /* \"@openzeppelin/contracts/utils/Address.sol\":2705:2856  function functionCall(address target, bytes memory data) internal returns (bytes memory) {... */\n      swap3\n      swap2\n      pop\n      pop\n      jump\t// out\n        /* \"@openzeppelin/contracts/utils/Address.sol\":3180:3572  function functionCallWithValue(address target, bytes memory data, uint256 value) internal returns (bytes memory) {... */\n    tag_373:\n        /* \"@openzeppelin/contracts/utils/Address.sol\":3279:3291  bytes memory */\n      0x60\n        /* \"@openzeppelin/contracts/utils/Address.sol\":3331:3336  value */\n      dup2\n        /* \"@openzeppelin/contracts/utils/Address.sol\":3307:3328  address(this).balance */\n      selfbalance\n        /* \"@openzeppelin/contracts/utils/Address.sol\":3307:3336  address(this).balance < value */\n      lt\n        /* \"@openzeppelin/contracts/utils/Address.sol\":3303:3411  if (address(this).balance < value) {... */\n      iszero\n      tag_375\n      jumpi\n        /* \"@openzeppelin/contracts/utils/Address.sol\":3394:3398  this */\n      address\n        /* \"@openzeppelin/contracts/utils/Address.sol\":3359:3400  AddressInsufficientBalance(address(this)) */\n      mload(0x40)\n      0xcd78605900000000000000000000000000000000000000000000000000000000\n      dup2\n      mstore\n      0x04\n      add\n      tag_376\n      swap2\n      swap1\n      tag_81\n      jump\t// in\n    tag_376:\n      mload(0x40)\n      dup1\n      swap2\n      sub\n      swap1\n      revert\n        /* \"@openzeppelin/contracts/utils/Address.sol\":3303:3411  if (address(this).balance < value) {... */\n    tag_375:\n        /* \"@openzeppelin/contracts/utils/Address.sol\":3421:3433  bool success */\n      0x00\n        /* \"@openzeppelin/contracts/utils/Address.sol\":3435:3458  bytes memory returndata */\n      0x00\n        /* \"@openzeppelin/contracts/utils/Address.sol\":3462:3468  target */\n      dup6\n        /* \"@openzeppelin/contracts/utils/Address.sol\":3462:3473  target.call */\n      0xffffffffffffffffffffffffffffffffffffffff\n      and\n        /* \"@openzeppelin/contracts/utils/Address.sol\":3481:3486  value */\n      dup5\n        /* \"@openzeppelin/contracts/utils/Address.sol\":3488:3492  data */\n      dup7\n        /* \"@openzeppelin/contracts/utils/Address.sol\":3462:3493  target.call{value: value}(data) */\n      mload(0x40)\n      tag_377\n      swap2\n      swap1\n      tag_378\n      jump\t// in\n    tag_377:\n      0x00\n      mload(0x40)\n      dup1\n      dup4\n      sub\n      dup2\n      dup6\n      dup8\n      gas\n      call\n      swap3\n      pop\n      pop\n      pop\n      returndatasize\n      dup1\n      0x00\n      dup2\n      eq\n      tag_381\n      jumpi\n      mload(0x40)\n      swap2\n      pop\n      and(add(returndatasize, 0x3f), not(0x1f))\n      dup3\n      add\n      0x40\n      mstore\n      returndatasize\n      dup3\n      mstore\n      returndatasize\n      0x00\n      0x20\n      dup5\n      add\n      returndatacopy\n      jump(tag_380)\n    tag_381:\n      0x60\n      swap2\n      pop\n    tag_380:\n      pop\n        /* \"@openzeppelin/contracts/utils/Address.sol\":3420:3493  (bool success, bytes memory returndata) = target.call{value: value}(data) */\n      swap2\n      pop\n      swap2\n      pop\n        /* \"@openzeppelin/contracts/utils/Address.sol\":3510:3565  verifyCallResultFromTarget(target, success, returndata) */\n      tag_382\n        /* \"@openzeppelin/contracts/utils/Address.sol\":3537:3543  target */\n      dup7\n        /* \"@openzeppelin/contracts/utils/Address.sol\":3545:3552  success */\n      dup4\n        /* \"@openzeppelin/contracts/utils/Address.sol\":3554:3564  returndata */\n      dup4\n        /* \"@openzeppelin/contracts/utils/Address.sol\":3510:3536  verifyCallResultFromTarget */\n      tag_383\n        /* \"@openzeppelin/contracts/utils/Address.sol\":3510:3565  verifyCallResultFromTarget(target, success, returndata) */\n      jump\t// in\n    tag_382:\n        /* \"@openzeppelin/contracts/utils/Address.sol\":3503:3565  return verifyCallResultFromTarget(target, success, returndata) */\n      swap3\n      pop\n      pop\n      pop\n        /* \"@openzeppelin/contracts/utils/Address.sol\":3180:3572  function functionCallWithValue(address target, bytes memory data, uint256 value) internal returns (bytes memory) {... */\n      swap4\n      swap3\n      pop\n      pop\n      pop\n      jump\t// out\n        /* \"@openzeppelin/contracts/utils/Address.sol\":4625:5207  function verifyCallResultFromTarget(... */\n    tag_383:\n        /* \"@openzeppelin/contracts/utils/Address.sol\":4769:4781  bytes memory */\n      0x60\n        /* \"@openzeppelin/contracts/utils/Address.sol\":4798:4805  success */\n      dup3\n        /* \"@openzeppelin/contracts/utils/Address.sol\":4793:5201  if (!success) {... */\n      tag_385\n      jumpi\n        /* \"@openzeppelin/contracts/utils/Address.sol\":4821:4840  _revert(returndata) */\n      tag_386\n        /* \"@openzeppelin/contracts/utils/Address.sol\":4829:4839  returndata */\n      dup3\n        /* \"@openzeppelin/contracts/utils/Address.sol\":4821:4828  _revert */\n      tag_387\n        /* \"@openzeppelin/contracts/utils/Address.sol\":4821:4840  _revert(returndata) */\n      jump\t// in\n    tag_386:\n        /* \"@openzeppelin/contracts/utils/Address.sol\":4793:5201  if (!success) {... */\n      jump(tag_388)\n    tag_385:\n        /* \"@openzeppelin/contracts/utils/Address.sol\":5066:5067  0 */\n      0x00\n        /* \"@openzeppelin/contracts/utils/Address.sol\":5045:5055  returndata */\n      dup3\n        /* \"@openzeppelin/contracts/utils/Address.sol\":5045:5062  returndata.length */\n      mload\n        /* \"@openzeppelin/contracts/utils/Address.sol\":5045:5067  returndata.length == 0 */\n      eq\n        /* \"@openzeppelin/contracts/utils/Address.sol\":5045:5094  returndata.length == 0 && target.code.length == 0 */\n      dup1\n      iszero\n      tag_389\n      jumpi\n      pop\n        /* \"@openzeppelin/contracts/utils/Address.sol\":5093:5094  0 */\n      0x00\n        /* \"@openzeppelin/contracts/utils/Address.sol\":5071:5077  target */\n      dup5\n        /* \"@openzeppelin/contracts/utils/Address.sol\":5071:5089  target.code.length */\n      0xffffffffffffffffffffffffffffffffffffffff\n      and\n      extcodesize\n        /* \"@openzeppelin/contracts/utils/Address.sol\":5071:5094  target.code.length == 0 */\n      eq\n        /* \"@openzeppelin/contracts/utils/Address.sol\":5045:5094  returndata.length == 0 && target.code.length == 0 */\n    tag_389:\n        /* \"@openzeppelin/contracts/utils/Address.sol\":5041:5160  if (returndata.length == 0 && target.code.length == 0) {... */\n      iszero\n      tag_390\n      jumpi\n        /* \"@openzeppelin/contracts/utils/Address.sol\":5138:5144  target */\n      dup4\n        /* \"@openzeppelin/contracts/utils/Address.sol\":5121:5145  AddressEmptyCode(target) */\n      mload(0x40)\n      0x9996b31500000000000000000000000000000000000000000000000000000000\n      dup2\n      mstore\n      0x04\n      add\n      tag_391\n      swap2\n      swap1\n      tag_81\n      jump\t// in\n    tag_391:\n      mload(0x40)\n      dup1\n      swap2\n      sub\n      swap1\n      revert\n        /* \"@openzeppelin/contracts/utils/Address.sol\":5041:5160  if (returndata.length == 0 && target.code.length == 0) {... */\n    tag_390:\n        /* \"@openzeppelin/contracts/utils/Address.sol\":5180:5190  returndata */\n      dup2\n        /* \"@openzeppelin/contracts/utils/Address.sol\":5173:5190  return returndata */\n      swap1\n      pop\n      jump(tag_384)\n        /* \"@openzeppelin/contracts/utils/Address.sol\":4793:5201  if (!success) {... */\n    tag_388:\n        /* \"@openzeppelin/contracts/utils/Address.sol\":4625:5207  function verifyCallResultFromTarget(... */\n    tag_384:\n      swap4\n      swap3\n      pop\n      pop\n      pop\n      jump\t// out\n        /* \"@openzeppelin/contracts/utils/Address.sol\":5743:6259  function _revert(bytes memory returndata) private pure {... */\n    tag_387:\n        /* \"@openzeppelin/contracts/utils/Address.sol\":5894:5895  0 */\n      0x00\n        /* \"@openzeppelin/contracts/utils/Address.sol\":5874:5884  returndata */\n      dup2\n        /* \"@openzeppelin/contracts/utils/Address.sol\":5874:5891  returndata.length */\n      mload\n        /* \"@openzeppelin/contracts/utils/Address.sol\":5874:5895  returndata.length > 0 */\n      gt\n        /* \"@openzeppelin/contracts/utils/Address.sol\":5870:6253  if (returndata.length > 0) {... */\n      iszero\n      tag_393\n      jumpi\n        /* \"@openzeppelin/contracts/utils/Address.sol\":6102:6112  returndata */\n      dup1\n        /* \"@openzeppelin/contracts/utils/Address.sol\":6096:6113  mload(returndata) */\n      mload\n        /* \"@openzeppelin/contracts/utils/Address.sol\":6158:6173  returndata_size */\n      dup1\n        /* \"@openzeppelin/contracts/utils/Address.sol\":6145:6155  returndata */\n      dup3\n        /* \"@openzeppelin/contracts/utils/Address.sol\":6141:6143  32 */\n      0x20\n        /* \"@openzeppelin/contracts/utils/Address.sol\":6137:6156  add(32, returndata) */\n      add\n        /* \"@openzeppelin/contracts/utils/Address.sol\":6130:6174  revert(add(32, returndata), returndata_size) */\n      revert\n        /* \"@openzeppelin/contracts/utils/Address.sol\":5870:6253  if (returndata.length > 0) {... */\n    tag_393:\n        /* \"@openzeppelin/contracts/utils/Address.sol\":6225:6242  FailedInnerCall() */\n      mload(0x40)\n      0x1425ea4200000000000000000000000000000000000000000000000000000000\n      dup2\n      mstore\n      0x04\n      add\n      mload(0x40)\n      dup1\n      swap2\n      sub\n      swap1\n      revert\n        /* \"#utility.yul\":7:84   */\n    tag_395:\n        /* \"#utility.yul\":44:51   */\n      0x00\n        /* \"#utility.yul\":73:78   */\n      dup2\n        /* \"#utility.yul\":62:78   */\n      swap1\n      pop\n        /* \"#utility.yul\":7:84   */\n      swap2\n      swap1\n      pop\n      jump\t// out\n        /* \"#utility.yul\":90:208   */\n    tag_396:\n        /* \"#utility.yul\":177:201   */\n      tag_430\n        /* \"#utility.yul\":195:200   */\n      dup2\n        /* \"#utility.yul\":177:201   */\n      tag_395\n      jump\t// in\n    tag_430:\n        /* \"#utility.yul\":172:175   */\n      dup3\n        /* \"#utility.yul\":165:202   */\n      mstore\n        /* \"#utility.yul\":90:208   */\n      pop\n      pop\n      jump\t// out\n        /* \"#utility.yul\":214:436   */\n    tag_41:\n        /* \"#utility.yul\":307:311   */\n      0x00\n        /* \"#utility.yul\":345:347   */\n      0x20\n        /* \"#utility.yul\":334:343   */\n      dup3\n        /* \"#utility.yul\":330:348   */\n      add\n        /* \"#utility.yul\":322:348   */\n      swap1\n      pop\n        /* \"#utility.yul\":358:429   */\n      tag_432\n        /* \"#utility.yul\":426:427   */\n      0x00\n        /* \"#utility.yul\":415:424   */\n      dup4\n        /* \"#utility.yul\":411:428   */\n      add\n        /* \"#utility.yul\":402:408   */\n      dup5\n        /* \"#utility.yul\":358:429   */\n      tag_396\n      jump\t// in\n    tag_432:\n        /* \"#utility.yul\":214:436   */\n      swap3\n      swap2\n      pop\n      pop\n      jump\t// out\n        /* \"#utility.yul\":442:541   */\n    tag_397:\n        /* \"#utility.yul\":494:500   */\n      0x00\n        /* \"#utility.yul\":528:533   */\n      dup2\n        /* \"#utility.yul\":522:534   */\n      mload\n        /* \"#utility.yul\":512:534   */\n      swap1\n      pop\n        /* \"#utility.yul\":442:541   */\n      swap2\n      swap1\n      pop\n      jump\t// out\n        /* \"#utility.yul\":547:716   */\n    tag_398:\n        /* \"#utility.yul\":631:642   */\n      0x00\n        /* \"#utility.yul\":665:671   */\n      dup3\n        /* \"#utility.yul\":660:663   */\n      dup3\n        /* \"#utility.yul\":653:672   */\n      mstore\n        /* \"#utility.yul\":705:709   */\n      0x20\n        /* \"#utility.yul\":700:703   */\n      dup3\n        /* \"#utility.yul\":696:710   */\n      add\n        /* \"#utility.yul\":681:710   */\n      swap1\n      pop\n        /* \"#utility.yul\":547:716   */\n      swap3\n      swap2\n      pop\n      pop\n      jump\t// out\n        /* \"#utility.yul\":722:861   */\n    tag_399:\n        /* \"#utility.yul\":811:817   */\n      dup3\n        /* \"#utility.yul\":806:809   */\n      dup2\n        /* \"#utility.yul\":801:804   */\n      dup4\n        /* \"#utility.yul\":795:818   */\n      mcopy\n        /* \"#utility.yul\":852:853   */\n      0x00\n        /* \"#utility.yul\":843:849   */\n      dup4\n        /* \"#utility.yul\":838:841   */\n      dup4\n        /* \"#utility.yul\":834:850   */\n      add\n        /* \"#utility.yul\":827:854   */\n      mstore\n        /* \"#utility.yul\":722:861   */\n      pop\n      pop\n      pop\n      jump\t// out\n        /* \"#utility.yul\":867:969   */\n    tag_400:\n        /* \"#utility.yul\":908:914   */\n      0x00\n        /* \"#utility.yul\":959:961   */\n      0x1f\n        /* \"#utility.yul\":955:962   */\n      not\n        /* \"#utility.yul\":950:952   */\n      0x1f\n        /* \"#utility.yul\":943:948   */\n      dup4\n        /* \"#utility.yul\":939:953   */\n      add\n        /* \"#utility.yul\":935:963   */\n      and\n        /* \"#utility.yul\":925:963   */\n      swap1\n      pop\n        /* \"#utility.yul\":867:969   */\n      swap2\n      swap1\n      pop\n      jump\t// out\n        /* \"#utility.yul\":975:1352   */\n    tag_401:\n        /* \"#utility.yul\":1063:1066   */\n      0x00\n        /* \"#utility.yul\":1091:1130   */\n      tag_438\n        /* \"#utility.yul\":1124:1129   */\n      dup3\n        /* \"#utility.yul\":1091:1130   */\n      tag_397\n      jump\t// in\n    tag_438:\n        /* \"#utility.yul\":1146:1217   */\n      tag_439\n        /* \"#utility.yul\":1210:1216   */\n      dup2\n        /* \"#utility.yul\":1205:1208   */\n      dup6\n        /* \"#utility.yul\":1146:1217   */\n      tag_398\n      jump\t// in\n    tag_439:\n        /* \"#utility.yul\":1139:1217   */\n      swap4\n      pop\n        /* \"#utility.yul\":1226:1291   */\n      tag_440\n        /* \"#utility.yul\":1284:1290   */\n      dup2\n        /* \"#utility.yul\":1279:1282   */\n      dup6\n        /* \"#utility.yul\":1272:1276   */\n      0x20\n        /* \"#utility.yul\":1265:1270   */\n      dup7\n        /* \"#utility.yul\":1261:1277   */\n      add\n        /* \"#utility.yul\":1226:1291   */\n      tag_399\n      jump\t// in\n    tag_440:\n        /* \"#utility.yul\":1316:1345   */\n      tag_441\n        /* \"#utility.yul\":1338:1344   */\n      dup2\n        /* \"#utility.yul\":1316:1345   */\n      tag_400\n      jump\t// in\n    tag_441:\n        /* \"#utility.yul\":1311:1314   */\n      dup5\n        /* \"#utility.yul\":1307:1346   */\n      add\n        /* \"#utility.yul\":1300:1346   */\n      swap2\n      pop\n        /* \"#utility.yul\":1067:1352   */\n      pop\n        /* \"#utility.yul\":975:1352   */\n      swap3\n      swap2\n      pop\n      pop\n      jump\t// out\n        /* \"#utility.yul\":1358:1671   */\n    tag_45:\n        /* \"#utility.yul\":1471:1475   */\n      0x00\n        /* \"#utility.yul\":1509:1511   */\n      0x20\n        /* \"#utility.yul\":1498:1507   */\n      dup3\n        /* \"#utility.yul\":1494:1512   */\n      add\n        /* \"#utility.yul\":1486:1512   */\n      swap1\n      pop\n        /* \"#utility.yul\":1558:1567   */\n      dup2\n        /* \"#utility.yul\":1552:1556   */\n      dup2\n        /* \"#utility.yul\":1548:1568   */\n      sub\n        /* \"#utility.yul\":1544:1545   */\n      0x00\n        /* \"#utility.yul\":1533:1542   */\n      dup4\n        /* \"#utility.yul\":1529:1546   */\n      add\n        /* \"#utility.yul\":1522:1569   */\n      mstore\n        /* \"#utility.yul\":1586:1664   */\n      tag_443\n        /* \"#utility.yul\":1659:1663   */\n      dup2\n        /* \"#utility.yul\":1650:1656   */\n      dup5\n        /* \"#utility.yul\":1586:1664   */\n      tag_401\n      jump\t// in\n    tag_443:\n        /* \"#utility.yul\":1578:1664   */\n      swap1\n      pop\n        /* \"#utility.yul\":1358:1671   */\n      swap3\n      swap2\n      pop\n      pop\n      jump\t// out\n        /* \"#utility.yul\":1758:1875   */\n    tag_403:\n        /* \"#utility.yul\":1867:1868   */\n      0x00\n        /* \"#utility.yul\":1864:1865   */\n      0x00\n        /* \"#utility.yul\":1857:1869   */\n      revert\n        /* \"#utility.yul\":2004:2126   */\n    tag_405:\n        /* \"#utility.yul\":2077:2101   */\n      tag_448\n        /* \"#utility.yul\":2095:2100   */\n      dup2\n        /* \"#utility.yul\":2077:2101   */\n      tag_395\n      jump\t// in\n    tag_448:\n        /* \"#utility.yul\":2070:2075   */\n      dup2\n        /* \"#utility.yul\":2067:2102   */\n      eq\n        /* \"#utility.yul\":2057:2120   */\n      tag_449\n      jumpi\n        /* \"#utility.yul\":2116:2117   */\n      0x00\n        /* \"#utility.yul\":2113:2114   */\n      0x00\n        /* \"#utility.yul\":2106:2118   */\n      revert\n        /* \"#utility.yul\":2057:2120   */\n    tag_449:\n        /* \"#utility.yul\":2004:2126   */\n      pop\n      jump\t// out\n        /* \"#utility.yul\":2132:2271   */\n    tag_406:\n        /* \"#utility.yul\":2178:2183   */\n      0x00\n        /* \"#utility.yul\":2216:2222   */\n      dup2\n        /* \"#utility.yul\":2203:2223   */\n      calldataload\n        /* \"#utility.yul\":2194:2223   */\n      swap1\n      pop\n        /* \"#utility.yul\":2232:2265   */\n      tag_451\n        /* \"#utility.yul\":2259:2264   */\n      dup2\n        /* \"#utility.yul\":2232:2265   */\n      tag_405\n      jump\t// in\n    tag_451:\n        /* \"#utility.yul\":2132:2271   */\n      swap3\n      swap2\n      pop\n      pop\n      jump\t// out\n        /* \"#utility.yul\":2277:2606   */\n    tag_48:\n        /* \"#utility.yul\":2336:2342   */\n      0x00\n        /* \"#utility.yul\":2385:2387   */\n      0x20\n        /* \"#utility.yul\":2373:2382   */\n      dup3\n        /* \"#utility.yul\":2364:2371   */\n      dup5\n        /* \"#utility.yul\":2360:2383   */\n      sub\n        /* \"#utility.yul\":2356:2388   */\n      slt\n        /* \"#utility.yul\":2353:2472   */\n      iszero\n      tag_453\n      jumpi\n        /* \"#utility.yul\":2391:2470   */\n      tag_454\n      tag_403\n      jump\t// in\n    tag_454:\n        /* \"#utility.yul\":2353:2472   */\n    tag_453:\n        /* \"#utility.yul\":2511:2512   */\n      0x00\n        /* \"#utility.yul\":2536:2589   */\n      tag_455\n        /* \"#utility.yul\":2581:2588   */\n      dup5\n        /* \"#utility.yul\":2572:2578   */\n      dup3\n        /* \"#utility.yul\":2561:2570   */\n      dup6\n        /* \"#utility.yul\":2557:2579   */\n      add\n        /* \"#utility.yul\":2536:2589   */\n      tag_406\n      jump\t// in\n    tag_455:\n        /* \"#utility.yul\":2526:2589   */\n      swap2\n      pop\n        /* \"#utility.yul\":2482:2599   */\n      pop\n        /* \"#utility.yul\":2277:2606   */\n      swap3\n      swap2\n      pop\n      pop\n      jump\t// out\n        /* \"#utility.yul\":2612:2738   */\n    tag_407:\n        /* \"#utility.yul\":2649:2656   */\n      0x00\n        /* \"#utility.yul\":2689:2731   */\n      0xffffffffffffffffffffffffffffffffffffffff\n        /* \"#utility.yul\":2682:2687   */\n      dup3\n        /* \"#utility.yul\":2678:2732   */\n      and\n        /* \"#utility.yul\":2667:2732   */\n      swap1\n      pop\n        /* \"#utility.yul\":2612:2738   */\n      swap2\n      swap1\n      pop\n      jump\t// out\n        /* \"#utility.yul\":2744:2840   */\n    tag_408:\n        /* \"#utility.yul\":2781:2788   */\n      0x00\n        /* \"#utility.yul\":2810:2834   */\n      tag_458\n        /* \"#utility.yul\":2828:2833   */\n      dup3\n        /* \"#utility.yul\":2810:2834   */\n      tag_407\n      jump\t// in\n    tag_458:\n        /* \"#utility.yul\":2799:2834   */\n      swap1\n      pop\n        /* \"#utility.yul\":2744:2840   */\n      swap2\n      swap1\n      pop\n      jump\t// out\n        /* \"#utility.yul\":2846:2968   */\n    tag_409:\n        /* \"#utility.yul\":2919:2943   */\n      tag_460\n        /* \"#utility.yul\":2937:2942   */\n      dup2\n        /* \"#utility.yul\":2919:2943   */\n      tag_408\n      jump\t// in\n    tag_460:\n        /* \"#utility.yul\":2912:2917   */\n      dup2\n        /* \"#utility.yul\":2909:2944   */\n      eq\n        /* \"#utility.yul\":2899:2962   */\n      tag_461\n      jumpi\n        /* \"#utility.yul\":2958:2959   */\n      0x00\n        /* \"#utility.yul\":2955:2956   */\n      0x00\n        /* \"#utility.yul\":2948:2960   */\n      revert\n        /* \"#utility.yul\":2899:2962   */\n    tag_461:\n        /* \"#utility.yul\":2846:2968   */\n      pop\n      jump\t// out\n        /* \"#utility.yul\":2974:3113   */\n    tag_410:\n        /* \"#utility.yul\":3020:3025   */\n      0x00\n        /* \"#utility.yul\":3058:3064   */\n      dup2\n        /* \"#utility.yul\":3045:3065   */\n      calldataload\n        /* \"#utility.yul\":3036:3065   */\n      swap1\n      pop\n        /* \"#utility.yul\":3074:3107   */\n      tag_463\n        /* \"#utility.yul\":3101:3106   */\n      dup2\n        /* \"#utility.yul\":3074:3107   */\n      tag_409\n      jump\t// in\n    tag_463:\n        /* \"#utility.yul\":2974:3113   */\n      swap3\n      swap2\n      pop\n      pop\n      jump\t// out\n        /* \"#utility.yul\":3119:3593   */\n    tag_53:\n        /* \"#utility.yul\":3187:3193   */\n      0x00\n        /* \"#utility.yul\":3195:3201   */\n      0x00\n        /* \"#utility.yul\":3244:3246   */\n      0x40\n        /* \"#utility.yul\":3232:3241   */\n      dup4\n        /* \"#utility.yul\":3223:3230   */\n      dup6\n        /* \"#utility.yul\":3219:3242   */\n      sub\n        /* \"#utility.yul\":3215:3247   */\n      slt\n        /* \"#utility.yul\":3212:3331   */\n      iszero\n      tag_465\n      jumpi\n        /* \"#utility.yul\":3250:3329   */\n      tag_466\n      tag_403\n      jump\t// in\n    tag_466:\n        /* \"#utility.yul\":3212:3331   */\n    tag_465:\n        /* \"#utility.yul\":3370:3371   */\n      0x00\n        /* \"#utility.yul\":3395:3448   */\n      tag_467\n        /* \"#utility.yul\":3440:3447   */\n      dup6\n        /* \"#utility.yul\":3431:3437   */\n      dup3\n        /* \"#utility.yul\":3420:3429   */\n      dup7\n        /* \"#utility.yul\":3416:3438   */\n      add\n        /* \"#utility.yul\":3395:3448   */\n      tag_410\n      jump\t// in\n    tag_467:\n        /* \"#utility.yul\":3385:3448   */\n      swap3\n      pop\n        /* \"#utility.yul\":3341:3458   */\n      pop\n        /* \"#utility.yul\":3497:3499   */\n      0x20\n        /* \"#utility.yul\":3523:3576   */\n      tag_468\n        /* \"#utility.yul\":3568:3575   */\n      dup6\n        /* \"#utility.yul\":3559:3565   */\n      dup3\n        /* \"#utility.yul\":3548:3557   */\n      dup7\n        /* \"#utility.yul\":3544:3566   */\n      add\n        /* \"#utility.yul\":3523:3576   */\n      tag_406\n      jump\t// in\n    tag_468:\n        /* \"#utility.yul\":3513:3576   */\n      swap2\n      pop\n        /* \"#utility.yul\":3468:3586   */\n      pop\n        /* \"#utility.yul\":3119:3593   */\n      swap3\n      pop\n      swap3\n      swap1\n      pop\n      jump\t// out\n        /* \"#utility.yul\":3599:3689   */\n    tag_411:\n        /* \"#utility.yul\":3633:3640   */\n      0x00\n        /* \"#utility.yul\":3676:3681   */\n      dup2\n        /* \"#utility.yul\":3669:3682   */\n      iszero\n        /* \"#utility.yul\":3662:3683   */\n      iszero\n        /* \"#utility.yul\":3651:3683   */\n      swap1\n      pop\n        /* \"#utility.yul\":3599:3689   */\n      swap2\n      swap1\n      pop\n      jump\t// out\n        /* \"#utility.yul\":3695:3804   */\n    tag_412:\n        /* \"#utility.yul\":3776:3797   */\n      tag_471\n        /* \"#utility.yul\":3791:3796   */\n      dup2\n        /* \"#utility.yul\":3776:3797   */\n      tag_411\n      jump\t// in\n    tag_471:\n        /* \"#utility.yul\":3771:3774   */\n      dup3\n        /* \"#utility.yul\":3764:3798   */\n      mstore\n        /* \"#utility.yul\":3695:3804   */\n      pop\n      pop\n      jump\t// out\n        /* \"#utility.yul\":3810:4020   */\n    tag_56:\n        /* \"#utility.yul\":3897:3901   */\n      0x00\n        /* \"#utility.yul\":3935:3937   */\n      0x20\n        /* \"#utility.yul\":3924:3933   */\n      dup3\n        /* \"#utility.yul\":3920:3938   */\n      add\n        /* \"#utility.yul\":3912:3938   */\n      swap1\n      pop\n        /* \"#utility.yul\":3948:4013   */\n      tag_473\n        /* \"#utility.yul\":4010:4011   */\n      0x00\n        /* \"#utility.yul\":3999:4008   */\n      dup4\n        /* \"#utility.yul\":3995:4012   */\n      add\n        /* \"#utility.yul\":3986:3992   */\n      dup5\n        /* \"#utility.yul\":3948:4013   */\n      tag_412\n      jump\t// in\n    tag_473:\n        /* \"#utility.yul\":3810:4020   */\n      swap3\n      swap2\n      pop\n      pop\n      jump\t// out\n        /* \"#utility.yul\":4026:4645   */\n    tag_66:\n        /* \"#utility.yul\":4103:4109   */\n      0x00\n        /* \"#utility.yul\":4111:4117   */\n      0x00\n        /* \"#utility.yul\":4119:4125   */\n      0x00\n        /* \"#utility.yul\":4168:4170   */\n      0x60\n        /* \"#utility.yul\":4156:4165   */\n      dup5\n        /* \"#utility.yul\":4147:4154   */\n      dup7\n        /* \"#utility.yul\":4143:4166   */\n      sub\n        /* \"#utility.yul\":4139:4171   */\n      slt\n        /* \"#utility.yul\":4136:4255   */\n      iszero\n      tag_475\n      jumpi\n        /* \"#utility.yul\":4174:4253   */\n      tag_476\n      tag_403\n      jump\t// in\n    tag_476:\n        /* \"#utility.yul\":4136:4255   */\n    tag_475:\n        /* \"#utility.yul\":4294:4295   */\n      0x00\n        /* \"#utility.yul\":4319:4372   */\n      tag_477\n        /* \"#utility.yul\":4364:4371   */\n      dup7\n        /* \"#utility.yul\":4355:4361   */\n      dup3\n        /* \"#utility.yul\":4344:4353   */\n      dup8\n        /* \"#utility.yul\":4340:4362   */\n      add\n        /* \"#utility.yul\":4319:4372   */\n      tag_410\n      jump\t// in\n    tag_477:\n        /* \"#utility.yul\":4309:4372   */\n      swap4\n      pop\n        /* \"#utility.yul\":4265:4382   */\n      pop\n        /* \"#utility.yul\":4421:4423   */\n      0x20\n        /* \"#utility.yul\":4447:4500   */\n      tag_478\n        /* \"#utility.yul\":4492:4499   */\n      dup7\n        /* \"#utility.yul\":4483:4489   */\n      dup3\n        /* \"#utility.yul\":4472:4481   */\n      dup8\n        /* \"#utility.yul\":4468:4490   */\n      add\n        /* \"#utility.yul\":4447:4500   */\n      tag_410\n      jump\t// in\n    tag_478:\n        /* \"#utility.yul\":4437:4500   */\n      swap3\n      pop\n        /* \"#utility.yul\":4392:4510   */\n      pop\n        /* \"#utility.yul\":4549:4551   */\n      0x40\n        /* \"#utility.yul\":4575:4628   */\n      tag_479\n        /* \"#utility.yul\":4620:4627   */\n      dup7\n        /* \"#utility.yul\":4611:4617   */\n      dup3\n        /* \"#utility.yul\":4600:4609   */\n      dup8\n        /* \"#utility.yul\":4596:4618   */\n      add\n        /* \"#utility.yul\":4575:4628   */\n      tag_406\n      jump\t// in\n    tag_479:\n        /* \"#utility.yul\":4565:4628   */\n      swap2\n      pop\n        /* \"#utility.yul\":4520:4638   */\n      pop\n        /* \"#utility.yul\":4026:4645   */\n      swap3\n      pop\n      swap3\n      pop\n      swap3\n      jump\t// out\n        /* \"#utility.yul\":4651:5270   */\n    tag_71:\n        /* \"#utility.yul\":4728:4734   */\n      0x00\n        /* \"#utility.yul\":4736:4742   */\n      0x00\n        /* \"#utility.yul\":4744:4750   */\n      0x00\n        /* \"#utility.yul\":4793:4795   */\n      0x60\n        /* \"#utility.yul\":4781:4790   */\n      dup5\n        /* \"#utility.yul\":4772:4779   */\n      dup7\n        /* \"#utility.yul\":4768:4791   */\n      sub\n        /* \"#utility.yul\":4764:4796   */\n      slt\n        /* \"#utility.yul\":4761:4880   */\n      iszero\n      tag_481\n      jumpi\n        /* \"#utility.yul\":4799:4878   */\n      tag_482\n      tag_403\n      jump\t// in\n    tag_482:\n        /* \"#utility.yul\":4761:4880   */\n    tag_481:\n        /* \"#utility.yul\":4919:4920   */\n      0x00\n        /* \"#utility.yul\":4944:4997   */\n      tag_483\n        /* \"#utility.yul\":4989:4996   */\n      dup7\n        /* \"#utility.yul\":4980:4986   */\n      dup3\n        /* \"#utility.yul\":4969:4978   */\n      dup8\n        /* \"#utility.yul\":4965:4987   */\n      add\n        /* \"#utility.yul\":4944:4997   */\n      tag_406\n      jump\t// in\n    tag_483:\n        /* \"#utility.yul\":4934:4997   */\n      swap4\n      pop\n        /* \"#utility.yul\":4890:5007   */\n      pop\n        /* \"#utility.yul\":5046:5048   */\n      0x20\n        /* \"#utility.yul\":5072:5125   */\n      tag_484\n        /* \"#utility.yul\":5117:5124   */\n      dup7\n        /* \"#utility.yul\":5108:5114   */\n      dup3\n        /* \"#utility.yul\":5097:5106   */\n      dup8\n        /* \"#utility.yul\":5093:5115   */\n      add\n        /* \"#utility.yul\":5072:5125   */\n      tag_410\n      jump\t// in\n    tag_484:\n        /* \"#utility.yul\":5062:5125   */\n      swap3\n      pop\n        /* \"#utility.yul\":5017:5135   */\n      pop\n        /* \"#utility.yul\":5174:5176   */\n      0x40\n        /* \"#utility.yul\":5200:5253   */\n      tag_485\n        /* \"#utility.yul\":5245:5252   */\n      dup7\n        /* \"#utility.yul\":5236:5242   */\n      dup3\n        /* \"#utility.yul\":5225:5234   */\n      dup8\n        /* \"#utility.yul\":5221:5243   */\n      add\n        /* \"#utility.yul\":5200:5253   */\n      tag_410\n      jump\t// in\n    tag_485:\n        /* \"#utility.yul\":5190:5253   */\n      swap2\n      pop\n        /* \"#utility.yul\":5145:5263   */\n      pop\n        /* \"#utility.yul\":4651:5270   */\n      swap3\n      pop\n      swap3\n      pop\n      swap3\n      jump\t// out\n        /* \"#utility.yul\":5276:5362   */\n    tag_413:\n        /* \"#utility.yul\":5311:5318   */\n      0x00\n        /* \"#utility.yul\":5351:5355   */\n      0xff\n        /* \"#utility.yul\":5344:5349   */\n      dup3\n        /* \"#utility.yul\":5340:5356   */\n      and\n        /* \"#utility.yul\":5329:5356   */\n      swap1\n      pop\n        /* \"#utility.yul\":5276:5362   */\n      swap2\n      swap1\n      pop\n      jump\t// out\n        /* \"#utility.yul\":5368:5480   */\n    tag_414:\n        /* \"#utility.yul\":5451:5473   */\n      tag_488\n        /* \"#utility.yul\":5467:5472   */\n      dup2\n        /* \"#utility.yul\":5451:5473   */\n      tag_413\n      jump\t// in\n    tag_488:\n        /* \"#utility.yul\":5446:5449   */\n      dup3\n        /* \"#utility.yul\":5439:5474   */\n      mstore\n        /* \"#utility.yul\":5368:5480   */\n      pop\n      pop\n      jump\t// out\n        /* \"#utility.yul\":5486:5700   */\n    tag_77:\n        /* \"#utility.yul\":5575:5579   */\n      0x00\n        /* \"#utility.yul\":5613:5615   */\n      0x20\n        /* \"#utility.yul\":5602:5611   */\n      dup3\n        /* \"#utility.yul\":5598:5616   */\n      add\n        /* \"#utility.yul\":5590:5616   */\n      swap1\n      pop\n        /* \"#utility.yul\":5626:5693   */\n      tag_490\n        /* \"#utility.yul\":5690:5691   */\n      0x00\n        /* \"#utility.yul\":5679:5688   */\n      dup4\n        /* \"#utility.yul\":5675:5692   */\n      add\n        /* \"#utility.yul\":5666:5672   */\n      dup5\n        /* \"#utility.yul\":5626:5693   */\n      tag_414\n      jump\t// in\n    tag_490:\n        /* \"#utility.yul\":5486:5700   */\n      swap3\n      swap2\n      pop\n      pop\n      jump\t// out\n        /* \"#utility.yul\":5706:5824   */\n    tag_415:\n        /* \"#utility.yul\":5793:5817   */\n      tag_492\n        /* \"#utility.yul\":5811:5816   */\n      dup2\n        /* \"#utility.yul\":5793:5817   */\n      tag_408\n      jump\t// in\n    tag_492:\n        /* \"#utility.yul\":5788:5791   */\n      dup3\n        /* \"#utility.yul\":5781:5818   */\n      mstore\n        /* \"#utility.yul\":5706:5824   */\n      pop\n      pop\n      jump\t// out\n        /* \"#utility.yul\":5830:6052   */\n    tag_81:\n        /* \"#utility.yul\":5923:5927   */\n      0x00\n        /* \"#utility.yul\":5961:5963   */\n      0x20\n        /* \"#utility.yul\":5950:5959   */\n      dup3\n        /* \"#utility.yul\":5946:5964   */\n      add\n        /* \"#utility.yul\":5938:5964   */\n      swap1\n      pop\n        /* \"#utility.yul\":5974:6045   */\n      tag_494\n        /* \"#utility.yul\":6042:6043   */\n      0x00\n        /* \"#utility.yul\":6031:6040   */\n      dup4\n        /* \"#utility.yul\":6027:6044   */\n      add\n        /* \"#utility.yul\":6018:6024   */\n      dup5\n        /* \"#utility.yul\":5974:6045   */\n      tag_415\n      jump\t// in\n    tag_494:\n        /* \"#utility.yul\":5830:6052   */\n      swap3\n      swap2\n      pop\n      pop\n      jump\t// out\n        /* \"#utility.yul\":6058:6387   */\n    tag_84:\n        /* \"#utility.yul\":6117:6123   */\n      0x00\n        /* \"#utility.yul\":6166:6168   */\n      0x20\n        /* \"#utility.yul\":6154:6163   */\n      dup3\n        /* \"#utility.yul\":6145:6152   */\n      dup5\n        /* \"#utility.yul\":6141:6164   */\n      sub\n        /* \"#utility.yul\":6137:6169   */\n      slt\n        /* \"#utility.yul\":6134:6253   */\n      iszero\n      tag_496\n      jumpi\n        /* \"#utility.yul\":6172:6251   */\n      tag_497\n      tag_403\n      jump\t// in\n    tag_497:\n        /* \"#utility.yul\":6134:6253   */\n    tag_496:\n        /* \"#utility.yul\":6292:6293   */\n      0x00\n        /* \"#utility.yul\":6317:6370   */\n      tag_498\n        /* \"#utility.yul\":6362:6369   */\n      dup5\n        /* \"#utility.yul\":6353:6359   */\n      dup3\n        /* \"#utility.yul\":6342:6351   */\n      dup6\n        /* \"#utility.yul\":6338:6360   */\n      add\n        /* \"#utility.yul\":6317:6370   */\n      tag_410\n      jump\t// in\n    tag_498:\n        /* \"#utility.yul\":6307:6370   */\n      swap2\n      pop\n        /* \"#utility.yul\":6263:6380   */\n      pop\n        /* \"#utility.yul\":6058:6387   */\n      swap3\n      swap2\n      pop\n      pop\n      jump\t// out\n        /* \"#utility.yul\":6393:6867   */\n    tag_89:\n        /* \"#utility.yul\":6461:6467   */\n      0x00\n        /* \"#utility.yul\":6469:6475   */\n      0x00\n        /* \"#utility.yul\":6518:6520   */\n      0x40\n        /* \"#utility.yul\":6506:6515   */\n      dup4\n        /* \"#utility.yul\":6497:6504   */\n      dup6\n        /* \"#utility.yul\":6493:6516   */\n      sub\n        /* \"#utility.yul\":6489:6521   */\n      slt\n        /* \"#utility.yul\":6486:6605   */\n      iszero\n      tag_500\n      jumpi\n        /* \"#utility.yul\":6524:6603   */\n      tag_501\n      tag_403\n      jump\t// in\n    tag_501:\n        /* \"#utility.yul\":6486:6605   */\n    tag_500:\n        /* \"#utility.yul\":6644:6645   */\n      0x00\n        /* \"#utility.yul\":6669:6722   */\n      tag_502\n        /* \"#utility.yul\":6714:6721   */\n      dup6\n        /* \"#utility.yul\":6705:6711   */\n      dup3\n        /* \"#utility.yul\":6694:6703   */\n      dup7\n        /* \"#utility.yul\":6690:6712   */\n      add\n        /* \"#utility.yul\":6669:6722   */\n      tag_406\n      jump\t// in\n    tag_502:\n        /* \"#utility.yul\":6659:6722   */\n      swap3\n      pop\n        /* \"#utility.yul\":6615:6732   */\n      pop\n        /* \"#utility.yul\":6771:6773   */\n      0x20\n        /* \"#utility.yul\":6797:6850   */\n      tag_503\n        /* \"#utility.yul\":6842:6849   */\n      dup6\n        /* \"#utility.yul\":6833:6839   */\n      dup3\n        /* \"#utility.yul\":6822:6831   */\n      dup7\n        /* \"#utility.yul\":6818:6840   */\n      add\n        /* \"#utility.yul\":6797:6850   */\n      tag_410\n      jump\t// in\n    tag_503:\n        /* \"#utility.yul\":6787:6850   */\n      swap2\n      pop\n        /* \"#utility.yul\":6742:6860   */\n      pop\n        /* \"#utility.yul\":6393:6867   */\n      swap3\n      pop\n      swap3\n      swap1\n      pop\n      jump\t// out\n        /* \"#utility.yul\":6873:7347   */\n    tag_149:\n        /* \"#utility.yul\":6941:6947   */\n      0x00\n        /* \"#utility.yul\":6949:6955   */\n      0x00\n        /* \"#utility.yul\":6998:7000   */\n      0x40\n        /* \"#utility.yul\":6986:6995   */\n      dup4\n        /* \"#utility.yul\":6977:6984   */\n      dup6\n        /* \"#utility.yul\":6973:6996   */\n      sub\n        /* \"#utility.yul\":6969:7001   */\n      slt\n        /* \"#utility.yul\":6966:7085   */\n      iszero\n      tag_505\n      jumpi\n        /* \"#utility.yul\":7004:7083   */\n      tag_506\n      tag_403\n      jump\t// in\n    tag_506:\n        /* \"#utility.yul\":6966:7085   */\n    tag_505:\n        /* \"#utility.yul\":7124:7125   */\n      0x00\n        /* \"#utility.yul\":7149:7202   */\n      tag_507\n        /* \"#utility.yul\":7194:7201   */\n      dup6\n        /* \"#utility.yul\":7185:7191   */\n      dup3\n        /* \"#utility.yul\":7174:7183   */\n      dup7\n        /* \"#utility.yul\":7170:7192   */\n      add\n        /* \"#utility.yul\":7149:7202   */\n      tag_410\n      jump\t// in\n    tag_507:\n        /* \"#utility.yul\":7139:7202   */\n      swap3\n      pop\n        /* \"#utility.yul\":7095:7212   */\n      pop\n        /* \"#utility.yul\":7251:7253   */\n      0x20\n        /* \"#utility.yul\":7277:7330   */\n      tag_508\n        /* \"#utility.yul\":7322:7329   */\n      dup6\n        /* \"#utility.yul\":7313:7319   */\n      dup3\n        /* \"#utility.yul\":7302:7311   */\n      dup7\n        /* \"#utility.yul\":7298:7320   */\n      add\n        /* \"#utility.yul\":7277:7330   */\n      tag_410\n      jump\t// in\n    tag_508:\n        /* \"#utility.yul\":7267:7330   */\n      swap2\n      pop\n        /* \"#utility.yul\":7222:7340   */\n      pop\n        /* \"#utility.yul\":6873:7347   */\n      swap3\n      pop\n      swap3\n      swap1\n      pop\n      jump\t// out\n        /* \"#utility.yul\":7353:7496   */\n    tag_416:\n        /* \"#utility.yul\":7410:7415   */\n      0x00\n        /* \"#utility.yul\":7441:7447   */\n      dup2\n        /* \"#utility.yul\":7435:7448   */\n      mload\n        /* \"#utility.yul\":7426:7448   */\n      swap1\n      pop\n        /* \"#utility.yul\":7457:7490   */\n      tag_510\n        /* \"#utility.yul\":7484:7489   */\n      dup2\n        /* \"#utility.yul\":7457:7490   */\n      tag_405\n      jump\t// in\n    tag_510:\n        /* \"#utility.yul\":7353:7496   */\n      swap3\n      swap2\n      pop\n      pop\n      jump\t// out\n        /* \"#utility.yul\":7502:7853   */\n    tag_161:\n        /* \"#utility.yul\":7572:7578   */\n      0x00\n        /* \"#utility.yul\":7621:7623   */\n      0x20\n        /* \"#utility.yul\":7609:7618   */\n      dup3\n        /* \"#utility.yul\":7600:7607   */\n      dup5\n        /* \"#utility.yul\":7596:7619   */\n      sub\n        /* \"#utility.yul\":7592:7624   */\n      slt\n        /* \"#utility.yul\":7589:7708   */\n      iszero\n      tag_512\n      jumpi\n        /* \"#utility.yul\":7627:7706   */\n      tag_513\n      tag_403\n      jump\t// in\n    tag_513:\n        /* \"#utility.yul\":7589:7708   */\n    tag_512:\n        /* \"#utility.yul\":7747:7748   */\n      0x00\n        /* \"#utility.yul\":7772:7836   */\n      tag_514\n        /* \"#utility.yul\":7828:7835   */\n      dup5\n        /* \"#utility.yul\":7819:7825   */\n      dup3\n        /* \"#utility.yul\":7808:7817   */\n      dup6\n        /* \"#utility.yul\":7804:7826   */\n      add\n        /* \"#utility.yul\":7772:7836   */\n      tag_416\n      jump\t// in\n    tag_514:\n        /* \"#utility.yul\":7762:7836   */\n      swap2\n      pop\n        /* \"#utility.yul\":7718:7846   */\n      pop\n        /* \"#utility.yul\":7502:7853   */\n      swap3\n      swap2\n      pop\n      pop\n      jump\t// out\n        /* \"#utility.yul\":7859:8039   */\n    tag_417:\n        /* \"#utility.yul\":7907:7984   */\n      0x4e487b7100000000000000000000000000000000000000000000000000000000\n        /* \"#utility.yul\":7904:7905   */\n      0x00\n        /* \"#utility.yul\":7897:7985   */\n      mstore\n        /* \"#utility.yul\":8004:8008   */\n      0x22\n        /* \"#utility.yul\":8001:8002   */\n      0x04\n        /* \"#utility.yul\":7994:8009   */\n      mstore\n        /* \"#utility.yul\":8028:8032   */\n      0x24\n        /* \"#utility.yul\":8025:8026   */\n      0x00\n        /* \"#utility.yul\":8018:8033   */\n      revert\n        /* \"#utility.yul\":8045:8365   */\n    tag_164:\n        /* \"#utility.yul\":8089:8095   */\n      0x00\n        /* \"#utility.yul\":8126:8127   */\n      0x02\n        /* \"#utility.yul\":8120:8124   */\n      dup3\n        /* \"#utility.yul\":8116:8128   */\n      div\n        /* \"#utility.yul\":8106:8128   */\n      swap1\n      pop\n        /* \"#utility.yul\":8173:8174   */\n      0x01\n        /* \"#utility.yul\":8167:8171   */\n      dup3\n        /* \"#utility.yul\":8163:8175   */\n      and\n        /* \"#utility.yul\":8194:8212   */\n      dup1\n        /* \"#utility.yul\":8184:8265   */\n      tag_517\n      jumpi\n        /* \"#utility.yul\":8250:8254   */\n      0x7f\n        /* \"#utility.yul\":8242:8248   */\n      dup3\n        /* \"#utility.yul\":8238:8255   */\n      and\n        /* \"#utility.yul\":8228:8255   */\n      swap2\n      pop\n        /* \"#utility.yul\":8184:8265   */\n    tag_517:\n        /* \"#utility.yul\":8312:8314   */\n      0x20\n        /* \"#utility.yul\":8304:8310   */\n      dup3\n        /* \"#utility.yul\":8301:8315   */\n      lt\n        /* \"#utility.yul\":8281:8299   */\n      dup2\n        /* \"#utility.yul\":8278:8316   */\n      sub\n        /* \"#utility.yul\":8275:8359   */\n      tag_518\n      jumpi\n        /* \"#utility.yul\":8331:8349   */\n      tag_519\n      tag_417\n      jump\t// in\n    tag_519:\n        /* \"#utility.yul\":8275:8359   */\n    tag_518:\n        /* \"#utility.yul\":8096:8365   */\n      pop\n        /* \"#utility.yul\":8045:8365   */\n      swap2\n      swap1\n      pop\n      jump\t// out\n        /* \"#utility.yul\":8371:8551   */\n    tag_418:\n        /* \"#utility.yul\":8419:8496   */\n      0x4e487b7100000000000000000000000000000000000000000000000000000000\n        /* \"#utility.yul\":8416:8417   */\n      0x00\n        /* \"#utility.yul\":8409:8497   */\n      mstore\n        /* \"#utility.yul\":8516:8520   */\n      0x11\n        /* \"#utility.yul\":8513:8514   */\n      0x04\n        /* \"#utility.yul\":8506:8521   */\n      mstore\n        /* \"#utility.yul\":8540:8544   */\n      0x24\n        /* \"#utility.yul\":8537:8538   */\n      0x00\n        /* \"#utility.yul\":8530:8545   */\n      revert\n        /* \"#utility.yul\":8557:8745   */\n    tag_193:\n        /* \"#utility.yul\":8595:8598   */\n      0x00\n        /* \"#utility.yul\":8614:8632   */\n      tag_522\n        /* \"#utility.yul\":8630:8631   */\n      dup3\n        /* \"#utility.yul\":8614:8632   */\n      tag_413\n      jump\t// in\n    tag_522:\n        /* \"#utility.yul\":8609:8632   */\n      swap2\n      pop\n        /* \"#utility.yul\":8646:8664   */\n      tag_523\n        /* \"#utility.yul\":8662:8663   */\n      dup4\n        /* \"#utility.yul\":8646:8664   */\n      tag_413\n      jump\t// in\n    tag_523:\n        /* \"#utility.yul\":8641:8664   */\n      swap3\n      pop\n        /* \"#utility.yul\":8687:8688   */\n      dup3\n        /* \"#utility.yul\":8684:8685   */\n      dup3\n        /* \"#utility.yul\":8680:8689   */\n      add\n        /* \"#utility.yul\":8673:8689   */\n      swap1\n      pop\n        /* \"#utility.yul\":8710:8714   */\n      0xff\n        /* \"#utility.yul\":8705:8708   */\n      dup2\n        /* \"#utility.yul\":8702:8715   */\n      gt\n        /* \"#utility.yul\":8699:8738   */\n      iszero\n      tag_524\n      jumpi\n        /* \"#utility.yul\":8718:8736   */\n      tag_525\n      tag_418\n      jump\t// in\n    tag_525:\n        /* \"#utility.yul\":8699:8738   */\n    tag_524:\n        /* \"#utility.yul\":8557:8745   */\n      swap3\n      swap2\n      pop\n      pop\n      jump\t// out\n        /* \"#utility.yul\":8751:9193   */\n    tag_204:\n        /* \"#utility.yul\":8900:8904   */\n      0x00\n        /* \"#utility.yul\":8938:8940   */\n      0x60\n        /* \"#utility.yul\":8927:8936   */\n      dup3\n        /* \"#utility.yul\":8923:8941   */\n      add\n        /* \"#utility.yul\":8915:8941   */\n      swap1\n      pop\n        /* \"#utility.yul\":8951:9022   */\n      tag_527\n        /* \"#utility.yul\":9019:9020   */\n      0x00\n        /* \"#utility.yul\":9008:9017   */\n      dup4\n        /* \"#utility.yul\":9004:9021   */\n      add\n        /* \"#utility.yul\":8995:9001   */\n      dup7\n        /* \"#utility.yul\":8951:9022   */\n      tag_415\n      jump\t// in\n    tag_527:\n        /* \"#utility.yul\":9032:9104   */\n      tag_528\n        /* \"#utility.yul\":9100:9102   */\n      0x20\n        /* \"#utility.yul\":9089:9098   */\n      dup4\n        /* \"#utility.yul\":9085:9103   */\n      add\n        /* \"#utility.yul\":9076:9082   */\n      dup6\n        /* \"#utility.yul\":9032:9104   */\n      tag_396\n      jump\t// in\n    tag_528:\n        /* \"#utility.yul\":9114:9186   */\n      tag_529\n        /* \"#utility.yul\":9182:9184   */\n      0x40\n        /* \"#utility.yul\":9171:9180   */\n      dup4\n        /* \"#utility.yul\":9167:9185   */\n      add\n        /* \"#utility.yul\":9158:9164   */\n      dup5\n        /* \"#utility.yul\":9114:9186   */\n      tag_396\n      jump\t// in\n    tag_529:\n        /* \"#utility.yul\":8751:9193   */\n      swap5\n      swap4\n      pop\n      pop\n      pop\n      pop\n      jump\t// out\n        /* \"#utility.yul\":9199:9390   */\n    tag_260:\n        /* \"#utility.yul\":9239:9242   */\n      0x00\n        /* \"#utility.yul\":9258:9278   */\n      tag_531\n        /* \"#utility.yul\":9276:9277   */\n      dup3\n        /* \"#utility.yul\":9258:9278   */\n      tag_395\n      jump\t// in\n    tag_531:\n        /* \"#utility.yul\":9253:9278   */\n      swap2\n      pop\n        /* \"#utility.yul\":9292:9312   */\n      tag_532\n        /* \"#utility.yul\":9310:9311   */\n      dup4\n        /* \"#utility.yul\":9292:9312   */\n      tag_395\n      jump\t// in\n    tag_532:\n        /* \"#utility.yul\":9287:9312   */\n      swap3\n      pop\n        /* \"#utility.yul\":9335:9336   */\n      dup3\n        /* \"#utility.yul\":9332:9333   */\n      dup3\n        /* \"#utility.yul\":9328:9337   */\n      add\n        /* \"#utility.yul\":9321:9337   */\n      swap1\n      pop\n        /* \"#utility.yul\":9356:9359   */\n      dup1\n        /* \"#utility.yul\":9353:9354   */\n      dup3\n        /* \"#utility.yul\":9350:9360   */\n      gt\n        /* \"#utility.yul\":9347:9383   */\n      iszero\n      tag_533\n      jumpi\n        /* \"#utility.yul\":9363:9381   */\n      tag_534\n      tag_418\n      jump\t// in\n    tag_534:\n        /* \"#utility.yul\":9347:9383   */\n    tag_533:\n        /* \"#utility.yul\":9199:9390   */\n      swap3\n      swap2\n      pop\n      pop\n      jump\t// out\n        /* \"#utility.yul\":9396:9498   */\n    tag_419:\n        /* \"#utility.yul\":9438:9446   */\n      0x00\n        /* \"#utility.yul\":9485:9490   */\n      dup2\n        /* \"#utility.yul\":9482:9483   */\n      0x01\n        /* \"#utility.yul\":9478:9491   */\n      shr\n        /* \"#utility.yul\":9457:9491   */\n      swap1\n      pop\n        /* \"#utility.yul\":9396:9498   */\n      swap2\n      swap1\n      pop\n      jump\t// out\n        /* \"#utility.yul\":9504:10352   */\n    tag_420:\n        /* \"#utility.yul\":9565:9570   */\n      0x00\n        /* \"#utility.yul\":9572:9576   */\n      0x00\n        /* \"#utility.yul\":9596:9602   */\n      dup3\n        /* \"#utility.yul\":9587:9602   */\n      swap2\n      pop\n        /* \"#utility.yul\":9620:9625   */\n      dup4\n        /* \"#utility.yul\":9611:9625   */\n      swap1\n      pop\n        /* \"#utility.yul\":9634:10346   */\n    tag_537:\n        /* \"#utility.yul\":9655:9656   */\n      0x01\n        /* \"#utility.yul\":9645:9653   */\n      dup6\n        /* \"#utility.yul\":9642:9657   */\n      gt\n        /* \"#utility.yul\":9634:10346   */\n      iszero\n      tag_539\n      jumpi\n        /* \"#utility.yul\":9750:9754   */\n      dup1\n        /* \"#utility.yul\":9745:9748   */\n      dup7\n        /* \"#utility.yul\":9741:9755   */\n      div\n        /* \"#utility.yul\":9735:9739   */\n      dup2\n        /* \"#utility.yul\":9732:9756   */\n      gt\n        /* \"#utility.yul\":9729:9779   */\n      iszero\n      tag_540\n      jumpi\n        /* \"#utility.yul\":9759:9777   */\n      tag_541\n      tag_418\n      jump\t// in\n    tag_541:\n        /* \"#utility.yul\":9729:9779   */\n    tag_540:\n        /* \"#utility.yul\":9809:9810   */\n      0x01\n        /* \"#utility.yul\":9799:9807   */\n      dup6\n        /* \"#utility.yul\":9795:9811   */\n      and\n        /* \"#utility.yul\":9792:10243   */\n      iszero\n      tag_542\n      jumpi\n        /* \"#utility.yul\":10224:10228   */\n      dup1\n        /* \"#utility.yul\":10217:10222   */\n      dup3\n        /* \"#utility.yul\":10213:10229   */\n      mul\n        /* \"#utility.yul\":10204:10229   */\n      swap2\n      pop\n        /* \"#utility.yul\":9792:10243   */\n    tag_542:\n        /* \"#utility.yul\":10274:10278   */\n      dup1\n        /* \"#utility.yul\":10268:10272   */\n      dup2\n        /* \"#utility.yul\":10264:10279   */\n      mul\n        /* \"#utility.yul\":10256:10279   */\n      swap1\n      pop\n        /* \"#utility.yul\":10304:10336   */\n      tag_543\n        /* \"#utility.yul\":10327:10335   */\n      dup6\n        /* \"#utility.yul\":10304:10336   */\n      tag_419\n      jump\t// in\n    tag_543:\n        /* \"#utility.yul\":10292:10336   */\n      swap5\n      pop\n        /* \"#utility.yul\":9634:10346   */\n      jump(tag_537)\n    tag_539:\n        /* \"#utility.yul\":9504:10352   */\n      swap5\n      pop\n      swap5\n      swap3\n      pop\n      pop\n      pop\n      jump\t// out\n        /* \"#utility.yul\":10358:11431   */\n    tag_421:\n        /* \"#utility.yul\":10412:10417   */\n      0x00\n        /* \"#utility.yul\":10603:10611   */\n      dup3\n        /* \"#utility.yul\":10593:10633   */\n      tag_545\n      jumpi\n        /* \"#utility.yul\":10624:10625   */\n      0x01\n        /* \"#utility.yul\":10615:10625   */\n      swap1\n      pop\n        /* \"#utility.yul\":10626:10631   */\n      jump(tag_544)\n        /* \"#utility.yul\":10593:10633   */\n    tag_545:\n        /* \"#utility.yul\":10652:10656   */\n      dup2\n        /* \"#utility.yul\":10642:10678   */\n      tag_546\n      jumpi\n        /* \"#utility.yul\":10669:10670   */\n      0x00\n        /* \"#utility.yul\":10660:10670   */\n      swap1\n      pop\n        /* \"#utility.yul\":10671:10676   */\n      jump(tag_544)\n        /* \"#utility.yul\":10642:10678   */\n    tag_546:\n        /* \"#utility.yul\":10738:10742   */\n      dup2\n        /* \"#utility.yul\":10786:10787   */\n      0x01\n        /* \"#utility.yul\":10781:10808   */\n      dup2\n      eq\n      tag_548\n      jumpi\n        /* \"#utility.yul\":10822:10823   */\n      0x02\n        /* \"#utility.yul\":10817:11008   */\n      dup2\n      eq\n      tag_549\n      jumpi\n        /* \"#utility.yul\":10731:11008   */\n      jump(tag_547)\n        /* \"#utility.yul\":10781:10808   */\n    tag_548:\n        /* \"#utility.yul\":10799:10800   */\n      0x01\n        /* \"#utility.yul\":10790:10800   */\n      swap2\n      pop\n        /* \"#utility.yul\":10801:10806   */\n      pop\n      jump(tag_544)\n        /* \"#utility.yul\":10817:11008   */\n    tag_549:\n        /* \"#utility.yul\":10862:10865   */\n      0xff\n        /* \"#utility.yul\":10852:10860   */\n      dup5\n        /* \"#utility.yul\":10849:10866   */\n      gt\n        /* \"#utility.yul\":10846:10889   */\n      iszero\n      tag_550\n      jumpi\n        /* \"#utility.yul\":10869:10887   */\n      tag_551\n      tag_418\n      jump\t// in\n    tag_551:\n        /* \"#utility.yul\":10846:10889   */\n    tag_550:\n        /* \"#utility.yul\":10918:10926   */\n      dup4\n        /* \"#utility.yul\":10915:10916   */\n      0x02\n        /* \"#utility.yul\":10911:10927   */\n      exp\n        /* \"#utility.yul\":10902:10927   */\n      swap2\n      pop\n        /* \"#utility.yul\":10953:10956   */\n      dup5\n        /* \"#utility.yul\":10946:10951   */\n      dup3\n        /* \"#utility.yul\":10943:10957   */\n      gt\n        /* \"#utility.yul\":10940:10980   */\n      iszero\n      tag_552\n      jumpi\n        /* \"#utility.yul\":10960:10978   */\n      tag_553\n      tag_418\n      jump\t// in\n    tag_553:\n        /* \"#utility.yul\":10940:10980   */\n    tag_552:\n        /* \"#utility.yul\":10993:10998   */\n      pop\n      jump(tag_544)\n        /* \"#utility.yul\":10731:11008   */\n    tag_547:\n      pop\n        /* \"#utility.yul\":11117:11119   */\n      0x20\n        /* \"#utility.yul\":11107:11115   */\n      dup4\n        /* \"#utility.yul\":11104:11120   */\n      lt\n        /* \"#utility.yul\":11098:11101   */\n      0x0133\n        /* \"#utility.yul\":11092:11096   */\n      dup4\n        /* \"#utility.yul\":11089:11102   */\n      lt\n        /* \"#utility.yul\":11085:11121   */\n      and\n        /* \"#utility.yul\":11067:11069   */\n      0x4e\n        /* \"#utility.yul\":11057:11065   */\n      dup5\n        /* \"#utility.yul\":11054:11070   */\n      lt\n        /* \"#utility.yul\":11049:11051   */\n      0x0b\n        /* \"#utility.yul\":11043:11047   */\n      dup5\n        /* \"#utility.yul\":11040:11052   */\n      lt\n        /* \"#utility.yul\":11036:11071   */\n      and\n        /* \"#utility.yul\":11020:11131   */\n      or\n        /* \"#utility.yul\":11017:11263   */\n      iszero\n      tag_554\n      jumpi\n        /* \"#utility.yul\":11173:11181   */\n      dup3\n        /* \"#utility.yul\":11167:11171   */\n      dup3\n        /* \"#utility.yul\":11163:11182   */\n      exp\n        /* \"#utility.yul\":11154:11182   */\n      swap1\n      pop\n        /* \"#utility.yul\":11208:11211   */\n      dup4\n        /* \"#utility.yul\":11201:11206   */\n      dup2\n        /* \"#utility.yul\":11198:11212   */\n      gt\n        /* \"#utility.yul\":11195:11235   */\n      iszero\n      tag_555\n      jumpi\n        /* \"#utility.yul\":11215:11233   */\n      tag_556\n      tag_418\n      jump\t// in\n    tag_556:\n        /* \"#utility.yul\":11195:11235   */\n    tag_555:\n        /* \"#utility.yul\":11248:11253   */\n      jump(tag_544)\n        /* \"#utility.yul\":11017:11263   */\n    tag_554:\n        /* \"#utility.yul\":11288:11330   */\n      tag_557\n        /* \"#utility.yul\":11326:11329   */\n      dup5\n        /* \"#utility.yul\":11316:11324   */\n      dup5\n        /* \"#utility.yul\":11310:11314   */\n      dup5\n        /* \"#utility.yul\":11307:11308   */\n      0x01\n        /* \"#utility.yul\":11288:11330   */\n      tag_420\n      jump\t// in\n    tag_557:\n        /* \"#utility.yul\":11273:11330   */\n      swap3\n      pop\n      swap1\n      pop\n        /* \"#utility.yul\":11362:11366   */\n      dup2\n        /* \"#utility.yul\":11357:11360   */\n      dup5\n        /* \"#utility.yul\":11353:11367   */\n      div\n        /* \"#utility.yul\":11346:11351   */\n      dup2\n        /* \"#utility.yul\":11343:11368   */\n      gt\n        /* \"#utility.yul\":11340:11391   */\n      iszero\n      tag_558\n      jumpi\n        /* \"#utility.yul\":11371:11389   */\n      tag_559\n      tag_418\n      jump\t// in\n    tag_559:\n        /* \"#utility.yul\":11340:11391   */\n    tag_558:\n        /* \"#utility.yul\":11420:11424   */\n      dup2\n        /* \"#utility.yul\":11413:11418   */\n      dup2\n        /* \"#utility.yul\":11409:11425   */\n      mul\n        /* \"#utility.yul\":11400:11425   */\n      swap1\n      pop\n        /* \"#utility.yul\":10358:11431   */\n    tag_544:\n      swap4\n      swap3\n      pop\n      pop\n      pop\n      jump\t// out\n        /* \"#utility.yul\":11437:11718   */\n    tag_263:\n        /* \"#utility.yul\":11495:11500   */\n      0x00\n        /* \"#utility.yul\":11519:11542   */\n      tag_561\n        /* \"#utility.yul\":11537:11541   */\n      dup3\n        /* \"#utility.yul\":11519:11542   */\n      tag_395\n      jump\t// in\n    tag_561:\n        /* \"#utility.yul\":11511:11542   */\n      swap2\n      pop\n        /* \"#utility.yul\":11563:11588   */\n      tag_562\n        /* \"#utility.yul\":11579:11587   */\n      dup4\n        /* \"#utility.yul\":11563:11588   */\n      tag_413\n      jump\t// in\n    tag_562:\n        /* \"#utility.yul\":11551:11588   */\n      swap3\n      pop\n        /* \"#utility.yul\":11607:11711   */\n      tag_563\n        /* \"#utility.yul\":11644:11710   */\n      0xffffffffffffffffffffffffffffffffffffffffffffffffffffffffffffffff\n        /* \"#utility.yul\":11634:11642   */\n      dup5\n        /* \"#utility.yul\":11628:11632   */\n      dup5\n        /* \"#utility.yul\":11607:11711   */\n      tag_421\n      jump\t// in\n    tag_563:\n        /* \"#utility.yul\":11598:11711   */\n      swap1\n      pop\n        /* \"#utility.yul\":11437:11718   */\n      swap3\n      swap2\n      pop\n      pop\n      jump\t// out\n        /* \"#utility.yul\":11724:12056   */\n    tag_299:\n        /* \"#utility.yul\":11845:11849   */\n      0x00\n        /* \"#utility.yul\":11883:11885   */\n      0x40\n        /* \"#utility.yul\":11872:11881   */\n      dup3\n        /* \"#utility.yul\":11868:11886   */\n      add\n        /* \"#utility.yul\":11860:11886   */\n      swap1\n      pop\n        /* \"#utility.yul\":11896:11967   */\n      tag_565\n        /* \"#utility.yul\":11964:11965   */\n      0x00\n        /* \"#utility.yul\":11953:11962   */\n      dup4\n        /* \"#utility.yul\":11949:11966   */\n      add\n        /* \"#utility.yul\":11940:11946   */\n      dup6\n        /* \"#utility.yul\":11896:11967   */\n      tag_396\n      jump\t// in\n    tag_565:\n        /* \"#utility.yul\":11977:12049   */\n      tag_566\n        /* \"#utility.yul\":12045:12047   */\n      0x20\n        /* \"#utility.yul\":12034:12043   */\n      dup4\n        /* \"#utility.yul\":12030:12048   */\n      add\n        /* \"#utility.yul\":12021:12027   */\n      dup5\n        /* \"#utility.yul\":11977:12049   */\n      tag_396\n      jump\t// in\n    tag_566:\n        /* \"#utility.yul\":11724:12056   */\n      swap4\n      swap3\n      pop\n      pop\n      pop\n      jump\t// out\n        /* \"#utility.yul\":12062:12242   */\n    tag_316:\n        /* \"#utility.yul\":12110:12187   */\n      0x4e487b7100000000000000000000000000000000000000000000000000000000\n        /* \"#utility.yul\":12107:12108   */\n      0x00\n        /* \"#utility.yul\":12100:12188   */\n      mstore\n        /* \"#utility.yul\":12207:12211   */\n      0x12\n        /* \"#utility.yul\":12204:12205   */\n      0x04\n        /* \"#utility.yul\":12197:12212   */\n      mstore\n        /* \"#utility.yul\":12231:12235   */\n      0x24\n        /* \"#utility.yul\":12228:12229   */\n      0x00\n        /* \"#utility.yul\":12221:12236   */\n      revert\n        /* \"#utility.yul\":12248:12690   */\n    tag_338:\n        /* \"#utility.yul\":12397:12401   */\n      0x00\n        /* \"#utility.yul\":12435:12437   */\n      0x60\n        /* \"#utility.yul\":12424:12433   */\n      dup3\n        /* \"#utility.yul\":12420:12438   */\n      add\n        /* \"#utility.yul\":12412:12438   */\n      swap1\n      pop\n        /* \"#utility.yul\":12448:12519   */\n      tag_569\n        /* \"#utility.yul\":12516:12517   */\n      0x00\n        /* \"#utility.yul\":12505:12514   */\n      dup4\n        /* \"#utility.yul\":12501:12518   */\n      add\n        /* \"#utility.yul\":12492:12498   */\n      dup7\n        /* \"#utility.yul\":12448:12519   */\n      tag_415\n      jump\t// in\n    tag_569:\n        /* \"#utility.yul\":12529:12601   */\n      tag_570\n        /* \"#utility.yul\":12597:12599   */\n      0x20\n        /* \"#utility.yul\":12586:12595   */\n      dup4\n        /* \"#utility.yul\":12582:12600   */\n      add\n        /* \"#utility.yul\":12573:12579   */\n      dup6\n        /* \"#utility.yul\":12529:12601   */\n      tag_415\n      jump\t// in\n    tag_570:\n        /* \"#utility.yul\":12611:12683   */\n      tag_571\n        /* \"#utility.yul\":12679:12681   */\n      0x40\n        /* \"#utility.yul\":12668:12677   */\n      dup4\n        /* \"#utility.yul\":12664:12682   */\n      add\n        /* \"#utility.yul\":12655:12661   */\n      dup5\n        /* \"#utility.yul\":12611:12683   */\n      tag_396\n      jump\t// in\n    tag_571:\n        /* \"#utility.yul\":12248:12690   */\n      swap5\n      swap4\n      pop\n      pop\n      pop\n      pop\n      jump\t// out\n        /* \"#utility.yul\":12696:13028   */\n    tag_351:\n        /* \"#utility.yul\":12817:12821   */\n      0x00\n        /* \"#utility.yul\":12855:12857   */\n      0x40\n        /* \"#utility.yul\":12844:12853   */\n      dup3\n        /* \"#utility.yul\":12840:12858   */\n      add\n        /* \"#utility.yul\":12832:12858   */\n      swap1\n      pop\n        /* \"#utility.yul\":12868:12939   */\n      tag_573\n        /* \"#utility.yul\":12936:12937   */\n      0x00\n        /* \"#utility.yul\":12925:12934   */\n      dup4\n        /* \"#utility.yul\":12921:12938   */\n      add\n        /* \"#utility.yul\":12912:12918   */\n      dup6\n        /* \"#utility.yul\":12868:12939   */\n      tag_415\n      jump\t// in\n    tag_573:\n        /* \"#utility.yul\":12949:13021   */\n      tag_574\n        /* \"#utility.yul\":13017:13019   */\n      0x20\n        /* \"#utility.yul\":13006:13015   */\n      dup4\n        /* \"#utility.yul\":13002:13020   */\n      add\n        /* \"#utility.yul\":12993:12999   */\n      dup5\n        /* \"#utility.yul\":12949:13021   */\n      tag_396\n      jump\t// in\n    tag_574:\n        /* \"#utility.yul\":12696:13028   */\n      swap4\n      swap3\n      pop\n      pop\n      pop\n      jump\t// out\n        /* \"#utility.yul\":13034:13214   */\n    tag_360:\n        /* \"#utility.yul\":13082:13159   */\n      0x4e487b7100000000000000000000000000000000000000000000000000000000\n        /* \"#utility.yul\":13079:13080   */\n      0x00\n        /* \"#utility.yul\":13072:13160   */\n      mstore\n        /* \"#utility.yul\":13179:13183   */\n      0x21\n        /* \"#utility.yul\":13176:13177   */\n      0x04\n        /* \"#utility.yul\":13169:13184   */\n      mstore\n        /* \"#utility.yul\":13203:13207   */\n      0x24\n        /* \"#utility.yul\":13200:13201   */\n      0x00\n        /* \"#utility.yul\":13193:13208   */\n      revert\n        /* \"#utility.yul\":13220:13390   */\n    tag_362:\n        /* \"#utility.yul\":13250:13251   */\n      0x00\n        /* \"#utility.yul\":13267:13285   */\n      tag_577\n        /* \"#utility.yul\":13283:13284   */\n      dup3\n        /* \"#utility.yul\":13267:13285   */\n      tag_413\n      jump\t// in\n    tag_577:\n        /* \"#utility.yul\":13262:13285   */\n      swap2\n      pop\n        /* \"#utility.yul\":13299:13317   */\n      tag_578\n        /* \"#utility.yul\":13315:13316   */\n      dup4\n        /* \"#utility.yul\":13299:13317   */\n      tag_413\n      jump\t// in\n    tag_578:\n        /* \"#utility.yul\":13294:13317   */\n      swap3\n      pop\n        /* \"#utility.yul\":13336:13337   */\n      dup3\n        /* \"#utility.yul\":13326:13361   */\n      tag_579\n      jumpi\n        /* \"#utility.yul\":13341:13359   */\n      tag_580\n      tag_316\n      jump\t// in\n    tag_580:\n        /* \"#utility.yul\":13326:13361   */\n    tag_579:\n        /* \"#utility.yul\":13382:13383   */\n      dup3\n        /* \"#utility.yul\":13379:13380   */\n      dup3\n        /* \"#utility.yul\":13375:13384   */\n      mod\n        /* \"#utility.yul\":13370:13384   */\n      swap1\n      pop\n        /* \"#utility.yul\":13220:13390   */\n      swap3\n      swap2\n      pop\n      pop\n      jump\t// out\n        /* \"#utility.yul\":13396:13512   */\n    tag_422:\n        /* \"#utility.yul\":13466:13487   */\n      tag_582\n        /* \"#utility.yul\":13481:13486   */\n      dup2\n        /* \"#utility.yul\":13466:13487   */\n      tag_411\n      jump\t// in\n    tag_582:\n        /* \"#utility.yul\":13459:13464   */\n      dup2\n        /* \"#utility.yul\":13456:13488   */\n      eq\n        /* \"#utility.yul\":13446:13506   */\n      tag_583\n      jumpi\n        /* \"#utility.yul\":13502:13503   */\n      0x00\n        /* \"#utility.yul\":13499:13500   */\n      0x00\n        /* \"#utility.yul\":13492:13504   */\n      revert\n        /* \"#utility.yul\":13446:13506   */\n    tag_583:\n        /* \"#utility.yul\":13396:13512   */\n      pop\n      jump\t// out\n        /* \"#utility.yul\":13518:13655   */\n    tag_423:\n        /* \"#utility.yul\":13572:13577   */\n      0x00\n        /* \"#utility.yul\":13603:13609   */\n      dup2\n        /* \"#utility.yul\":13597:13610   */\n      mload\n        /* \"#utility.yul\":13588:13610   */\n      swap1\n      pop\n        /* \"#utility.yul\":13619:13649   */\n      tag_585\n        /* \"#utility.yul\":13643:13648   */\n      dup2\n        /* \"#utility.yul\":13619:13649   */\n      tag_422\n      jump\t// in\n    tag_585:\n        /* \"#utility.yul\":13518:13655   */\n      swap3\n      swap2\n      pop\n      pop\n      jump\t// out\n        /* \"#utility.yul\":13661:14006   */\n    tag_368:\n        /* \"#utility.yul\":13728:13734   */\n      0x00\n        /* \"#utility.yul\":13777:13779   */\n      0x20\n        /* \"#utility.yul\":13765:13774   */\n      dup3\n        /* \"#utility.yul\":13756:13763   */\n      dup5\n        /* \"#utility.yul\":13752:13775   */\n      sub\n        /* \"#utility.yul\":13748:13780   */\n      slt\n        /* \"#utility.yul\":13745:13864   */\n      iszero\n      tag_587\n      jumpi\n        /* \"#utility.yul\":13783:13862   */\n      tag_588\n      tag_403\n      jump\t// in\n    tag_588:\n        /* \"#utility.yul\":13745:13864   */\n    tag_587:\n        /* \"#utility.yul\":13903:13904   */\n      0x00\n        /* \"#utility.yul\":13928:13989   */\n      tag_589\n        /* \"#utility.yul\":13981:13988   */\n      dup5\n        /* \"#utility.yul\":13972:13978   */\n      dup3\n        /* \"#utility.yul\":13961:13970   */\n      dup6\n        /* \"#utility.yul\":13957:13979   */\n      add\n        /* \"#utility.yul\":13928:13989   */\n      tag_423\n      jump\t// in\n    tag_589:\n        /* \"#utility.yul\":13918:13989   */\n      swap2\n      pop\n        /* \"#utility.yul\":13874:13999   */\n      pop\n        /* \"#utility.yul\":13661:14006   */\n      swap3\n      swap2\n      pop\n      pop\n      jump\t// out\n        /* \"#utility.yul\":14012:14110   */\n    tag_424:\n        /* \"#utility.yul\":14063:14069   */\n      0x00\n        /* \"#utility.yul\":14097:14102   */\n      dup2\n        /* \"#utility.yul\":14091:14103   */\n      mload\n        /* \"#utility.yul\":14081:14103   */\n      swap1\n      pop\n        /* \"#utility.yul\":14012:14110   */\n      swap2\n      swap1\n      pop\n      jump\t// out\n        /* \"#utility.yul\":14116:14263   */\n    tag_425:\n        /* \"#utility.yul\":14217:14228   */\n      0x00\n        /* \"#utility.yul\":14254:14257   */\n      dup2\n        /* \"#utility.yul\":14239:14257   */\n      swap1\n      pop\n        /* \"#utility.yul\":14116:14263   */\n      swap3\n      swap2\n      pop\n      pop\n      jump\t// out\n        /* \"#utility.yul\":14269:14655   */\n    tag_426:\n        /* \"#utility.yul\":14373:14376   */\n      0x00\n        /* \"#utility.yul\":14401:14439   */\n      tag_593\n        /* \"#utility.yul\":14433:14438   */\n      dup3\n        /* \"#utility.yul\":14401:14439   */\n      tag_424\n      jump\t// in\n    tag_593:\n        /* \"#utility.yul\":14455:14543   */\n      tag_594\n        /* \"#utility.yul\":14536:14542   */\n      dup2\n        /* \"#utility.yul\":14531:14534   */\n      dup6\n        /* \"#utility.yul\":14455:14543   */\n      tag_425\n      jump\t// in\n    tag_594:\n        /* \"#utility.yul\":14448:14543   */\n      swap4\n      pop\n        /* \"#utility.yul\":14552:14617   */\n      tag_595\n        /* \"#utility.yul\":14610:14616   */\n      dup2\n        /* \"#utility.yul\":14605:14608   */\n      dup6\n        /* \"#utility.yul\":14598:14602   */\n      0x20\n        /* \"#utility.yul\":14591:14596   */\n      dup7\n        /* \"#utility.yul\":14587:14603   */\n      add\n        /* \"#utility.yul\":14552:14617   */\n      tag_399\n      jump\t// in\n    tag_595:\n        /* \"#utility.yul\":14642:14648   */\n      dup1\n        /* \"#utility.yul\":14637:14640   */\n      dup5\n        /* \"#utility.yul\":14633:14649   */\n      add\n        /* \"#utility.yul\":14626:14649   */\n      swap2\n      pop\n        /* \"#utility.yul\":14377:14655   */\n      pop\n        /* \"#utility.yul\":14269:14655   */\n      swap3\n      swap2\n      pop\n      pop\n      jump\t// out\n        /* \"#utility.yul\":14661:14932   */\n    tag_378:\n        /* \"#utility.yul\":14791:14794   */\n      0x00\n        /* \"#utility.yul\":14813:14906   */\n      tag_597\n        /* \"#utility.yul\":14902:14905   */\n      dup3\n        /* \"#utility.yul\":14893:14899   */\n      dup5\n        /* \"#utility.yul\":14813:14906   */\n      tag_426\n      jump\t// in\n    tag_597:\n        /* \"#utility.yul\":14806:14906   */\n      swap2\n      pop\n        /* \"#utility.yul\":14923:14926   */\n      dup2\n        /* \"#utility.yul\":14916:14926   */\n      swap1\n      pop\n        /* \"#utility.yul\":14661:14932   */\n      swap3\n      swap2\n      pop\n      pop\n      jump\t// out\n\n    auxdata: 0xa264697066735822122060153a22f989ceaecd3ec775a90acc93db3bedb47d12056d5591c3cbed4efefa64736f6c634300081b0033\n}\n",
				"bytecode": {
					"linkReferences": {},
					"object": "60c060405234801561000f575f5ffd5b506040516129ed3803806129ed833981810160405281019061003191906102a5565b806040518060400160405280600581526020017f576f5469700000000000000000000000000000000000000000000000000000008152506040518060400160405280600381526020017f575450000000000000000000000000000000000000000000000000000000000081525081600390816100ad919061050d565b5080600490816100bd919061050d565b5050505f5f6100d18361012d60201b60201c565b91509150816100e15760126100e3565b805b60ff1660a08160ff16815250508273ffffffffffffffffffffffffffffffffffffffff1660808173ffffffffffffffffffffffffffffffffffffffff168152505050505050610699565b5f5f5f5f8473ffffffffffffffffffffffffffffffffffffffff1660405160240160405160208183030381529060405263313ce56760e01b6020820180517bffffffffffffffffffffffffffffffffffffffffffffffffffffffff83818316178352505050506040516101a0919061062e565b5f60405180830381855afa9150503d805f81146101d8576040519150601f19603f3d011682016040523d82523d5f602084013e6101dd565b606091505b50915091508180156101f157506020815110155b15610228575f8180602001905181019061020b919061066e565b905060ff801681116102265760018194509450505050610231565b505b5f5f9350935050505b915091565b5f5ffd5b5f73ffffffffffffffffffffffffffffffffffffffff82169050919050565b5f6102638261023a565b9050919050565b5f61027482610259565b9050919050565b6102848161026a565b811461028e575f5ffd5b50565b5f8151905061029f8161027b565b92915050565b5f602082840312156102ba576102b9610236565b5b5f6102c784828501610291565b91505092915050565b5f81519050919050565b7f4e487b71000000000000000000000000000000000000000000000000000000005f52604160045260245ffd5b7f4e487b71000000000000000000000000000000000000000000000000000000005f52602260045260245ffd5b5f600282049050600182168061034b57607f821691505b60208210810361035e5761035d610307565b5b50919050565b5f819050815f5260205f209050919050565b5f6020601f8301049050919050565b5f82821b905092915050565b5f600883026103c07fffffffffffffffffffffffffffffffffffffffffffffffffffffffffffffffff82610385565b6103ca8683610385565b95508019841693508086168417925050509392505050565b5f819050919050565b5f819050919050565b5f61040e610409610404846103e2565b6103eb565b6103e2565b9050919050565b5f819050919050565b610427836103f4565b61043b61043382610415565b848454610391565b825550505050565b5f5f905090565b610452610443565b61045d81848461041e565b505050565b5b81811015610480576104755f8261044a565b600181019050610463565b5050565b601f8211156104c55761049681610364565b61049f84610376565b810160208510156104ae578190505b6104c26104ba85610376565b830182610462565b50505b505050565b5f82821c905092915050565b5f6104e55f19846008026104ca565b1980831691505092915050565b5f6104fd83836104d6565b9150826002028217905092915050565b610516826102d0565b67ffffffffffffffff81111561052f5761052e6102da565b5b6105398254610334565b610544828285610484565b5f60209050601f831160018114610575575f8415610563578287015190505b61056d85826104f2565b8655506105d4565b601f19841661058386610364565b5f5b828110156105aa57848901518255600182019150602085019450602081019050610585565b868310156105c757848901516105c3601f8916826104d6565b8355505b6001600288020188555050505b505050505050565b5f81519050919050565b5f81905092915050565b8281835e5f83830152505050565b5f610608826105dc565b61061281856105e6565b93506106228185602086016105f0565b80840191505092915050565b5f61063982846105fe565b915081905092915050565b61064d816103e2565b8114610657575f5ffd5b50565b5f8151905061066881610644565b92915050565b5f6020828403121561068357610682610236565b5b5f6106908482850161065a565b91505092915050565b60805160a05161231e6106cf5f395f61086801525f818161069d0152818161089901528181610f83015261106f015261231e5ff3fe608060405234801561000f575f5ffd5b50600436106101c2575f3560e01c806370a08231116100f7578063ba08765211610095578063ce96cb771161006f578063ce96cb77146105da578063d905777e1461060a578063dd62ed3e1461063a578063ef8b30f71461066a576101c2565b8063ba0876521461054a578063c63d75b61461057a578063c6e6f592146105aa576101c2565b806395d89b41116100d157806395d89b411461049c578063a9059cbb146104ba578063b3d7f6b9146104ea578063b460af941461051a576101c2565b806370a082311461040c578063934160a11461043c57806394bf804d1461046c576101c2565b8063307a5ef411610164578063402d267d1161013e578063402d267d1461034c578063488355941461037c5780634cdad506146103ac5780636e553f65146103dc576101c2565b8063307a5ef4146102e0578063313ce5671461031057806338d52e0f1461032e576101c2565b8063095ea7b3116101a0578063095ea7b3146102325780630a28a4771461026257806318160ddd1461029257806323b872dd146102b0576101c2565b806301e1d114146101c657806306fdde03146101e457806307a2d13a14610202575b5f5ffd5b6101ce61069a565b6040516101db9190611ade565b60405180910390f35b6101ec610738565b6040516101f99190611b67565b60405180910390f35b61021c60048036038101906102179190611bb5565b6107c8565b6040516102299190611ade565b60405180910390f35b61024c60048036038101906102479190611c3a565b6107da565b6040516102599190611c92565b60405180910390f35b61027c60048036038101906102779190611bb5565b6107fc565b6040516102899190611ade565b60405180910390f35b61029a61080f565b6040516102a79190611ade565b60405180910390f35b6102ca60048036038101906102c59190611cab565b610818565b6040516102d79190611c92565b60405180910390f35b6102fa60048036038101906102f59190611cfb565b610846565b6040516103079190611ade565b60405180910390f35b61031861085d565b6040516103259190611d66565b60405180910390f35b610336610896565b6040516103439190611d8e565b60405180910390f35b61036660048036038101906103619190611da7565b6108bd565b6040516103739190611ade565b60405180910390f35b61039660048036038101906103919190611dd2565b6108e6565b6040516103a39190611ade565b60405180910390f35b6103c660048036038101906103c19190611bb5565b6108fb565b6040516103d39190611ade565b60405180910390f35b6103f660048036038101906103f19190611dd2565b61090d565b6040516104039190611ade565b60405180910390f35b61042660048036038101906104219190611da7565b61098d565b6040516104339190611ade565b60405180910390f35b61045660048036038101906104519190611cfb565b6109d2565b6040516104639190611ade565b60405180910390f35b61048660048036038101906104819190611dd2565b6109e9565b6040516104939190611ade565b60405180910390f35b6104a4610a69565b6040516104b19190611b67565b60405180910390f35b6104d460048036038101906104cf9190611c3a565b610af9565b6040516104e19190611c92565b60405180910390f35b61050460048036038101906104ff9190611bb5565b610b1b565b6040516105119190611ade565b60405180910390f35b610534600480360381019061052f9190611cfb565b610b2e565b6040516105419190611ade565b60405180910390f35b610564600480360381019061055f9190611cfb565b610bb0565b6040516105719190611ade565b60405180910390f35b610594600480360381019061058f9190611da7565b610c32565b6040516105a19190611ade565b60405180910390f35b6105c460048036038101906105bf9190611bb5565b610c5b565b6040516105d19190611ade565b60405180910390f35b6105f460048036038101906105ef9190611da7565b610c6d565b6040516106019190611ade565b60405180910390f35b610624600480360381019061061f9190611da7565b610c87565b6040516106319190611ade565b60405180910390f35b610654600480360381019061064f9190611e10565b610c98565b6040516106619190611ade565b60405180910390f35b610684600480360381019061067f9190611bb5565b610d1a565b6040516106919190611ade565b60405180910390f35b5f7f000000000000000000000000000000000000000000000000000000000000000073ffffffffffffffffffffffffffffffffffffffff166370a08231306040518263ffffffff1660e01b81526004016106f49190611d8e565b602060405180830381865afa15801561070f573d5f5f3e3d5ffd5b505050506040513d601f19601f820116820180604052508101906107339190611e62565b905090565b60606003805461074790611eba565b80601f016020809104026020016040519081016040528092919081815260200182805461077390611eba565b80156107be5780601f10610795576101008083540402835291602001916107be565b820191905f5260205f20905b8154815290600101906020018083116107a157829003601f168201915b5050505050905090565b5f6107d3825f610d2c565b9050919050565b5f5f6107e4610d84565b90506107f1818585610d8b565b600191505092915050565b5f610808826001610d9d565b9050919050565b5f600254905090565b5f5f610822610d84565b905061082f858285610df5565b61083a858585610e87565b60019150509392505050565b5f610852848484610bb0565b505f90509392505050565b5f610866610f77565b7f00000000000000000000000000000000000000000000000000000000000000006108919190611f17565b905090565b5f7f0000000000000000000000000000000000000000000000000000000000000000905090565b5f7fffffffffffffffffffffffffffffffffffffffffffffffffffffffffffffffff9050919050565b5f6108f1838361090d565b505f905092915050565b5f610906825f610d2c565b9050919050565b5f5f610918836108bd565b905080841115610963578284826040517f79012fb200000000000000000000000000000000000000000000000000000000815260040161095a93929190611f4b565b60405180910390fd5b5f61096d85610d1a565b905061098261097a610d84565b858784610f7e565b809250505092915050565b5f5f5f8373ffffffffffffffffffffffffffffffffffffffff1673ffffffffffffffffffffffffffffffffffffffff1681526020019081526020015f20549050919050565b5f6109de848484610b2e565b505f90509392505050565b5f5f6109f483610c32565b905080841115610a3f578284826040517f284ff667000000000000000000000000000000000000000000000000000000008152600401610a3693929190611f4b565b60405180910390fd5b5f610a4985610b1b565b9050610a5e610a56610d84565b858388610f7e565b809250505092915050565b606060048054610a7890611eba565b80601f0160208091040260200160405190810160405280929190818152602001828054610aa490611eba565b8015610aef5780601f10610ac657610100808354040283529160200191610aef565b820191905f5260205f20905b815481529060010190602001808311610ad257829003601f168201915b5050505050905090565b5f5f610b03610d84565b9050610b10818585610e87565b600191505092915050565b5f610b27826001610d2c565b9050919050565b5f5f610b3983610c6d565b905080851115610b84578285826040517ffe9cceec000000000000000000000000000000000000000000000000000000008152600401610b7b93929190611f4b565b60405180910390fd5b5f610b8e866107fc565b9050610ba4610b9b610d84565b86868985611021565b80925050509392505050565b5f5f610bbb83610c87565b905080851115610c06578285826040517fb94abeec000000000000000000000000000000000000000000000000000000008152600401610bfd93929190611f4b565b60405180910390fd5b5f610c10866108fb565b9050610c26610c1d610d84565b8686848a611021565b80925050509392505050565b5f7fffffffffffffffffffffffffffffffffffffffffffffffffffffffffffffffff9050919050565b5f610c66825f610d9d565b9050919050565b5f610c80610c7a8361098d565b5f610d2c565b9050919050565b5f610c918261098d565b9050919050565b5f60015f8473ffffffffffffffffffffffffffffffffffffffff1673ffffffffffffffffffffffffffffffffffffffff1681526020019081526020015f205f8373ffffffffffffffffffffffffffffffffffffffff1673ffffffffffffffffffffffffffffffffffffffff1681526020019081526020015f2054905092915050565b5f610d25825f610d9d565b9050919050565b5f610d7c6001610d3a61069a565b610d449190611f80565b610d4c610f77565b600a610d5891906120e2565b610d6061080f565b610d6a9190611f80565b848661111a909392919063ffffffff16565b905092915050565b5f33905090565b610d98838383600161116f565b505050565b5f610ded610da9610f77565b600a610db591906120e2565b610dbd61080f565b610dc79190611f80565b6001610dd161069a565b610ddb9190611f80565b848661111a909392919063ffffffff16565b905092915050565b5f610e008484610c98565b90507fffffffffffffffffffffffffffffffffffffffffffffffffffffffffffffffff8114610e815781811015610e72578281836040517ffb8f41b2000000000000000000000000000000000000000000000000000000008152600401610e6993929190611f4b565b60405180910390fd5b610e8084848484035f61116f565b5b50505050565b5f73ffffffffffffffffffffffffffffffffffffffff168373ffffffffffffffffffffffffffffffffffffffff1603610ef7575f6040517f96c6fd1e000000000000000000000000000000000000000000000000000000008152600401610eee9190611d8e565b60405180910390fd5b5f73ffffffffffffffffffffffffffffffffffffffff168273ffffffffffffffffffffffffffffffffffffffff1603610f67575f6040517fec442f05000000000000000000000000000000000000000000000000000000008152600401610f5e9190611d8e565b60405180910390fd5b610f7283838361133e565b505050565b5f5f905090565b610faa7f0000000000000000000000000000000000000000000000000000000000000000853085611557565b610fb483826115d9565b8273ffffffffffffffffffffffffffffffffffffffff168473ffffffffffffffffffffffffffffffffffffffff167fdcbc1c05240f31ff3ad067ef1ee35ce4997762752e3a095284754544f4c709d7848460405161101392919061212c565b60405180910390a350505050565b8273ffffffffffffffffffffffffffffffffffffffff168573ffffffffffffffffffffffffffffffffffffffff16146110605761105f838683610df5565b5b61106a8382611658565b6110957f000000000000000000000000000000000000000000000000000000000000000085846116d7565b8273ffffffffffffffffffffffffffffffffffffffff168473ffffffffffffffffffffffffffffffffffffffff168673ffffffffffffffffffffffffffffffffffffffff167ffbde797d201c681b91056529119e0b02407c7bb96a4a2c75c01fc9667232c8db858560405161110b92919061212c565b60405180910390a45050505050565b5f5f611127868686611756565b905061113283611855565b801561114e57505f848061114957611148612153565b5b868809115b15611163576001816111609190611f80565b90505b80915050949350505050565b5f73ffffffffffffffffffffffffffffffffffffffff168473ffffffffffffffffffffffffffffffffffffffff16036111df575f6040517fe602df050000000000000000000000000000000000000000000000000000000081526004016111d69190611d8e565b60405180910390fd5b5f73ffffffffffffffffffffffffffffffffffffffff168373ffffffffffffffffffffffffffffffffffffffff160361124f575f6040517f94280d620000000000000000000000000000000000000000000000000000000081526004016112469190611d8e565b60405180910390fd5b8160015f8673ffffffffffffffffffffffffffffffffffffffff1673ffffffffffffffffffffffffffffffffffffffff1681526020019081526020015f205f8573ffffffffffffffffffffffffffffffffffffffff1673ffffffffffffffffffffffffffffffffffffffff1681526020019081526020015f20819055508015611338578273ffffffffffffffffffffffffffffffffffffffff168473ffffffffffffffffffffffffffffffffffffffff167f8c5be1e5ebec7d5bd14f71427d1e84f3dd0314c0f7b2291e5b200ac8c7c3b9258460405161132f9190611ade565b60405180910390a35b50505050565b5f73ffffffffffffffffffffffffffffffffffffffff168373ffffffffffffffffffffffffffffffffffffffff160361138e578060025f8282546113829190611f80565b9250508190555061145c565b5f5f5f8573ffffffffffffffffffffffffffffffffffffffff1673ffffffffffffffffffffffffffffffffffffffff1681526020019081526020015f2054905081811015611417578381836040517fe450d38c00000000000000000000000000000000000000000000000000000000815260040161140e93929190611f4b565b60405180910390fd5b8181035f5f8673ffffffffffffffffffffffffffffffffffffffff1673ffffffffffffffffffffffffffffffffffffffff1681526020019081526020015f2081905550505b5f73ffffffffffffffffffffffffffffffffffffffff168273ffffffffffffffffffffffffffffffffffffffff16036114a3578060025f82825403925050819055506114ed565b805f5f8473ffffffffffffffffffffffffffffffffffffffff1673ffffffffffffffffffffffffffffffffffffffff1681526020019081526020015f205f82825401925050819055505b8173ffffffffffffffffffffffffffffffffffffffff168373ffffffffffffffffffffffffffffffffffffffff167fddf252ad1be2c89b69c2b068fc378daa952ba7f163c4a11628f55a4df523b3ef8360405161154a9190611ade565b60405180910390a3505050565b6115d3848573ffffffffffffffffffffffffffffffffffffffff166323b872dd86868660405160240161158c93929190612180565b604051602081830303815290604052915060e01b6020820180517bffffffffffffffffffffffffffffffffffffffffffffffffffffffff8381831617835250505050611882565b50505050565b5f73ffffffffffffffffffffffffffffffffffffffff168273ffffffffffffffffffffffffffffffffffffffff1603611649575f6040517fec442f050000000000000000000000000000000000000000000000000000000081526004016116409190611d8e565b60405180910390fd5b6116545f838361133e565b5050565b5f73ffffffffffffffffffffffffffffffffffffffff168273ffffffffffffffffffffffffffffffffffffffff16036116c8575f6040517f96c6fd1e0000000000000000000000000000000000000000000000000000000081526004016116bf9190611d8e565b60405180910390fd5b6116d3825f8361133e565b5050565b611751838473ffffffffffffffffffffffffffffffffffffffff1663a9059cbb858560405160240161170a9291906121b5565b604051602081830303815290604052915060e01b6020820180517bffffffffffffffffffffffffffffffffffffffffffffffffffffffff8381831617835250505050611882565b505050565b5f5f83850290505f5f19858709828110838203039150505f810361178e5783828161178457611783612153565b5b049250505061184e565b8084116117c7576040517f227bc15300000000000000000000000000000000000000000000000000000000815260040160405180910390fd5b5f8486880990508281118203915080830392505f855f038616905080860495508084049350600181825f0304019050808302841793505f600287600302189050808702600203810290508087026002038102905080870260020381029050808702600203810290508087026002038102905080870260020381029050808502955050505050505b9392505050565b5f6001600283600381111561186d5761186c6121dc565b5b6118779190612209565b60ff16149050919050565b5f6118ac828473ffffffffffffffffffffffffffffffffffffffff1661191790919063ffffffff16565b90505f8151141580156118d05750808060200190518101906118ce9190612263565b155b1561191257826040517f5274afe70000000000000000000000000000000000000000000000000000000081526004016119099190611d8e565b60405180910390fd5b505050565b606061192483835f61192c565b905092915050565b60608147101561197357306040517fcd78605900000000000000000000000000000000000000000000000000000000815260040161196a9190611d8e565b60405180910390fd5b5f5f8573ffffffffffffffffffffffffffffffffffffffff16848660405161199b91906122d2565b5f6040518083038185875af1925050503d805f81146119d5576040519150601f19603f3d011682016040523d82523d5f602084013e6119da565b606091505b50915091506119ea8683836119f5565b925050509392505050565b606082611a0a57611a0582611a82565b611a7a565b5f8251148015611a3057505f8473ffffffffffffffffffffffffffffffffffffffff163b145b15611a7257836040517f9996b315000000000000000000000000000000000000000000000000000000008152600401611a699190611d8e565b60405180910390fd5b819050611a7b565b5b9392505050565b5f81511115611a945780518082602001fd5b6040517f1425ea4200000000000000000000000000000000000000000000000000000000815260040160405180910390fd5b5f819050919050565b611ad881611ac6565b82525050565b5f602082019050611af15f830184611acf565b92915050565b5f81519050919050565b5f82825260208201905092915050565b8281835e5f83830152505050565b5f601f19601f8301169050919050565b5f611b3982611af7565b611b438185611b01565b9350611b53818560208601611b11565b611b5c81611b1f565b840191505092915050565b5f6020820190508181035f830152611b7f8184611b2f565b905092915050565b5f5ffd5b611b9481611ac6565b8114611b9e575f5ffd5b50565b5f81359050611baf81611b8b565b92915050565b5f60208284031215611bca57611bc9611b87565b5b5f611bd784828501611ba1565b91505092915050565b5f73ffffffffffffffffffffffffffffffffffffffff82169050919050565b5f611c0982611be0565b9050919050565b611c1981611bff565b8114611c23575f5ffd5b50565b5f81359050611c3481611c10565b92915050565b5f5f60408385031215611c5057611c4f611b87565b5b5f611c5d85828601611c26565b9250506020611c6e85828601611ba1565b9150509250929050565b5f8115159050919050565b611c8c81611c78565b82525050565b5f602082019050611ca55f830184611c83565b92915050565b5f5f5f60608486031215611cc257611cc1611b87565b5b5f611ccf86828701611c26565b9350506020611ce086828701611c26565b9250506040611cf186828701611ba1565b9150509250925092565b5f5f5f60608486031215611d1257611d11611b87565b5b5f611d1f86828701611ba1565b9350506020611d3086828701611c26565b9250506040611d4186828701611c26565b9150509250925092565b5f60ff82169050919050565b611d6081611d4b565b82525050565b5f602082019050611d795f830184611d57565b92915050565b611d8881611bff565b82525050565b5f602082019050611da15f830184611d7f565b92915050565b5f60208284031215611dbc57611dbb611b87565b5b5f611dc984828501611c26565b91505092915050565b5f5f60408385031215611de857611de7611b87565b5b5f611df585828601611ba1565b9250506020611e0685828601611c26565b9150509250929050565b5f5f60408385031215611e2657611e25611b87565b5b5f611e3385828601611c26565b9250506020611e4485828601611c26565b9150509250929050565b5f81519050611e5c81611b8b565b92915050565b5f60208284031215611e7757611e76611b87565b5b5f611e8484828501611e4e565b91505092915050565b7f4e487b71000000000000000000000000000000000000000000000000000000005f52602260045260245ffd5b5f6002820490506001821680611ed157607f821691505b602082108103611ee457611ee3611e8d565b5b50919050565b7f4e487b71000000000000000000000000000000000000000000000000000000005f52601160045260245ffd5b5f611f2182611d4b565b9150611f2c83611d4b565b9250828201905060ff811115611f4557611f44611eea565b5b92915050565b5f606082019050611f5e5f830186611d7f565b611f6b6020830185611acf565b611f786040830184611acf565b949350505050565b5f611f8a82611ac6565b9150611f9583611ac6565b9250828201905080821115611fad57611fac611eea565b5b92915050565b5f8160011c9050919050565b5f5f8291508390505b600185111561200857808604811115611fe457611fe3611eea565b5b6001851615611ff35780820291505b808102905061200185611fb3565b9450611fc8565b94509492505050565b5f8261202057600190506120db565b8161202d575f90506120db565b8160018114612043576002811461204d5761207c565b60019150506120db565b60ff84111561205f5761205e611eea565b5b8360020a91508482111561207657612075611eea565b5b506120db565b5060208310610133831016604e8410600b84101617156120b15782820a9050838111156120ac576120ab611eea565b5b6120db565b6120be8484846001611fbf565b925090508184048111156120d5576120d4611eea565b5b81810290505b9392505050565b5f6120ec82611ac6565b91506120f783611d4b565b92506121247fffffffffffffffffffffffffffffffffffffffffffffffffffffffffffffffff8484612011565b905092915050565b5f60408201905061213f5f830185611acf565b61214c6020830184611acf565b9392505050565b7f4e487b71000000000000000000000000000000000000000000000000000000005f52601260045260245ffd5b5f6060820190506121935f830186611d7f565b6121a06020830185611d7f565b6121ad6040830184611acf565b949350505050565b5f6040820190506121c85f830185611d7f565b6121d56020830184611acf565b9392505050565b7f4e487b71000000000000000000000000000000000000000000000000000000005f52602160045260245ffd5b5f61221382611d4b565b915061221e83611d4b565b92508261222e5761222d612153565b5b828206905092915050565b61224281611c78565b811461224c575f5ffd5b50565b5f8151905061225d81612239565b92915050565b5f6020828403121561227857612277611b87565b5b5f6122858482850161224f565b91505092915050565b5f81519050919050565b5f81905092915050565b5f6122ac8261228e565b6122b68185612298565b93506122c6818560208601611b11565b80840191505092915050565b5f6122dd82846122a2565b91508190509291505056fea264697066735822122060153a22f989ceaecd3ec775a90acc93db3bedb47d12056d5591c3cbed4efefa64736f6c634300081b0033",
					"opcodes": "PUSH1 0xC0 PUSH1 0x40 MSTORE CALLVALUE DUP1 ISZERO PUSH2 0xF JUMPI PUSH0 PUSH0 REVERT JUMPDEST POP PUSH1 0x40 MLOAD PUSH2 0x29ED CODESIZE SUB DUP1 PUSH2 0x29ED DUP4 CODECOPY DUP2 DUP2 ADD PUSH1 0x40 MSTORE DUP2 ADD SWAP1 PUSH2 0x31 SWAP2 SWAP1 PUSH2 0x2A5 JUMP JUMPDEST DUP1 PUSH1 0x40 MLOAD DUP1 PUSH1 0x40 ADD PUSH1 0x40 MSTORE DUP1 PUSH1 0x5 DUP2 MSTORE PUSH1 0x20 ADD PUSH32 0x576F546970000000000000000000000000000000000000000000000000000000 DUP2 MSTORE POP PUSH1 0x40 MLOAD DUP1 PUSH1 0x40 ADD PUSH1 0x40 MSTORE DUP1 PUSH1 0x3 DUP2 MSTORE PUSH1 0x20 ADD PUSH32 0x5754500000000000000000000000000000000000000000000000000000000000 DUP2 MSTORE POP DUP2 PUSH1 0x3 SWAP1 DUP2 PUSH2 0xAD SWAP2 SWAP1 PUSH2 0x50D JUMP JUMPDEST POP DUP1 PUSH1 0x4 SWAP1 DUP2 PUSH2 0xBD SWAP2 SWAP1 PUSH2 0x50D JUMP JUMPDEST POP POP POP PUSH0 PUSH0 PUSH2 0xD1 DUP4 PUSH2 0x12D PUSH1 0x20 SHL PUSH1 0x20 SHR JUMP JUMPDEST SWAP2 POP SWAP2 POP DUP2 PUSH2 0xE1 JUMPI PUSH1 0x12 PUSH2 0xE3 JUMP JUMPDEST DUP1 JUMPDEST PUSH1 0xFF AND PUSH1 0xA0 DUP2 PUSH1 0xFF AND DUP2 MSTORE POP POP DUP3 PUSH20 0xFFFFFFFFFFFFFFFFFFFFFFFFFFFFFFFFFFFFFFFF AND PUSH1 0x80 DUP2 PUSH20 0xFFFFFFFFFFFFFFFFFFFFFFFFFFFFFFFFFFFFFFFF AND DUP2 MSTORE POP POP POP POP POP POP PUSH2 0x699 JUMP JUMPDEST PUSH0 PUSH0 PUSH0 PUSH0 DUP5 PUSH20 0xFFFFFFFFFFFFFFFFFFFFFFFFFFFFFFFFFFFFFFFF AND PUSH1 0x40 MLOAD PUSH1 0x24 ADD PUSH1 0x40 MLOAD PUSH1 0x20 DUP2 DUP4 SUB SUB DUP2 MSTORE SWAP1 PUSH1 0x40 MSTORE PUSH4 0x313CE567 PUSH1 0xE0 SHL PUSH1 0x20 DUP3 ADD DUP1 MLOAD PUSH28 0xFFFFFFFFFFFFFFFFFFFFFFFFFFFFFFFFFFFFFFFFFFFFFFFFFFFFFFFF DUP4 DUP2 DUP4 AND OR DUP4 MSTORE POP POP POP POP PUSH1 0x40 MLOAD PUSH2 0x1A0 SWAP2 SWAP1 PUSH2 0x62E JUMP JUMPDEST PUSH0 PUSH1 0x40 MLOAD DUP1 DUP4 SUB DUP2 DUP6 GAS STATICCALL SWAP2 POP POP RETURNDATASIZE DUP1 PUSH0 DUP2 EQ PUSH2 0x1D8 JUMPI PUSH1 0x40 MLOAD SWAP2 POP PUSH1 0x1F NOT PUSH1 0x3F RETURNDATASIZE ADD AND DUP3 ADD PUSH1 0x40 MSTORE RETURNDATASIZE DUP3 MSTORE RETURNDATASIZE PUSH0 PUSH1 0x20 DUP5 ADD RETURNDATACOPY PUSH2 0x1DD JUMP JUMPDEST PUSH1 0x60 SWAP2 POP JUMPDEST POP SWAP2 POP SWAP2 POP DUP2 DUP1 ISZERO PUSH2 0x1F1 JUMPI POP PUSH1 0x20 DUP2 MLOAD LT ISZERO JUMPDEST ISZERO PUSH2 0x228 JUMPI PUSH0 DUP2 DUP1 PUSH1 0x20 ADD SWAP1 MLOAD DUP2 ADD SWAP1 PUSH2 0x20B SWAP2 SWAP1 PUSH2 0x66E JUMP JUMPDEST SWAP1 POP PUSH1 0xFF DUP1 AND DUP2 GT PUSH2 0x226 JUMPI PUSH1 0x1 DUP2 SWAP5 POP SWAP5 POP POP POP POP PUSH2 0x231 JUMP JUMPDEST POP JUMPDEST PUSH0 PUSH0 SWAP4 POP SWAP4 POP POP POP JUMPDEST SWAP2 POP SWAP2 JUMP JUMPDEST PUSH0 PUSH0 REVERT JUMPDEST PUSH0 PUSH20 0xFFFFFFFFFFFFFFFFFFFFFFFFFFFFFFFFFFFFFFFF DUP3 AND SWAP1 POP SWAP2 SWAP1 POP JUMP JUMPDEST PUSH0 PUSH2 0x263 DUP3 PUSH2 0x23A JUMP JUMPDEST SWAP1 POP SWAP2 SWAP1 POP JUMP JUMPDEST PUSH0 PUSH2 0x274 DUP3 PUSH2 0x259 JUMP JUMPDEST SWAP1 POP SWAP2 SWAP1 POP JUMP JUMPDEST PUSH2 0x284 DUP2 PUSH2 0x26A JUMP JUMPDEST DUP2 EQ PUSH2 0x28E JUMPI PUSH0 PUSH0 REVERT JUMPDEST POP JUMP JUMPDEST PUSH0 DUP2 MLOAD SWAP1 POP PUSH2 0x29F DUP2 PUSH2 0x27B JUMP JUMPDEST SWAP3 SWAP2 POP POP JUMP JUMPDEST PUSH0 PUSH1 0x20 DUP3 DUP5 SUB SLT ISZERO PUSH2 0x2BA JUMPI PUSH2 0x2B9 PUSH2 0x236 JUMP JUMPDEST JUMPDEST PUSH0 PUSH2 0x2C7 DUP5 DUP3 DUP6 ADD PUSH2 0x291 JUMP JUMPDEST SWAP2 POP POP SWAP3 SWAP2 POP POP JUMP JUMPDEST PUSH0 DUP2 MLOAD SWAP1 POP SWAP2 SWAP1 POP JUMP JUMPDEST PUSH32 0x4E487B7100000000000000000000000000000000000000000000000000000000 PUSH0 MSTORE PUSH1 0x41 PUSH1 0x4 MSTORE PUSH1 0x24 PUSH0 REVERT JUMPDEST PUSH32 0x4E487B7100000000000000000000000000000000000000000000000000000000 PUSH0 MSTORE PUSH1 0x22 PUSH1 0x4 MSTORE PUSH1 0x24 PUSH0 REVERT JUMPDEST PUSH0 PUSH1 0x2 DUP3 DIV SWAP1 POP PUSH1 0x1 DUP3 AND DUP1 PUSH2 0x34B JUMPI PUSH1 0x7F DUP3 AND SWAP2 POP JUMPDEST PUSH1 0x20 DUP3 LT DUP2 SUB PUSH2 0x35E JUMPI PUSH2 0x35D PUSH2 0x307 JUMP JUMPDEST JUMPDEST POP SWAP2 SWAP1 POP JUMP JUMPDEST PUSH0 DUP2 SWAP1 POP DUP2 PUSH0 MSTORE PUSH1 0x20 PUSH0 KECCAK256 SWAP1 POP SWAP2 SWAP1 POP JUMP JUMPDEST PUSH0 PUSH1 0x20 PUSH1 0x1F DUP4 ADD DIV SWAP1 POP SWAP2 SWAP1 POP JUMP JUMPDEST PUSH0 DUP3 DUP3 SHL SWAP1 POP SWAP3 SWAP2 POP POP JUMP JUMPDEST PUSH0 PUSH1 0x8 DUP4 MUL PUSH2 0x3C0 PUSH32 0xFFFFFFFFFFFFFFFFFFFFFFFFFFFFFFFFFFFFFFFFFFFFFFFFFFFFFFFFFFFFFFFF DUP3 PUSH2 0x385 JUMP JUMPDEST PUSH2 0x3CA DUP7 DUP4 PUSH2 0x385 JUMP JUMPDEST SWAP6 POP DUP1 NOT DUP5 AND SWAP4 POP DUP1 DUP7 AND DUP5 OR SWAP3 POP POP POP SWAP4 SWAP3 POP POP POP JUMP JUMPDEST PUSH0 DUP2 SWAP1 POP SWAP2 SWAP1 POP JUMP JUMPDEST PUSH0 DUP2 SWAP1 POP SWAP2 SWAP1 POP JUMP JUMPDEST PUSH0 PUSH2 0x40E PUSH2 0x409 PUSH2 0x404 DUP5 PUSH2 0x3E2 JUMP JUMPDEST PUSH2 0x3EB JUMP JUMPDEST PUSH2 0x3E2 JUMP JUMPDEST SWAP1 POP SWAP2 SWAP1 POP JUMP JUMPDEST PUSH0 DUP2 SWAP1 POP SWAP2 SWAP1 POP JUMP JUMPDEST PUSH2 0x427 DUP4 PUSH2 0x3F4 JUMP JUMPDEST PUSH2 0x43B PUSH2 0x433 DUP3 PUSH2 0x415 JUMP JUMPDEST DUP5 DUP5 SLOAD PUSH2 0x391 JUMP JUMPDEST DUP3 SSTORE POP POP POP POP JUMP JUMPDEST PUSH0 PUSH0 SWAP1 POP SWAP1 JUMP JUMPDEST PUSH2 0x452 PUSH2 0x443 JUMP JUMPDEST PUSH2 0x45D DUP2 DUP5 DUP5 PUSH2 0x41E JUMP JUMPDEST POP POP POP JUMP JUMPDEST JUMPDEST DUP2 DUP2 LT ISZERO PUSH2 0x480 JUMPI PUSH2 0x475 PUSH0 DUP3 PUSH2 0x44A JUMP JUMPDEST PUSH1 0x1 DUP2 ADD SWAP1 POP PUSH2 0x463 JUMP JUMPDEST POP POP JUMP JUMPDEST PUSH1 0x1F DUP3 GT ISZERO PUSH2 0x4C5 JUMPI PUSH2 0x496 DUP2 PUSH2 0x364 JUMP JUMPDEST PUSH2 0x49F DUP5 PUSH2 0x376 JUMP JUMPDEST DUP2 ADD PUSH1 0x20 DUP6 LT ISZERO PUSH2 0x4AE JUMPI DUP2 SWAP1 POP JUMPDEST PUSH2 0x4C2 PUSH2 0x4BA DUP6 PUSH2 0x376 JUMP JUMPDEST DUP4 ADD DUP3 PUSH2 0x462 JUMP JUMPDEST POP POP JUMPDEST POP POP POP JUMP JUMPDEST PUSH0 DUP3 DUP3 SHR SWAP1 POP SWAP3 SWAP2 POP POP JUMP JUMPDEST PUSH0 PUSH2 0x4E5 PUSH0 NOT DUP5 PUSH1 0x8 MUL PUSH2 0x4CA JUMP JUMPDEST NOT DUP1 DUP4 AND SWAP2 POP POP SWAP3 SWAP2 POP POP JUMP JUMPDEST PUSH0 PUSH2 0x4FD DUP4 DUP4 PUSH2 0x4D6 JUMP JUMPDEST SWAP2 POP DUP3 PUSH1 0x2 MUL DUP3 OR SWAP1 POP SWAP3 SWAP2 POP POP JUMP JUMPDEST PUSH2 0x516 DUP3 PUSH2 0x2D0 JUMP JUMPDEST PUSH8 0xFFFFFFFFFFFFFFFF DUP2 GT ISZERO PUSH2 0x52F JUMPI PUSH2 0x52E PUSH2 0x2DA JUMP JUMPDEST JUMPDEST PUSH2 0x539 DUP3 SLOAD PUSH2 0x334 JUMP JUMPDEST PUSH2 0x544 DUP3 DUP3 DUP6 PUSH2 0x484 JUMP JUMPDEST PUSH0 PUSH1 0x20 SWAP1 POP PUSH1 0x1F DUP4 GT PUSH1 0x1 DUP2 EQ PUSH2 0x575 JUMPI PUSH0 DUP5 ISZERO PUSH2 0x563 JUMPI DUP3 DUP8 ADD MLOAD SWAP1 POP JUMPDEST PUSH2 0x56D DUP6 DUP3 PUSH2 0x4F2 JUMP JUMPDEST DUP7 SSTORE POP PUSH2 0x5D4 JUMP JUMPDEST PUSH1 0x1F NOT DUP5 AND PUSH2 0x583 DUP7 PUSH2 0x364 JUMP JUMPDEST PUSH0 JUMPDEST DUP3 DUP2 LT ISZERO PUSH2 0x5AA JUMPI DUP5 DUP10 ADD MLOAD DUP3 SSTORE PUSH1 0x1 DUP3 ADD SWAP2 POP PUSH1 0x20 DUP6 ADD SWAP5 POP PUSH1 0x20 DUP2 ADD SWAP1 POP PUSH2 0x585 JUMP JUMPDEST DUP7 DUP4 LT ISZERO PUSH2 0x5C7 JUMPI DUP5 DUP10 ADD MLOAD PUSH2 0x5C3 PUSH1 0x1F DUP10 AND DUP3 PUSH2 0x4D6 JUMP JUMPDEST DUP4 SSTORE POP JUMPDEST PUSH1 0x1 PUSH1 0x2 DUP9 MUL ADD DUP9 SSTORE POP POP POP JUMPDEST POP POP POP POP POP POP JUMP JUMPDEST PUSH0 DUP2 MLOAD SWAP1 POP SWAP2 SWAP1 POP JUMP JUMPDEST PUSH0 DUP2 SWAP1 POP SWAP3 SWAP2 POP POP JUMP JUMPDEST DUP3 DUP2 DUP4 MCOPY PUSH0 DUP4 DUP4 ADD MSTORE POP POP POP JUMP JUMPDEST PUSH0 PUSH2 0x608 DUP3 PUSH2 0x5DC JUMP JUMPDEST PUSH2 0x612 DUP2 DUP6 PUSH2 0x5E6 JUMP JUMPDEST SWAP4 POP PUSH2 0x622 DUP2 DUP6 PUSH1 0x20 DUP7 ADD PUSH2 0x5F0 JUMP JUMPDEST DUP1 DUP5 ADD SWAP2 POP POP SWAP3 SWAP2 POP POP JUMP JUMPDEST PUSH0 PUSH2 0x639 DUP3 DUP5 PUSH2 0x5FE JUMP JUMPDEST SWAP2 POP DUP2 SWAP1 POP SWAP3 SWAP2 POP POP JUMP JUMPDEST PUSH2 0x64D DUP2 PUSH2 0x3E2 JUMP JUMPDEST DUP2 EQ PUSH2 0x657 JUMPI PUSH0 PUSH0 REVERT JUMPDEST POP JUMP JUMPDEST PUSH0 DUP2 MLOAD SWAP1 POP PUSH2 0x668 DUP2 PUSH2 0x644 JUMP JUMPDEST SWAP3 SWAP2 POP POP JUMP JUMPDEST PUSH0 PUSH1 0x20 DUP3 DUP5 SUB SLT ISZERO PUSH2 0x683 JUMPI PUSH2 0x682 PUSH2 0x236 JUMP JUMPDEST JUMPDEST PUSH0 PUSH2 0x690 DUP5 DUP3 DUP6 ADD PUSH2 0x65A JUMP JUMPDEST SWAP2 POP POP SWAP3 SWAP2 POP POP JUMP JUMPDEST PUSH1 0x80 MLOAD PUSH1 0xA0 MLOAD PUSH2 0x231E PUSH2 0x6CF PUSH0 CODECOPY PUSH0 PUSH2 0x868 ADD MSTORE PUSH0 DUP2 DUP2 PUSH2 0x69D ADD MSTORE DUP2 DUP2 PUSH2 0x899 ADD MSTORE DUP2 DUP2 PUSH2 0xF83 ADD MSTORE PUSH2 0x106F ADD MSTORE PUSH2 0x231E PUSH0 RETURN INVALID PUSH1 0x80 PUSH1 0x40 MSTORE CALLVALUE DUP1 ISZERO PUSH2 0xF JUMPI PUSH0 PUSH0 REVERT JUMPDEST POP PUSH1 0x4 CALLDATASIZE LT PUSH2 0x1C2 JUMPI PUSH0 CALLDATALOAD PUSH1 0xE0 SHR DUP1 PUSH4 0x70A08231 GT PUSH2 0xF7 JUMPI DUP1 PUSH4 0xBA087652 GT PUSH2 0x95 JUMPI DUP1 PUSH4 0xCE96CB77 GT PUSH2 0x6F JUMPI DUP1 PUSH4 0xCE96CB77 EQ PUSH2 0x5DA JUMPI DUP1 PUSH4 0xD905777E EQ PUSH2 0x60A JUMPI DUP1 PUSH4 0xDD62ED3E EQ PUSH2 0x63A JUMPI DUP1 PUSH4 0xEF8B30F7 EQ PUSH2 0x66A JUMPI PUSH2 0x1C2 JUMP JUMPDEST DUP1 PUSH4 0xBA087652 EQ PUSH2 0x54A JUMPI DUP1 PUSH4 0xC63D75B6 EQ PUSH2 0x57A JUMPI DUP1 PUSH4 0xC6E6F592 EQ PUSH2 0x5AA JUMPI PUSH2 0x1C2 JUMP JUMPDEST DUP1 PUSH4 0x95D89B41 GT PUSH2 0xD1 JUMPI DUP1 PUSH4 0x95D89B41 EQ PUSH2 0x49C JUMPI DUP1 PUSH4 0xA9059CBB EQ PUSH2 0x4BA JUMPI DUP1 PUSH4 0xB3D7F6B9 EQ PUSH2 0x4EA JUMPI DUP1 PUSH4 0xB460AF94 EQ PUSH2 0x51A JUMPI PUSH2 0x1C2 JUMP JUMPDEST DUP1 PUSH4 0x70A08231 EQ PUSH2 0x40C JUMPI DUP1 PUSH4 0x934160A1 EQ PUSH2 0x43C JUMPI DUP1 PUSH4 0x94BF804D EQ PUSH2 0x46C JUMPI PUSH2 0x1C2 JUMP JUMPDEST DUP1 PUSH4 0x307A5EF4 GT PUSH2 0x164 JUMPI DUP1 PUSH4 0x402D267D GT PUSH2 0x13E JUMPI DUP1 PUSH4 0x402D267D EQ PUSH2 0x34C JUMPI DUP1 PUSH4 0x48835594 EQ PUSH2 0x37C JUMPI DUP1 PUSH4 0x4CDAD506 EQ PUSH2 0x3AC JUMPI DUP1 PUSH4 0x6E553F65 EQ PUSH2 0x3DC JUMPI PUSH2 0x1C2 JUMP JUMPDEST DUP1 PUSH4 0x307A5EF4 EQ PUSH2 0x2E0 JUMPI DUP1 PUSH4 0x313CE567 EQ PUSH2 0x310 JUMPI DUP1 PUSH4 0x38D52E0F EQ PUSH2 0x32E JUMPI PUSH2 0x1C2 JUMP JUMPDEST DUP1 PUSH4 0x95EA7B3 GT PUSH2 0x1A0 JUMPI DUP1 PUSH4 0x95EA7B3 EQ PUSH2 0x232 JUMPI DUP1 PUSH4 0xA28A477 EQ PUSH2 0x262 JUMPI DUP1 PUSH4 0x18160DDD EQ PUSH2 0x292 JUMPI DUP1 PUSH4 0x23B872DD EQ PUSH2 0x2B0 JUMPI PUSH2 0x1C2 JUMP JUMPDEST DUP1 PUSH4 0x1E1D114 EQ PUSH2 0x1C6 JUMPI DUP1 PUSH4 0x6FDDE03 EQ PUSH2 0x1E4 JUMPI DUP1 PUSH4 0x7A2D13A EQ PUSH2 0x202 JUMPI JUMPDEST PUSH0 PUSH0 REVERT JUMPDEST PUSH2 0x1CE PUSH2 0x69A JUMP JUMPDEST PUSH1 0x40 MLOAD PUSH2 0x1DB SWAP2 SWAP1 PUSH2 0x1ADE JUMP JUMPDEST PUSH1 0x40 MLOAD DUP1 SWAP2 SUB SWAP1 RETURN JUMPDEST PUSH2 0x1EC PUSH2 0x738 JUMP JUMPDEST PUSH1 0x40 MLOAD PUSH2 0x1F9 SWAP2 SWAP1 PUSH2 0x1B67 JUMP JUMPDEST PUSH1 0x40 MLOAD DUP1 SWAP2 SUB SWAP1 RETURN JUMPDEST PUSH2 0x21C PUSH1 0x4 DUP1 CALLDATASIZE SUB DUP2 ADD SWAP1 PUSH2 0x217 SWAP2 SWAP1 PUSH2 0x1BB5 JUMP JUMPDEST PUSH2 0x7C8 JUMP JUMPDEST PUSH1 0x40 MLOAD PUSH2 0x229 SWAP2 SWAP1 PUSH2 0x1ADE JUMP JUMPDEST PUSH1 0x40 MLOAD DUP1 SWAP2 SUB SWAP1 RETURN JUMPDEST PUSH2 0x24C PUSH1 0x4 DUP1 CALLDATASIZE SUB DUP2 ADD SWAP1 PUSH2 0x247 SWAP2 SWAP1 PUSH2 0x1C3A JUMP JUMPDEST PUSH2 0x7DA JUMP JUMPDEST PUSH1 0x40 MLOAD PUSH2 0x259 SWAP2 SWAP1 PUSH2 0x1C92 JUMP JUMPDEST PUSH1 0x40 MLOAD DUP1 SWAP2 SUB SWAP1 RETURN JUMPDEST PUSH2 0x27C PUSH1 0x4 DUP1 CALLDATASIZE SUB DUP2 ADD SWAP1 PUSH2 0x277 SWAP2 SWAP1 PUSH2 0x1BB5 JUMP JUMPDEST PUSH2 0x7FC JUMP JUMPDEST PUSH1 0x40 MLOAD PUSH2 0x289 SWAP2 SWAP1 PUSH2 0x1ADE JUMP JUMPDEST PUSH1 0x40 MLOAD DUP1 SWAP2 SUB SWAP1 RETURN JUMPDEST PUSH2 0x29A PUSH2 0x80F JUMP JUMPDEST PUSH1 0x40 MLOAD PUSH2 0x2A7 SWAP2 SWAP1 PUSH2 0x1ADE JUMP JUMPDEST PUSH1 0x40 MLOAD DUP1 SWAP2 SUB SWAP1 RETURN JUMPDEST PUSH2 0x2CA PUSH1 0x4 DUP1 CALLDATASIZE SUB DUP2 ADD SWAP1 PUSH2 0x2C5 SWAP2 SWAP1 PUSH2 0x1CAB JUMP JUMPDEST PUSH2 0x818 JUMP JUMPDEST PUSH1 0x40 MLOAD PUSH2 0x2D7 SWAP2 SWAP1 PUSH2 0x1C92 JUMP JUMPDEST PUSH1 0x40 MLOAD DUP1 SWAP2 SUB SWAP1 RETURN JUMPDEST PUSH2 0x2FA PUSH1 0x4 DUP1 CALLDATASIZE SUB DUP2 ADD SWAP1 PUSH2 0x2F5 SWAP2 SWAP1 PUSH2 0x1CFB JUMP JUMPDEST PUSH2 0x846 JUMP JUMPDEST PUSH1 0x40 MLOAD PUSH2 0x307 SWAP2 SWAP1 PUSH2 0x1ADE JUMP JUMPDEST PUSH1 0x40 MLOAD DUP1 SWAP2 SUB SWAP1 RETURN JUMPDEST PUSH2 0x318 PUSH2 0x85D JUMP JUMPDEST PUSH1 0x40 MLOAD PUSH2 0x325 SWAP2 SWAP1 PUSH2 0x1D66 JUMP JUMPDEST PUSH1 0x40 MLOAD DUP1 SWAP2 SUB SWAP1 RETURN JUMPDEST PUSH2 0x336 PUSH2 0x896 JUMP JUMPDEST PUSH1 0x40 MLOAD PUSH2 0x343 SWAP2 SWAP1 PUSH2 0x1D8E JUMP JUMPDEST PUSH1 0x40 MLOAD DUP1 SWAP2 SUB SWAP1 RETURN JUMPDEST PUSH2 0x366 PUSH1 0x4 DUP1 CALLDATASIZE SUB DUP2 ADD SWAP1 PUSH2 0x361 SWAP2 SWAP1 PUSH2 0x1DA7 JUMP JUMPDEST PUSH2 0x8BD JUMP JUMPDEST PUSH1 0x40 MLOAD PUSH2 0x373 SWAP2 SWAP1 PUSH2 0x1ADE JUMP JUMPDEST PUSH1 0x40 MLOAD DUP1 SWAP2 SUB SWAP1 RETURN JUMPDEST PUSH2 0x396 PUSH1 0x4 DUP1 CALLDATASIZE SUB DUP2 ADD SWAP1 PUSH2 0x391 SWAP2 SWAP1 PUSH2 0x1DD2 JUMP JUMPDEST PUSH2 0x8E6 JUMP JUMPDEST PUSH1 0x40 MLOAD PUSH2 0x3A3 SWAP2 SWAP1 PUSH2 0x1ADE JUMP JUMPDEST PUSH1 0x40 MLOAD DUP1 SWAP2 SUB SWAP1 RETURN JUMPDEST PUSH2 0x3C6 PUSH1 0x4 DUP1 CALLDATASIZE SUB DUP2 ADD SWAP1 PUSH2 0x3C1 SWAP2 SWAP1 PUSH2 0x1BB5 JUMP JUMPDEST PUSH2 0x8FB JUMP JUMPDEST PUSH1 0x40 MLOAD PUSH2 0x3D3 SWAP2 SWAP1 PUSH2 0x1ADE JUMP JUMPDEST PUSH1 0x40 MLOAD DUP1 SWAP2 SUB SWAP1 RETURN JUMPDEST PUSH2 0x3F6 PUSH1 0x4 DUP1 CALLDATASIZE SUB DUP2 ADD SWAP1 PUSH2 0x3F1 SWAP2 SWAP1 PUSH2 0x1DD2 JUMP JUMPDEST PUSH2 0x90D JUMP JUMPDEST PUSH1 0x40 MLOAD PUSH2 0x403 SWAP2 SWAP1 PUSH2 0x1ADE JUMP JUMPDEST PUSH1 0x40 MLOAD DUP1 SWAP2 SUB SWAP1 RETURN JUMPDEST PUSH2 0x426 PUSH1 0x4 DUP1 CALLDATASIZE SUB DUP2 ADD SWAP1 PUSH2 0x421 SWAP2 SWAP1 PUSH2 0x1DA7 JUMP JUMPDEST PUSH2 0x98D JUMP JUMPDEST PUSH1 0x40 MLOAD PUSH2 0x433 SWAP2 SWAP1 PUSH2 0x1ADE JUMP JUMPDEST PUSH1 0x40 MLOAD DUP1 SWAP2 SUB SWAP1 RETURN JUMPDEST PUSH2 0x456 PUSH1 0x4 DUP1 CALLDATASIZE SUB DUP2 ADD SWAP1 PUSH2 0x451 SWAP2 SWAP1 PUSH2 0x1CFB JUMP JUMPDEST PUSH2 0x9D2 JUMP JUMPDEST PUSH1 0x40 MLOAD PUSH2 0x463 SWAP2 SWAP1 PUSH2 0x1ADE JUMP JUMPDEST PUSH1 0x40 MLOAD DUP1 SWAP2 SUB SWAP1 RETURN JUMPDEST PUSH2 0x486 PUSH1 0x4 DUP1 CALLDATASIZE SUB DUP2 ADD SWAP1 PUSH2 0x481 SWAP2 SWAP1 PUSH2 0x1DD2 JUMP JUMPDEST PUSH2 0x9E9 JUMP JUMPDEST PUSH1 0x40 MLOAD PUSH2 0x493 SWAP2 SWAP1 PUSH2 0x1ADE JUMP JUMPDEST PUSH1 0x40 MLOAD DUP1 SWAP2 SUB SWAP1 RETURN JUMPDEST PUSH2 0x4A4 PUSH2 0xA69 JUMP JUMPDEST PUSH1 0x40 MLOAD PUSH2 0x4B1 SWAP2 SWAP1 PUSH2 0x1B67 JUMP JUMPDEST PUSH1 0x40 MLOAD DUP1 SWAP2 SUB SWAP1 RETURN JUMPDEST PUSH2 0x4D4 PUSH1 0x4 DUP1 CALLDATASIZE SUB DUP2 ADD SWAP1 PUSH2 0x4CF SWAP2 SWAP1 PUSH2 0x1C3A JUMP JUMPDEST PUSH2 0xAF9 JUMP JUMPDEST PUSH1 0x40 MLOAD PUSH2 0x4E1 SWAP2 SWAP1 PUSH2 0x1C92 JUMP JUMPDEST PUSH1 0x40 MLOAD DUP1 SWAP2 SUB SWAP1 RETURN JUMPDEST PUSH2 0x504 PUSH1 0x4 DUP1 CALLDATASIZE SUB DUP2 ADD SWAP1 PUSH2 0x4FF SWAP2 SWAP1 PUSH2 0x1BB5 JUMP JUMPDEST PUSH2 0xB1B JUMP JUMPDEST PUSH1 0x40 MLOAD PUSH2 0x511 SWAP2 SWAP1 PUSH2 0x1ADE JUMP JUMPDEST PUSH1 0x40 MLOAD DUP1 SWAP2 SUB SWAP1 RETURN JUMPDEST PUSH2 0x534 PUSH1 0x4 DUP1 CALLDATASIZE SUB DUP2 ADD SWAP1 PUSH2 0x52F SWAP2 SWAP1 PUSH2 0x1CFB JUMP JUMPDEST PUSH2 0xB2E JUMP JUMPDEST PUSH1 0x40 MLOAD PUSH2 0x541 SWAP2 SWAP1 PUSH2 0x1ADE JUMP JUMPDEST PUSH1 0x40 MLOAD DUP1 SWAP2 SUB SWAP1 RETURN JUMPDEST PUSH2 0x564 PUSH1 0x4 DUP1 CALLDATASIZE SUB DUP2 ADD SWAP1 PUSH2 0x55F SWAP2 SWAP1 PUSH2 0x1CFB JUMP JUMPDEST PUSH2 0xBB0 JUMP JUMPDEST PUSH1 0x40 MLOAD PUSH2 0x571 SWAP2 SWAP1 PUSH2 0x1ADE JUMP JUMPDEST PUSH1 0x40 MLOAD DUP1 SWAP2 SUB SWAP1 RETURN JUMPDEST PUSH2 0x594 PUSH1 0x4 DUP1 CALLDATASIZE SUB DUP2 ADD SWAP1 PUSH2 0x58F SWAP2 SWAP1 PUSH2 0x1DA7 JUMP JUMPDEST PUSH2 0xC32 JUMP JUMPDEST PUSH1 0x40 MLOAD PUSH2 0x5A1 SWAP2 SWAP1 PUSH2 0x1ADE JUMP JUMPDEST PUSH1 0x40 MLOAD DUP1 SWAP2 SUB SWAP1 RETURN JUMPDEST PUSH2 0x5C4 PUSH1 0x4 DUP1 CALLDATASIZE SUB DUP2 ADD SWAP1 PUSH2 0x5BF SWAP2 SWAP1 PUSH2 0x1BB5 JUMP JUMPDEST PUSH2 0xC5B JUMP JUMPDEST PUSH1 0x40 MLOAD PUSH2 0x5D1 SWAP2 SWAP1 PUSH2 0x1ADE JUMP JUMPDEST PUSH1 0x40 MLOAD DUP1 SWAP2 SUB SWAP1 RETURN JUMPDEST PUSH2 0x5F4 PUSH1 0x4 DUP1 CALLDATASIZE SUB DUP2 ADD SWAP1 PUSH2 0x5EF SWAP2 SWAP1 PUSH2 0x1DA7 JUMP JUMPDEST PUSH2 0xC6D JUMP JUMPDEST PUSH1 0x40 MLOAD PUSH2 0x601 SWAP2 SWAP1 PUSH2 0x1ADE JUMP JUMPDEST PUSH1 0x40 MLOAD DUP1 SWAP2 SUB SWAP1 RETURN JUMPDEST PUSH2 0x624 PUSH1 0x4 DUP1 CALLDATASIZE SUB DUP2 ADD SWAP1 PUSH2 0x61F SWAP2 SWAP1 PUSH2 0x1DA7 JUMP JUMPDEST PUSH2 0xC87 JUMP JUMPDEST PUSH1 0x40 MLOAD PUSH2 0x631 SWAP2 SWAP1 PUSH2 0x1ADE JUMP JUMPDEST PUSH1 0x40 MLOAD DUP1 SWAP2 SUB SWAP1 RETURN JUMPDEST PUSH2 0x654 PUSH1 0x4 DUP1 CALLDATASIZE SUB DUP2 ADD SWAP1 PUSH2 0x64F SWAP2 SWAP1 PUSH2 0x1E10 JUMP JUMPDEST PUSH2 0xC98 JUMP JUMPDEST PUSH1 0x40 MLOAD PUSH2 0x661 SWAP2 SWAP1 PUSH2 0x1ADE JUMP JUMPDEST PUSH1 0x40 MLOAD DUP1 SWAP2 SUB SWAP1 RETURN JUMPDEST PUSH2 0x684 PUSH1 0x4 DUP1 CALLDATASIZE SUB DUP2 ADD SWAP1 PUSH2 0x67F SWAP2 SWAP1 PUSH2 0x1BB5 JUMP JUMPDEST PUSH2 0xD1A JUMP JUMPDEST PUSH1 0x40 MLOAD PUSH2 0x691 SWAP2 SWAP1 PUSH2 0x1ADE JUMP JUMPDEST PUSH1 0x40 MLOAD DUP1 SWAP2 SUB SWAP1 RETURN JUMPDEST PUSH0 PUSH32 0x0 PUSH20 0xFFFFFFFFFFFFFFFFFFFFFFFFFFFFFFFFFFFFFFFF AND PUSH4 0x70A08231 ADDRESS PUSH1 0x40 MLOAD DUP3 PUSH4 0xFFFFFFFF AND PUSH1 0xE0 SHL DUP2 MSTORE PUSH1 0x4 ADD PUSH2 0x6F4 SWAP2 SWAP1 PUSH2 0x1D8E JUMP JUMPDEST PUSH1 0x20 PUSH1 0x40 MLOAD DUP1 DUP4 SUB DUP2 DUP7 GAS STATICCALL ISZERO DUP1 ISZERO PUSH2 0x70F JUMPI RETURNDATASIZE PUSH0 PUSH0 RETURNDATACOPY RETURNDATASIZE PUSH0 REVERT JUMPDEST POP POP POP POP PUSH1 0x40 MLOAD RETURNDATASIZE PUSH1 0x1F NOT PUSH1 0x1F DUP3 ADD AND DUP3 ADD DUP1 PUSH1 0x40 MSTORE POP DUP2 ADD SWAP1 PUSH2 0x733 SWAP2 SWAP1 PUSH2 0x1E62 JUMP JUMPDEST SWAP1 POP SWAP1 JUMP JUMPDEST PUSH1 0x60 PUSH1 0x3 DUP1 SLOAD PUSH2 0x747 SWAP1 PUSH2 0x1EBA JUMP JUMPDEST DUP1 PUSH1 0x1F ADD PUSH1 0x20 DUP1 SWAP2 DIV MUL PUSH1 0x20 ADD PUSH1 0x40 MLOAD SWAP1 DUP2 ADD PUSH1 0x40 MSTORE DUP1 SWAP3 SWAP2 SWAP1 DUP2 DUP2 MSTORE PUSH1 0x20 ADD DUP3 DUP1 SLOAD PUSH2 0x773 SWAP1 PUSH2 0x1EBA JUMP JUMPDEST DUP1 ISZERO PUSH2 0x7BE JUMPI DUP1 PUSH1 0x1F LT PUSH2 0x795 JUMPI PUSH2 0x100 DUP1 DUP4 SLOAD DIV MUL DUP4 MSTORE SWAP2 PUSH1 0x20 ADD SWAP2 PUSH2 0x7BE JUMP JUMPDEST DUP3 ADD SWAP2 SWAP1 PUSH0 MSTORE PUSH1 0x20 PUSH0 KECCAK256 SWAP1 JUMPDEST DUP2 SLOAD DUP2 MSTORE SWAP1 PUSH1 0x1 ADD SWAP1 PUSH1 0x20 ADD DUP1 DUP4 GT PUSH2 0x7A1 JUMPI DUP3 SWAP1 SUB PUSH1 0x1F AND DUP3 ADD SWAP2 JUMPDEST POP POP POP POP POP SWAP1 POP SWAP1 JUMP JUMPDEST PUSH0 PUSH2 0x7D3 DUP3 PUSH0 PUSH2 0xD2C JUMP JUMPDEST SWAP1 POP SWAP2 SWAP1 POP JUMP JUMPDEST PUSH0 PUSH0 PUSH2 0x7E4 PUSH2 0xD84 JUMP JUMPDEST SWAP1 POP PUSH2 0x7F1 DUP2 DUP6 DUP6 PUSH2 0xD8B JUMP JUMPDEST PUSH1 0x1 SWAP2 POP POP SWAP3 SWAP2 POP POP JUMP JUMPDEST PUSH0 PUSH2 0x808 DUP3 PUSH1 0x1 PUSH2 0xD9D JUMP JUMPDEST SWAP1 POP SWAP2 SWAP1 POP JUMP JUMPDEST PUSH0 PUSH1 0x2 SLOAD SWAP1 POP SWAP1 JUMP JUMPDEST PUSH0 PUSH0 PUSH2 0x822 PUSH2 0xD84 JUMP JUMPDEST SWAP1 POP PUSH2 0x82F DUP6 DUP3 DUP6 PUSH2 0xDF5 JUMP JUMPDEST PUSH2 0x83A DUP6 DUP6 DUP6 PUSH2 0xE87 JUMP JUMPDEST PUSH1 0x1 SWAP2 POP POP SWAP4 SWAP3 POP POP POP JUMP JUMPDEST PUSH0 PUSH2 0x852 DUP5 DUP5 DUP5 PUSH2 0xBB0 JUMP JUMPDEST POP PUSH0 SWAP1 POP SWAP4 SWAP3 POP POP POP JUMP JUMPDEST PUSH0 PUSH2 0x866 PUSH2 0xF77 JUMP JUMPDEST PUSH32 0x0 PUSH2 0x891 SWAP2 SWAP1 PUSH2 0x1F17 JUMP JUMPDEST SWAP1 POP SWAP1 JUMP JUMPDEST PUSH0 PUSH32 0x0 SWAP1 POP SWAP1 JUMP JUMPDEST PUSH0 PUSH32 0xFFFFFFFFFFFFFFFFFFFFFFFFFFFFFFFFFFFFFFFFFFFFFFFFFFFFFFFFFFFFFFFF SWAP1 POP SWAP2 SWAP1 POP JUMP JUMPDEST PUSH0 PUSH2 0x8F1 DUP4 DUP4 PUSH2 0x90D JUMP JUMPDEST POP PUSH0 SWAP1 POP SWAP3 SWAP2 POP POP JUMP JUMPDEST PUSH0 PUSH2 0x906 DUP3 PUSH0 PUSH2 0xD2C JUMP JUMPDEST SWAP1 POP SWAP2 SWAP1 POP JUMP JUMPDEST PUSH0 PUSH0 PUSH2 0x918 DUP4 PUSH2 0x8BD JUMP JUMPDEST SWAP1 POP DUP1 DUP5 GT ISZERO PUSH2 0x963 JUMPI DUP3 DUP5 DUP3 PUSH1 0x40 MLOAD PUSH32 0x79012FB200000000000000000000000000000000000000000000000000000000 DUP2 MSTORE PUSH1 0x4 ADD PUSH2 0x95A SWAP4 SWAP3 SWAP2 SWAP1 PUSH2 0x1F4B JUMP JUMPDEST PUSH1 0x40 MLOAD DUP1 SWAP2 SUB SWAP1 REVERT JUMPDEST PUSH0 PUSH2 0x96D DUP6 PUSH2 0xD1A JUMP JUMPDEST SWAP1 POP PUSH2 0x982 PUSH2 0x97A PUSH2 0xD84 JUMP JUMPDEST DUP6 DUP8 DUP5 PUSH2 0xF7E JUMP JUMPDEST DUP1 SWAP3 POP POP POP SWAP3 SWAP2 POP POP JUMP JUMPDEST PUSH0 PUSH0 PUSH0 DUP4 PUSH20 0xFFFFFFFFFFFFFFFFFFFFFFFFFFFFFFFFFFFFFFFF AND PUSH20 0xFFFFFFFFFFFFFFFFFFFFFFFFFFFFFFFFFFFFFFFF AND DUP2 MSTORE PUSH1 0x20 ADD SWAP1 DUP2 MSTORE PUSH1 0x20 ADD PUSH0 KECCAK256 SLOAD SWAP1 POP SWAP2 SWAP1 POP JUMP JUMPDEST PUSH0 PUSH2 0x9DE DUP5 DUP5 DUP5 PUSH2 0xB2E JUMP JUMPDEST POP PUSH0 SWAP1 POP SWAP4 SWAP3 POP POP POP JUMP JUMPDEST PUSH0 PUSH0 PUSH2 0x9F4 DUP4 PUSH2 0xC32 JUMP JUMPDEST SWAP1 POP DUP1 DUP5 GT ISZERO PUSH2 0xA3F JUMPI DUP3 DUP5 DUP3 PUSH1 0x40 MLOAD PUSH32 0x284FF66700000000000000000000000000000000000000000000000000000000 DUP2 MSTORE PUSH1 0x4 ADD PUSH2 0xA36 SWAP4 SWAP3 SWAP2 SWAP1 PUSH2 0x1F4B JUMP JUMPDEST PUSH1 0x40 MLOAD DUP1 SWAP2 SUB SWAP1 REVERT JUMPDEST PUSH0 PUSH2 0xA49 DUP6 PUSH2 0xB1B JUMP JUMPDEST SWAP1 POP PUSH2 0xA5E PUSH2 0xA56 PUSH2 0xD84 JUMP JUMPDEST DUP6 DUP4 DUP9 PUSH2 0xF7E JUMP JUMPDEST DUP1 SWAP3 POP POP POP SWAP3 SWAP2 POP POP JUMP JUMPDEST PUSH1 0x60 PUSH1 0x4 DUP1 SLOAD PUSH2 0xA78 SWAP1 PUSH2 0x1EBA JUMP JUMPDEST DUP1 PUSH1 0x1F ADD PUSH1 0x20 DUP1 SWAP2 DIV MUL PUSH1 0x20 ADD PUSH1 0x40 MLOAD SWAP1 DUP2 ADD PUSH1 0x40 MSTORE DUP1 SWAP3 SWAP2 SWAP1 DUP2 DUP2 MSTORE PUSH1 0x20 ADD DUP3 DUP1 SLOAD PUSH2 0xAA4 SWAP1 PUSH2 0x1EBA JUMP JUMPDEST DUP1 ISZERO PUSH2 0xAEF JUMPI DUP1 PUSH1 0x1F LT PUSH2 0xAC6 JUMPI PUSH2 0x100 DUP1 DUP4 SLOAD DIV MUL DUP4 MSTORE SWAP2 PUSH1 0x20 ADD SWAP2 PUSH2 0xAEF JUMP JUMPDEST DUP3 ADD SWAP2 SWAP1 PUSH0 MSTORE PUSH1 0x20 PUSH0 KECCAK256 SWAP1 JUMPDEST DUP2 SLOAD DUP2 MSTORE SWAP1 PUSH1 0x1 ADD SWAP1 PUSH1 0x20 ADD DUP1 DUP4 GT PUSH2 0xAD2 JUMPI DUP3 SWAP1 SUB PUSH1 0x1F AND DUP3 ADD SWAP2 JUMPDEST POP POP POP POP POP SWAP1 POP SWAP1 JUMP JUMPDEST PUSH0 PUSH0 PUSH2 0xB03 PUSH2 0xD84 JUMP JUMPDEST SWAP1 POP PUSH2 0xB10 DUP2 DUP6 DUP6 PUSH2 0xE87 JUMP JUMPDEST PUSH1 0x1 SWAP2 POP POP SWAP3 SWAP2 POP POP JUMP JUMPDEST PUSH0 PUSH2 0xB27 DUP3 PUSH1 0x1 PUSH2 0xD2C JUMP JUMPDEST SWAP1 POP SWAP2 SWAP1 POP JUMP JUMPDEST PUSH0 PUSH0 PUSH2 0xB39 DUP4 PUSH2 0xC6D JUMP JUMPDEST SWAP1 POP DUP1 DUP6 GT ISZERO PUSH2 0xB84 JUMPI DUP3 DUP6 DUP3 PUSH1 0x40 MLOAD PUSH32 0xFE9CCEEC00000000000000000000000000000000000000000000000000000000 DUP2 MSTORE PUSH1 0x4 ADD PUSH2 0xB7B SWAP4 SWAP3 SWAP2 SWAP1 PUSH2 0x1F4B JUMP JUMPDEST PUSH1 0x40 MLOAD DUP1 SWAP2 SUB SWAP1 REVERT JUMPDEST PUSH0 PUSH2 0xB8E DUP7 PUSH2 0x7FC JUMP JUMPDEST SWAP1 POP PUSH2 0xBA4 PUSH2 0xB9B PUSH2 0xD84 JUMP JUMPDEST DUP7 DUP7 DUP10 DUP6 PUSH2 0x1021 JUMP JUMPDEST DUP1 SWAP3 POP POP POP SWAP4 SWAP3 POP POP POP JUMP JUMPDEST PUSH0 PUSH0 PUSH2 0xBBB DUP4 PUSH2 0xC87 JUMP JUMPDEST SWAP1 POP DUP1 DUP6 GT ISZERO PUSH2 0xC06 JUMPI DUP3 DUP6 DUP3 PUSH1 0x40 MLOAD PUSH32 0xB94ABEEC00000000000000000000000000000000000000000000000000000000 DUP2 MSTORE PUSH1 0x4 ADD PUSH2 0xBFD SWAP4 SWAP3 SWAP2 SWAP1 PUSH2 0x1F4B JUMP JUMPDEST PUSH1 0x40 MLOAD DUP1 SWAP2 SUB SWAP1 REVERT JUMPDEST PUSH0 PUSH2 0xC10 DUP7 PUSH2 0x8FB JUMP JUMPDEST SWAP1 POP PUSH2 0xC26 PUSH2 0xC1D PUSH2 0xD84 JUMP JUMPDEST DUP7 DUP7 DUP5 DUP11 PUSH2 0x1021 JUMP JUMPDEST DUP1 SWAP3 POP POP POP SWAP4 SWAP3 POP POP POP JUMP JUMPDEST PUSH0 PUSH32 0xFFFFFFFFFFFFFFFFFFFFFFFFFFFFFFFFFFFFFFFFFFFFFFFFFFFFFFFFFFFFFFFF SWAP1 POP SWAP2 SWAP1 POP JUMP JUMPDEST PUSH0 PUSH2 0xC66 DUP3 PUSH0 PUSH2 0xD9D JUMP JUMPDEST SWAP1 POP SWAP2 SWAP1 POP JUMP JUMPDEST PUSH0 PUSH2 0xC80 PUSH2 0xC7A DUP4 PUSH2 0x98D JUMP JUMPDEST PUSH0 PUSH2 0xD2C JUMP JUMPDEST SWAP1 POP SWAP2 SWAP1 POP JUMP JUMPDEST PUSH0 PUSH2 0xC91 DUP3 PUSH2 0x98D JUMP JUMPDEST SWAP1 POP SWAP2 SWAP1 POP JUMP JUMPDEST PUSH0 PUSH1 0x1 PUSH0 DUP5 PUSH20 0xFFFFFFFFFFFFFFFFFFFFFFFFFFFFFFFFFFFFFFFF AND PUSH20 0xFFFFFFFFFFFFFFFFFFFFFFFFFFFFFFFFFFFFFFFF AND DUP2 MSTORE PUSH1 0x20 ADD SWAP1 DUP2 MSTORE PUSH1 0x20 ADD PUSH0 KECCAK256 PUSH0 DUP4 PUSH20 0xFFFFFFFFFFFFFFFFFFFFFFFFFFFFFFFFFFFFFFFF AND PUSH20 0xFFFFFFFFFFFFFFFFFFFFFFFFFFFFFFFFFFFFFFFF AND DUP2 MSTORE PUSH1 0x20 ADD SWAP1 DUP2 MSTORE PUSH1 0x20 ADD PUSH0 KECCAK256 SLOAD SWAP1 POP SWAP3 SWAP2 POP POP JUMP JUMPDEST PUSH0 PUSH2 0xD25 DUP3 PUSH0 PUSH2 0xD9D JUMP JUMPDEST SWAP1 POP SWAP2 SWAP1 POP JUMP JUMPDEST PUSH0 PUSH2 0xD7C PUSH1 0x1 PUSH2 0xD3A PUSH2 0x69A JUMP JUMPDEST PUSH2 0xD44 SWAP2 SWAP1 PUSH2 0x1F80 JUMP JUMPDEST PUSH2 0xD4C PUSH2 0xF77 JUMP JUMPDEST PUSH1 0xA PUSH2 0xD58 SWAP2 SWAP1 PUSH2 0x20E2 JUMP JUMPDEST PUSH2 0xD60 PUSH2 0x80F JUMP JUMPDEST PUSH2 0xD6A SWAP2 SWAP1 PUSH2 0x1F80 JUMP JUMPDEST DUP5 DUP7 PUSH2 0x111A SWAP1 SWAP4 SWAP3 SWAP2 SWAP1 PUSH4 0xFFFFFFFF AND JUMP JUMPDEST SWAP1 POP SWAP3 SWAP2 POP POP JUMP JUMPDEST PUSH0 CALLER SWAP1 POP SWAP1 JUMP JUMPDEST PUSH2 0xD98 DUP4 DUP4 DUP4 PUSH1 0x1 PUSH2 0x116F JUMP JUMPDEST POP POP POP JUMP JUMPDEST PUSH0 PUSH2 0xDED PUSH2 0xDA9 PUSH2 0xF77 JUMP JUMPDEST PUSH1 0xA PUSH2 0xDB5 SWAP2 SWAP1 PUSH2 0x20E2 JUMP JUMPDEST PUSH2 0xDBD PUSH2 0x80F JUMP JUMPDEST PUSH2 0xDC7 SWAP2 SWAP1 PUSH2 0x1F80 JUMP JUMPDEST PUSH1 0x1 PUSH2 0xDD1 PUSH2 0x69A JUMP JUMPDEST PUSH2 0xDDB SWAP2 SWAP1 PUSH2 0x1F80 JUMP JUMPDEST DUP5 DUP7 PUSH2 0x111A SWAP1 SWAP4 SWAP3 SWAP2 SWAP1 PUSH4 0xFFFFFFFF AND JUMP JUMPDEST SWAP1 POP SWAP3 SWAP2 POP POP JUMP JUMPDEST PUSH0 PUSH2 0xE00 DUP5 DUP5 PUSH2 0xC98 JUMP JUMPDEST SWAP1 POP PUSH32 0xFFFFFFFFFFFFFFFFFFFFFFFFFFFFFFFFFFFFFFFFFFFFFFFFFFFFFFFFFFFFFFFF DUP2 EQ PUSH2 0xE81 JUMPI DUP2 DUP2 LT ISZERO PUSH2 0xE72 JUMPI DUP3 DUP2 DUP4 PUSH1 0x40 MLOAD PUSH32 0xFB8F41B200000000000000000000000000000000000000000000000000000000 DUP2 MSTORE PUSH1 0x4 ADD PUSH2 0xE69 SWAP4 SWAP3 SWAP2 SWAP1 PUSH2 0x1F4B JUMP JUMPDEST PUSH1 0x40 MLOAD DUP1 SWAP2 SUB SWAP1 REVERT JUMPDEST PUSH2 0xE80 DUP5 DUP5 DUP5 DUP5 SUB PUSH0 PUSH2 0x116F JUMP JUMPDEST JUMPDEST POP POP POP POP JUMP JUMPDEST PUSH0 PUSH20 0xFFFFFFFFFFFFFFFFFFFFFFFFFFFFFFFFFFFFFFFF AND DUP4 PUSH20 0xFFFFFFFFFFFFFFFFFFFFFFFFFFFFFFFFFFFFFFFF AND SUB PUSH2 0xEF7 JUMPI PUSH0 PUSH1 0x40 MLOAD PUSH32 0x96C6FD1E00000000000000000000000000000000000000000000000000000000 DUP2 MSTORE PUSH1 0x4 ADD PUSH2 0xEEE SWAP2 SWAP1 PUSH2 0x1D8E JUMP JUMPDEST PUSH1 0x40 MLOAD DUP1 SWAP2 SUB SWAP1 REVERT JUMPDEST PUSH0 PUSH20 0xFFFFFFFFFFFFFFFFFFFFFFFFFFFFFFFFFFFFFFFF AND DUP3 PUSH20 0xFFFFFFFFFFFFFFFFFFFFFFFFFFFFFFFFFFFFFFFF AND SUB PUSH2 0xF67 JUMPI PUSH0 PUSH1 0x40 MLOAD PUSH32 0xEC442F0500000000000000000000000000000000000000000000000000000000 DUP2 MSTORE PUSH1 0x4 ADD PUSH2 0xF5E SWAP2 SWAP1 PUSH2 0x1D8E JUMP JUMPDEST PUSH1 0x40 MLOAD DUP1 SWAP2 SUB SWAP1 REVERT JUMPDEST PUSH2 0xF72 DUP4 DUP4 DUP4 PUSH2 0x133E JUMP JUMPDEST POP POP POP JUMP JUMPDEST PUSH0 PUSH0 SWAP1 POP SWAP1 JUMP JUMPDEST PUSH2 0xFAA PUSH32 0x0 DUP6 ADDRESS DUP6 PUSH2 0x1557 JUMP JUMPDEST PUSH2 0xFB4 DUP4 DUP3 PUSH2 0x15D9 JUMP JUMPDEST DUP3 PUSH20 0xFFFFFFFFFFFFFFFFFFFFFFFFFFFFFFFFFFFFFFFF AND DUP5 PUSH20 0xFFFFFFFFFFFFFFFFFFFFFFFFFFFFFFFFFFFFFFFF AND PUSH32 0xDCBC1C05240F31FF3AD067EF1EE35CE4997762752E3A095284754544F4C709D7 DUP5 DUP5 PUSH1 0x40 MLOAD PUSH2 0x1013 SWAP3 SWAP2 SWAP1 PUSH2 0x212C JUMP JUMPDEST PUSH1 0x40 MLOAD DUP1 SWAP2 SUB SWAP1 LOG3 POP POP POP POP JUMP JUMPDEST DUP3 PUSH20 0xFFFFFFFFFFFFFFFFFFFFFFFFFFFFFFFFFFFFFFFF AND DUP6 PUSH20 0xFFFFFFFFFFFFFFFFFFFFFFFFFFFFFFFFFFFFFFFF AND EQ PUSH2 0x1060 JUMPI PUSH2 0x105F DUP4 DUP7 DUP4 PUSH2 0xDF5 JUMP JUMPDEST JUMPDEST PUSH2 0x106A DUP4 DUP3 PUSH2 0x1658 JUMP JUMPDEST PUSH2 0x1095 PUSH32 0x0 DUP6 DUP5 PUSH2 0x16D7 JUMP JUMPDEST DUP3 PUSH20 0xFFFFFFFFFFFFFFFFFFFFFFFFFFFFFFFFFFFFFFFF AND DUP5 PUSH20 0xFFFFFFFFFFFFFFFFFFFFFFFFFFFFFFFFFFFFFFFF AND DUP7 PUSH20 0xFFFFFFFFFFFFFFFFFFFFFFFFFFFFFFFFFFFFFFFF AND PUSH32 0xFBDE797D201C681B91056529119E0B02407C7BB96A4A2C75C01FC9667232C8DB DUP6 DUP6 PUSH1 0x40 MLOAD PUSH2 0x110B SWAP3 SWAP2 SWAP1 PUSH2 0x212C JUMP JUMPDEST PUSH1 0x40 MLOAD DUP1 SWAP2 SUB SWAP1 LOG4 POP POP POP POP POP JUMP JUMPDEST PUSH0 PUSH0 PUSH2 0x1127 DUP7 DUP7 DUP7 PUSH2 0x1756 JUMP JUMPDEST SWAP1 POP PUSH2 0x1132 DUP4 PUSH2 0x1855 JUMP JUMPDEST DUP1 ISZERO PUSH2 0x114E JUMPI POP PUSH0 DUP5 DUP1 PUSH2 0x1149 JUMPI PUSH2 0x1148 PUSH2 0x2153 JUMP JUMPDEST JUMPDEST DUP7 DUP9 MULMOD GT JUMPDEST ISZERO PUSH2 0x1163 JUMPI PUSH1 0x1 DUP2 PUSH2 0x1160 SWAP2 SWAP1 PUSH2 0x1F80 JUMP JUMPDEST SWAP1 POP JUMPDEST DUP1 SWAP2 POP POP SWAP5 SWAP4 POP POP POP POP JUMP JUMPDEST PUSH0 PUSH20 0xFFFFFFFFFFFFFFFFFFFFFFFFFFFFFFFFFFFFFFFF AND DUP5 PUSH20 0xFFFFFFFFFFFFFFFFFFFFFFFFFFFFFFFFFFFFFFFF AND SUB PUSH2 0x11DF JUMPI PUSH0 PUSH1 0x40 MLOAD PUSH32 0xE602DF0500000000000000000000000000000000000000000000000000000000 DUP2 MSTORE PUSH1 0x4 ADD PUSH2 0x11D6 SWAP2 SWAP1 PUSH2 0x1D8E JUMP JUMPDEST PUSH1 0x40 MLOAD DUP1 SWAP2 SUB SWAP1 REVERT JUMPDEST PUSH0 PUSH20 0xFFFFFFFFFFFFFFFFFFFFFFFFFFFFFFFFFFFFFFFF AND DUP4 PUSH20 0xFFFFFFFFFFFFFFFFFFFFFFFFFFFFFFFFFFFFFFFF AND SUB PUSH2 0x124F JUMPI PUSH0 PUSH1 0x40 MLOAD PUSH32 0x94280D6200000000000000000000000000000000000000000000000000000000 DUP2 MSTORE PUSH1 0x4 ADD PUSH2 0x1246 SWAP2 SWAP1 PUSH2 0x1D8E JUMP JUMPDEST PUSH1 0x40 MLOAD DUP1 SWAP2 SUB SWAP1 REVERT JUMPDEST DUP2 PUSH1 0x1 PUSH0 DUP7 PUSH20 0xFFFFFFFFFFFFFFFFFFFFFFFFFFFFFFFFFFFFFFFF AND PUSH20 0xFFFFFFFFFFFFFFFFFFFFFFFFFFFFFFFFFFFFFFFF AND DUP2 MSTORE PUSH1 0x20 ADD SWAP1 DUP2 MSTORE PUSH1 0x20 ADD PUSH0 KECCAK256 PUSH0 DUP6 PUSH20 0xFFFFFFFFFFFFFFFFFFFFFFFFFFFFFFFFFFFFFFFF AND PUSH20 0xFFFFFFFFFFFFFFFFFFFFFFFFFFFFFFFFFFFFFFFF AND DUP2 MSTORE PUSH1 0x20 ADD SWAP1 DUP2 MSTORE PUSH1 0x20 ADD PUSH0 KECCAK256 DUP2 SWAP1 SSTORE POP DUP1 ISZERO PUSH2 0x1338 JUMPI DUP3 PUSH20 0xFFFFFFFFFFFFFFFFFFFFFFFFFFFFFFFFFFFFFFFF AND DUP5 PUSH20 0xFFFFFFFFFFFFFFFFFFFFFFFFFFFFFFFFFFFFFFFF AND PUSH32 0x8C5BE1E5EBEC7D5BD14F71427D1E84F3DD0314C0F7B2291E5B200AC8C7C3B925 DUP5 PUSH1 0x40 MLOAD PUSH2 0x132F SWAP2 SWAP1 PUSH2 0x1ADE JUMP JUMPDEST PUSH1 0x40 MLOAD DUP1 SWAP2 SUB SWAP1 LOG3 JUMPDEST POP POP POP POP JUMP JUMPDEST PUSH0 PUSH20 0xFFFFFFFFFFFFFFFFFFFFFFFFFFFFFFFFFFFFFFFF AND DUP4 PUSH20 0xFFFFFFFFFFFFFFFFFFFFFFFFFFFFFFFFFFFFFFFF AND SUB PUSH2 0x138E JUMPI DUP1 PUSH1 0x2 PUSH0 DUP3 DUP3 SLOAD PUSH2 0x1382 SWAP2 SWAP1 PUSH2 0x1F80 JUMP JUMPDEST SWAP3 POP POP DUP2 SWAP1 SSTORE POP PUSH2 0x145C JUMP JUMPDEST PUSH0 PUSH0 PUSH0 DUP6 PUSH20 0xFFFFFFFFFFFFFFFFFFFFFFFFFFFFFFFFFFFFFFFF AND PUSH20 0xFFFFFFFFFFFFFFFFFFFFFFFFFFFFFFFFFFFFFFFF AND DUP2 MSTORE PUSH1 0x20 ADD SWAP1 DUP2 MSTORE PUSH1 0x20 ADD PUSH0 KECCAK256 SLOAD SWAP1 POP DUP2 DUP2 LT ISZERO PUSH2 0x1417 JUMPI DUP4 DUP2 DUP4 PUSH1 0x40 MLOAD PUSH32 0xE450D38C00000000000000000000000000000000000000000000000000000000 DUP2 MSTORE PUSH1 0x4 ADD PUSH2 0x140E SWAP4 SWAP3 SWAP2 SWAP1 PUSH2 0x1F4B JUMP JUMPDEST PUSH1 0x40 MLOAD DUP1 SWAP2 SUB SWAP1 REVERT JUMPDEST DUP2 DUP2 SUB PUSH0 PUSH0 DUP7 PUSH20 0xFFFFFFFFFFFFFFFFFFFFFFFFFFFFFFFFFFFFFFFF AND PUSH20 0xFFFFFFFFFFFFFFFFFFFFFFFFFFFFFFFFFFFFFFFF AND DUP2 MSTORE PUSH1 0x20 ADD SWAP1 DUP2 MSTORE PUSH1 0x20 ADD PUSH0 KECCAK256 DUP2 SWAP1 SSTORE POP POP JUMPDEST PUSH0 PUSH20 0xFFFFFFFFFFFFFFFFFFFFFFFFFFFFFFFFFFFFFFFF AND DUP3 PUSH20 0xFFFFFFFFFFFFFFFFFFFFFFFFFFFFFFFFFFFFFFFF AND SUB PUSH2 0x14A3 JUMPI DUP1 PUSH1 0x2 PUSH0 DUP3 DUP3 SLOAD SUB SWAP3 POP POP DUP2 SWAP1 SSTORE POP PUSH2 0x14ED JUMP JUMPDEST DUP1 PUSH0 PUSH0 DUP5 PUSH20 0xFFFFFFFFFFFFFFFFFFFFFFFFFFFFFFFFFFFFFFFF AND PUSH20 0xFFFFFFFFFFFFFFFFFFFFFFFFFFFFFFFFFFFFFFFF AND DUP2 MSTORE PUSH1 0x20 ADD SWAP1 DUP2 MSTORE PUSH1 0x20 ADD PUSH0 KECCAK256 PUSH0 DUP3 DUP3 SLOAD ADD SWAP3 POP POP DUP2 SWAP1 SSTORE POP JUMPDEST DUP2 PUSH20 0xFFFFFFFFFFFFFFFFFFFFFFFFFFFFFFFFFFFFFFFF AND DUP4 PUSH20 0xFFFFFFFFFFFFFFFFFFFFFFFFFFFFFFFFFFFFFFFF AND PUSH32 0xDDF252AD1BE2C89B69C2B068FC378DAA952BA7F163C4A11628F55A4DF523B3EF DUP4 PUSH1 0x40 MLOAD PUSH2 0x154A SWAP2 SWAP1 PUSH2 0x1ADE JUMP JUMPDEST PUSH1 0x40 MLOAD DUP1 SWAP2 SUB SWAP1 LOG3 POP POP POP JUMP JUMPDEST PUSH2 0x15D3 DUP5 DUP6 PUSH20 0xFFFFFFFFFFFFFFFFFFFFFFFFFFFFFFFFFFFFFFFF AND PUSH4 0x23B872DD DUP7 DUP7 DUP7 PUSH1 0x40 MLOAD PUSH1 0x24 ADD PUSH2 0x158C SWAP4 SWAP3 SWAP2 SWAP1 PUSH2 0x2180 JUMP JUMPDEST PUSH1 0x40 MLOAD PUSH1 0x20 DUP2 DUP4 SUB SUB DUP2 MSTORE SWAP1 PUSH1 0x40 MSTORE SWAP2 POP PUSH1 0xE0 SHL PUSH1 0x20 DUP3 ADD DUP1 MLOAD PUSH28 0xFFFFFFFFFFFFFFFFFFFFFFFFFFFFFFFFFFFFFFFFFFFFFFFFFFFFFFFF DUP4 DUP2 DUP4 AND OR DUP4 MSTORE POP POP POP POP PUSH2 0x1882 JUMP JUMPDEST POP POP POP POP JUMP JUMPDEST PUSH0 PUSH20 0xFFFFFFFFFFFFFFFFFFFFFFFFFFFFFFFFFFFFFFFF AND DUP3 PUSH20 0xFFFFFFFFFFFFFFFFFFFFFFFFFFFFFFFFFFFFFFFF AND SUB PUSH2 0x1649 JUMPI PUSH0 PUSH1 0x40 MLOAD PUSH32 0xEC442F0500000000000000000000000000000000000000000000000000000000 DUP2 MSTORE PUSH1 0x4 ADD PUSH2 0x1640 SWAP2 SWAP1 PUSH2 0x1D8E JUMP JUMPDEST PUSH1 0x40 MLOAD DUP1 SWAP2 SUB SWAP1 REVERT JUMPDEST PUSH2 0x1654 PUSH0 DUP4 DUP4 PUSH2 0x133E JUMP JUMPDEST POP POP JUMP JUMPDEST PUSH0 PUSH20 0xFFFFFFFFFFFFFFFFFFFFFFFFFFFFFFFFFFFFFFFF AND DUP3 PUSH20 0xFFFFFFFFFFFFFFFFFFFFFFFFFFFFFFFFFFFFFFFF AND SUB PUSH2 0x16C8 JUMPI PUSH0 PUSH1 0x40 MLOAD PUSH32 0x96C6FD1E00000000000000000000000000000000000000000000000000000000 DUP2 MSTORE PUSH1 0x4 ADD PUSH2 0x16BF SWAP2 SWAP1 PUSH2 0x1D8E JUMP JUMPDEST PUSH1 0x40 MLOAD DUP1 SWAP2 SUB SWAP1 REVERT JUMPDEST PUSH2 0x16D3 DUP3 PUSH0 DUP4 PUSH2 0x133E JUMP JUMPDEST POP POP JUMP JUMPDEST PUSH2 0x1751 DUP4 DUP5 PUSH20 0xFFFFFFFFFFFFFFFFFFFFFFFFFFFFFFFFFFFFFFFF AND PUSH4 0xA9059CBB DUP6 DUP6 PUSH1 0x40 MLOAD PUSH1 0x24 ADD PUSH2 0x170A SWAP3 SWAP2 SWAP1 PUSH2 0x21B5 JUMP JUMPDEST PUSH1 0x40 MLOAD PUSH1 0x20 DUP2 DUP4 SUB SUB DUP2 MSTORE SWAP1 PUSH1 0x40 MSTORE SWAP2 POP PUSH1 0xE0 SHL PUSH1 0x20 DUP3 ADD DUP1 MLOAD PUSH28 0xFFFFFFFFFFFFFFFFFFFFFFFFFFFFFFFFFFFFFFFFFFFFFFFFFFFFFFFF DUP4 DUP2 DUP4 AND OR DUP4 MSTORE POP POP POP POP PUSH2 0x1882 JUMP JUMPDEST POP POP POP JUMP JUMPDEST PUSH0 PUSH0 DUP4 DUP6 MUL SWAP1 POP PUSH0 PUSH0 NOT DUP6 DUP8 MULMOD DUP3 DUP2 LT DUP4 DUP3 SUB SUB SWAP2 POP POP PUSH0 DUP2 SUB PUSH2 0x178E JUMPI DUP4 DUP3 DUP2 PUSH2 0x1784 JUMPI PUSH2 0x1783 PUSH2 0x2153 JUMP JUMPDEST JUMPDEST DIV SWAP3 POP POP POP PUSH2 0x184E JUMP JUMPDEST DUP1 DUP5 GT PUSH2 0x17C7 JUMPI PUSH1 0x40 MLOAD PUSH32 0x227BC15300000000000000000000000000000000000000000000000000000000 DUP2 MSTORE PUSH1 0x4 ADD PUSH1 0x40 MLOAD DUP1 SWAP2 SUB SWAP1 REVERT JUMPDEST PUSH0 DUP5 DUP7 DUP9 MULMOD SWAP1 POP DUP3 DUP2 GT DUP3 SUB SWAP2 POP DUP1 DUP4 SUB SWAP3 POP PUSH0 DUP6 PUSH0 SUB DUP7 AND SWAP1 POP DUP1 DUP7 DIV SWAP6 POP DUP1 DUP5 DIV SWAP4 POP PUSH1 0x1 DUP2 DUP3 PUSH0 SUB DIV ADD SWAP1 POP DUP1 DUP4 MUL DUP5 OR SWAP4 POP PUSH0 PUSH1 0x2 DUP8 PUSH1 0x3 MUL XOR SWAP1 POP DUP1 DUP8 MUL PUSH1 0x2 SUB DUP2 MUL SWAP1 POP DUP1 DUP8 MUL PUSH1 0x2 SUB DUP2 MUL SWAP1 POP DUP1 DUP8 MUL PUSH1 0x2 SUB DUP2 MUL SWAP1 POP DUP1 DUP8 MUL PUSH1 0x2 SUB DUP2 MUL SWAP1 POP DUP1 DUP8 MUL PUSH1 0x2 SUB DUP2 MUL SWAP1 POP DUP1 DUP8 MUL PUSH1 0x2 SUB DUP2 MUL SWAP1 POP DUP1 DUP6 MUL SWAP6 POP POP POP POP POP POP JUMPDEST SWAP4 SWAP3 POP POP POP JUMP JUMPDEST PUSH0 PUSH1 0x1 PUSH1 0x2 DUP4 PUSH1 0x3 DUP2 GT ISZERO PUSH2 0x186D JUMPI PUSH2 0x186C PUSH2 0x21DC JUMP JUMPDEST JUMPDEST PUSH2 0x1877 SWAP2 SWAP1 PUSH2 0x2209 JUMP JUMPDEST PUSH1 0xFF AND EQ SWAP1 POP SWAP2 SWAP1 POP JUMP JUMPDEST PUSH0 PUSH2 0x18AC DUP3 DUP5 PUSH20 0xFFFFFFFFFFFFFFFFFFFFFFFFFFFFFFFFFFFFFFFF AND PUSH2 0x1917 SWAP1 SWAP2 SWAP1 PUSH4 0xFFFFFFFF AND JUMP JUMPDEST SWAP1 POP PUSH0 DUP2 MLOAD EQ ISZERO DUP1 ISZERO PUSH2 0x18D0 JUMPI POP DUP1 DUP1 PUSH1 0x20 ADD SWAP1 MLOAD DUP2 ADD SWAP1 PUSH2 0x18CE SWAP2 SWAP1 PUSH2 0x2263 JUMP JUMPDEST ISZERO JUMPDEST ISZERO PUSH2 0x1912 JUMPI DUP3 PUSH1 0x40 MLOAD PUSH32 0x5274AFE700000000000000000000000000000000000000000000000000000000 DUP2 MSTORE PUSH1 0x4 ADD PUSH2 0x1909 SWAP2 SWAP1 PUSH2 0x1D8E JUMP JUMPDEST PUSH1 0x40 MLOAD DUP1 SWAP2 SUB SWAP1 REVERT JUMPDEST POP POP POP JUMP JUMPDEST PUSH1 0x60 PUSH2 0x1924 DUP4 DUP4 PUSH0 PUSH2 0x192C JUMP JUMPDEST SWAP1 POP SWAP3 SWAP2 POP POP JUMP JUMPDEST PUSH1 0x60 DUP2 SELFBALANCE LT ISZERO PUSH2 0x1973 JUMPI ADDRESS PUSH1 0x40 MLOAD PUSH32 0xCD78605900000000000000000000000000000000000000000000000000000000 DUP2 MSTORE PUSH1 0x4 ADD PUSH2 0x196A SWAP2 SWAP1 PUSH2 0x1D8E JUMP JUMPDEST PUSH1 0x40 MLOAD DUP1 SWAP2 SUB SWAP1 REVERT JUMPDEST PUSH0 PUSH0 DUP6 PUSH20 0xFFFFFFFFFFFFFFFFFFFFFFFFFFFFFFFFFFFFFFFF AND DUP5 DUP7 PUSH1 0x40 MLOAD PUSH2 0x199B SWAP2 SWAP1 PUSH2 0x22D2 JUMP JUMPDEST PUSH0 PUSH1 0x40 MLOAD DUP1 DUP4 SUB DUP2 DUP6 DUP8 GAS CALL SWAP3 POP POP POP RETURNDATASIZE DUP1 PUSH0 DUP2 EQ PUSH2 0x19D5 JUMPI PUSH1 0x40 MLOAD SWAP2 POP PUSH1 0x1F NOT PUSH1 0x3F RETURNDATASIZE ADD AND DUP3 ADD PUSH1 0x40 MSTORE RETURNDATASIZE DUP3 MSTORE RETURNDATASIZE PUSH0 PUSH1 0x20 DUP5 ADD RETURNDATACOPY PUSH2 0x19DA JUMP JUMPDEST PUSH1 0x60 SWAP2 POP JUMPDEST POP SWAP2 POP SWAP2 POP PUSH2 0x19EA DUP7 DUP4 DUP4 PUSH2 0x19F5 JUMP JUMPDEST SWAP3 POP POP POP SWAP4 SWAP3 POP POP POP JUMP JUMPDEST PUSH1 0x60 DUP3 PUSH2 0x1A0A JUMPI PUSH2 0x1A05 DUP3 PUSH2 0x1A82 JUMP JUMPDEST PUSH2 0x1A7A JUMP JUMPDEST PUSH0 DUP3 MLOAD EQ DUP1 ISZERO PUSH2 0x1A30 JUMPI POP PUSH0 DUP5 PUSH20 0xFFFFFFFFFFFFFFFFFFFFFFFFFFFFFFFFFFFFFFFF AND EXTCODESIZE EQ JUMPDEST ISZERO PUSH2 0x1A72 JUMPI DUP4 PUSH1 0x40 MLOAD PUSH32 0x9996B31500000000000000000000000000000000000000000000000000000000 DUP2 MSTORE PUSH1 0x4 ADD PUSH2 0x1A69 SWAP2 SWAP1 PUSH2 0x1D8E JUMP JUMPDEST PUSH1 0x40 MLOAD DUP1 SWAP2 SUB SWAP1 REVERT JUMPDEST DUP2 SWAP1 POP PUSH2 0x1A7B JUMP JUMPDEST JUMPDEST SWAP4 SWAP3 POP POP POP JUMP JUMPDEST PUSH0 DUP2 MLOAD GT ISZERO PUSH2 0x1A94 JUMPI DUP1 MLOAD DUP1 DUP3 PUSH1 0x20 ADD REVERT JUMPDEST PUSH1 0x40 MLOAD PUSH32 0x1425EA4200000000000000000000000000000000000000000000000000000000 DUP2 MSTORE PUSH1 0x4 ADD PUSH1 0x40 MLOAD DUP1 SWAP2 SUB SWAP1 REVERT JUMPDEST PUSH0 DUP2 SWAP1 POP SWAP2 SWAP1 POP JUMP JUMPDEST PUSH2 0x1AD8 DUP2 PUSH2 0x1AC6 JUMP JUMPDEST DUP3 MSTORE POP POP JUMP JUMPDEST PUSH0 PUSH1 0x20 DUP3 ADD SWAP1 POP PUSH2 0x1AF1 PUSH0 DUP4 ADD DUP5 PUSH2 0x1ACF JUMP JUMPDEST SWAP3 SWAP2 POP POP JUMP JUMPDEST PUSH0 DUP2 MLOAD SWAP1 POP SWAP2 SWAP1 POP JUMP JUMPDEST PUSH0 DUP3 DUP3 MSTORE PUSH1 0x20 DUP3 ADD SWAP1 POP SWAP3 SWAP2 POP POP JUMP JUMPDEST DUP3 DUP2 DUP4 MCOPY PUSH0 DUP4 DUP4 ADD MSTORE POP POP POP JUMP JUMPDEST PUSH0 PUSH1 0x1F NOT PUSH1 0x1F DUP4 ADD AND SWAP1 POP SWAP2 SWAP1 POP JUMP JUMPDEST PUSH0 PUSH2 0x1B39 DUP3 PUSH2 0x1AF7 JUMP JUMPDEST PUSH2 0x1B43 DUP2 DUP6 PUSH2 0x1B01 JUMP JUMPDEST SWAP4 POP PUSH2 0x1B53 DUP2 DUP6 PUSH1 0x20 DUP7 ADD PUSH2 0x1B11 JUMP JUMPDEST PUSH2 0x1B5C DUP2 PUSH2 0x1B1F JUMP JUMPDEST DUP5 ADD SWAP2 POP POP SWAP3 SWAP2 POP POP JUMP JUMPDEST PUSH0 PUSH1 0x20 DUP3 ADD SWAP1 POP DUP2 DUP2 SUB PUSH0 DUP4 ADD MSTORE PUSH2 0x1B7F DUP2 DUP5 PUSH2 0x1B2F JUMP JUMPDEST SWAP1 POP SWAP3 SWAP2 POP POP JUMP JUMPDEST PUSH0 PUSH0 REVERT JUMPDEST PUSH2 0x1B94 DUP2 PUSH2 0x1AC6 JUMP JUMPDEST DUP2 EQ PUSH2 0x1B9E JUMPI PUSH0 PUSH0 REVERT JUMPDEST POP JUMP JUMPDEST PUSH0 DUP2 CALLDATALOAD SWAP1 POP PUSH2 0x1BAF DUP2 PUSH2 0x1B8B JUMP JUMPDEST SWAP3 SWAP2 POP POP JUMP JUMPDEST PUSH0 PUSH1 0x20 DUP3 DUP5 SUB SLT ISZERO PUSH2 0x1BCA JUMPI PUSH2 0x1BC9 PUSH2 0x1B87 JUMP JUMPDEST JUMPDEST PUSH0 PUSH2 0x1BD7 DUP5 DUP3 DUP6 ADD PUSH2 0x1BA1 JUMP JUMPDEST SWAP2 POP POP SWAP3 SWAP2 POP POP JUMP JUMPDEST PUSH0 PUSH20 0xFFFFFFFFFFFFFFFFFFFFFFFFFFFFFFFFFFFFFFFF DUP3 AND SWAP1 POP SWAP2 SWAP1 POP JUMP JUMPDEST PUSH0 PUSH2 0x1C09 DUP3 PUSH2 0x1BE0 JUMP JUMPDEST SWAP1 POP SWAP2 SWAP1 POP JUMP JUMPDEST PUSH2 0x1C19 DUP2 PUSH2 0x1BFF JUMP JUMPDEST DUP2 EQ PUSH2 0x1C23 JUMPI PUSH0 PUSH0 REVERT JUMPDEST POP JUMP JUMPDEST PUSH0 DUP2 CALLDATALOAD SWAP1 POP PUSH2 0x1C34 DUP2 PUSH2 0x1C10 JUMP JUMPDEST SWAP3 SWAP2 POP POP JUMP JUMPDEST PUSH0 PUSH0 PUSH1 0x40 DUP4 DUP6 SUB SLT ISZERO PUSH2 0x1C50 JUMPI PUSH2 0x1C4F PUSH2 0x1B87 JUMP JUMPDEST JUMPDEST PUSH0 PUSH2 0x1C5D DUP6 DUP3 DUP7 ADD PUSH2 0x1C26 JUMP JUMPDEST SWAP3 POP POP PUSH1 0x20 PUSH2 0x1C6E DUP6 DUP3 DUP7 ADD PUSH2 0x1BA1 JUMP JUMPDEST SWAP2 POP POP SWAP3 POP SWAP3 SWAP1 POP JUMP JUMPDEST PUSH0 DUP2 ISZERO ISZERO SWAP1 POP SWAP2 SWAP1 POP JUMP JUMPDEST PUSH2 0x1C8C DUP2 PUSH2 0x1C78 JUMP JUMPDEST DUP3 MSTORE POP POP JUMP JUMPDEST PUSH0 PUSH1 0x20 DUP3 ADD SWAP1 POP PUSH2 0x1CA5 PUSH0 DUP4 ADD DUP5 PUSH2 0x1C83 JUMP JUMPDEST SWAP3 SWAP2 POP POP JUMP JUMPDEST PUSH0 PUSH0 PUSH0 PUSH1 0x60 DUP5 DUP7 SUB SLT ISZERO PUSH2 0x1CC2 JUMPI PUSH2 0x1CC1 PUSH2 0x1B87 JUMP JUMPDEST JUMPDEST PUSH0 PUSH2 0x1CCF DUP7 DUP3 DUP8 ADD PUSH2 0x1C26 JUMP JUMPDEST SWAP4 POP POP PUSH1 0x20 PUSH2 0x1CE0 DUP7 DUP3 DUP8 ADD PUSH2 0x1C26 JUMP JUMPDEST SWAP3 POP POP PUSH1 0x40 PUSH2 0x1CF1 DUP7 DUP3 DUP8 ADD PUSH2 0x1BA1 JUMP JUMPDEST SWAP2 POP POP SWAP3 POP SWAP3 POP SWAP3 JUMP JUMPDEST PUSH0 PUSH0 PUSH0 PUSH1 0x60 DUP5 DUP7 SUB SLT ISZERO PUSH2 0x1D12 JUMPI PUSH2 0x1D11 PUSH2 0x1B87 JUMP JUMPDEST JUMPDEST PUSH0 PUSH2 0x1D1F DUP7 DUP3 DUP8 ADD PUSH2 0x1BA1 JUMP JUMPDEST SWAP4 POP POP PUSH1 0x20 PUSH2 0x1D30 DUP7 DUP3 DUP8 ADD PUSH2 0x1C26 JUMP JUMPDEST SWAP3 POP POP PUSH1 0x40 PUSH2 0x1D41 DUP7 DUP3 DUP8 ADD PUSH2 0x1C26 JUMP JUMPDEST SWAP2 POP POP SWAP3 POP SWAP3 POP SWAP3 JUMP JUMPDEST PUSH0 PUSH1 0xFF DUP3 AND SWAP1 POP SWAP2 SWAP1 POP JUMP JUMPDEST PUSH2 0x1D60 DUP2 PUSH2 0x1D4B JUMP JUMPDEST DUP3 MSTORE POP POP JUMP JUMPDEST PUSH0 PUSH1 0x20 DUP3 ADD SWAP1 POP PUSH2 0x1D79 PUSH0 DUP4 ADD DUP5 PUSH2 0x1D57 JUMP JUMPDEST SWAP3 SWAP2 POP POP JUMP JUMPDEST PUSH2 0x1D88 DUP2 PUSH2 0x1BFF JUMP JUMPDEST DUP3 MSTORE POP POP JUMP JUMPDEST PUSH0 PUSH1 0x20 DUP3 ADD SWAP1 POP PUSH2 0x1DA1 PUSH0 DUP4 ADD DUP5 PUSH2 0x1D7F JUMP JUMPDEST SWAP3 SWAP2 POP POP JUMP JUMPDEST PUSH0 PUSH1 0x20 DUP3 DUP5 SUB SLT ISZERO PUSH2 0x1DBC JUMPI PUSH2 0x1DBB PUSH2 0x1B87 JUMP JUMPDEST JUMPDEST PUSH0 PUSH2 0x1DC9 DUP5 DUP3 DUP6 ADD PUSH2 0x1C26 JUMP JUMPDEST SWAP2 POP POP SWAP3 SWAP2 POP POP JUMP JUMPDEST PUSH0 PUSH0 PUSH1 0x40 DUP4 DUP6 SUB SLT ISZERO PUSH2 0x1DE8 JUMPI PUSH2 0x1DE7 PUSH2 0x1B87 JUMP JUMPDEST JUMPDEST PUSH0 PUSH2 0x1DF5 DUP6 DUP3 DUP7 ADD PUSH2 0x1BA1 JUMP JUMPDEST SWAP3 POP POP PUSH1 0x20 PUSH2 0x1E06 DUP6 DUP3 DUP7 ADD PUSH2 0x1C26 JUMP JUMPDEST SWAP2 POP POP SWAP3 POP SWAP3 SWAP1 POP JUMP JUMPDEST PUSH0 PUSH0 PUSH1 0x40 DUP4 DUP6 SUB SLT ISZERO PUSH2 0x1E26 JUMPI PUSH2 0x1E25 PUSH2 0x1B87 JUMP JUMPDEST JUMPDEST PUSH0 PUSH2 0x1E33 DUP6 DUP3 DUP7 ADD PUSH2 0x1C26 JUMP JUMPDEST SWAP3 POP POP PUSH1 0x20 PUSH2 0x1E44 DUP6 DUP3 DUP7 ADD PUSH2 0x1C26 JUMP JUMPDEST SWAP2 POP POP SWAP3 POP SWAP3 SWAP1 POP JUMP JUMPDEST PUSH0 DUP2 MLOAD SWAP1 POP PUSH2 0x1E5C DUP2 PUSH2 0x1B8B JUMP JUMPDEST SWAP3 SWAP2 POP POP JUMP JUMPDEST PUSH0 PUSH1 0x20 DUP3 DUP5 SUB SLT ISZERO PUSH2 0x1E77 JUMPI PUSH2 0x1E76 PUSH2 0x1B87 JUMP JUMPDEST JUMPDEST PUSH0 PUSH2 0x1E84 DUP5 DUP3 DUP6 ADD PUSH2 0x1E4E JUMP JUMPDEST SWAP2 POP POP SWAP3 SWAP2 POP POP JUMP JUMPDEST PUSH32 0x4E487B7100000000000000000000000000000000000000000000000000000000 PUSH0 MSTORE PUSH1 0x22 PUSH1 0x4 MSTORE PUSH1 0x24 PUSH0 REVERT JUMPDEST PUSH0 PUSH1 0x2 DUP3 DIV SWAP1 POP PUSH1 0x1 DUP3 AND DUP1 PUSH2 0x1ED1 JUMPI PUSH1 0x7F DUP3 AND SWAP2 POP JUMPDEST PUSH1 0x20 DUP3 LT DUP2 SUB PUSH2 0x1EE4 JUMPI PUSH2 0x1EE3 PUSH2 0x1E8D JUMP JUMPDEST JUMPDEST POP SWAP2 SWAP1 POP JUMP JUMPDEST PUSH32 0x4E487B7100000000000000000000000000000000000000000000000000000000 PUSH0 MSTORE PUSH1 0x11 PUSH1 0x4 MSTORE PUSH1 0x24 PUSH0 REVERT JUMPDEST PUSH0 PUSH2 0x1F21 DUP3 PUSH2 0x1D4B JUMP JUMPDEST SWAP2 POP PUSH2 0x1F2C DUP4 PUSH2 0x1D4B JUMP JUMPDEST SWAP3 POP DUP3 DUP3 ADD SWAP1 POP PUSH1 0xFF DUP2 GT ISZERO PUSH2 0x1F45 JUMPI PUSH2 0x1F44 PUSH2 0x1EEA JUMP JUMPDEST JUMPDEST SWAP3 SWAP2 POP POP JUMP JUMPDEST PUSH0 PUSH1 0x60 DUP3 ADD SWAP1 POP PUSH2 0x1F5E PUSH0 DUP4 ADD DUP7 PUSH2 0x1D7F JUMP JUMPDEST PUSH2 0x1F6B PUSH1 0x20 DUP4 ADD DUP6 PUSH2 0x1ACF JUMP JUMPDEST PUSH2 0x1F78 PUSH1 0x40 DUP4 ADD DUP5 PUSH2 0x1ACF JUMP JUMPDEST SWAP5 SWAP4 POP POP POP POP JUMP JUMPDEST PUSH0 PUSH2 0x1F8A DUP3 PUSH2 0x1AC6 JUMP JUMPDEST SWAP2 POP PUSH2 0x1F95 DUP4 PUSH2 0x1AC6 JUMP JUMPDEST SWAP3 POP DUP3 DUP3 ADD SWAP1 POP DUP1 DUP3 GT ISZERO PUSH2 0x1FAD JUMPI PUSH2 0x1FAC PUSH2 0x1EEA JUMP JUMPDEST JUMPDEST SWAP3 SWAP2 POP POP JUMP JUMPDEST PUSH0 DUP2 PUSH1 0x1 SHR SWAP1 POP SWAP2 SWAP1 POP JUMP JUMPDEST PUSH0 PUSH0 DUP3 SWAP2 POP DUP4 SWAP1 POP JUMPDEST PUSH1 0x1 DUP6 GT ISZERO PUSH2 0x2008 JUMPI DUP1 DUP7 DIV DUP2 GT ISZERO PUSH2 0x1FE4 JUMPI PUSH2 0x1FE3 PUSH2 0x1EEA JUMP JUMPDEST JUMPDEST PUSH1 0x1 DUP6 AND ISZERO PUSH2 0x1FF3 JUMPI DUP1 DUP3 MUL SWAP2 POP JUMPDEST DUP1 DUP2 MUL SWAP1 POP PUSH2 0x2001 DUP6 PUSH2 0x1FB3 JUMP JUMPDEST SWAP5 POP PUSH2 0x1FC8 JUMP JUMPDEST SWAP5 POP SWAP5 SWAP3 POP POP POP JUMP JUMPDEST PUSH0 DUP3 PUSH2 0x2020 JUMPI PUSH1 0x1 SWAP1 POP PUSH2 0x20DB JUMP JUMPDEST DUP2 PUSH2 0x202D JUMPI PUSH0 SWAP1 POP PUSH2 0x20DB JUMP JUMPDEST DUP2 PUSH1 0x1 DUP2 EQ PUSH2 0x2043 JUMPI PUSH1 0x2 DUP2 EQ PUSH2 0x204D JUMPI PUSH2 0x207C JUMP JUMPDEST PUSH1 0x1 SWAP2 POP POP PUSH2 0x20DB JUMP JUMPDEST PUSH1 0xFF DUP5 GT ISZERO PUSH2 0x205F JUMPI PUSH2 0x205E PUSH2 0x1EEA JUMP JUMPDEST JUMPDEST DUP4 PUSH1 0x2 EXP SWAP2 POP DUP5 DUP3 GT ISZERO PUSH2 0x2076 JUMPI PUSH2 0x2075 PUSH2 0x1EEA JUMP JUMPDEST JUMPDEST POP PUSH2 0x20DB JUMP JUMPDEST POP PUSH1 0x20 DUP4 LT PUSH2 0x133 DUP4 LT AND PUSH1 0x4E DUP5 LT PUSH1 0xB DUP5 LT AND OR ISZERO PUSH2 0x20B1 JUMPI DUP3 DUP3 EXP SWAP1 POP DUP4 DUP2 GT ISZERO PUSH2 0x20AC JUMPI PUSH2 0x20AB PUSH2 0x1EEA JUMP JUMPDEST JUMPDEST PUSH2 0x20DB JUMP JUMPDEST PUSH2 0x20BE DUP5 DUP5 DUP5 PUSH1 0x1 PUSH2 0x1FBF JUMP JUMPDEST SWAP3 POP SWAP1 POP DUP2 DUP5 DIV DUP2 GT ISZERO PUSH2 0x20D5 JUMPI PUSH2 0x20D4 PUSH2 0x1EEA JUMP JUMPDEST JUMPDEST DUP2 DUP2 MUL SWAP1 POP JUMPDEST SWAP4 SWAP3 POP POP POP JUMP JUMPDEST PUSH0 PUSH2 0x20EC DUP3 PUSH2 0x1AC6 JUMP JUMPDEST SWAP2 POP PUSH2 0x20F7 DUP4 PUSH2 0x1D4B JUMP JUMPDEST SWAP3 POP PUSH2 0x2124 PUSH32 0xFFFFFFFFFFFFFFFFFFFFFFFFFFFFFFFFFFFFFFFFFFFFFFFFFFFFFFFFFFFFFFFF DUP5 DUP5 PUSH2 0x2011 JUMP JUMPDEST SWAP1 POP SWAP3 SWAP2 POP POP JUMP JUMPDEST PUSH0 PUSH1 0x40 DUP3 ADD SWAP1 POP PUSH2 0x213F PUSH0 DUP4 ADD DUP6 PUSH2 0x1ACF JUMP JUMPDEST PUSH2 0x214C PUSH1 0x20 DUP4 ADD DUP5 PUSH2 0x1ACF JUMP JUMPDEST SWAP4 SWAP3 POP POP POP JUMP JUMPDEST PUSH32 0x4E487B7100000000000000000000000000000000000000000000000000000000 PUSH0 MSTORE PUSH1 0x12 PUSH1 0x4 MSTORE PUSH1 0x24 PUSH0 REVERT JUMPDEST PUSH0 PUSH1 0x60 DUP3 ADD SWAP1 POP PUSH2 0x2193 PUSH0 DUP4 ADD DUP7 PUSH2 0x1D7F JUMP JUMPDEST PUSH2 0x21A0 PUSH1 0x20 DUP4 ADD DUP6 PUSH2 0x1D7F JUMP JUMPDEST PUSH2 0x21AD PUSH1 0x40 DUP4 ADD DUP5 PUSH2 0x1ACF JUMP JUMPDEST SWAP5 SWAP4 POP POP POP POP JUMP JUMPDEST PUSH0 PUSH1 0x40 DUP3 ADD SWAP1 POP PUSH2 0x21C8 PUSH0 DUP4 ADD DUP6 PUSH2 0x1D7F JUMP JUMPDEST PUSH2 0x21D5 PUSH1 0x20 DUP4 ADD DUP5 PUSH2 0x1ACF JUMP JUMPDEST SWAP4 SWAP3 POP POP POP JUMP JUMPDEST PUSH32 0x4E487B7100000000000000000000000000000000000000000000000000000000 PUSH0 MSTORE PUSH1 0x21 PUSH1 0x4 MSTORE PUSH1 0x24 PUSH0 REVERT JUMPDEST PUSH0 PUSH2 0x2213 DUP3 PUSH2 0x1D4B JUMP JUMPDEST SWAP2 POP PUSH2 0x221E DUP4 PUSH2 0x1D4B JUMP JUMPDEST SWAP3 POP DUP3 PUSH2 0x222E JUMPI PUSH2 0x222D PUSH2 0x2153 JUMP JUMPDEST JUMPDEST DUP3 DUP3 MOD SWAP1 POP SWAP3 SWAP2 POP POP JUMP JUMPDEST PUSH2 0x2242 DUP2 PUSH2 0x1C78 JUMP JUMPDEST DUP2 EQ PUSH2 0x224C JUMPI PUSH0 PUSH0 REVERT JUMPDEST POP JUMP JUMPDEST PUSH0 DUP2 MLOAD SWAP1 POP PUSH2 0x225D DUP2 PUSH2 0x2239 JUMP JUMPDEST SWAP3 SWAP2 POP POP JUMP JUMPDEST PUSH0 PUSH1 0x20 DUP3 DUP5 SUB SLT ISZERO PUSH2 0x2278 JUMPI PUSH2 0x2277 PUSH2 0x1B87 JUMP JUMPDEST JUMPDEST PUSH0 PUSH2 0x2285 DUP5 DUP3 DUP6 ADD PUSH2 0x224F JUMP JUMPDEST SWAP2 POP POP SWAP3 SWAP2 POP POP JUMP JUMPDEST PUSH0 DUP2 MLOAD SWAP1 POP SWAP2 SWAP1 POP JUMP JUMPDEST PUSH0 DUP2 SWAP1 POP SWAP3 SWAP2 POP POP JUMP JUMPDEST PUSH0 PUSH2 0x22AC DUP3 PUSH2 0x228E JUMP JUMPDEST PUSH2 0x22B6 DUP2 DUP6 PUSH2 0x2298 JUMP JUMPDEST SWAP4 POP PUSH2 0x22C6 DUP2 DUP6 PUSH1 0x20 DUP7 ADD PUSH2 0x1B11 JUMP JUMPDEST DUP1 DUP5 ADD SWAP2 POP POP SWAP3 SWAP2 POP POP JUMP JUMPDEST PUSH0 PUSH2 0x22DD DUP3 DUP5 PUSH2 0x22A2 JUMP JUMPDEST SWAP2 POP DUP2 SWAP1 POP SWAP3 SWAP2 POP POP JUMP INVALID LOG2 PUSH5 0x6970667358 0x22 SLT KECCAK256 PUSH1 0x15 GASPRICE 0x22 0xF9 DUP10 0xCE 0xAE 0xCD RETURNDATACOPY 0xC7 PUSH22 0xA90ACC93DB3BEDB47D12056D5591C3CBED4EFEFA6473 PUSH16 0x6C634300081B00330000000000000000 "
				},
				"gasEstimates": {
					"creation": {
						"codeDepositCost": "1798000",
						"executionCost": "infinite",
						"totalCost": "infinite"
					},
					"external": {
						"allowance(address,address)": "infinite",
						"approve(address,uint256)": "infinite",
						"asset()": "infinite",
						"balanceOf(address)": "2874",
						"convertToAssets(uint256)": "infinite",
						"convertToShares(uint256)": "infinite",
						"decimals()": "infinite",
						"deposit(uint256,address)": "infinite",
						"maxDeposit(address)": "686",
						"maxMint(address)": "708",
						"maxRedeem(address)": "2936",
						"maxWithdraw(address)": "infinite",
						"mint(uint256,address)": "infinite",
						"name()": "infinite",
						"previewDeposit(uint256)": "infinite",
						"previewMint(uint256)": "infinite",
						"previewRedeem(uint256)": "infinite",
						"previewWithdraw(uint256)": "infinite",
						"redeem(uint256,address,address)": "infinite",
						"symbol()": "infinite",
						"totalAssets()": "infinite",
						"totalSupply()": "2522",
						"transfer(address,uint256)": "infinite",
						"transferFrom(address,address,uint256)": "infinite",
						"vaultDeposit(uint256,address)": "infinite",
						"vaultRedeem(uint256,address,address)": "infinite",
						"vaultWithdraw(uint256,address,address)": "infinite",
						"withdraw(uint256,address,address)": "infinite"
					}
				},
				"methodIdentifiers": {
					"allowance(address,address)": "dd62ed3e",
					"approve(address,uint256)": "095ea7b3",
					"asset()": "38d52e0f",
					"balanceOf(address)": "70a08231",
					"convertToAssets(uint256)": "07a2d13a",
					"convertToShares(uint256)": "c6e6f592",
					"decimals()": "313ce567",
					"deposit(uint256,address)": "6e553f65",
					"maxDeposit(address)": "402d267d",
					"maxMint(address)": "c63d75b6",
					"maxRedeem(address)": "d905777e",
					"maxWithdraw(address)": "ce96cb77",
					"mint(uint256,address)": "94bf804d",
					"name()": "06fdde03",
					"previewDeposit(uint256)": "ef8b30f7",
					"previewMint(uint256)": "b3d7f6b9",
					"previewRedeem(uint256)": "4cdad506",
					"previewWithdraw(uint256)": "0a28a477",
					"redeem(uint256,address,address)": "ba087652",
					"symbol()": "95d89b41",
					"totalAssets()": "01e1d114",
					"totalSupply()": "18160ddd",
					"transfer(address,uint256)": "a9059cbb",
					"transferFrom(address,address,uint256)": "23b872dd",
					"vaultDeposit(uint256,address)": "48835594",
					"vaultRedeem(uint256,address,address)": "307a5ef4",
					"vaultWithdraw(uint256,address,address)": "934160a1",
					"withdraw(uint256,address,address)": "b460af94"
				}
			},
			"storageLayout": {
				"storage": [
					{
						"astId": 329,
						"contract": "contracts/DimSumVault.sol:DimSumVault",
						"label": "_balances",
						"offset": 0,
						"slot": "0",
						"type": "t_mapping(t_address,t_uint256)"
					},
					{
						"astId": 335,
						"contract": "contracts/DimSumVault.sol:DimSumVault",
						"label": "_allowances",
						"offset": 0,
						"slot": "1",
						"type": "t_mapping(t_address,t_mapping(t_address,t_uint256))"
					},
					{
						"astId": 337,
						"contract": "contracts/DimSumVault.sol:DimSumVault",
						"label": "_totalSupply",
						"offset": 0,
						"slot": "2",
						"type": "t_uint256"
					},
					{
						"astId": 339,
						"contract": "contracts/DimSumVault.sol:DimSumVault",
						"label": "_name",
						"offset": 0,
						"slot": "3",
						"type": "t_string_storage"
					},
					{
						"astId": 341,
						"contract": "contracts/DimSumVault.sol:DimSumVault",
						"label": "_symbol",
						"offset": 0,
						"slot": "4",
						"type": "t_string_storage"
					}
				],
				"types": {
					"t_address": {
						"encoding": "inplace",
						"label": "address",
						"numberOfBytes": "20"
					},
					"t_mapping(t_address,t_mapping(t_address,t_uint256))": {
						"encoding": "mapping",
						"key": "t_address",
						"label": "mapping(address => mapping(address => uint256))",
						"numberOfBytes": "32",
						"value": "t_mapping(t_address,t_uint256)"
					},
					"t_mapping(t_address,t_uint256)": {
						"encoding": "mapping",
						"key": "t_address",
						"label": "mapping(address => uint256)",
						"numberOfBytes": "32",
						"value": "t_uint256"
					},
					"t_string_storage": {
						"encoding": "bytes",
						"label": "string",
						"numberOfBytes": "32"
					},
					"t_uint256": {
						"encoding": "inplace",
						"label": "uint256",
						"numberOfBytes": "32"
					}
				}
			},
			"userdoc": {
				"kind": "user",
				"methods": {},
				"version": 1
			}
		}
	}
}